:020000040800F2
:10000000A8120020A1010008072E0008692400089A
:10001000052E0008D9020008A539000800000000DC
:10002000000000000000000000000000A5300008F3
:100030006D04000800000000512F00085332000832
:10004000BB010008BB010008BB010008BB010008A0
:10005000BB010008BB010008BB010008BB01000890
:10006000BB010008BB010008BB010008BB01000880
:10007000BB010008BB010008BB010008BB01000870
:10008000BB010008BB010008BB010008BB01000860
:10009000BB010008BB010008BB010008BB01000850
:1000A000BB010008BB010008BB010008BB01000840
:1000B000BB010008BB010008BB010008BB01000830
:1000C000BB010008BB010008BB010008BB01000820
:1000D000BB01000899390008BB010008BB010008FA
:1000E000BB010008BB010008BB010008BB01000800
:1000F000BB010008BB010008BB010008BB010008F0
:10010000BB010008BB010008BB010008BB010008DF
:10011000BB010008BB010008BB010008BB010008CF
:10012000BB010008BB010008BB010008BB010008BF
:10013000BB010008BB010008BB010008BB010008AF
:10014000BB010008BB010008BB010008BB0100089F
:10015000BB010008BB010008BB010008BB0100088F
:10016000BB010008BB010008BB010008BB0100087F
:10017000BB010008BB010008BB0100080000000033
:10018000BB010008BB010008DFF810D000F092F8B6
:10019000004800471D3D0008AFF30080A812002072
:1001A0000648804706480047FEE7FEE7FEE7FEE711
:1001B000FEE7FEE7FEE7FEE7FEE7FEE7F1320008B6
:1001C000890100082DE9F05F0546002092469B4614
:1001D00088460646814640241BE02846414647465D
:1001E000224600F056F853465A46C01A914110D3A1
:1001F00011461846224600F03DF82D1A67EB01081B
:100200004F4622460120002100F034F817EB000988
:100210004E41201EA4F10104DFDC484631462A4647
:100220004346BDE8F09FD2B201E000F8012B491E21
:10023000FBD270470022F6E710B513460A46044683
:100240001946FFF7F0FF204610BD421C10F8011BB5
:100250000029FBD1801A704710B5002200E0521C23
:10026000835C8C5CA34201D1002BF8D1D8B2E1B2FF
:10027000401A10BD202A04DB203A00FA02F10020C7
:1002800070479140C2F1200320FA03F319439040D4
:100290007047202A04DB203A21FA02F0002170473F
:1002A00021FA02F3D040C2F12002914008431946DE
:1002B00070470000064C074D06E0E06840F001037F
:1002C00094E8070098471034AC42F6D3FFF760FF7C
:1002D00020B9020840B90208FEE70000F8B54EF662
:1002E0007D7002F0C3F835A31F221021182000F002
:1002F0002BFA364C4FF47845009560880521401F55
:1003000083B22088401F82B2084602F0F3F94FF60C
:10031000E076009660881421143883B2208814385F
:1003200082B2084602F0E6F91F2000906088322170
:10033000323883B22088323882B2084602F0DAF9C5
:100340004FF61F00009060886421503883B22088E7
:10035000503882B2502002F0CDF94FF47A7000F09C
:10036000F9FE4FF6FF7002F081F800F01DFA4FF42D
:10037000FA74204600F0EEFE002002F077F82046E6
:1003800000F0E8FE284602F071F8204600F0E2FE98
:10039000304602F06BF8204600F0DCFE4FF4FC60C3
:1003A00002F064F8204600F0D5FE1F2002F05EF84F
:1003B0002046BDE8F84000F0CDBE0000313A20D123
:1003C000D5C9ABCCEEB3E4B2E2CAD40060000020E1
:1003D0002DE9F0430D4D1F46164688468146002400
:1003E00004EB041015F81010B14209D105EB4001DF
:1003F0004878B84204D142464846891C00F02AF8A1
:10040000641CA4B2382CEBD3BDE8F0830856000876
:100410002DE9F0430E4D1F461646884681460024BE
:1004200004EB840000EB441015F81010B14209D120
:1004300005EB40014878B84204D142464846891C41
:1004400000F008F8641CA4B2092CE9D3BDE8F083DD
:10045000DE5D000810B5002305E000BF11F8014B78
:1004600000F8014B5B1C9342F8D310BD70470000AD
:1004700010B54EF67D7001F0F9FF4FF61F0426A36C
:1004800022460421102000F077F928A322462021DB
:10049000302000F071F95823E0224021102000F0B4
:1004A0007DF825A31F224421302000F04DF9802340
:1004B000E0226821102000F071F823A31F226C2194
:1004C000302000F041F9A823E0229021102000F014
:1004D00065F821A31F229421302000F035F94FF454
:1004E000784421A32246B421102000F02DF924A342
:1004F0002246C421102000F027F94FF4FA6000F0E2
:1005000029FEFFF7EBFE00F065FA00F03DFBBDE8C9
:10051000104002F013BE000044657645426F782D0E
:10052000B4F3D4BDB4B4D0C200000000D2BABEA7A8
:10053000C6C1B2E2CAD40000313A20D1D5C9ABCC91
:10054000EEB3E4B2E2CAD400323A20CEC4D7D6CF5A
:10055000D4CABEB2E2CAD400333A20CDBCC6ACCFB6
:10056000D4CABEB2E2CAD400463A206D637564654F
:10057000762E74616F62616F2E636F6D00000000F4
:10058000463A2073686F703338393935373239302D
:100590002E74616F62616F2E636F6D002DE9F843F9
:1005A0001C464FF6FF78074615460E460B46CDF81B
:1005B000008001F0B1FF3A46234631461046CDF89F
:1005C000008001F0A9FF601E83B281B248F210489A
:1005D000781C80B22A46CDF8008001F09DFF44F2DD
:1005E000082923462A4619463846CDF8009001F0DE
:1005F00093FF681E82B2711C89B280B22346CDF887
:10060000008001F089FF2A46234631461046CDF886
:10061000009001F081FFBDE8F8830000F0B50C4DBB
:100620000C4F85B02C886D883F884FF0300CCDE999
:10063000003CCDE90227241A6D1AA4B2ADB20026FF
:1006400004962B46224600F06FFC05B0F0BD00007A
:100650006000002002000020F0B50C4D0C4F85B06A
:100660002C886D883F884FF0400CCDE9003CCDE9E7
:100670000227241A6D1AA4B2ADB2002604962B46A6
:10068000224600F051FC05B0F0BD000060000020E3
:1006900002000020F0B50C4D0C4F85B02C886D8801
:1006A0003F884FF00C0CCDE9003CCDE90227241A1D
:1006B0006D1AA4B2ADB2002604962B46224600F075
:1006C00033FC05B0F0BD00006000002002000020F7
:1006D000F0B50C4D0C4F85B02C886D883F884FF0DD
:1006E000100CCDE9003CCDE90227241A6D1AA4B202
:1006F000ADB2002604962B46224600F015FC05B04C
:10070000F0BD00006000002002000020F0B50C4D9C
:100710000C4F85B02C886D883F884FF0200CCDE9B8
:10072000003CCDE90227241A6D1AA4B2ADB200260E
:1007300004962B46224600F0F7FB05B0F0BD000002
:1007400060000020020000202DE9FF41094D002635
:1007500010272C886D88CDE90037CDE90226241AB0
:100760006D1AA4B2ADB22B46224602F025FDBDE8BB
:10077000FF810000600000202DE9FF41094D0026A7
:1007800018272C886D88CDE90037CDE90226241A78
:100790006D1AA4B2ADB22B46224602F00DFDBDE8A3
:1007A000FF8100006000002038B54FF6FF7001F0B7
:1007B0005DFE4FF478448023DC2240211420009415
:1007C00001F0AAFE4023DC2280211420009401F0D5
:1007D000A3FE1F2000908023DC224021142001F082
:1007E000E9FE4FF61F04234651226021782001F0D4
:1007F00003FF234650226021782001F0FDFE2346AE
:100800004F226021782001F0F7FEBDE838404FF418
:100810007A7000F09FBC72B6FEE7000030B5B3F509
:10082000804F05D06FF0704140F82210002030BD9D
:100830008C690B688D6823434C688989240144EADC
:100840000524234343EA014150F82230014C234060
:100850001943E9E70000F0CF10B50A6850F82230DC
:1008600023F0010340F822308C68082C23D00023A9
:100870004A682243CC681C430B6922431A434B69E4
:100880000E4C1A43CB691A430B6A1A434B6A1A433C
:100890008B6A1A43CB6A1A430B6B1A438B69134357
:1008A000CA6B09681A4350F82130A343134340F838
:1008B0002130002010BD4023DAE700007FFF0F0049
:1008C00030B5D1E9003443EA04138C688D892402E1
:1008D00044EA054423430C8A094D00EB820005EBF2
:1008E000045423430C7D6D0105EB046489692343A3
:1008F0000B43416801F040410B434360002030BD91
:100900000000F0FF2DE9F04115460122DFF8588084
:100910000C46064657033946404600F086FD052042
:1009200000F088FB032000F021F8C4F3074000F03A
:100930001DF8C4F3072000F019F8E0B200F016F833
:10094000002405E0FF2000F011F83055641CA4B22B
:10095000AC42F7D300223946404600F066FDBDE8C0
:10096000F041052000F066BB000802402DE9F04789
:10097000DFF85890164E054600244FF4006828060C
:1009800001D5012200E000224146484600F04DFD1D
:1009900000220121304600F048FD6806070E0421C0
:1009A000304600F035FD40EA070501221146304689
:1009B00000F03BFD641CE4B2082CE0D30122114698
:1009C000304600F032FD2846BDE8F08700140240B2
:1009D0000004024070B54EF67D74204601F046FDDD
:1009E00027A31F2210211820FFF7AEFE4FF47A70C4
:1009F00000F0B0FB204601F039FD25A300220421C0
:100A00001020FFF7B9FE27A3002220213020FFF796
:100A1000B3FE27A3002250211820FFF795FE28A33C
:100A20004FF4FC6260211820FFF78EFE27A31F22DF
:100A300070211820FFF788FE4FF4784527A32A4637
:100A400080211820FFF780FE28A31F22902110206C
:100A5000FFF77AFE2BA31F22A0211020FFF774FEC0
:100A60002F4B2A46B0211020FFF76EFE40F6B8301B
:100A700000F070FB2046BDE8704001F0F7BC0000BC
:100A8000323A20CEC4D7D6CFD4CABEB2E2CAD4003E
:100A900044657645426F782DB4F3D4BDB4B4D0C26A
:100AA00000000000D2BABEA7C6C1B2E2CAD400009C
:100AB000C7B6C8EBCABDBFAAB7A2CDF800000000F8
:100AC000D6D0CEC4B2E2CAD400000000D7A8D7A2C4
:100AD000D2BABEA7C5FAB7A200000000C8ABB3CC1B
:100AE000BCBCCAF5D6A7B3D600000000463A206DBC
:100AF00063756465762E74616F62616F2E636F6DCE
:100B000000000000463A2073686F70333839393579
:100B1000373239302E74616F62616F2E636F6D00F2
:100B2000DCB8020830B40C460178202A1BD00ADC5D
:100B30000C2A0ED0102A14D0182A18D10D4800BF44
:100B400001FB030108E0302A0FD0402A0FD10A48E8
:100B5000F6E7594301F50021204630BC1A46FFF75D
:100B6000D1BE0648ECE70648EAE70648E8E730BCAD
:100B700070470000001208000092080000080800FA
:100B80000026080000480800F0B54FF6FF7485B055
:100B9000204601F06BFC42A31F2210211820FFF712
:100BA00097FD4FF47A7000F0D5FA204601F05EFC14
:100BB0001F252020CDE901053FA000260090CDE9AA
:100BC00003462023F0223146182000F0ADF910270B
:100BD0003DA0CDE90007CDE902543B46F022282193
:100BE0000496384600F0A0F93BA0CDE90007CDE916
:100BF00002541023F02238210496184600F094F98C
:100C00003BA31F2248211020FFF744FD3DA0009583
:100C1000CDE90140C8230C226021102000F0D4F956
:100C20000C20CDE901053EA00090CDE903460C2340
:100C3000F0227821102000F077F93EA0CDE90007DE
:100C4000CDE902541023F02288210496184600F0C2
:100C50006BF91820CDE901053AA00090CDE90346D3
:100C60001823F0229C21102000F05EF938A31F22E7
:100C7000B8211020FFF74AFD38A31F22DC211020E5
:100C8000FFF7CCFC36A31F22DC217820FFF7E4FC21
:100C900005B040F6B830BDE8F04000F05BBA0000A7
:100CA000323A2047424BD7D6BFE22D2DCFD4CABE11
:100CB000B2E2CAD400000000CAAED6D6D7D6BFE290
:100CC000B2E2CAD400000000C9E8BCC6A3BAB4F3BB
:100CD000D4BDB5E7D7D3000046726F6D3A206D637F
:100CE000756465762E74616F62616F2E636F6D003F
:100CF000446174653A20323031392F30352F303825
:100D000000000000BED3D6D0CFD4CABEBAAFCAFD51
:100D10003A20323031392F30352F30380000000082
:100D2000BABAD7D631327831322D47424BD7D6BFF7
:100D3000E2A3BA00BABAD7D63136783136D7D6BFA1
:100D4000E2A3BA003234783234D7D6BFE2A3BA0075
:100D50003332783332D7D6BFE2A3BA00343800003A
:100D60003634000030B40C460146007849788128BA
:100D700009D3402907D3FF2905D0FF2803D07F29B5
:100D80000CD240390BE00020014603E0401C04F87F
:100D9000011B80B29842F9D330BC70474139813889
:100DA000C0B2C0EB4015C9B205EB801001EB4001A9
:100DB00059430C2A0CD0102A0CD0182A0DD0202A06
:100DC000EAD101F56011204630BC1A46FFF79ABD02
:100DD000034800E003480144F5E701F5ED11F2E7AF
:100DE0000014090000DD11002DE9FF4FC1B01C46C1
:100DF000DDF840B116460D468946580700D001205F
:100E000000EBD400610810FB01F18A460C2C09D0DC
:100E1000102C07D0182C05D0202C03D0302C01D05A
:100E2000402C30D10B46224669463046FFF77AFE09
:100E3000002626E01DF806704FF00008380601D5A0
:100E40004E9A03E0BBF1000F04D14F9A2946419816
:100E500001F034FC78066D1C070EADB2A5EB09005D
:100E6000A04205D141984D46401C80B2419006E019
:100E700008F101001FFA80F8B8F1080FDED3761CE4
:100E8000B6B25645D6D345B0BDE8F08F2DE9FF4F39
:100E9000A1B01C46DDF8C0B016460D46894658077D
:100EA00000D0012000EBD40010FB04F18A460C2C8A
:100EB00005D0102C03D0182C01D0202C31D10B469A
:100EC000224669463046FFF74DFF002627E000BF67
:100ED0001DF806704FF00008380601D52E9A03E081
:100EE000BBF1000F04D12F9A2946219801F0E6FBAF
:100EF00078066D1C070EADB2A5EB0900A04205D126
:100F000021984D46401C80B2219006E008F1010076
:100F100000F0FF08B8F1080FDED3761CF6B2564594
:100F2000D6D325B0BDE8F08F2DE9FE4F0446DDE9AC
:100F30000C6780463078DDF840B00D46002820D0A0
:100F4000E81808EB020AA0EB0709307880281AD9C4
:100F5000AAEB0700A04202DAE81985B24446A94587
:100F60000FDBDDE90E028DE805083B4632462946D7
:100F70002046FFF78BFFE01984B216F8020F002815
:100F8000E3D1BDE8FE8FAAEB5701A14202DAE919CD
:100F90008DB24446A945F4DB0D280FD0DDE90E12D1
:100FA0008DE806083B46324629462046FFF71CFFDF
:100FB00004EB570084B216F8010FE0E7E81985B298
:100FC0004446761CF4E700002DE9F04786B08146E0
:100FD000DDE90F751E4614468A462846DDF838803E
:100FE000FFF733F96108414389B201221048B14249
:100FF0000AD9CDF80880CDE90372CDE900544388C1
:101000000288514648460EE0CDF80880CDE90372CB
:10101000CDE90054711A01EBD1714388028809EBC4
:10102000510080B25146FFF77FFF06B0BDE8F08760
:1010300060000020002206E00021491CC9B264299A
:10104000FBD3521CD2B28242F6D3704770B415461D
:101050001E46027843780C46812A10D3402B0ED3CB
:10106000FF2B0CD0FF2A0AD00C2E11D0102E11D03D
:10107000182E0DD12946204670BCFFF7C9B90020B3
:10108000014603E0401C04F8011BC0B2A842F9D39A
:1010900070BC70472946204670BCFFF799B92DE90E
:1010A000F0410446876D00F0C5F9064694F8350016
:1010B0000025022806D08020606584F83450012085
:1010C000BDE8F0812068016821F016010160206808
:1010D000416921F080014161206C08B9A06C20B108
:1010E0002068016821F0080101602068016821F092
:1010F000010101600CE000F09DF9801B052807D973
:1011000020206065032084F8350084F83450D7E748
:1011100020680068C007EED194F85C103F2088403A
:10112000B860012084F8350084F834500020C7E707
:1011300090F83510022903D08021416501207047C5
:10114000052180F835100068016821F00101016077
:101150000020704770B5044600F06CF90546601C2D
:1011600002D004480078044400F064F9401BA04217
:10117000FAD370BD4C0000202DE9F04186B0142157
:101180006846FFF757F820480168002939D1012146
:1011900001601E480024016841F0010101600068FF
:1011A0004FF4805800F001000C27CDF80080CDE905
:1011B0000470032602250396CDE9015469461448BC
:1011C00000F02EF84FF68070CDE9000502AA6946BE
:1011D00082E8D0000F4800F023F84CF23370CDE9DC
:1011E000000502AA694682E8D0000B4800F018F812
:1011F00002AA694682E8D000CDE90085074800F0E0
:101200000FF806B0BDE8F0814000002038380240F9
:101210000014024000100240000C0240001802407E
:101220002DE9F84FDFF8BCA10022012503264FF07D
:101230000F090AF1040BAAF1040E00BF0B6805FAAE
:1012400002F42340A34270D10F7907F00307012F66
:1012500001D0022F16D187684FEA420806FA08FC2F
:1012600027EA0C07D1F80CC00CFA08FC4CEA070C72
:10127000C0F808C04768A7430C79C4F30014944031
:101280003C4344600C79E443A4070AD0C4684FEAA5
:10129000420C06FA0CF7BC438F6807FA0CF7274399
:1012A000C7600C7904F00304022C12D1D40800EBBF
:1012B000840CDCF820405707FF0E09FA07F824EAEF
:1012C0000804D1F8108008FA07F848EA0408CCF8B6
:1012D000208004684FEA420C06FA0CF7BC430F79F1
:1012E00007F0030707FA0CF7274307604C6814F46C
:1012F000403F70D03C4C276847F480472760246803
:1013000022F0030704F480440094384C07EB040CEB
:10131000DCF8084897074FEA177809FA08F7BC4342
:10132000334FB84202D1002724E054E0314FB84295
:1013300001D101271EE0304FB84201D1022719E048
:101340002E4FB84201D1032714E02D4FB84201D1EE
:1013500004270FE02B4FB84201D105270AE02A4F9E
:10136000B84201D1062705E0284FB84201D107272E
:1013700000E0082707FA08F72743CCF80878DAF8DE
:1013800000405746D1F804C09C435FEACC2C00D5FE
:101390001C433C60DBF800405F46D1F804C09C432E
:1013A0005FEA8C2C00D51C433C60DEF80040774699
:1013B000D1F804C09C435FEA8C3C00D51C433C60E0
:1013C000084F083F3C68D1F804C09C435FEACC3C1E
:1013D00000D51C433C60521C102AFFF42FAFBDE81F
:1013E000F88F0000083C01404438024000300140C2
:1013F000000002400004024000080240000C0240CD
:10140000001002400014024000180240001C02407C
:101410000069084000D001207047426921EA0203B8
:101420000A4043EA0241816170470AB18161704715
:101430000904FBE701488068704700004C00002069
:101440000248816802781144816070474C00002096
:101450000B4810B5016841F400710160016841F466
:1014600080610160016841F480710160032000F037
:101470006FF80F2000F006F800F024F8002010BDEF
:10148000003C024070B50D4D04464FF47A71287847
:10149000B1FBF0F00A490968B1FBF0F000F0BDFCC7
:1014A00048B9102C07D200222146501E00F030F817
:1014B00000206C6070BD012070BD00004C00002059
:1014C000580000200A4808B5016841F480410160D5
:1014D000006800F4804000900548001F016841F05A
:1014E00080510160006800F08050009008BD00004D
:1014F00044380240002809DB00F01F02012191401E
:101500004009800000F1E020C0F8001170470000A1
:10151000F0B40E4B1B680C46C3F30223C3F107055E
:10152000042D00D90425191D072901D2002300E04C
:10153000DB1E012606FA05F1491E214099409E4016
:10154000761E16403143F0BC02F03EBA0CED00E0CE
:10155000064900F0070208684FF6FF03184040EA0A
:101560000220034A10430860704700000CED00E0C1
:101570000000FA052DE9F0470E46050065D0DFF8BA
:101580001481D8F80000F7B200F00700B04207D28B
:1015900088F80070D8F8000000F00700B04254D17D
:1015A00028683D4C810712D5400703D5206840F4D8
:1015B000E05020602878000703D5206840F46040A0
:1015C00020602068A96820F0F00008432060287897
:1015D000C0072DD0304968680839012812D0022888
:1015E00013D0032811D00968890700292DDA216852
:1015F00021F0030101432160FFF71CFF814641F206
:10160000883A0EE009688903EFE709688901ECE789
:10161000FFF710FFA0EB0901514502D90320BDE8F7
:10162000F0872068696800F00C00B0EB810FEFD103
:10163000D8F80010404601F00701B14207D9077001
:10164000006800F00700B04201D00120E7E72878E9
:10165000400705D52068E96820F4E0500843206081
:101660002878000706D52068296920F4604040EA00
:10167000C100206000F038F82168084AC1F3031166
:10168000515CC8400649086006480068FFF7FAFE4A
:101690000020C4E7003C024008380240C2B80208FB
:1016A00058000020500000200448054900680968DF
:1016B000044AC1F38221515CC840704758000020A1
:1016C00008380240D2B80208044805490068096891
:1016D000044AC1F34231515CC840704758000020B1
:1016E00008380240D2B80208154810B5006810F05A
:1016F0000C02144813D04110042A0FD0082A0ED12E
:101700000F4C241F2268236802F03F025B0207D5BA
:101710002068C0F38810A0FB010106E0084610BD58
:101720002168C1F38811A1FB00010023FEF74AFDE7
:101730002168C1F30141491C4900B0FBF1F010BD23
:10174000083802400024F4002DE9F84F04006ED060
:101750002078DFF84C93C007A9F104054AD009F1BD
:1017600004000168C1F38101012908D00068C0F3B9
:10177000810002280AD1D9F80000400206D5286865
:10178000800337D560680028E1D033E06068B0F5A9
:10179000803F10D0B0F5A02F286810D020F4803002
:1017A0002860286820F4802028606068A8B1FFF7CE
:1017B00041FE06460DE0286840F48030F4E740F42E
:1017C00080202860F7E700BFFFF734FE801B642805
:1017D00073D828688003F7D50CE0FFF72BFE064688
:1017E00005E000BFFFF726FE801B6428F0D82868BC
:1017F0008003F7D42078DFF8AC8280074FF0000A2E
:101800003ED5A748001D016811F00C0F08D00068F4
:10181000C0F3810002280BD1D9F80000400207D4A0
:101820002868800716D5E068012800D112E033E16E
:10183000E068B8B10120C8F80000FFF7FBFD0646DC
:1018400005E000BFFFF7F6FD801B0228C0D828681E
:101850008007F7D52868216920F0F80040EAC10028
:1018600028600DE0C8F800A0FFF7E4FD064604E09C
:10187000FFF7E0FD801B02281FD828688007F7D4F7
:101880002078000722D5864F87486169703771B18B
:1018900001210160FFF7CEFD064604E0FFF7CAFD17
:1018A000801B022809D838688007F7D50EE0C0F8F9
:1018B00000A0FFF7BFFD064605E082E0FFF7BAFD96
:1018C000801B02287DD838688007F7D4207840072D
:1018D00068D5DFF8CCB100270BF13C0BDBF800003A
:1018E000C0000BD4DBF8001041F08051CBF80010A1
:1018F000DBF80000012700F0805000906B4E30684C
:10190000C00510D4306840F480703060FFF792FD5D
:10191000009005E0FFF78EFD0099401A022850D88C
:101920003068C005F6D55E4EA0686C3601280FD031
:101930000528306810D020F001003060306820F0B9
:1019400004003060A068B8B1FFF774FD00900FE0AC
:10195000306840F00100F4E740F004003060F7E741
:10196000FFF768FD0099411A41F28830814266D83C
:1019700030688007F4D50EE0FFF75CFD009007E0CB
:10198000FFF758FD0099411A41F28830814256D83C
:1019900030688007F4D42FB1DBF8001021F08051BB
:1019A000CBF80010A069C8B33D49091D0968C1F30F
:1019B000810102294AD00228504607D0C8F86000A9
:1019C00000E03CE0FFF736FD04463BE04746C8F840
:1019D0006000FFF72FFD064605E000BFFFF72AFD78
:1019E000801B02282BD828688001F7D4D4E907018E
:1019F0000843A16A2E4A490802EB0141626A41EAA2
:101A00008211084394F82C1040EA0161C9F80010D3
:101A100001203866FFF70EFD044606E03EE000BFF9
:101A2000FFF708FD001B022809D828688001F7D5B8
:101A300034E000BFFFF7FEFC001B022802D90320A0
:101A4000BDE8F88F28688001F4D427E00128F7D09A
:101A5000D9F80000E26900F4800191421CD1226AA9
:101A600000F03F01914217D147F6C071626A014010
:101A7000B1EB821F10D1A26A4FF0FF3300F4403166
:101A800003EB5202B1EB024F06D194F82C1000F098
:101A90007060B0EB016F01D00120D1E70020CFE7EB
:101AA0000438024000004742800E47420070004068
:101AB0000000FFFF70B5040009D0606A002540B146
:101AC00025616561A56294F8510040B10CE00120E8
:101AD00070BD6068B0F5827FF4D0E561F2E784F80C
:101AE0005050204600F044F8022084F8510020684D
:101AF000016821F040010160A088218900F4827012
:101B000001F404410843A18901F400610843217CE8
:101B100001F002010843217D01F001010843218BFE
:101B200001F400710843217F01F03801084394F863
:101B3000201001F080010843218D01F40051084379
:101B400021680860A069042101EA104094F824107B
:101B500001F010010843216848602068C16921F440
:101B60000061C1616565012084F85100002070BDED
:101B700010B586B0044614216846FEF75BFB134996
:101B80002068884220D112480021026842F4805225
:101B90000260006800F4805005900D481438026817
:101BA00042F002020260006800F002000590382056
:101BB00000900220CDE9010103200390052004904C
:101BC00069460448FFF72CFB06B010BD0030014009
:101BD00044380240000402402DE9F84F044690F8D2
:101BE000500000270A9E1D4692468B464FF0010981
:101BF00001280ED0012084F85000FFF71BFC80461E
:101C000094F85100616801280CD0B1F5827F07D1AA
:101C100002E00220BDE8F88FA16809B9042801D0CC
:101C20000227C2E0BBF1000F27D0BAF1000F24D089
:101C30001DB394F85100042802D0052084F8510007
:101C400000206065C4F838A0E587A587C4F830B0E7
:101C5000E586A5862064606420680168490603D48F
:101C6000016841F040010160E068B0F5006F606814
:101C700005D0E8B3012D46D07FE0012795E008B1FB
:101C8000012D39D1206B21680088C860206B801C31
:101C90002063E08E401EE0862EE020688168890780
:101CA0000FD5E18E69B1B9F1010F0AD1216B098815
:101CB000C160206B801C2063E08E401EE0864FF0E8
:101CC000000920688168C9070CD0E18F51B1C06854
:101CD000A16B0880A06B801CA063E08F401EE08792
:101CE0004FF00109FFF7A6FBA0EB0800B04200E0AF
:101CF00009E001D3701C50D1E08E0028CDD1E08FD7
:101D00000028CAD13FE0206B216800780873206B5F
:101D1000401C2063E08E401EE0862EE02068816833
:101D200089070FD5E18E69B1B9F1010F0AD1216B95
:101D300009780173206B401C2063E08E401EE08612
:101D40004FF0000920688168C9070CD0E18F51B1BC
:101D5000C068A16B0870A06B401CA063E08F401EA0
:101D6000E0874FF00109FFF765FBA0EB0800B042E8
:101D700002D3701C01D010E07EB1E08E0028CDD1DE
:101D8000E08F0028CAD142463146204601F0F2F8E1
:101D900028B101272020606507E0032705E0A0683F
:101DA00018B92068C16880680090012084F851004B
:101DB000002084F8500038462CE770B515460E46D2
:101DC000040003D094F8490010B107E0012070BD71
:101DD000002084F84800204600F01DF804F10801B6
:101DE0002068FEF739FD3146A2682068FEF768FDDD
:101DF000D4E901022946236BFEF710FD2168A06893
:101E000051F8202042F0010241F82020012084F8FE
:101E10004900002070BDFFF7AFB910B5401EB0F10A
:101E2000807F01D3012010BD4FF0E02460610F21BD
:101E3000601701F0C9FD0020A0610720206100208B
:101E400010BD000070B590F83C20012A32D001246A
:101E500080F83C40022280F83D2003685A689D6863
:101E600022F070060A6832435A60134B02689A42A5
:101E700014D0B2F1804F11D0104B9A420ED0104BBB
:101E80009A420BD00F4B9A4208D00F4B9A4205D082
:101E90000E4B9A4202D00E4B9A4204D1496825F06B
:101EA00080031943916080F83D40002180F83C1088
:101EB000084670BD022070BD0000014000040040D3
:101EC00000080040000C00400004014000400140B8
:101ED0000018004010B5040003D094F83D0010B184
:101EE00007E0012010BD002084F83C00204600F0EF
:101EF0001FF8022084F83D00211D206801F000FA3F
:101F0000012084F8460084F83E0084F83F0084F8FD
:101F1000400084F8410084F8420084F8430084F8CB
:101F2000440084F8450084F83D00002010BD000006
:101F300008B500680649884208D10648016841F0A2
:101F400010010160006800F01000009008BD000062
:101F5000001000404038024090F83D10012901D0A7
:101F600001207047022180F83D1000681149884225
:101F700014D0B0F1804F11D00F4988420ED00F49D4
:101F800088420BD00E49884208D00E49884205D0BD
:101F90000D49884202D00D49884204D1816801F080
:101FA0000701062903D0016841F00101016000200A
:101FB000704700000000014000040040000800409D
:101FC000000C0040000401400040014000180040A7
:101FD00001680A6A41F211131A4207D10A6A9B107A
:101FE0001A4203D10A6822F001020A60012180F836
:101FF0003D1000207047704770470000F8B5016839
:1020000004460868CA684B6910F00F0F4FF00005CE
:1020100059D003F0010602F49077374365D0C10729
:1020200005D0D10503D5216C41F0010121644107A0
:1020300005D5D90703D0216C41F002012164810745
:1020400005D5D90703D0216C41F0040121640107B3
:1020500007D502F02001314303D0216C41F0080183
:102060002164216C00293AD0800604D5900602D55F
:10207000204601F050FB20684069216CC0F38010BD
:10208000090700D460B3204601F01EFB20684069B8
:10209000400621D52068143050E8001F21F040018F
:1020A00040E80012002AF5D1A06BA8B16C49016587
:1020B000A06BFFF73DF8002811D0A06B016D01B0B7
:1020C000BDE8F040084783060FD593060DD520469E
:1020D000BDE8F84001F01FBB2046FFF78DFFF8BDBB
:1020E0002046FFF789FF2564F8BD266B2023012ECB
:1020F00079D1C60677D5D60675D5086848680090A8
:102100004869400640D5A16B086840680004000C8F
:10211000EAD0A28D8242E7D9E085C869B0F5807F18
:102120002DD020680C3050E8001F21F4807140E869
:102130000012002AF5D12068143050E8001F21F069
:10214000010140E80012002AF5D12068143050E85F
:10215000001F21F0400140E80012002AF5D184F868
:102160003E30256320680C3050E8001F21F010013C
:1021700040E80012002AF5D1A06BFEF790FFA08D79
:10218000E18D401A81B229E0A08DE18D401A81B223
:10219000E08D0028A8D00029A6D020680C3050E897
:1021A000002F22F4907240E80026002EF5D120681E
:1021B000143050E8002F22F0010240E80026002EE3
:1021C000F5D184F83E30256320680C3050E8002FAC
:1021D00022F0100240E80023002BF5D12046FFF743
:1021E0000AFFF8BDFFE705062BD5150629D594F89B
:1021F0003D002128F5D1A068B0F5805F01D12069AC
:10220000B0B1206A411C2162216800784860E08CEE
:10221000401E0004000CE084E3D12068C16821F076
:102220008001C1602068C16841F04001C160D8E709
:10223000206A0088C0F308004860206A801C206281
:10224000E5E74006CDD55006CBD5CA68204622F03A
:102250004002CA6084F83D3000F005F9C1E7000093
:10226000B936000870B5040004D094F83D0000258C
:1022700010B106E0012070BD84F83C50204600F00B
:1022800023F8242084F83D002068C16821F400511F
:10229000C160204601F0A0FA2068016921F4904154
:1022A00001612068416921F02A0141612068C1680B
:1022B00041F40051C1602564202084F83D0084F879
:1022C0003E00002070BD000010B586B00446142109
:1022D0006846FDF7AFFF18492068884229D11748A2
:1022E0000021026842F010020260006800F0100055
:1022F000059012481438026842F00102026000683A
:1023000000F0010005904FF4C06000900220CDE97C
:102310000101032003900720049069460848FEF756
:102320007FFF002202212520FFF7F2F82520FFF78A
:10233000E1F806B010BD0000001001404438024032
:102340000000024090F83E30202B0ED159B152B11E
:1023500090F83C30012B08D0012380F83C3000235A
:10236000036301F0BFBA01207047022070470000EC
:1023700000680E49884218D10D4801780A290FD00B
:10238000B0F80031421C9954B0F8001111F101016C
:10239000A0F800110649012201F58270FFF7D2BFB3
:1023A000012180F802110021F2E77047001001407E
:1023B000600100202DE9F843044690F83D001F46D7
:1023C00016460D4620284CD1C5B1BEB194F83C004C
:1023D000012846D0012084F83C004FF00008C4F8E2
:1023E0004080212084F83D00FFF724F8A684814630
:1023F000E684A068B0F5805F03D004E00120BDE86A
:10240000F883206928B12E465FF0000584F83C80EF
:102410000EE00026FAE78021204601F080FAA0B9FC
:10242000AEB116F8010B21684860E08C401EE084D4
:10243000E08C4B464FF0000200970028EBD14FF0A4
:102440004001204601F06BFA30B10320D7E735F8A0
:10245000020BC0F30800E6E7202084F83D000020CE
:10246000CDE70220CBE77047FEE70000F0B50D4D49
:10247000002407466B882A882146204600F0BEFAD1
:102480002E88688800214643084600F09DFA00F037
:1024900045FB4FF0D84002E0A0F88070641CB442C5
:1024A000FAD3F0BD60000020F0B400271949F022F3
:1024B0002C242A254FF4A0732B2638B101280FD0E5
:1024C0004FF0010C022813D003281AD08F710A8014
:1024D0004B800C814D818E810020F0BC00F036BA1B
:1024E0008F710A804B800C814D818E810320F4E72F
:1024F00081F806C00B804A800C814D818E810520B9
:10250000EBE781F806C00B804A800C814D818E81FB
:102510000620E2E7600000202DE9FE4F161ACDE903
:1025200000104FF000085D1A47464FF0FF30002EB4
:1025300002DD4FF0010102E003D14FF000018B46B4
:1025400002E08346C6F10006002D02DD4FF00100D7
:1025500002E003D14FF00000824602E08246C5F15E
:102560000005AE4201DD344600E02C46601C4FF011
:102570000009029019E000980C9A81B2019880B28B
:1025800000F09CF8B0442F44A04504DD0198A8EB6E
:10259000040858440190A74203DD00983F1B5044B3
:1025A000009009F101001FFA80F902998945E2DDE6
:1025B000BDE8FE8F2DE9F8411D46079C164688466A
:1025C00007460B460094FFF7A7FF3A462B464146C5
:1025D00010460094FFF7A0FF2B46324619463846B6
:1025E0000094FFF799FF32462B464146104600946F
:1025F000FFF792FFBDE8F8812DE9FF4F80460025E7
:102600001446032082B00F46A0EB440651E0381B6D
:1026100081B208EB050A01901FFA8AF0059A00F0D2
:102620004DF8781B009081B208EB04091FFA89F07D
:10263000059A00F043F807EB050B1FFA8BF11FFA20
:1026400089F0059A00F03AF807EB04091FFA89F1BE
:102650001FFA8AF0059A00F031F8A8EB050A1FFA74
:1026600089F11FFA8AF0059A00F028F8A8EB04090E
:102670001FFA8BF11FFA89F0059A00F01FF80198F4
:10268000059A81B21FFA8AF000F018F80098059AAE
:1026900081B21FFA89F000F011F86D1C002E03DAE8
:1026A00006EB8506B61D04E0281B06EB8006641EBB
:1026B0000A36A542ABDD06B0BDE8F08F30B50C4C54
:1026C000A388A3F51345413D11D14FF0D843658947
:1026D00023F87E5F050A5D80C0B25880A08918800B
:1026E000080A5880C8B25880208918805A8030BDA6
:1026F000600000202DE9F0438146A2EB0900401C58
:102700001E4685B20C464FF0D848079F10E0214680
:10271000484600F059F900F001FA0020414603E074
:10272000A1F88070401C80B2A842F9D3641CA4B206
:10273000B442ECD9BDE8F08370B53220FEF70AFD53
:10274000002000F0F7F874494FF6FF754FF0D844B9
:10275000888049F24132FF2804D3A84202D0B0F564
:10276000134F14D1D320A4F87E0000F0D9F888804C
:1027700000F0D6F8888000F0D3F805EA00208880C1
:1027800000F0CEF88B881843888090427ED180B2CA
:1027900090427CD1CF2024F87E0F00206080C120A1
:1027A000608030206080ED202080642060800320E5
:1027B00060801220608081206080E8202080852059
:1027C0006080102060807A206080CB2020803920BB
:1027D00060802C2060800020608034206080022097
:1027E0006080F720208020206080EA202080002068
:1027F00060806080C02020801B206080C1202080FD
:1028000001206080C5202080302060806080C7204B
:102810002080B720608036202080482060803A20C9
:10282000208055206080B1202080002060801A2008
:102830006080B62020800A206080A2206080F22084
:102840002080002060802620208001206080E02001
:1028500020800F2060802A2060802820608008204F
:1028600060800E2060800820608054206080A92055
:102870006080432060800A2060800F2060800020FC
:102880006080608060806080E12001E043E035E0AE
:102890002080002060801520608017206080072045
:1028A000608011206080062060802B206080562090
:1028B00060803C20608005206080102060800F20B8
:1028C00060803F20608060800F2060802B2020800F
:1028D000002060806080012060803F2060802A208E
:1028E00020800020608060806080EF206080112068
:1028F00020807820FEF72EFC292020800020FFF782
:10290000D3FD0122D1030548FEF78FFD2846BDE81F
:102910007040FFF7ABBD70BD6000002000040240B6
:1029200008B54FF0D840B0F88000ADF80000BDF811
:10293000000008BD10B54FF0D841A1F87E0001207D
:10294000FEF708FCBDE81040FFF7EABF1D4B10B5CD
:102950009A880021A2F51344413C32D1082812D2B2
:10296000DFE800F0110406080A0C0E1080210AE0CE
:10297000402108E0C02106E0202104E0602102E0BF
:10298000A02100E0E02141F00801362000F0D0F85D
:102990004FF0D840598920F87E1F002141804180A6
:1029A0001988491E0A0A4280C9B24180998901806A
:1029B0000021418041805988491E0A0A4280C9B2DB
:1029C000418010BD600000200B4B10B59A88A2F525
:1029D0001344413C0ED14FF0D8425C8922F87E4F1F
:1029E000040A5480C0B2508098891080080A508030
:1029F000C8B2508010BD00006000002070B50244D5
:102A0000521E94B2CA18104B521E95B29A88A2F563
:102A10001346413E16D14FF0D8425E8922F87E6FB0
:102A2000060A5680C0B25080200A5080E0B2508022
:102A300098891080080A5080C8B25080280A5080B7
:102A4000E8B2508070BD0000600000202DE9FF4F0B
:102A50001D460C468A46580700D0012000EBD500E1
:102A6000690810FB01F0203A00F0FF09D0B20026FF
:102A7000DFF894B0029043E00C2D10D0102D13D04D
:102A8000182D3FD10298214900EBC00001EB8000D6
:102A90004FF00008875D38060BD50D9A0DE00298BF
:102AA0001B4900EB4000F1E71A49029801EB0010C6
:102AB000EEE70E9828B91848428821460098FFF79B
:102AC000FDFD7806070E641CBBF80200A4B2A0420C
:102AD00018D9A4EB0A00A84209D100985446401C1A
:102AE00080B20090BBF8001081420BD906E008F1DB
:102AF000010000F0FF08B8F1080FCCD3761CF6B245
:102B00004E45B9D3BDE8FF8F60000020AC480008F7
:102B1000483E0008BC4200080000002003484FF077
:102B2000D8410089A1F87E007047000060000020B5
:102B30004FF0D84222F87E0F5180704710B58EB00A
:102B40001C216846FDF776FB1C2107A8FDF772FBE8
:102B50001A484FF0204110220160194941600621B6
:102B600081600021C160C0E904128161C16113026A
:102B70000162C0E909139302C0E90B134163816349
:102B800041640F203C230090CDE9010303AC1123E5
:102B900084E80E0009240691CDE907400AA80994AB
:102BA00080E80E000D9107AA69460448FFF705F971
:102BB000002801D0FDF72FFE0EB010BD70000020E0
:102BC000040100A02DE9F04387B014216846FDF709
:102BD00031FB54480025016841F00401016001689F
:102BE00001F004010591016841F0200101600168D4
:102BF00001F020010591016841F080010160016848
:102C000001F080010591016841F002010160016855
:102C100001F002010591016841F0100101600168B5
:102C200001F010010591016841F00801016001689F
:102C300001F008010591016841F04001016001685F
:102C400001F040010591016841F001010160006857
:102C5000354E00F001004FF400540590002221464B
:102C60003046FEF7E2FB314F00224FF460613846F8
:102C7000FEF7DBFBDFF8B88000224CF20101404692
:102C8000FEF7D3FBDFF8AC900022C0214846FEF7E8
:102C9000CCFB00940124CDE90145694630460395FB
:102CA000FEF7BEFA4FF4C060CDE90004694638462D
:102CB000CDE90245FEF7B4FA48F201008DE8310093
:102CC000694640460395FEF7ABFA0620CDE90005BC
:102CD000694602944046FEF7A3FAE0028DE831000F
:102CE000694638460395FEF79BFAA003CDE9000438
:102CF0000294694640460394FEF792FAC020CDE95B
:102D0000000469464846CDE90245FEF789FA2002EB
:102D1000CDE90005694602944846FEF781FA07B0FE
:102D2000BDE8F08330380240000802400014024041
:102D30000004024000180240104810B50E4901601E
:102D40004FF48271416000218160C1604FF40072D4
:102D50000161C0E905123822C0E9072141628162A0
:102D60000A21C162FEF7A6FE002803D0BDE810408C
:102D7000FDF751BD10BD000000300140C000002033
:102D80001CB500240E4800940C49019401605321A5
:102D9000C0E901144FF6FF718461C160FFF79AF832
:102DA00008B1FDF738FD0094694605480194FFF726
:102DB00049F8002801D0FDF72EFD1CBD0010004091
:102DC0001801002010B50E4C0C480C2120604FF467
:102DD000E13060600020A060E060C4E90401A0610F
:102DE000E0612046FFF73EFA08B1FDF714FD2068C8
:102DF000C16841F02001C16010BD00000010014019
:102E000064020020FEE7FEE71CB510A1D1E9000135
:102E1000CDE90001102000F09DF805226946302020
:102E200000F06CF805226946102000F02DF8002013
:102E300069460A5CA52A03D1401CC0B20528F8D314
:102E4000052801D001201CBD00201CBDA5A5A5A5FD
:102E5000A500000010B5012291030948FEF7E5FA2C
:102E600000F03AF8074C002240212046FEF7DDFA38
:102E700020460122BDE810408021FEF7D6BA0000AE
:102E800000040240001802402DE9F041DFF84080C4
:102E900015460F460446002280214046FEF7C5FA3B
:102EA00021460C4800F0EEF80646002406E0FF211B
:102EB000084800F0E7F83855641CE4B2AC42F6D399
:102EC000012280214046FEF7B0FA3046BDE8F0818D
:102ED00000180240C000002010B5074C20680168AF
:102EE00021F0400101602046FEF7E4FD2068016802
:102EF00041F04001016010BDC00000202DE9F0410B
:102F0000DFF8448016460D460446002280214046E4
:102F1000FEF78BFA21460D4800F0B4F8074600246E
:102F200007E000BF15F8011B084800F0ABF8641C6F
:102F3000E4B2B442F6D3012280214046FEF775FA8E
:102F40003846BDE8F081000000180240C0000020B3
:102F50007047000006490A68136823F040031360B5
:102F6000C8610868016841F04001016070470000D5
:102F7000C000002038B504461248134B0068B0FB6F
:102F8000F3F04FF47A73584300906068B0F5827F95
:102F90000DD10B46009200228021204600F016F849
:102FA00070B1606D40F020006065032038BD00986E
:102FB00030B1401E009020688068C0430006F6D5FE
:102FC000002038BD5800002000366E012DE9F8437E
:102FD0001E46914688460446089DFEF72BFA401B84
:102FE000351AFEF727FA074625480068C0F3CB30AC
:102FF000684338E0701C37D0FEF71CFAC01BA842AB
:1030000003D215B1009860B32CE02068416821F02C
:10301000E00141606068B0F5827F0BD1A068B0F537
:10302000004F02D0B0F5806F04D12068016821F014
:1030300040010160A06AB0F5005F09D12068016815
:1030400021F4005101602068016841F400510160E1
:10305000012084F85100002084F850000320BDE8CE
:10306000F8830025401E00902068816838EA01003E
:1030700004D000214945BDD10020F0E70121F9E746
:10308000580000203EB5FF248DF80810012301AA46
:1030900002A90094FEF7A0FD08B18DF804409DF848
:1030A00004003EBD704700002DE9F04F0446814604
:1030B00093B01D4616468A46580700D0012000EB03
:1030C000D50010FB05F0C0B283460C2D03D0102DA7
:1030D00001D0182D2CD1024669463046FDF7B6FFC7
:1030E000002022E01DF808700026380601D51C9A41
:1030F00003E01D9828B91048028851462046FFF782
:10310000DDFA7806641C070EA4B2A4EB0900A842FD
:1031100004D10AF101004C461FFA80FA761CF6B27F
:10312000082EE2D308F10100C0B280465845D9D339
:1031300013B0BDE8F08F0000020000202DE9F0413F
:103140004FF6FF7500242846FFF790F915A31F22BC
:1031500010211820FDF7F8FA4FF47A70FDF7FAFF06
:103160002846FFF783F94FF4A07500212B46F02283
:103170000846FFF743FCFFF7D1FC0E4A00204FF052
:10318000D8430021165D641C175D07EB0626A3F8E3
:103190008060491C641CF029F4D3401CA842F0D381
:1031A000BDE8F081333A20CDBCC6ACCFD4CABEB2A4
:1031B000E2CAD400C26000082DE9FC5F0446DDE9E4
:1031C0000C6780463078DDF83CB00D4600281FD0F3
:1031D000E81808EB020AA0EB07093278802A19D90F
:1031E000AAEB0700A04202DAE81985B24446A945D5
:1031F0000EDB0E99CDE9001B3B46324629462046A0
:10320000FFF752FFE01984B216F8020F0028E4D14C
:10321000BDE8FC9FAAEB5700A04202DAE81985B28C
:103220004446A945F4DB0D2A0ED00E99CDE9001BCA
:103230003B4629462046FFF709FC00BF04EB570038
:1032400084B216F8010FE1E7E81985B24446761C0E
:10325000F4E7FEF7F5B8000030B593B030216846CA
:10326000FCF7E8FF14210CA8FCF7E4FF1E4800253A
:10327000016841F080510160006800F080501190B9
:103280001A48016841F4804101600068022400F49A
:103290008040119001200090000401908001CDE950
:1032A0000640082008904FF4A870CDE909040420D6
:1032B0000B906846FEF748FA08B172B6FEE70CA913
:1032C0000F2081E831004FF4A0500F904FF4805050
:1032D000109005210CA8FEF74DF9002801D072B618
:1032E000FEE713B030BD00004038024000700040DF
:1032F0000248016841F470010160704788ED00E008
:10330000F0B50268254C264D264E274F274B4FF02F
:10331000804CA04209D0604507D0A84205D0B042F9
:1033200003D0B84201D0984204D122F0700E4A680E
:1033300042EA0E02A0421BD0604519D0A84217D025
:10334000B04215D0B84213D0984211D0184DA842BF
:103350000ED0184DA8420BD0174DA84208D0174DDB
:10336000A84205D0164DA84202D0164DA84203D15E
:1033700022F44075CA682A434D6922F080022A432C
:1033800002608A68C2620A688262A04201D09842E2
:1033900001D10969016301214161F0BD00000140D3
:1033A0000004004000080040000C00400004014000
:1033B0000040014000440140004801400018004026
:1033C000001C00400020004070B50649A1F10A0031
:1033D0000C46054600F09AF82146284600F096F87B
:1033E000012070BD1E0000202DE9F04700252B4E66
:1033F00007462C462A4601213046FEF716F80022E1
:10340000F1142748FEF711F8DFF898904FF40058B0
:10341000002241464846FEF708F8384600F020F9F9
:10342000062000F051FC002201213046FDF7FDFF8F
:10343000012000F049FC012211463046FDF7F5FF5E
:10344000012000F041FC002201213046FDF7EDFF94
:103450004FF6FF7707EA4404002201213046FDF7CA
:10346000E4FF012000F030FC012211463046FDF758
:10347000DCFF04213046FDF7CBFF08B1641CA4B289
:103480006D1CEDB2102DE5D32409012241464846BA
:10349000FDF7CBFF2046BDE8F087000000040240A6
:1034A0000014024000080240FEB5064600256C46A6
:1034B0003046FFF799FF24F815006D1CADB2052DBD
:1034C000F6D30020431C99B20CE000BF34F8102062
:1034D00034F81150AA4203D924F8105024F81120CE
:1034E000491C89B20529F1D398B20428EAD30021F6
:1034F0005FF0010034F81020401C114480B289B202
:103500000428F7D30320B1FBF0F0FEBD2DE9F04114
:10351000074C06460D462078FFF7C6FF0746607841
:10352000FFF7C2FF378028800120BDE8F08100004E
:10353000040000207FB50C460546694602A8FFF747
:10354000E5FF00282FD001A903A8FFF7DFFF00281F
:1035500029D0BDF80C30BDF80820934203D803F100
:103560003200824205D39A421FD802F132008342D0
:103570001BD2BDF80410BDF80000814203D801F150
:103580003206B04204D388420FD8323081420CD286
:10359000D01840082880BDF80000BDF80410084489
:1035A00040082080012004B070BD0020FBE700002F
:1035B00070B5054602212848FDF72AFF274C40B187
:1035C00094F8200001063BD520F0800084F820000C
:1035D0003DE0224800F116010C3015B1FFF7AAFFBB
:1035E00022E0FFF7A7FFF8B1A089D4ED0B0A00EEA7
:1035F000100A94ED091AB8EE400A41EE000ABCEE3A
:10360000E00A10EE100AA081E08A94ED0C0A00EEA8
:10361000900A94ED0A1AF8EE600A01EE200ABCEE58
:10362000C00A10EE100AE08294F8200000060ED4C2
:10363000C02084F82000A089A082E08AE08306E010
:103640000020A082E0834FF6FF70A081E08294F812
:10365000200000F0800070BD00040240080000203F
:103660002DE9F041DFF84880124E054600244FF462
:103670000067280601D5012200E0002239464046B5
:10368000FDF7D3FE6806050E002201213046FDF746
:10369000CCFE012000F018FB012211463046FDF758
:1036A000C4FE641CE4B2082CE3D3BDE8F081000042
:1036B000001402400004024010B5806B0021C18557
:1036C000C184FEF799FC10BD01680C3151E8002F50
:1036D00022F4907241E80023002BF5D101681431E7
:1036E00051E8002F22F0010241E80023002BF5D120
:1036F000016B012909D101680C3151E8002F22F03A
:10370000100241E80023002BF5D1202180F83E1063
:1037100000210163704708B590F83E10222901D0BE
:10372000022008BD82684FF480539A4201D101699A
:1037300021B1816A9A421BD04AB10AE00268816ACB
:103740005268C2F308020A80816A891C08E0026993
:1037500072B10268526802F07F020A70816A491CE5
:103760008162C18D491E0904090CC18503D019E08D
:1037700002685268F1E70168CA6822F02002CA6054
:103780000168CA6822F48072CA6001684A6922F03E
:1037900001024A61202180F83E10016B012903D00B
:1037A000FEF7E6FD002008BD0021016301680C3131
:1037B00051E8002F22F0100241E80023002BF5D140
:1037C00001680A68D20602D50A6849680091818DAD
:1037D000FEF711FCE6E7000070B5044600680169D9
:1037E000E26821F44051114301612169A068E26956
:1037F00008436169114308432168CA6849F20C63B0
:103800009A430243CA6020684169A26921F4407169
:103810001143416131492068884202D030498842D1
:1038200002D1FDF751FF01E0FDF73EFFE269002301
:10383000192164253226B2F5004F626828D0A0FB1A
:103840000101930F9200FCF7BDFC0146B0FBF5F0BF
:103850006FF01802504301EB800006EB0010B0FB44
:10386000F5F000F0F002B1FBF5F002EB0012B1FB55
:10387000F5F06FF01803584301EB800006EB0010E1
:10388000B0FBF5F000F00F0021681044886070BDB7
:10389000A0FB010192185B41FCF794FC0146B0FBD0
:1038A000F5F00201B1FBF5F06FF01803584301EB9E
:1038B000800006EBC000B0FBF5F000F0F80002EB72
:1038C0004002B1FBF5F0584301EB800006EBC0006D
:1038D000B0FBF5F000F00700D6E700000010014053
:1038E0000014014081628285C28500210164222288
:1038F00080F83E2080F83C10016921B10168CA6857
:1039000042F48072CA6001684A6942F001024A6169
:103910000068C16841F02001C160002070472DE9B6
:10392000F041984617460E460446069D27E0681C5F
:1039300025D02DB1FDF77EFDA0EB0800A8421ED9D1
:1039400020680C3050E8001F21F4D07140E80012CC
:10395000002AF5D12068143050E8001F21F0010141
:1039600040E80012002AF5D1202084F83D0084F8B8
:103970003E00002084F83C000320BDE8F081206870
:10398000006836EA000004D00020B842CFD0002002
:10399000F3E70120F9E700000148FEF72FBB000024
:1039A00064020020FEE700000FB4054B10B503A928
:1039B000044A029800F028F810BC5DF814FB0000DF
:1039C000F93C00085C0000200907090E002804DB10
:1039D00000F1E02080F80014704700F00F0000F1C3
:1039E000E02080F8141D704702E008C8121F08C1CB
:1039F000002AFAD170477047002001E001C1121F70
:103A0000002AFBD1704700002DE9FF4F8DB09B4687
:103A10000F460446002606E025280BD05A460F998B
:103A20009047641C761C20780028F5D111B03046F0
:103A3000BDE8F08F0025A8460122984900E0054323
:103A400014F8013F203B02FA03F00842F7D1207836
:103A50002E2817D114F8010F45F004052A280ED09E
:103A60006FF02F022078A0F1300109290AD808EB65
:103A7000880102EB410100EB0108641CF2E757F8F2
:103A8000048B641C20786C280DD004DC4C2812D0E8
:103A90006A2811D104E074280DD07A280CD10AE0EC
:103AA00045F4001507E0617845F48015814202D1A4
:103AB000641C05F58015641C2078692844D008DC56
:103AC0000028B3D0582867D063280FD0642808D1C5
:103AD0003AE0702865D0732812D075285AD078281B
:103AE0005AD05A460F999047761CD5E017F8040B28
:103AF0008DF8000000208DF80100E946012003E068
:103B000057F8049B4FF0FF3069074FF0000501D4D0
:103B10000AE06D1C45450DDA8542FADB19F80510FF
:103B20000029F6D106E06D1C8542FCDB19F8051072
:103B30000029F8D12E4404E019F8010B5A460F99D8
:103B400090476D1EF8D2A7E00A200021CDE90801B8
:103B5000C5F3025002280CD001CFC117021E71F12B
:103B600000020CDA0023D0EB030063EB01012D22ED
:103B700008E0FF1D27F00707F7E80201EEE72A0536
:103B800004D52B228DF8282001223CE0EA073AD008
:103B90002022F7E70A2000E010200021CDE90801EB
:103BA00007E01020002145F00405CDE908014FF0A1
:103BB0000808C5F30250022810D001CF00214FF0B1
:103BC000000A2A0720D52278702A0DD0DDE908C323
:103BD0008CF0100C5CEA030C0CD015E0FF1D27F0F4
:103BE0000707F7E80201EAE740228DF828204FF0A6
:103BF000010A0CE050EA010306D030238DF828308A
:103C00008DF82920022292462278582A04D024A234
:103C10000DF120090B9209E026A2F9E7DDE908235E
:103C2000FCF7D0FA0B9B9B5C09F8013D50EA0102BE
:103C3000F4D1ADEB090020300890680701D44FF0B3
:103C400001080899884503DD0898A8EB000000E00A
:103C500000208046002506E00AA85A46405D0F99DC
:103C600090476D1C761C5545F6DB04E030205A4623
:103C70000F999047761CB8F10001A8F10108F5DC16
:103C800005E019F8010B5A460F999047761C0899E0
:103C9000481E08900029F4DC641CC4E609280100D1
:103CA00030313233343536373839616263646566B2
:103CB0000000000030313233343536373839414274
:103CC000434445460000000070B54FF6FA75281AC7
:103CD00084B20848FEF740F9064801684C62006863
:103CE00001E0416A8CB2AC42FBD3BDE870400148B0
:103CF000FEF76EB91801002013B54FF6FF730122CD
:103D000069460548FEF756FB034800680168C94349
:103D10004906FBD400981CBD64020020FDF798FB07
:103D2000FFF79AFAFEF74EFFFEF708FFFFF74AF893
:103D3000FFF726F8FFF700F8FEF7FEFCFFF78AF81A
:103D4000012224492448FEF7FDFA00BFFFF75CF882
:103D50000028FBD121A0FFF727FEFCF789FB1D4CB3
:103D60000120FFF725FC28B12248C28A818922A0C0
:103D7000FFF71AFE94F802010128F1D1002084F81F
:103D8000020123A1601CFCF767FA90B9611C22A014
:103D9000FFF70AFE2148017821A0FFF705FE244D18
:103DA0004FF400712846FDF738FB29152846FDF72A
:103DB00034FB20A1601CFCF74FFA18B9611C16A057
:103DC000FFF7F2FD1DA0FFF7EFFDFF21601CFCF7E0
:103DD00031FAC5E760010020640200204E524632ED
:103DE000344C303120697320646574656374656494
:103DF0002E0D0A00080000207820697320307825F5
:103E0000582C7920697320307825580D0A0000005D
:103E10004C45440D000000002573000048000020C0
:103E200074656D702069732025640D0A0000000020
:103E3000001402404E52460D0000000055415254FD
:103E40005F464C41470D0A000000000000000000E2
:103E500000000000000000003F40000000000000E3
:103E600000003000400030004000000009000BC09E
:103E70003D000BC03D00090018C024407FE02240F7
:103E800031800000180024C01B000D8032400180EA
:103E900003801C4027401C80074000401000600049
:103EA00000000000000000000000000000001F8073
:103EB000204040200000402020401F8000000000E3
:103EC000090006001F80060009000000040004002D
:103ED0003F800400040000000010006000000000AB
:103EE00000000000040004000400040004000000BE
:103EF000000000400000000000000000002001C0A1
:103F000006003800400000001F8020402040204074
:103F10001F800000000010403FC000400000000073
:103F200018C021402240244018400000108020404A
:103F3000244024401B80000002000D0011003FC0FF
:103F4000014000003C8024402440244023800000A5
:103F50001F802440244034400380000030002000B3
:103F600027C03800200000001B802440244024404B
:103F70001B8000001C0022C0224022401F80000045
:103F800000000000084000000000000000000000E9
:103F90000460000000000000000004000A0011009E
:103FA00020804040090009000900090009000000C4
:103FB00000004040208011000A000400180020008A
:103FC00023402400180000001F8020402740294083
:103FD0001F400000004007C039000F0001C0004032
:103FE00020403FC0244024401B8000001F80204010
:103FF000204020403080000020403FC02040204032
:104000001F80000020403FC024402E4030C00000F0
:1040100020403FC024402E00300000000F001080E0
:10402000204022403380020020403FC004000400B2
:104030003FC02040204020403FC0204020400000A2
:104040000060202020203FC02000200020403FC0F2
:1040500024400B0030C0204020403FC020400040A2
:10406000004000C03FC03C0003C03C003FC0000017
:1040700020403FC00C4023003FC020001F80204054
:10408000204020401F80000020403FC024402400EA
:10409000180000001F802140214020E01FA00000E8
:1040A00020403FC02440260019C0004018C02440D2
:1040B0002440224031800000300020403FC020409A
:1040C0003000000020003F80004000403F80200082
:1040D00020003E0001C0070038002000380007C063
:1040E0003C0007C038000000204039C0060039C03D
:1040F000204000002000384007C038402000000069
:10410000304021C02640384020C0000000000000A0
:104110007FE0402040200000000070000C00038081
:10412000004000000000402040207FE00000000030
:1041300000002000400020000000000000100010DF
:1041400000100010001000100000000040000000EF
:1041500000000000000002800540054003C0004050
:1041600020003FC0044004400380000000000380A2
:104170000440044006400000000003800440244046
:104180003FC00040000003800540054003400000A0
:10419000000004401FC0244024402000000002E032
:1041A000055005500650042020403FC00440040044
:1041B00003C000400000044027C000400000000091
:1041C00000100010041027E00000000020403FC055
:1041D0000140070004C00440204020403FC0004090
:1041E0000040000007C0040007C0040003C0000036
:1041F000044007C00440040003C0004000000380E6
:104200000440044003800000041007F00450044000
:1042100003800000000003800440045007F00010F9
:10422000044007C0024004000400000000000640F3
:104230000540054004C00000000004001F80044049
:1042400000400000040007800040044007C0004018
:104250000400070004C0018006000400060001C03D
:10426000070001C006000000044006C0010006C0AF
:10427000044000000410071004E001800600040060
:104280000000044005C0064004400000000000009B
:1042900004007BE040200000000000000000FFF070
:1042A00000000000000040207BE00400000000004F
:1042B000400080004000200020004000000000007E
:1042C00000000000000000000000000000000000EE
:1042D00000001FCC000C00000000000000000800DF
:1042E000300060000800300060000000022003FC85
:1042F0001E20022003FC1E200220000000000E18D9
:1043000011043FFF10840C78000000000F0010849F
:104310000F3800C0077818840078000000780F84F8
:1043200010C411240E9800E40084000808006800FE
:10433000700000000000000000000000000000000D
:10434000000007E0181820044002000000004002AE
:104350002004181807E0000000000000024002409E
:1043600001800FF0018002400240000000800080C8
:1043700000800FF800800080008000000001000D28
:10438000000E00000000000000000000000000809F
:104390000080008000800080008000800000000C11
:1043A000000C0000000000000000000000000006FB
:1043B000001800600180060018002000000007F0CF
:1043C000080810041004080807F0000000000804A2
:1043D00008041FFC000400040000000000000E0C94
:1043E00010141024104411840E0C000000000C184E
:1043F00010041104110412880C700000000000E089
:104400000320042408241FFC0024000000001F983F
:10441000108411041104108810700000000007F0CF
:1044200008881104110418880070000000001C00A6
:10443000100010FC13001C001000000000000E38DB
:1044400011441084108411440E380000000007004D
:10445000088C10441044088807F000000000000099
:104460000000030C030C000000000000000000002E
:1044700000010106000000000000000000000080B4
:10448000014002200410080810040000022002204D
:10449000022002200220022002200000000010045E
:1044A00008080410022001400080000000000E00F7
:1044B0001200100C106C10800F00000003E00C18AC
:1044C00013E4142417C4082807D000000004003C9B
:1044D00003C41C40074000E4001C000410041FFC3F
:1044E0001104110411040E880070000003E00C1880
:1044F00010041004100410081C10000010041FFC0D
:10450000100410041004080807F0000010041FFC39
:104510001104110417C410040818000010041FFC33
:104520001104110017C010000800000003E00C186F
:104530001004100410441C780040000010041FFCFC
:1045400010840080008010841FFC10040000100400
:1045500010041FFC10041004000000000003000100
:10456000100110011FFE10001000000010041FFCBD
:10457000110403801464181C1004000010041FFCB4
:104580001004000400040004000C000010041FFCD0
:104590001F0000FC1F001FFC1004000010041FFC83
:1045A0000C04030000E010181FFC100007F00808BE
:1045B000100410041004080807F0000010041FFC89
:1045C00010841080108010800F00000007F0081881
:1045D00010241024101C080A07F2000010041FFC0D
:1045E0001104110011C011300E0C000400000E1C4B
:1045F00011041084108410441C38000018001000AE
:1046000010041FFC100410001800000010001FF818
:1046100010040004000410041FF8100010001E0015
:1046200011E0001C007013801C0010001FC0103C23
:1046300000E01F0000E0103C1FC000001004180C38
:10464000163401C001C01634180C100410001C00F0
:10465000130400FC13041C00100000000804101CCC
:104660001064108413041C041018000000000000E3
:1046700000007FFE400240024002000000003000C7
:104680000C0003800060001C0003000000004002DA
:10469000400240027FFE0000000000000000000019
:1046A0002000400040004000200000000001000108
:1046B00000010001000100010001000100004000B4
:1046C00040002000000000000000000000000098F2
:1046D000012401440144014400FC000410001FFCBB
:1046E00000880104010400880070000000000070D0
:1046F000008801040104010400880000000000702B
:1047000000880104010411081FFC0004000000F8E7
:10471000014401440144014400C8000000000104B8
:1047200001040FFC1104110411001800000000D650
:1047300001290129012901C90106000010041FFCFB
:10474000008401000100010400FC000400000104D9
:10475000190419FC0004000400000000000000031C
:1047600000010101190119FE0000000010041FFCE6
:104770000024004001B4010C0104000000001004FA
:1047800010041FFC0004000400000000010401FCF0
:104790000104010001FC0104010000FC010401FC12
:1047A000008401000100010400FC0004000000F886
:1047B000010401040104010400F80000010101FFEB
:1047C00000850104010400880070000000000070F2
:1047D000008801040104010501FF00010104010436
:1047E00001FC00840104010001800000000000CCF5
:1047F000012401240124012401980000000001008B
:10480000010007F80104010400000000010001F8A4
:10481000000400040004010801FC00040100018000
:104820000170000C001001600180010001F0010C1A
:10483000003001C00030010C01F001000000010453
:10484000018C00740170018C0104000001010181E0
:104850000171000E00180160018001000000018458
:10486000010C013401440184010C0000000000002F
:104870000000000001003EFC400240020000000079
:1048800000000000FFFF00000000000000004002E8
:1048900040023EFC0100000000000000000060003B
:1048A0008000800040004000200020000000000048
:1048B00000000000000000000000000000000000F8
:1048C00000000000000000000000000000000000E8
:1048D0000000000000000000000000000000000FC9
:1048E00080380FFE380F8038000000000000000004
:1048F00000000000000000000000010000060000B1
:104900000C00003800003100000600000C000038E8
:10491000000030000000000000000000618000671F
:10492000F807F9800061800061800061800061808B
:104930000067F807F98000618000000000000000B7
:10494000000001C0E003E0F00630080418081FFF73
:10495000FE040E080787F00381E00000000000005D
:1049600001F000060C00040408060C7001F9C000F8
:104970000E00003BE000EC18070808040C180003C8
:10498000E00000000001E00007F003F818041C0834
:1049900004170807E1D003C0E00023B0003C080082
:1049A000200800001000000000000001000031009D
:1049B000003200001C0000000000000000000000A9
:1049C00000000000000000000000000000000000E7
:1049D0000000000000000000000000007F0001FF58
:1049E000C00780F00C001810000420000200000036
:1049F0000000002000021000040C00180780F001E5
:104A0000FFC0007F00000000000000000000000068
:104A10000000000000000000420000660000660088
:104A2000003C0000180003FFC0001800003C00001C
:104A30006600006600004200000000000800000858
:104A40000000080000080000080001FFC000080086
:104A50000008000008000008000008000000000036
:104A6000000100003100003200001C0000000000C6
:104A70000000000000000000000000000000000036
:104A80000000000008000008000008000008000006
:104A900008000008000008000008000008000008E6
:104AA0000000000000000000000000003800003896
:104AB00000003800000000000000000000000000BE
:104AC00000000000000000000000000000060000E0
:104AD0001C000070000180000E0000380000C000C3
:104AE0000700001C00003000000000000000000073
:104AF0007F8001FFE00380700600180400080400B6
:104B00000806001803807001FFE0007F80000000AD
:104B10000000000000000100080100080100080377
:104B2000FFF807FFF8000008000008000008000078
:104B30000000000000000001C03802C058040098C6
:104B4000040118040218040418061C1803F81801BC
:104B5000E0F800000000000000000001C0E003C019
:104B6000F004000804080804080806180803F418EC
:104B700001E7F00001E0000000000000000000007C
:104B80000300000D00001100006100008108030116
:104B90000807FFF80FFFF8000108000108000000F7
:104BA0000000000000E007FCD00608080610080618
:104BB0001008061008061838060FF00607C0000097
:104BC00000000000000000003F8001FFE00384308F
:104BD000020818041008041008041008071810032D
:104BE0000FF00007C000000000000000000003C03C
:104BF000000700000600000600F80607F806180087
:104C000006E00007000006000000000000000001B0
:104C1000E1E003F7F0063410041808041808040C47
:104C200008040C0806161803F3F001C1E0000000A8
:104C300000000000F80003FC3003063804020804FA
:104C400002080402080404100308F001FFC0007FFA
:104C50000000000000000000000000000000000054
:104C6000000000007038007038007038000000004C
:104C70000000000000000000000000000000000034
:104C80000000000000000000301A00301C0000008E
:104C90000000000000000000000000000000000014
:104CA0000000000800001400002200004100008005
:104CB00080010040020020040010080008000000ED
:104CC0000000000021000021000021000021000060
:104CD000210000210000210000210000210000210E
:104CE00000000000000000000000080008040010A0
:104CF00002002001004000808000410000220000EE
:104D0000140000080000000000000003C00004C000
:104D100000040000080038080F38080838081000A0
:104D20000C300007E00003C000000000000000009D
:104D30003F8000FFE0038070020F1006708804C0FF
:104D400088048308047F8802C09003012000FE408D
:104D50000000080000180001F8003E0801C200072A
:104D6000020007E20000FE00001FC80001F800007A
:104D70003800000804000807FFF807FFF8040808D7
:104D800004080804080804080806180803F41801B1
:104D9000E7F00001E0000000000000003F8001FF9C
:104DA000E0038070020018040008040008040008F2
:104DB0000400100600200780C0000000040008075F
:104DC000FFF807FFF80400080400080400080400C6
:104DD0001802001003807001FFE0007F80000000D7
:104DE00004000807FFF807FFF8040808040808048F
:104DF0000808040808043E0804000806001801001A
:104E00006000000004000807FFF807FFF804080826
:104E1000040800040800040800043E000600000620
:104E20000000018000000000000000003F8001FF42
:104E3000E003807006001804000804020804020859
:104E40000203F00783F000020000020004000807DC
:104E5000FFF807FFF8040808000800000800000831
:104E60000000080004080807FFF807FFF80400081E
:104E70000000000000000400080400080400080707
:104E8000FFF807FFF8040008040008040008000009
:104E90000000000000000000000600000700000104
:104EA00004000104000104000307FFFE07FFFC04E7
:104EB000000004000004000004000807FFF807FFDA
:104EC000F8040C08001800003E0004C7800503C861
:104ED0000600F80400380400180000080400080761
:104EE000FFF807FFF80400080000080000080000B1
:104EF0000800000800000800001800006000000022
:104F000004000807FFF807800807FC00007FC000C6
:104F100003F80007C000780007800807FFF807FFC4
:104F2000F804000804000807FFF807000803C000A1
:104F300000E000003800001E000007000001C0046F
:104F400000F007FFF8040000000000007F8001FF70
:104F5000E00380700600180400080400080600182A
:104F600003003001FFE0007F80000000040008071C
:104F7000FFF807FFF8040408040400040400040414
:104F800000040400060C0003F80001F0000000001B
:104F9000000000007F8001FFE003807006008804AD
:104FA00000880400C806003C03003E01FFE6007FC5
:104FB0008400000004000807FFF807FFF804080851
:104FC000040800040C00040F00040BC00610F003DA
:104FD000F03801E00800000800000001E0F803F0EC
:104FE00030063010041808041808040C08040C08D3
:104FF0000206180207F00781E000000001800006A9
:10500000000004000004000004000807FFF807FF88
:10501000F8040008040000040000060000018000FD
:1050200004000007FFE007FFF0040018000008007C
:10503000000800000800000800000804001007FF36
:10504000E004000004000006000007E00007FE0086
:10505000041FE00001F80000380001E0043E0007F2
:10506000C00006000004000004000007E00007FF85
:10507000C0041FF80007C007F80007FF80043FF8CE
:105080000007C004F800070000040000000000044E
:10509000000806001807C07805F1C8003E00001F90
:1050A000800463E80780F806001804000800000088
:1050B00004000006000007800007E008047C0800E8
:1050C0001FF80007F800180804E0080700000600B1
:1050D000000400000000000100080600380400F889
:1050E0000403E8040F08047C0805F00807C008075B
:1050F0000018040060000000000000000000000034
:10510000000000000000003FFFFE2000022000021F
:105110002000022000022000020000000000000029
:10512000000008000007000000C000003800000672
:10513000000001C000003000000E0000010000006F
:1051400000000000000020000220000220000220D9
:1051500000022000023FFFFE0000000000000000EF
:105160000000000000000000000000000008000037
:105170001000003000002000003000001000000887
:10518000000000000000000000000100000100001D
:105190000100000100000100000100000100000109
:1051A00000000100000100000100000100000000FB
:1051B000000000000020000020000010000010008F
:1051C00000000000000000000000000000000000DF
:1051D0000000000000F00019F8001B180022080071
:1051E0002608002408002410003FF8001FF80000E3
:1051F0000800001800000004000007FFF80FFFF08F
:1052000000181800100800200800200800301800BE
:105210001FF0000FC00000000000000007C0001FCA
:10522000F0001830002008002008002008003C088A
:10523000001C1000006000000000000000000000E2
:1052400007C0001FF00038180020080020080020C8
:105250000804101007FFF80FFFF000001000000016
:105260000000000000000007C0001FF00012300026
:105270002218002208002208003208001E10000E2A
:10528000200000000000000020000020080020088E
:1052900001FFF803FFF8062008042008042008078F
:1052A000200003000000000000000000000E000EBF
:1052B0006E001FF30031B10020B10020B100319128
:1052C000001F13002E1E00200E00300000000004FE
:1052D000000807FFF80FFFF800100800200000206A
:1052E00000002008003FF8001FF800000800000040
:1052F0000000000000000020080020080020080630
:105300003FF8063FF8000008000008000008000011
:105310000000000000000000000000000300000387
:10532000002001002001002003063FFE063FFC0094
:10533000000000000000000000000004000807FF5B
:10534000F80FFFF8000188000300002FC00038F8B4
:1053500000203800200800000800000000000000C5
:10536000000004000804000804000807FFF80FFF0D
:10537000F80000080000080000080000000000001D
:10538000002008003FF8003FF8001008002000004F
:105390003FF8003FF8001008002000003FF8003FF1
:1053A000F8000008000000002008003FF8003FF867
:1053B000001008001000002000002008003FF80046
:1053C0001FF80000080000000000000007C0000FE8
:1053D000F0001830003008002008002008003008D5
:1053E000001830000FF00007C000000000000000AF
:1053F0002001003FFF003FFF0010110020090020A6
:1054000008002008003038001FF0000FC000000026
:105410000000000007C0001FF0003818002008003E
:105420002008002009001011001FFF003FFF0000AE
:1054300001000000002008002008002008003FF8BC
:10544000003FF800080800100800200800200000B5
:105450003000003000000000000000000000000CE0
:1054600078001E1800330800230800210800218856
:105470000021980030F000386000000000000000BB
:10548000200000200000200000FFF003FFF80020B3
:105490000800200800200800003000000000000084
:1054A000000000002000003FF0007FF8000018001E
:1054B0000008000008002010003FF8007FF0000006
:1054C00010000000000000002000003000003C0040
:1054D000003F800023F0000078000070002380006F
:1054E0003C00003000002000002000003C00003F95
:1054F000E00023F80000E0002700003E00003FE04D
:105500000021F80001E0003E000020000000000043
:105510002008002008003838003E6800278000037B
:10552000C8002CF8003838002018002008000000BF
:10553000000000002000003003003C01003F830019
:1055400023EC000070002380003C000020000020BD
:1055500000000000000000000000003808002038B3
:105560000020F80023E8002F88003E0800380800DB
:105570002018000070000000000000000000000083
:10558000000000000000000008000014001FF7FCED
:1055900030000620000200000000000000000000B3
:1055A0000000000000000000000000000000FFFFFD
:1055B000FF000000000000000000000000000000EC
:1055C0000000000000002000023000061FF7FC0071
:1055D00014000008000000000000000000000000AF
:1055E0000000000000000018000060000040000003
:1055F000400000200000100000080000040000042B
:1056000000000C0000100000B5E7020002000200DC
:105610007FF0421042107FF0421042107FF04200B3
:105620000208020801F800000000D7D37FF0002034
:105630000040008001000200FFF8020002000200AA
:105640000200020002000E0000000000BCBC10209E
:105650001020102013FEFC201020102015FC1884B0
:105660003088D04810501020105051882606CAF5B6
:1056700001000120011001107FFC0380054005405E
:10568000092011102108410401020100010001005C
:10569000D2BA0080404027F8114001408278424849
:1056A00016A81AD02350222042204250028800001F
:1056B0000000BEA73FE020203FE020203FE00000A8
:1056C000FDF885088508FDF885088508FDF885083A
:1056D00000000000B2E200084F8828880AA88AA8C3
:1056E0004AA80AA82AA82AA842284508848888889F
:1056F000103800000000CAD44050204820400FF865
:105700000040E04027402240224022202A2833A89F
:105710002E18000800000000B3CC00001BF0E210BF
:10572000221023F0F800200033F068806080A3F09E
:105730002080208027F800000000D0F20200010045
:105740003FF820002FF02020224021803FF82088C1
:10575000209040804080838000000000D1D5200050
:1057600010F87E20444028F87E8848A850A864A8F5
:1057700048A872A884501888610800000000C9ABCE
:10578000100010003FE0404080807FF04210421047
:1057900042107FF04000400840083FF80000000041
:1057A000CCEE20802FF8208027F0F41027F0241072
:1057B00027F0241027F03410CFF802200410000046
:1057C0000000B3E404000200FFF8080010402020AD
:1057D0007FF0089008800880088010882088C078B2
:1057E00000000000CEC4040002000200FFF81040D8
:1057F0001040088008800500020005000880306025
:10580000C01800000000D7D604000200FFF880088E
:1058100080083FC0008001000200FFF80200020083
:1058200002000E0000000000CFD43FE02020202026
:105830003FE0202020203FE008804890289028A0CA
:1058400008800880FFF800000000CABE00003FE0AA
:10585000000000000000FFF8020012401220221099
:105860004208820802000E0000000000CDBC7FF854
:105870004008440847C84848548843084CC873380F
:1058800040884C08430840887FF800000000C6AC00
:1058900000802080208020803FF020002000200019
:1058A0003FC0204020402040404080400000000099
:1058B000B4A520403840484091F07D505550555097
:1058C0007D5055F054407C40545057F88C080000EF
:1058D0000000C3FE2220222027F8FA2027F02410FF
:1058E00027F03410E7F020802FF821402220EC1818
:1058F00000000000CAE440804140F22044108BE8E0
:10590000A000F78824A827A834A8E7A824A82488FA
:1059100025B800000000C8EB0800040004000200E5
:10592000020005000500088008801040104020207B
:105930004010800800000000C8AB02000200050013
:10594000088010402020DFD8020002001FC00200A3
:1059500002000200FFF800000000B3CC00001BF0C2
:10596000E210221023F0F800200033F068806080FD
:10597000A3F02080208027F800000000BCBC20801D
:1059800020802080F7F02080208027E03220E22055
:105990002140208021402220EC1800000000CAF5A0
:1059A0000200024002200200FFF807000A800A807D
:1059B0001240222042108208020002000000000073
:1059C000D6A702000200FFF8020002007FE01020CC
:1059D0001040088005000200050018C0E0380000F3
:1059E0000000B3D62080208023F0F880208027F8A4
:1059F00028203020E7F82020222021202020E0E06D
:105A000000000000D7A8020002007FF0040004009C
:105A1000FFF8080010003FE0002000401C80030059
:105A2000008000000000D7A201004080200017F095
:105A3000008080804080008017F0108020802080CF
:105A400040804FF800000000C5FA20402440244068
:105A5000F4482450276024403440E440244024404B
:105A600025482648E43800000000B7A202002220A2
:105A7000221044007FF8040008000FE014202440A6
:105A80004280810006C0383800000000B3C900A081
:105A9000009000807FF8408040907C90449044A02B
:105AA00044A0444858A84118820800000000B9A644
:105AB00001000100F90023F0211021102110211014
:105AC00021103910C21002100410086000000000FC
:105AD000D2C60000002000780CE479045168103030
