:020000040800F2
:10000000C0F90120890200084B250008432500089B
:1000100047250008FD080008A52A00080000000088
:100020000000000000000000000000004F25000854
:100030000B0B0008000000004D25000851250008AA
:10004000AD020008AD020008AD020008AD020008D4
:10005000AD020008AD020008AD020008AD020008C4
:10006000AD020008AD020008AD020008AD020008B4
:10007000AD020008AD020008AD020008AD020008A4
:10008000AD020008AD020008AD020008AD02000894
:10009000AD020008AD020008AD020008AD02000884
:1000A000AD020008AD020008AD020008AD02000874
:1000B000AD020008AD0200086D250008AD02000881
:1000C000AD020008AD020008AD020008AD02000854
:1000D000AD020008952A0008AD020008AD02000834
:1000E000AD020008AD020008AD020008AD02000834
:1000F000AD020008AD020008AD020008AD02000824
:10010000AD020008AD020008AD020008AD02000813
:10011000AD020008AD020008B1250008AD020008DC
:10012000AD0200082D090008AD020008AD0200086C
:10013000AD020008AD020008AD020008AD020008E3
:10014000AD020008AD020008AD020008AD020008D3
:10015000AD020008AD020008AD020008AD020008C3
:10016000AD020008AD020008AD020008AD020008B3
:10017000AD020008AD0200081D09000800000000E3
:10018000AD020008AD02000800F002F800F06DF8C2
:100190000AA090E8000C82448344AAF10107DA45E2
:1001A00001D100F062F8AFF2090EBAE80F0013F0C7
:1001B000010F18BFFB1A43F00103184794C6000053
:1001C000B4C600000A444FF0000C10F8013B13F0D5
:1001D000070408BF10F8014B1D1108BF10F8015BA0
:1001E000641E05D010F8016B641E01F8016BF9D193
:1001F00013F0080F1EBF10F8014BAD1C0C1B09D1EA
:100200006D1E58BF01F801CBFAD505E014F8016B5B
:1002100001F8016B6D1EF9D59142D6D370470000ED
:100220000023002400250026103A28BF78C1FBD8FF
:10023000520728BF30C148BF0B607047642900F0E7
:100240003181752900F02E81782900F067816329BA
:1002500000F0FF82732900F00483002070471FB56F
:1002600008F006FF1FBD10B510BD00F015FB1146CC
:10027000FFF7F5FF06F0FCFC00F033FB03B4FFF7DB
:10028000F2FF03BC02F033FC0C48016841F470013A
:1002900001600B4880470B480047FEE7FEE7FEE79A
:1002A000FEE7FEE7FEE7FEE7FEE7FEE7FEE700000B
:1002B00005480649044A064B7047000088ED00E0F7
:1002C0005925000889010008C0F50120C0F9012066
:1002D000C0F50120704753EA020C00F069802DE957
:1002E000F04B4FF00006002B1FBFB3FA83F503FA63
:1002F00005F424FA05F65E4012BF1643B2FA82F501
:1003000002FA05F4C5F120051EBF22FA05FC44EAF5
:100310000C04203556EA044C4FEA144418BF641C00
:100320004FF000084FF00009904271EB030C39D3F5
:10033000002919BFB1FA81F701FA07F6B0FA80F780
:1003400000FA07F6C7F120071EBF20FA07FC46EAAD
:100350000C062037B6FBF4FCA7EB0507103F07F0AF
:100360001F0BCBF120060CFA0BFB2CFA06F644BF50
:10037000B3460026202FA4BF5E464FF0000B5BEA79
:10038000060C08BF4FF0010B19EB0B09ABFB027C0D
:1003900048EB0608C01B06FB02CC0BFB03CC71EB41
:1003A0000C01C1E70B46024641464846BDE8F08BCA
:1003B00013B54FF000004FF00001AFF30080BDE82F
:1003C0001C4070470FB4044910B503AA029800F00E
:1003D0004DFA10BC5DF814FB640000200FB41CB58E
:1003E000074B06AA7B4469460090059800F00FFA77
:1003F0000020694600F01EFA1CBC5DF814FB0000EA
:100400004D04000070B5044685690068C10601D539
:10041000302600E02026C00707D070BDD4E90121B6
:1004200030469047206A401C20626D1EF6D570BD94
:1004300070B5044685690078C00707D170BDD4E95E
:10044000012120209047206A401C20626D1EF6D5B5
:1004500070BD70B50C460546012A05D02878800687
:1004600000D5EA69002302E0012305E05B1C93420A
:1004700002D2E05C0028F9D1A869E618C01AA86188
:10048000286A184428622846FFF7BCFF04E0D5E933
:10049000012114F8010B9047B442F8D32846FFF726
:1004A000C7FF70BD2DE9F04106460024106875298C
:1004B000314616A510D0AFF30080002802DA404282
:1004C00013A507E031688A0701D512A502E04907A4
:1004D00004D511A5012401E0AFF3008000210A2218
:1004E00006F1240709E0B0FBF2FCB0FBF2F302FBDB
:1004F0001C00303078541846491C0028F3D123469C
:100500002A463046BDE8F04100F023B90000000063
:100510002D0000002B0000002000000070B50446F4
:100520000D4621461068AFF300802188090502D5E9
:100530000F4A7A4402E00E4A7A440E32002104F156
:10054000240305E000F00F060009965D5E54491C87
:100550000028F7D120780023000704D5702D02D0A1
:1005600009B1022311322046BDE8704000F0F1B815
:1005700040BE00002DE9F05F894604464FF0000AB6
:10058000DFF874B1FB44C0F820A02046E16888473A
:10059000002874D0252806D0D4E901219047206A8C
:1005A000401C2062F1E700265F462046E16888474C
:1005B0002028054607DB312D05D2781910F8200CCC
:1005C00008B10643F1E7B00701D526F00406C4F8E8
:1005D0001CA00027C4F818A02A2D09D0284602F034
:1005E0007FFA38B304EB8708303DC8F8185019E09B
:1005F00059F8041B204604EB87029161E1688847A3
:10060000012F054618D1E069002820DA26F02006DF
:100610001DE0D8F8180000EB800005EB40003038F2
:10062000C8F818002046E1688847054602F058FAE5
:100630000028EED1012F0AD02E2D08D12046E168E6
:1006400088477F1C0546022F46F02006C4DBA069C0
:10065000002803DA404246F00106A061F00701D00D
:1006600026F010066C2D0BD0682D09D04C2D39D0FA
:100670006A2D35D0742D35D07A2D33D016E038E080
:10068000E1682F4620468847B842054609D16C2FBD
:1006900026D04FF48060E16806432046884705462F
:1006A00004E06C2F1AD04FF4807006430DB3A5F10F
:1006B0004100192802D8203546F400664A462946EA
:1006C000204626604E46FFF7B9FD80B101280BD0C9
:1006D000F61D26F0070000F1080956E74020E4E780
:1006E0008020D8E70020D6E706F104094DE7284628
:1006F00052E7206ABDE8F09F16BE00004FF00002EE
:1007000000B5134694469646203922BFA0E80C5007
:10071000A0E80C50B1F12001BFF4F7AF090728BFE2
:10072000A0E80C5048BF0CC05DF804EB890028BF5E
:1007300040F8042B08BF704748BF20F8022B11F087
:10074000804F18BF00F8012B704770477047704703
:1007500070472DE9F0470D4699469246044600F150
:1007600024080168880604D5E06921F010012160A1
:1007700000E00120A84201DD471B00E00027A1693D
:100780007A1902EB0900081AA0612078C00602D489
:100790002046FFF737FE002608E0D4E901211AF8C9
:1007A00006009047206A401C761C20624E45F4DB10
:1007B0002078C0060AD52046FFF724FE06E0D4E9DB
:1007C000012130209047206A401C2062381EA7F18A
:1007D0000107F4DC07E0D4E9012118F8050090478F
:1007E000206A401C2062281EA5F10105F3DC20468A
:1007F000FFF71EFE2078000602D50220BDE8F08734
:100800000120FBE701694A1C02610878704700B5C6
:100810008FB0CDE901310021059105497944CDE939
:10082000031011466846FFF7A5FE0FB000BD00009B
:10083000E5FFFFFF0A6802F8010B0A60704710B578
:10084000436913B1AFF3008001E0FFF702FE01201E
:1008500010BD127800F124010A7000224A700122B2
:10086000EDE711684FF0FF32E9E70000074B70B584
:100870000D467B44FFF7CBFF0446284600F008F8FE
:1008800010B14FF0FF3070BD204670BD57250000FD
:10089000007B00F080007047754600F02BF8AE46F4
:1008A00005006946534620F00700854618B020B57C
:1008B000FFF7FEFCBDE820404FF000064FF00007B8
:1008C0004FF000084FF0000B21F00701AC46ACE8F8
:1008D000C009ACE8C009ACE8C009ACE8C0098D4665
:1008E000704710B50446AFF300802046BDE81040C5
:1008F000FFF7C4BC0048704760F5012000BFFEE769
:1009000070B50546AC6BA06B406D022802D001208B
:1009100084F82500204600F06DF970BD10B502483E
:1009200000F08EF910BD0000F0F3012010B528484A
:1009300000682849884205D926485438006800F4E0
:1009400000601BE0224800682349884205D92148FD
:100950005838006800F4006010E01D4800681E4927
:100960006039884205D91C48B838406800F40060F6
:1009700004E01948B838006800F4006030B3144847
:1009800000681449884204D9C81412494C390860D7
:1009900019E00F4800681049884204D9C8140D496D
:1009A000503908600FE00A4800680B4960398842F6
:1009B00004D9C8140849B839C86004E04FF400608D
:1009C0000549B839886005480068804710BD0000B7
:1009D00030F4012058640240B860024088000020D2
:1009E0000146087810381823B0FBF3F20848805C01
:1009F000C865032A05D908686FF30900001D8865DA
:100A000003E008686FF309008865886D704700008F
:100A1000C6900008014600208A6A8B69CBB932B1C2
:100A2000012A0DD0022A03D0032A10D10EE000BF04
:100A3000CB6A03F08073B3F1807F00D1012007E01F
:100A4000CB6AB3F1C07F00D1012001E000E000BF1C
:100A500034E08B69B3F5005F1AD132B1012A07D0B7
:100A6000022A03D0032A11D10AE000BF01200EE0C0
:100A7000CB6A03F08073B3F1807F00D1012006E0E0
:100A8000CB6AB3F1C07F00D1012000E000BF15E0C8
:100A900032B1012A05D0022A04D0032A0CD103E086
:100AA00000BF00BF012008E0CB6A03F08073B3F100
:100AB000807F00D1012000E000BF00BF704710B56B
:100AC000046863608468402C04D10468A2600468F0
:100AD000E16003E00468A1600468E26010BD30B525
:100AE0000468246824F4802405682C60046863602A
:100AF0008468402C04D10468A2600468E16003E0CB
:100B00000468A1600468E26030BD704770B50446B7
:100B10001D460023B5F5804F13D154F822300C4800
:100B20000340D1E9000640EA06108E6840EA06203C
:100B30008E8940EA06408E693043034344F82230F0
:100B400003E06FF0704044F82200002070BD000008
:100B50000000F0CF10B503460022086853F82020AB
:100B600012480240D1E901042043CC6820430C69BB
:100B700020434C6920438C692043CC6920430C6A94
:100B800020434C6A20438C6A2043CC6A2043CC6BC0
:100B900020430C6B204302438868082801D142F0AF
:100BA0004002086843F82020002010BD8000F0FFBC
:100BB00030B503460024501C53F8204004F0404454
:100BC000D1E9000540EA05108D6840EA05208D89CD
:100BD00040EA0545088A401E45EA0055087D801E0A
:100BE00045EA00608D6928430443501C43F82040C7
:100BF000002030BD7047000010B5044601200D49AB
:100C00000968486102F0F0F800BF4FF480610A48BB
:100C100000F0D2FB00BF09480078401C074908706B
:100C200004480068C06840F0010002490968C860D3
:100C300010BD0000F0F301200014024084000020E9
:100C400070B504462068056905F0040004280ED13B
:100C500021684861E06B40F00200E063042084F802
:100C600025002248A16B0865A06B00F0A5F905F0EE
:100C7000020002280ED121684861E06B40F00100BB
:100C8000E063042084F825001848A16B0865A06B78
:100C900000F092F905F01000102804D12168486195
:100CA000204600F06EF805F00800082804D12168FD
:100CB0004861204600F0ECF805F00100A0B1206882
:100CC000006800F00200022805D12068C06820F00A
:100CD0001E002168C8602068C06820F001002168FB
:100CE000C8602046FFF788FF70BD000001090008BA
:100CF00010B504460CB9012010BD94F8250040B988
:100D0000002084F82400204600F03CF8204600F043
:100D100039F8022084F825002068006840F6F87150
:100D2000884321680860616960680843E168084396
:100D300021690843A1680843A1690843216A08435F
:100D400021680968084321680860606810280BD191
:100D5000217F607F41EA0021A07F41EA0041E07FDE
:100D600041EA0060216888612068C06840F01E0088
:100D70002168C8600020E063012084F8250000207D
:100D8000BAE7704710B586B0044600BF0020009057
:100D90003A48006840F00100384908600846006899
:100DA00000F00100009000BF00BF00BF00200090D5
:100DB000081F006840F00100091F0860084600682D
:100DC00000F00100009000BF00BF00BF00200090B5
:100DD0000846006840F0020008600846006800F01D
:100DE0000200009000BF00BF00BF00200090084636
:100DF000006840F0040008600846006800F0040045
:100E0000009000BF00BF00BF0020009008460068AF
:100E100040F0100008600846006800F010000090E4
:100E200000BF00BF502001900220029001200390DB
:100E3000032004900D20059001A9114800F0B2F99B
:100E4000C020019001A90F4800F0ACF94FF43C60BC
:100E5000019001A90C4800F0A5F96020019001A9BA
:100E60000A4800F09FF9022211464E2000F01BFBB9
:100E70004E2000F008FB06B010BD000034380240E0
:100E8000000002400004024000080240001002403E
:100E900070472DE9F04704460E4617461D46DDF81B
:100EA00020804FF00009A068802804D140006065D0
:100EB0004FF0010929E000BF94F83400012802D165
:100EC0000220BDE8F087012084F8340000BF94F8C8
:100ED0003500012817D1022084F835002068006809
:100EE00040F48020216808602068056143463A4646
:100EF00031462046FFF7E3FD2068006840F001001E
:100F00002168086001E04FF002094846D9E770B552
:100F10000446A56D00F066FA064694F835000228EE
:100F200008D08020606500BF002084F8340000BF36
:100F3000012070BD2068006820F01600216808605C
:100F40002068406920F0800021684861206C08B961
:100F5000A06C28B12068006820F0080021680860B3
:100F60002068006820F00100216808600FE000F0B0
:100F700039FA801B05280AD92020606500BF0020AF
:100F800084F8340000BF032084F83500D1E72068DE
:100F9000006800F001000028E9D194F85C103F20BF
:100FA0008840A86000BF002084F8340000BF012002
:100FB00084F835000020BCE7014691F8350002288E
:100FC00003D08020486501207047052081F8350056
:100FD0000868006820F001000A6810600020F3E74C
:100FE00070B504460CB9012070BD94F83500022894
:100FF00000D1F9E72068006820F00100216808604E
:1010000000202168086021684860216888602168A4
:10101000C860216808612120216848612046FFF7E7
:10102000DFFC05460020E06320646064A064E064A7
:10103000206594F85C103F208840A860002060651F
:1010400084F8350000BF84F8340000BF00BFCBE750
:101050002DE9F0410446002500F0C4F9074614B913
:101060000120BDE8F081606A00B100BF00BF002030
:1010700084F8340000BF022084F83500206800683E
:1010800020F00100216808600AE000F0ABF9C01B05
:10109000052805D920206065032084F83500E0E7A5
:1010A0002068006800F001000028EED12068056883
:1010B00021480540D4E901010843E168084321695A
:1010C000084361690843A1690843E1690843216A4B
:1010D00008430543606A042803D1D4E90B0108439F
:1010E0000543206805602068456925F00705606AAA
:1010F0000543606A04280DD1A06A0543E06A48B13F
:101100002046FFF787FC28B140206065012084F865
:101110003500A6E7206845612046FFF761FC0646DA
:1011200094F85C103F208840B0600020606501208A
:1011300084F83500002094E73F8010F02DE9F0415D
:1011400004460D4616461F464FF0000800BF94F8AF
:101150003400012802D10220BDE8F081012084F88A
:10116000340000BF94F83500012811D1022084F822
:101170003500002060653B46324629462046FFF791
:10118000AEFC2068006840F001002168086006E0BD
:1011900000BF002084F8340000BF4FF00208404632
:1011A000DAE70000F8B502460B46002500240020CF
:1011B0000021DEE0012606FA01F51E6806EA0504B4
:1011C000AC4275D11E7906F00306012E04D01E79BB
:1011D00006F00306022E13D190684F000326BE408E
:1011E000B0434F00DE68BE40304390605068012637
:1011F0008E40B0431E79C6F300168E4030435060D7
:101200001E7906F00306032E09D0D0684F0003268E
:10121000BE40B0434F009E68BE403043D0601E7950
:1012200006F00306022E13D1CF0802F1200656F86D
:1012300027004E07F70E0F26BE40B0434F07FF0EA4
:101240001E69BE403043CF0802F1200646F8270051
:1012500010684F000326BE40B0431E7906F0030617
:101260004F00BE40304310605E6806F08056B6F115
:10127000805F7DD100BF00260096404E366846F460
:1012800080463E4F3E603E46366806F480460096F5
:1012900000BF00BF3A4E8F0856F827008E07370F61
:1012A0000F26BE40B043374EB24202D1002624E0A2
:1012B0005EE0354EB24201D101261EE0334EB2420D
:1012C00001D1022619E0324EB24201D1032614E0C8
:1012D000304EB24201D104260FE02F4EB24201D16E
:1012E00005260AE02D4EB24201D1062605E02C4E1D
:1012F000B24201D1072600E008268F073F0FBE400B
:1013000030431F4E8F0846F82700264E3068A04312
:101310005E6806F48036B6F5803F00D12043214E4A
:101320003060361D3068A0435E6806F40036B6F5BE
:10133000003F00D120431B4E361D3060361D306803
:10134000A0435E6806F48016B6F5801F00D12043E6
:10135000144E08363060361D3068A0435E6806F4CF
:101360000016B6F5001F00D120430E4E0C3630603B
:10137000491C1029FFF41EAFF8BD0000443802409C
:10138000083801400000024000040240000802400A
:10139000000C0240001002400014024000180240FD
:1013A000001C0240003C0140024613690B400BB197
:1013B000012000E00020704710B5426921EA0203D5
:1013C00002EA010443EA0443836110BD0AB181616A
:1013D00001E00B048361704701480068000C70470E
:1013E000002004E001480068704700006C00002005
:1013F00003480068034909780844014908607047B8
:101400006C0000207400002010B50A48006840F409
:101410000070084908600846006840F48060086071
:10142000052000F07FF80F2000F006F800F02AF801
:10143000002010BD003C024070B504460E48007804
:101440004FF47A71B1FBF0F00C490968B1FBF0F58B
:10145000284600F087FC08B1012070BD102C07D28F
:1014600000222146501E00F01EF80548046001E0ED
:101470000120F2E70020F0E7740000205C0000206B
:1014800070000020704701460846002809DB00F084
:101490001F0301229A4043099B0003F1E023C3F894
:1014A000002100BF70472DE9F05F80460D461646CB
:1014B000002701F0F9FA074639462A46334601F07B
:1014C0000700C0F1070ABAF1040F02D94FF0040A6D
:1014D00001E0C0F1070AD14600F1040ABAF1070F92
:1014E00002D24FF0000A01E0A0F1030AD4464FF007
:1014F000010A0AFA09FAAAF1010A0AEA020A0AFA30
:101500000CFA4FF0010B0BFA0CFBABF1010B0BEAE1
:10151000030B4AEA0B042146404601F0CDFABDE830
:10152000F09F000000BF00F00702064B19684FF65D
:10153000FF031940044B0B4343EA0221014B19609E
:1015400000BF70470CED00E00000FA0570B50446DE
:101550000D460CB9012070BD5848006800F0070026
:10156000A84209D255490D700846006800F00700EE
:10157000A84201D00120EEE7207800F00200022806
:101580001DD1207800F00400042805D14C480068E3
:1015900040F4E0504A490860207800F0080008282C
:1015A00005D14748006840F4604045490860444818
:1015B000006820F0F000A1680843414908602078E5
:1015C00000F00100A8B36068012807D13C48083842
:1015D0000068C0F34040B8B90120BCE76068022849
:1015E00002D06068032807D1354808380068C0F386
:1015F000406048B90120AEE7314808380068C0F3C0
:10160000400008B90120A6E72D48006820F003003B
:10161000616808432A490860FFF7E4FE064609E0CE
:10162000FFF7E0FE801B41F28831884202D9032097
:1016300091E707E02248006800F00C006168B0EB19
:10164000810FEDD11D48006800F00700A84209D9BC
:101650001A490D700846006800F00700A84201D042
:10166000012078E7207800F00400042807D114480E
:10167000006820F4E050E1680843114908602078D0
:1016800000F00800082808D10D48006820F46040E8
:10169000216940EAC1000A49086000F03FF80849A2
:1016A0000968C1F30311074A515CC8400649086044
:1016B00006480068FFF7C0FE00204CE7003C0240EF
:1016C00008380240AE9000085C0000207000002046
:1016D00001480068704700005C00002000B5FFF77B
:1016E000F7FF04490968C1F38221034A515CC840ED
:1016F00000BD000008380240BE90000800B5FFF7AA
:10170000E7FF04490968C1F34231034A515CC8400C
:1017100000BD000008380240BE9000082DE9F047E7
:10172000002400250026A1462548006800F00C0092
:1017300020B1042805D008283AD105E0DFF88490CC
:1017400039E0DFF8849036E01D48001F006800F0A3
:101750003F041B48001F006800F4800078B11A485D
:101760001749091F0968C1F38811A0FB01700146E0
:10177000224600233846FEF7AEFD05460EE011482E
:101780000F49091F0968C1F38811A0FB01700146C8
:10179000224600233846FEF79EFD05460848001FF6
:1017A0000068C0F30140401C4600B5FBF6F902E0BA
:1017B000DFF8109000BF00BF4846BDE8F08700008A
:1017C000083802400024F40000127A00F8B50446FC
:1017D0000CB90120F8BD207800F00100002874D079
:1017E000F948006800F00C0004280DD0F6480068A5
:1017F00000F00C00082813D1F348001F006800F423
:101800008000B0F5800F0BD1EF4808380068C0F3B6
:101810004040002859D06068002856D10120D9E7FF
:1018200000BF6068B0F5803F08D1E748083800681D
:1018300040F48030E449083908601EE06068B0F583
:10184000A02F0DD1E0480838006840F48020DE4920
:10185000083908600846006840F4803008600CE0F1
:10186000D9480838006820F48030D7490839086022
:101870000846006820F48020086000BF606890B1CE
:10188000FFF7B0FD054606E0FFF7ACFD401B6428FE
:1018900001D903209EE7CC4808380068C0F34040D7
:1018A0000028F1D011E0FFF79DFD054606E0FFF7A7
:1018B00099FD401B642801D903208BE7C2480838F2
:1018C0000068C0F340400028F1D1207800F0020009
:1018D00002285FD1BC48006800F00C0058B1BA483B
:1018E000006800F00C0008281CD1B748001F0068F1
:1018F00000F48000B0B9B44808380068C0F3400074
:1019000020B1E068012801D0012063E7AE48083823
:10191000006820F0F800216940EAC100AA490839AE
:10192000086037E0E06800B30120A8490860FFF7CD
:1019300059FD054606E0FFF755FD401B022801D979
:10194000032047E7A04808380068C0F3400000289B
:10195000F1D09D480838006820F0F800216940EA7D
:10196000C10099490839086014E0002097490860CF
:10197000FFF738FD054606E0FFF734FD401B02285F
:1019800001D9032026E7904808380068C0F34000DA
:101990000028F1D1207800F0080008282CD16069D7
:1019A000A8B101208A490860FFF71CFD054606E042
:1019B000FFF718FD401B022801D903200AE78248DF
:1019C0006C300068C0F340000028F1D014E0002023
:1019D0007F490860FFF706FD054606E0FFF702FDB8
:1019E000401B022801D90320F4E677486C300068D8
:1019F000C0F340000028F1D1207800F00400042852
:101A000070D1002770483830006800F0805090B9DD
:101A100000BF002000906C483830006840F08050D3
:101A20006949383108600846006800F0805000902D
:101A300000BF00BF01276748006800F48070B0B99C
:101A40006448006840F4807062490860FFF7CAFC8F
:101A5000054606E0FFF7C6FC401B022801D903201B
:101A6000B8E65C48006800F480700028F2D000BF3F
:101A7000A068012808D154486830006840F001008F
:101A80005149683108601DE0A06805280DD14E4815
:101A90006830006840F004004B496831086008462F
:101AA000006840F0010008600CE0474868300068BA
:101AB00020F001004449683108600846006820F0C1
:101AC0000400086000BFA068A8B1FFF78BFC0546C2
:101AD00009E0FFF787FC401B41F28831884202D9B8
:101AE000032077E626E0384868300068C0F34000FD
:101AF0000028EED013E0FFF775FC054608E0FFF77D
:101B000071FC401B41F28831884201D9032061E613
:101B10002D4868300068C0F340000028EFD1012F45
:101B200007D129483830006820F0805026493831E4
:101B3000086000BFA069002845D02348006800F075
:101B40000C0008285DD0A069022845D100201F495B
:101B50000866FFF747FC054606E0FFF743FC401B1D
:101B6000022801D9032035E6174808380068C0F379
:101B700040600028F1D1D4E907010843616A40EAD6
:101B800081110122A06AC2EB500041EA00412C20E1
:101B9000005D41EA00600C49091F086001200B4903
:101BA0000866FFF71FFC054606E0FFF71BFC401B1D
:101BB000022801D903200DE6034808380068C0F365
:101BC00040600028F1D049E0083802400000474258
:101BD000800E474200700040002021490866FFF750
:101BE00001FC054606E0FFF7FDFB401B022801D97A
:101BF0000320EFE51B480068C0F340600028F2D1E5
:101C00002CE0A069012800D1E4E51648001D066813
:101C1000A069012820D006F48001E06981421BD12F
:101C200006F03F01206A814216D147F6C07030406D
:101C3000616AB0EB811F0FD106F440310122A06A26
:101C4000C2EB5000B1EB004F06D106F070612C20C2
:101C5000005DB1EB006F01D00120BBE50020B9E5CC
:101C6000000047420038024070B504460E46154653
:101C70000CB9012070BD94F8490028B9002084F8FF
:101C80004800204600F01CF804F108012068FEF727
:101C900061FF3146A2682068FEF78AFF2946236B60
:101CA000D4E90102FEF732FFA168206850F8210054
:101CB00040F00100A268216841F822000020D9E725
:101CC00010B586B0044600BF00200090224800688E
:101CD00040F00100204908600846006800F001005B
:101CE000009000BF00BF00BF002000901A480838D5
:101CF000006840F008001849083908600846006884
:101D000000F00800009000BF00BF00BF002000905E
:101D10000846006840F0100008600846006800F0BF
:101D20001000009000BF00BF4CF203700190022031
:101D3000029001200390022004900C20059001A93C
:101D40000648FFF72FFA4FF68070019001A904486A
:101D5000FFF728FA06B010BD38380240000C0240E8
:101D60000010024070B504462546681EB0F1807F21
:101D700001D301200FE0681E4FF0E02148610F21E0
:101D80004FF0FF3000F098FE00204FF0E021886116
:101D900007200861002070BD7047704710B50446E9
:101DA0000CB9012010BD94F83D0028B9002084F83A
:101DB0003C00204600F026F8022084F83D00211D5A
:101DC000206800F0FDFB012084F8460000BF84F885
:101DD0003E0001213F200155402001554120015581
:101DE00000BF00BF012084F8420043200155442079
:101DF00001554520015500BF012084F83D00002019
:101E0000D0E7000038B504460F492068884219D150
:101E100000BF00BF002000900C48006840F0100098
:101E20000A4908600846006800F01000009000BFF2
:101E300000BF00BF032201213620FFF734FB36200C
:101E4000FFF721FB38BD0000001000404038024081
:101E5000014691F83D00012801D001207047022081
:101E600081F83D000868C06840F001000B68D86048
:101E70001A4B086898421BD00868B0F1804F17D001
:101E8000174B0868984213D0164B086898420FD039
:101E9000154B086898420BD0144B0868984207D03D
:101EA000134B0868984203D0124B086898420CD133
:101EB0000868806800F00702062A0CD008680068ED
:101EC00040F001000B68186005E00868006840F009
:101ED00001000B6818600020C0E70000000001400E
:101EE0000004004000080040000C004000040140D5
:101EF0000040014000180040704710B504462068BB
:101F00000069C0F34000D8B12068C068C0F3400049
:101F1000B0B16FF0020021680861012020772068CD
:101F2000806900F0030018B12046FFF7E5FF05E0E7
:101F3000204600F0ADF8204600F0ABF800202077F6
:101F400020680069C0F38000D8B12068C068C0F381
:101F50008000B0B16FF00400216808610220207792
:101F60002068806900F4407018B12046FFF7C4FF74
:101F700005E0204600F08CF8204600F08AF80020AA
:101F8000207720680069C0F3C000D8B12068C0681D
:101F9000C0F3C000B0B16FF00800216808610420F0
:101FA00020772068C06900F0030018B12046FFF7D1
:101FB000A3FF05E0204600F06BF8204600F069F82A
:101FC0000020207720680069C0F30010D8B1206895
:101FD000C068C0F30010B0B16FF010002168086154
:101FE000082020772068C06900F4407018B12046AE
:101FF000FFF782FF05E0204600F04AF8204600F097
:1020000048F8002020772068006900F0010058B1EE
:102010002068C06800F0010030B16FF00100216855
:102020000861204600F036F820680069C0F3C0104F
:1020300058B12068C068C0F3C01030B16FF08000A4
:10204000216808612046FFF7A7FE20680069C0F3F9
:10205000801058B12068C068C0F3801030B16FF0B4
:10206000400021680861204600F02EF820680069D1
:10207000C0F3401058B12068C068C0F3401030B1C0
:102080006FF02000216808612046FFF786FE10BD32
:102090007047704710B504460548844207D105488B
:1020A000017805A0FEF78EF900200249087010BDE6
:1020B000A8F30120840000206672616D653A2564F2
:1020C0006670730D0A00000070477047704700008B
:1020D0002DE9F84F0446206805682068C668206826
:1020E00047694FF00009CA4605F00F09B9F1000F22
:1020F0000AD105F0200038B106F0200020B12046BA
:1021000000F0FFFABDE8F88FB9F1000F72D007F0C8
:10211000010018B906F4907000286BD005F001009A
:1021200030B106F4807018B1206C40F001002064DA
:1021300005F0040030B107F0010018B1206C40F048
:102140000200206405F0020030B107F0010018B170
:10215000206C40F00400206405F0080048B106F04F
:10216000200010B907F0010018B1206C40F0080001
:102170002064206C70B305F0200028B106F0200028
:1021800010B1204600F0BDFA20684069C0F3801A03
:10219000206C00F0080010B9BAF1000F23D02046DF
:1021A00000F084FA2068406900F04000402816D111
:1021B0002068406920F0400021684861A06B50B160
:1021C0005648A16B0865A06BFEF7F6FE10B1A06B38
:1021D000016D88470CE02046FFF778FF08E02046B5
:1021E000FFF774FF04E02046FFF770FF0020206433
:1021F00088E7FFE7206B012879D105F0100000285F
:1022000075D006F01000002871D000BF00200090AB
:1022100020680068009020684068009000BF00BF00
:102220002068406900F04000402839D1A06B006868
:1022300040681FFA80F8B8F1000F30D0A08D4045FB
:102240002DDDA4F82E80A06BC069B0F5807F1FD073
:102250002068C06820F480702168C86020684069E8
:1022600020F00100216848612068406920F04000AA
:1022700021684861202084F83E0000202063206807
:10228000C06820F010002168C860A06BFEF73FFE18
:10229000A08DE28D801A81B22046FFF716FF31E74C
:1022A000A08DE18D401A1FFA80F8E08DE8B1B8F1F9
:1022B000000F1AD02068C06820F490702168C860B0
:1022C0002068406920F0010021684861202084F8DE
:1022D0003E00002020632068C06820F010002168C4
:1022E000C86041462046FFF7F0FE0BE7FFE705F028
:1022F000800030B106F0800018B1204600F099FB54
:1023000000E705F0400030B106F0400018B120466B
:1023100000F0E7F9F6E600BFF4E6000099260008B1
:1023200010B504460CB9012010BDA06900B100E051
:1023300000BF94F83D0028B9002084F83C002046F6
:1023400000F028F8242084F83D002068C06820F4BC
:1023500000502168C860204600F032FA2068006909
:1023600020F49040216808612068406920F02A002C
:10237000216848612068C06840F400502168C86046
:1023800000202064202084F83D0084F83E000020D6
:10239000CAE7000010B586B004462E49206888427E
:1023A00055D100BF00BF002000902B48006840F0CE
:1023B0001000294908600846006800F010000090ED
:1023C00000BF00BF00BF00BF00BF00200090224838
:1023D0001438006840F001001F49143908600846AD
:1023E000006800F00100009000BF00BF00BF00BF08
:1023F00000BF002000900846006840F0010008601F
:102400000846006800F00100009000BF00BF00BF58
:1024100048150190022002900120039002200490B0
:102420000720059001A90D48FEF7BCFE4FF480601F
:1024300001900720059001A90848FEF7B3FE25206A
:10244000FFF721F8032211462520FFF72CF806B0EC
:1024500010BD00000010014044380240000002405E
:1024600070B504460D46164694F83E00202816D155
:1024700005B10EB9012070BD00BF94F83C000128E1
:1024800001D10220F7E7012084F83C0000BF0020C2
:10249000206332462946204600F0A8FAEBE70220E6
:1024A000E9E7000010B504462049206888423BD186
:1024B0001F48008800F4004088BB1D48008800F4D5
:1024C000804070B11B4800780A2803D000201849CA
:1024D000088024E01648008840F400401449088031
:1024E0001DE0144800780D2806D11148008840F4FA
:1024F00080400F49088012E00E4800780C49098896
:10250000C1F30D010C4A505409480088401C084989
:10251000088008460088C72801DD002008800122C5
:1025200004490648FFF79CFF10BD00000010014061
:10253000680000206A0000203CF2012004F3012022
:10254000704700BFFEE700BFFEE770477047704767
:1025500010B5FEF74DFF10BD0348006840F4700051
:10256000014908607047000088ED00E010B50E4892
:102570000068C06800F0010078B10C490869804724
:10258000002009490968486200BF642006490968BB
:10259000C86264210448C16000BF6FF001000249B5
:1025A0000968086110BD000018F5012048010020ED
:1025B00010B50248FFF7A1FC10BD0000A8F30120F0
:1025C00010B50268294B98420ED0B0F1804F0BD065
:1025D000274B984208D0274B984205D0264B98426B
:1025E00002D0264B984203D122F070024B681A4366
:1025F0001E4B984220D0B0F1804F1DD01C4B98420A
:102600001AD01C4B984217D01B4B984214D01B4B2E
:10261000984211D01A4B98420ED01A4B98420BD0C8
:10262000194B984208D0194B984205D0184B984244
:1026300002D0184B984203D122F44072CB681A435F
:1026400022F080034C6943EA040202608B68C36293
:102650000B688362054B984202D0084B984201D127
:102660000B6903630123436110BD000000000140BA
:102670000004004000080040000C0040000401403D
:102680000040014000440140004801400018004063
:10269000001C00400020004070B50546AC6B0020D7
:1026A000E085E0842046FFF711FD70BD0168C96830
:1026B00021F490710268D1600168496921F001013B
:1026C00002685161016B012905D10168C96821F0D7
:1026D00010010268D160202180F83E1000210163C2
:1026E000704710B504462068C06820F0400021689B
:1026F000C860202084F83D002046FFF721FF00201D
:1027000010BD70B5044694F83E00222856D1A0684A
:10271000B0F5805F0CD1206950B90025A66A206809
:102720004068C0F308003080A06A801CA06215E0F9
:10273000A56A0026A068B0F5805F03D0A06828B91C
:10274000206918B920684068287004E02068406853
:1027500000F07F002870A06A401CA062E08D401E3F
:1027600080B2E08540BB2068C06820F0200021686E
:10277000C8602068C06820F480702168C860206844
:10278000406920F0010021684861202084F83E0063
:10279000206B01280AD12068C06820F01000216851
:1027A000C860A18D2046FFF790FC02E02046FFF7AD
:1027B00079FE0020206370BD0020FCE70220FAE7CC
:1027C0002DE9F84F04462068006920F44050E16884
:1027D0000843216808612169A068084361690843CA
:1027E000E169084300902068C06849F20C618843A1
:1027F000009908432168C8602068406920F440704F
:10280000A16908432168486176492068884203D05D
:1028100075492068884203D1FEF770FF814602E0C7
:10282000FEF75CFF8146E069B0F5004F6CD10220F5
:102830006168A0FB015003461920A9FB0070014606
:102840002A463846FDF747FD6421B0FBF1F04FEA18
:10285000001A02206168A0FB01510B461920A9FB58
:1028600000712A463846FDF736FD8346022061682E
:10287000A0FB015003461920A9FB00712A463846E7
:10288000FDF729FD6421B0FBF1F000EBC00101EB85
:102890000010ABEB8000322101EBC0006421B0FBE3
:1028A000F1F000F0F8000AEB400A02206168A0FB9A
:1028B000015003461920A9FB007001462A463846FC
:1028C000FDF709FD834602206168A0FB0150034625
:1028D0001920A9FB00712A463846FDF7FCFC64214B
:1028E000B0FBF1F000EBC00101EB0010ABEB80009E
:1028F000322101EBC0006421B0FBF1F000F00700D1
:102900005044216888606AE004206168A0FB01509F
:1029100003461920A9FB007001462A463846FDF7F8
:10292000DAFC824604206168A0FB015003461920AE
:10293000A9FB007001462A463846FDF7CCFC64210D
:10294000B0FBF1F000EBC00101EB0010AAEB80003E
:10295000322101EB00106421B0FBF1F000F0F00A2D
:1029600004206168A0FB017003461920A9FB0051F7
:102970003A462846FDF7AFFC6421B0FBF1F00AEBC4
:10298000001A04206168A0FB01510B461920A9FB25
:1029900000712A463846FDF79EFC83460420616894
:1029A000A0FB015003461920A9FB007001462A46EE
:1029B0003846FDF790FC6421B0FBF1F000EBC0015C
:1029C00001EB0010ABEB8000322101EB0010642121
:1029D000B0FBF1F000F00F00504421688860BDE8C2
:1029E000F88F0000001001400014014010B50346AC
:1029F00099629A85DA8500201864222083F83E00C7
:102A000000BF002083F83C0000BF1868C06840F495
:102A100080701C68E0601868406940F001001C6824
:102A200060611868C06840F020001C68E060002009
:102A300010BD014691F83D00212828D18868B0F5E5
:102A4000805F0BD1086948B90A6A1088C0F3080092
:102A50000B685860086A801C086205E00B6A581C05
:102A6000086218780B685860C88C401E80B2C88411
:102A700058B90868C06820F080000B68D860086802
:102A8000C06840F040000B68D8600020704702200A
:102A9000FCE7000010B50248FFF71AFB10BD00006C
:102AA00004F3012000BFFEE702480068C0F30220E3
:102AB000704700000CED00E010B5002804DB0A07A9
:102AC000130E054A135406E00A07140E034A00F0D9
:102AD0000F031B1FD45410BD00E400E018ED00E00C
:102AE00030380A2801D2012070470020704700BF0B
:102AF0007047000070B505460C4607480749086056
:102B00000846446000218160C560FFF747F903482B
:102B1000FFF79EF970BD000000100040A8F30120EF
:102B200010B500230D4C236023461B6843EA401375
:102B3000236023461B6843EA8113236023461B68F6
:102B400043EAC213236023461B6843F48043236097
:102B500023461B6843F00103236010BD00000550AD
:102B60002DE9F84306460C4615461F46DDF8208041
:102B700000BF002000903148006840F480002F49D9
:102B800008600846006800F48000009000BF00BFA5
:102B900000BF2B482B49886308462949886300BF3A
:102BA00008460068006820F01000096808602648A0
:102BB000234908604FF00070486000212048816080
:102BC000C160C0F810804FF48051416187610911E4
:102BD000C161490201620421416201218162002137
:102BE000C1620163FEF7FCF91548FEF731FA00BF38
:102BF0000020134981F8340000BF34B92B46324617
:102C000012490F48FEF79AFA16E0234632460F495A
:102C10000B480095FEF73DF909480068006840F050
:102C20001000074909680860032202213920FEF7D5
:102C30003AFC3920FEF727FCBDE8F8833038024023
:102C400030F40120F0F301202864024028000550F0
:102C500010B51148114908600020486020210F4834
:102C600081600021C160016141618161FEF740F82E
:102C700000200949C86009480068C06840F00100A8
:102C800006490968C86005480068006840F480404B
:102C900002490968086010BD00000550F0F30120EA
:102CA0002DE9F04106460F4614461D4600F040F857
:102CB0004FF6FF7000F02CFC2B462246394630467A
:102CC00003F0A0FD2946204604F006FB002108463B
:102CD00003F008FD03F06CFF0648006840F00100B7
:102CE000044908600448006840F001000249086097
:102CF000BDE8F081286402400000055010B50021B5
:102D0000084603F0EFFC03F053FF07480068006833
:102D100040F001000449096808600448006840F078
:102D200001000249086010BD30F401200000055088
:102D30000A48006820F001000849086000BF074801
:102D4000006800F001000028F9D10548006800681B
:102D500020F0010002490968086070470000055032
:102D600030F4012001490860704700006000002035
:102D700010B504464FF47A7104FB01F000F002F83C
:102D800010BD000070B5034600224FF0E0267569C3
:102D90000D4E366803FB06F44FF0E026B16910E0F3
:102DA0004FF0E026B06988420BD0884202D20E1A5A
:102DB000324402E02E1A0E4432440146A24200D3AD
:102DC00000E0EDE700BF70BD6000002000BF054AD5
:102DD000126802F04002002AF9D0C2B2014B5A60D8
:102DE000704700000010014070B53148007800289D
:102DF00057D03048007800283DD12F48006800683F
:102E000020F001002C490968086000BF2B480068C9
:102E100000F001000028F9D1274800684068C0F59B
:102E2000806085B226482749096800EB810623485F
:102E3000006800F4002058B1002406E0224850F851
:102E4000240046F82400601C84B2AC42F6DB0AE0A1
:102E5000002406E01D4850F8240046F82400601CB9
:102E600084B2AC42F6DB1748006828441549086074
:102E70000120104908700F480078022817D140023D
:102E80000D49096848600C480068006840F001007E
:102E90000949096808600020064908700949086066
:102EA00005E00021084603F01DFC03F081FE70BD23
:102EB000000000200800002030F4012028640240B7
:102EC0003C020020040000203CE201203CD2012012
:102ED000174A184B1B6802EB8301174A126802F469
:102EE000002292B1002006E0144A52F8202041F856
:102EF0002020421C90B2B0F5806FF5DB0D4A1268BD
:102F000002F580620B4B1A6011E0002006E00C4ACB
:102F100052F8202041F82020421C90B2B0F5806F7A
:102F2000F5DB044A126802F58062024B1A607047B2
:102F30003C02002004000020286402403CD2012012
:102F40003CE201208AB00020089080464FF0020940
:102F50004FF0020A02254FF6FF7000F0D9FA4FF445
:102F60007840B5A110221346CDE900210290C82275
:102F700032211E2003F09EFD4FF47840B0A11022B4
:102F80001346CDE900210290C82246211E2003F0FD
:102F900091FD4FF47840AFA110221346CDE90021F6
:102FA0000290C82264211E2003F084FD4FF4784073
:102FB000ACA110221346CDE900210290C82278214D
:102FC0001E2003F077FD4FF47840AAA1102213468B
:102FD000CDE900210290C8228C211E2003F06AFD59
:102FE0004FF47840A6A110221346CDE900210290AB
:102FF000C822A0211E2003F05DFDA44850F8252022
:10300000A3A104A8FDF7EAF94FF4784004A910221F
:103010001346CDE900210290C822B4211E2003F0FE
:1030200049FD04F0F7F8FFF713FE9D489D4908603D
:103030006802030102469C490090A1F58050FFF709
:103040008FFD9A4A02EB85025188984A32F8250092
:1030500004F042F9FFF752FEEDE0954800780128B0
:10306000FAD1944E94480068810094A0FDF7AAF923
:103070004FF4784097A110221346CDE90021029029
:10308000D22211461E2003F015FD00200990089061
:10309000002418E0305DFF2806D1601C305CD82881
:1030A00002D1A34601200890305DFF280AD1601CA0
:1030B000305CD92806D1089820B1A4EB0B00801C05
:1030C000099005E0641C7C480068B4EB800FE1D3F4
:1030D00000BF0998C0B15E44002411E0305D83490F
:1030E000086000BF8148001F006800F04000002811
:1030F000F8D0002000F0AAF9074607B103E0641CED
:1031000009988442EAD300BF002F7CD04FF4784066
:1031100077A110221346CDE900210290D222114658
:103120001E2003F0C7FC012F06D0022F18D0032F5A
:1031300028D0042F50D139E00AF1010000F0FF0A35
:10314000BAF1040F01DD4FF0000A504603F0DAFE39
:103150004FFA8AF0821E6CA104A8FDF73FF93CE00B
:1031600009F1010000F0FF09B9F1040F01DD4FF092
:103170000009484603F0A6FE4A4667A104A8FDF7E9
:103180002DF92AE008F1010000F0FF08B8F1060F60
:1031900001DD4FF00008404604F01EF9624850F887
:1031A000282062A104A8FDF719F916E0681CC5B231
:1031B0000C2D00DD00253D4A02EB850251883B4A7B
:1031C00032F8250004F088F8304850F8252030A166
:1031D00004A8FDF703F900E000BF00BF4FF6FF7041
:1031E000CE23EF22B42100901E2002F08DFE4FF47A
:1031F000784004A910221346CDE900210290D22282
:10320000B4211E2000E006E003F054FC4FF44870A7
:10321000FFF7AEFD0CE04FF4784047A110221346B3
:10322000CDE900210290D22211461E2003F042FC7B
:1032300002201F49087010E753544D33320000003C
:103240004F5632363430204A504547204D6F646522
:10325000000000004B4559303A436F6E7472617341
:10326000740000004B4559313A53617475726174B2
:10327000696F6E004B4559323A4566666563740066
:103280004B45595F55503A53697A65002800002034
:103290004A5045472053697A653A2573000000007B
:1032A000D12E0008880000203CE201207A9000081E
:1032B000080000203C02002004000020675F6A70C4
:1032C00065675F646174615F6C656E3A25640D0AC1
:1032D0000000000053656E64696E67204A504547E0
:1032E00020646174612E2E2E000000000444004012
:1032F000517569742053656E64696E6720646174EA
:103300006120202000000000436F6E7374726173AF
:10331000743A256400000000536174757261746929
:103320006F6E3A25640000000C000020456666655B
:1033300063743A257300000053656E642064617401
:103340006120636F6D706C65746521210000000061
:1033500000B587B000BF00BF00200190384800686A
:1033600040F01000364908600846006800F0100080
:10337000019000BF00BF00BF00BF00BF0020019050
:103380000846006840F0100008600846006800F039
:103390001000019000BF00BF00BF00BF00BF0020B1
:1033A00001900846006840F0100008600846006878
:1033B00000F01000019000BF00BF00BF00BF00BFC1
:1033C000002001900846006840F0010008600846AF
:1033D000006800F00100019000BF00BF00BF102096
:1033E000029000200390012004900220059002A981
:1033F0001448FDF7D7FE082002900020039001201A
:1034000004900220059002A90E48FDF7CBFE04208F
:10341000029000200390012004900220059002A950
:103420000848FDF7BFFE0120029000200390022013
:103430000490059002A90448FDF7B4FE07B000BD52
:1034400030380240001002400000024070B50446CF
:10345000002514B101202B4908702A480078002863
:1034600034D010212848FDF79FFF78B10821264865
:10347000FDF79AFF50B104212348FDF795FF28B1CD
:1034800001212248FDF790FF01281FD10A20FFF7F4
:103490006FFC00201B49087010211B48FDF784FFBA
:1034A00000B9012508211848FDF77EFF00B9022563
:1034B00004211548FDF778FF00B9032501211348C1
:1034C000FDF772FF01281BD1042519E010210E48D9
:1034D000FDF76AFF012813D108210B48FDF764FFAF
:1034E00001280DD104210848FDF75EFF012807D10E
:1034F00001210648FDF758FF10B901200149087065
:10350000284670BD800000200010024000000240EC
:1035100070B50446002609480588408845430021C7
:10352000084603F0DFF803F043FB00BF02E0044865
:103530000480761CAE42FAD370BD000098F30120DF
:103540008000006C10B5044658488471002C58D196
:10355000F020564908804FF4A070488008468088C3
:1035600045F21051884210D14FF430504F49088134
:103570004FF4285048814FF42C5088814FF4F0705C
:1035800008804FF4487048801AE04848808841F627
:10359000631188420DD12C20444908812B20488199
:1035A0002A2088814FF4F07008804FF448704880DA
:1035B00006E02C203D4908812A2048812B20888163
:1035C0003A48808845F21031884205D037488088D3
:1035D00047F29671884206D14FF4A07033490880B3
:1035E0004FF4F07048803148808849F606018842DF
:1035F00058D14FF4F0702D4908804FF4487048803E
:1036000050E04FF4A07029490880F0204880084617
:10361000808845F21051884210D14FF43050234930
:1036200008814FF4285048814FF42C5088814FF482
:10363000487008804FF4F070488020E01B48808874
:1036400041F66311884205D01848808849F6060182
:1036500088420DD12C20154908812A2048812B2031
:1036600088814FF4487008804FF4F070488006E07D
:103670002C200E4908812A2048812B2088810B4864
:10368000808845F21031884205D00848808847F28A
:103690009671884206D14FF4F070044908804FF4C7
:1036A000A0704880002002F0FFFE10BD98F30120BA
:1036B00070B505460E4614463146284603F012F80A
:1036C00003F076FA01490C8070BD00008000006CA8
:1036D00010B5CF2003F060FA002003F051FAC120AA
:1036E00003F04EFA302003F04BFAED2003F054FAC9
:1036F000642003F045FA032003F042FA122003F09D
:103700003FFA812003F03CFAE82003F045FA8520D7
:1037100003F036FA102003F033FA7A2003F030FA7F
:10372000CB2003F039FA392003F02AFA2C2003F0D9
:1037300027FA002003F024FA342003F021FA0220B3
:1037400003F01EFAF72003F027FA202003F018FAFE
:10375000EA2003F021FA002003F012FA002003F01F
:103760000FFAC02003F018FA1B2003F009FAC12059
:1037700003F012FA012003F003FAC52003F00CFA5B
:10378000302003F0FDF9302003F0FAF9C72003F0F0
:1037900003FAB72003F0F4F9362003F0FDF94820CE
:1037A00003F0EEF93A2003F0F7F9552003F0E8F9B9
:1037B000B12003F0F1F9002003F0E2F91A2003F040
:1037C000DFF9B62003F0E8F90A2003F0D9F9A220C6
:1037D00003F0D6F9F22003F0DFF9002003F0D0F96E
:1037E000262003F0D9F9012003F0CAF9E02003F004
:1037F000D3F90F2003F0C4F92A2003F0C1F92820DF
:1038000003F0BEF9082003F0BBF90E2003F0B8F96D
:10381000082003F0B5F9542003F0B2F9A92003F011
:10382000AFF9432003F0ACF90A2003F0A9F90F2007
:1038300003F0A6F9002003F0A3F9002003F0A0F99B
:10384000002003F09DF9002003F09AF9E12003F035
:10385000A3F9002003F094F9152003F091F9172043
:1038600003F08EF9072003F08BF9112003F088F99B
:10387000062003F085F92B2003F082F9562003F08F
:103880007FF93C2003F07CF9052003F079F9102042
:1038900003F076F90F2003F073F93F2003F070F97D
:1038A0003F2003F06DF90F2003F06AF92B2003F09D
:1038B00073F9002003F064F9002003F061F901209E
:1038C00003F05EF93F2003F05BF92A2003F064F96E
:1038D000002003F055F9002003F052F9002003F016
:1038E0004FF9EF2003F04CF9112003F055F978203F
:1038F000FFF73EFA292003F04FF910BD10B5FF2065
:1039000003F04AF9FF2003F03BF9982003F038F95F
:10391000062003F035F9BC2003F03EF9012003F046
:103920002FF90F2003F02CF9612003F029F9FF2073
:1039300003F026F9012003F023F9012003F020F918
:103940000B2003F01DF9102003F01AF9372003F0C3
:1039500017F9632003F014F9FF2003F011F9FF2099
:1039600003F00EF9012003F00BF9012003F008F930
:10397000002003F005F9002003F002F9FF2003F016
:10398000FFF8522003F0FCF8012003F0F9F80020C2
:1039900003F0F6F8402003F0F3F8BD2003F0FCF844
:1039A000012003F0EDF8232003F0EAF8452003F0AE
:1039B000E7F8672003F0E4F8012003F0E1F82320A2
:1039C00003F0DEF8452003F0DBF8672003F0D8F8B9
:1039D000BE2003F0E1F8002003F0D2F8012003F04C
:1039E000CFF8AB2003F0CCF8602003F0C9F8222018
:1039F00003F0C6F8222003F0C3F8222003F0C0F839
:103A0000222003F0BDF8222003F0BAF8C72003F00B
:103A1000C3F8362003F0B4F8ED2003F0BDF87F20A2
:103A200003F0AEF80F2003F0ABF8C02003F0B4F8B9
:103A30000F2003F0A5F80B2003F0A2F80A2003F0F2
:103A40009FF8FC2003F0A8F8082003F099F8DF2085
:103A500003F0A2F8002003F093F8002003F090F8A0
:103A6000002003F08DF8002003F08AF8002003F016
:103A700087F8202003F084F8F32003F08DF87420F9
:103A800003F07EF8B42003F087F8002003F078F804
:103A9000002003F075F8002003F072F8F72003F01F
:103AA0007BF8822003F06CF8B12003F075F8002059
:103AB00003F066F8132003F063F8132003F060F8B6
:103AC000F22003F069F8802003F05AF8042003F094
:103AD00057F8402003F054F8282003F051F8C12093
:103AE00003F05AF8172003F04BF8882003F048F849
:103AF000882003F045F8202003F042F8E02003F08E
:103B00004BF8002003F03CF80A2003F039F81220AB
:103B100003F036F8102003F033F80E2003F030F8ED
:103B2000202003F02DF8CC2003F02AF8072003F022
:103B300027F8062003F024F80B2003F021F80E20CC
:103B400003F01EF80F2003F01BF80D2003F018F807
:103B5000152003F015F8102003F012F8002003F0F0
:103B60000FF8E12003F018F8002003F009F80B200B
:103B700003F006F8132003F003F80D2003F000F81B
:103B80000E2002F0FDFF1B2002F0FAFF712002F070
:103B9000F7FF062002F0F4FF062002F0F1FF0A20F2
:103BA00002F0EEFF0F2002F0EBFF0E2002F0E8FF24
:103BB0000F2002F0E5FF152002F0E2FF0C2002F0DA
:103BC000DFFF002002F0DCFF2A2002F0E5FF0020EA
:103BD00002F0D6FF002002F0D3FF012002F0D0FF58
:103BE000DF2002F0CDFF2B2002F0D6FF002002F0F4
:103BF000C7FF002002F0C4FF032002F0C1FF1F2016
:103C000002F0BEFF3A2002F0C7FF552002F0B8FFD5
:103C1000362002F0C1FF002002F0B2FF112002F0B6
:103C2000BBFF7820FFF7A4F8292002F0B5FF14208D
:103C3000FFF79EF82C2002F0AFFF10BD10B5ED206D
:103C400002F0AAFF012002F09BFFFE2002F098FF85
:103C5000EE2002F0A1FFDE2002F092FF212002F010
:103C60008FFFF12002F098FF012002F089FFDF2092
:103C700002F092FF102002F083FFC42002F08CFFBC
:103C80008F2002F07DFFC62002F086FF002002F0A8
:103C900077FFE22002F074FFE22002F071FFE220E1
:103CA00002F06EFFBF2002F077FFAA2002F068FF4B
:103CB000B02002F071FF0D2002F062FF002002F040
:103CC0005FFF0D2002F05CFF002002F059FF112081
:103CD00002F056FF002002F053FF192002F050FFBF
:103CE000002002F04DFF212002F04AFF002002F0E8
:103CF00047FF2D2002F044FF002002F041FF3D204D
:103D000002F03EFF002002F03BFF5D2002F038FF92
:103D1000002002F035FF5D2002F032FF002002F0AB
:103D20002FFFB12002F038FF802002F029FF002091
:103D300002F026FF8B2002F023FF002002F020FF7C
:103D4000962002F01DFF002002F01AFFB22002F0C0
:103D500023FF002002F014FF002002F011FF0220D8
:103D600002F00EFF002002F00BFF032002F008FF1C
:103D7000002002F005FFB32002F00EFF002002F049
:103D8000FFFE002002F0FCFE002002F0F9FE002001
:103D900002F0F6FE002002F0F3FE002002F0F0FE3A
:103DA000002002F0EDFE002002F0EAFE002002F00A
:103DB000E7FE002002F0E4FE002002F0E1FE002019
:103DC00002F0DEFE002002F0DBFE002002F0D8FE52
:103DD000002002F0D5FE002002F0D2FE002002F00A
:103DE000CFFE002002F0CCFE002002F0C9FE002031
:103DF00002F0C6FE002002F0C3FE002002F0C0FE6A
:103E0000002002F0BDFE002002F0BAFEB42002F055
:103E1000C3FE8B2002F0B4FE002002F0B1FE96201B
:103E200002F0AEFE002002F0ABFEA12002F0A8FEE0
:103E3000002002F0A5FEB52002F0AEFE022002F046
:103E40009FFE002002F09CFE032002F099FE00205D
:103E500002F096FE042002F093FE002002F090FE95
:103E6000B62002F099FE002002F08AFE002002F047
:103E700087FEB72002F090FE002002F081FE0020B5
:103E800002F07EFE3F2002F07BFE002002F078FE72
:103E90005E2002F075FE002002F072FE642002F047
:103EA0006FFE002002F06CFE8C2002F069FE002004
:103EB00002F066FEAC2002F063FE002002F060FE1D
:103EC000DC2002F05DFE002002F05AFE702002F0BD
:103ED00057FE002002F054FE902002F051FE002018
:103EE00002F04EFEEB2002F04BFE002002F048FEF6
:103EF000DC2002F045FE002002F042FEB82002F075
:103F00004BFE002002F03CFE002002F039FE0020B3
:103F100002F036FE002002F033FE002002F030FEF8
:103F2000002002F02DFE002002F02AFE002002F008
:103F300027FEBA2002F030FE242002F021FE0020ED
:103F400002F01EFE002002F01BFE002002F018FE10
:103F5000C12002F021FE202002F012FE002002F01B
:103F60000FFE542002F00CFE002002F009FEFF209C
:103F700002F006FE002002F003FEC22002F00CFE5A
:103F80000A2002F0FDFD002002F0FAFD042002F0FC
:103F9000F7FD002002F0F4FDC32002F0FDFD3C20FF
:103FA00002F0EEFD002002F0EBFD3A2002F0E8FD09
:103FB000002002F0E5FD392002F0E2FD002002F0D1
:103FC000DFFD372002F0DCFD002002F0D9FD3C20AF
:103FD00002F0D6FD002002F0D3FD362002F0D0FD25
:103FE000002002F0CDFD322002F0CAFD002002F0D8
:103FF000C7FD2F2002F0C4FD002002F0C1FD2C20DF
:1040000002F0BEFD002002F0BBFD292002F0B8FD49
:10401000002002F0B5FD262002F0B2FD002002F0E3
:10402000AFFD242002F0ACFD002002F0A9FD242009
:1040300002F0A6FD002002F0A3FD232002F0A0FD67
:10404000002002F09DFD3C2002F09AFD002002F0CD
:1040500097FD362002F094FD002002F091FD322001
:1040600002F08EFD002002F08BFD2F2002F088FD73
:10407000002002F085FD2C2002F082FD002002F0DD
:104080007FFD292002F07CFD002002F079FD262032
:1040900002F076FD002002F073FD242002F070FD96
:1040A000002002F06DFD242002F06AFD002002F0E5
:1040B00067FD232002F064FD002002F061FDC420B2
:1040C00002F06AFD622002F05BFD002002F058FD64
:1040D000052002F055FD002002F052FD842002F080
:1040E0004FFD002002F04CFDF02002F049FD0020C1
:1040F00002F046FD182002F043FD002002F040FDD2
:10410000A42002F03DFD002002F03AFD182002F04C
:1041100037FD002002F034FD502002F031FD002078
:1041200002F02EFD0C2002F02BFD002002F028FDF5
:10413000172002F025FD002002F022FD952002F05C
:104140001FFD002002F01CFDF32002F019FD0020ED
:1041500002F016FDE62002F013FD002002F010FD33
:10416000C52002F019FD322002F00AFD002002F005
:1041700007FD442002F004FD002002F001FD65204F
:1041800002F0FEFC002002F0FBFC762002F0F8FCBE
:10419000002002F0F5FC882002F0F2FC002002F082
:1041A000EFFCC62002F0F8FC202002F0E9FC002021
:1041B00002F0E6FC172002F0E3FC002002F0E0FC35
:1041C000012002F0DDFC002002F0DAFCC72002F042
:1041D000E3FC002002F0D4FC002002F0D1FC00201F
:1041E00002F0CEFC002002F0CBFCC82002F0D4FC90
:1041F000002002F0C5FC002002F0C2FC002002F00A
:10420000BFFC002002F0BCFCC92002F0C5FC00206D
:1042100002F0B6FC002002F0B3FC002002F0B0FC7B
:10422000002002F0ADFC002002F0AAFC002002F009
:10423000A7FC002002F0A4FC002002F0A1FC00205A
:1042400002F09EFC002002F09BFC002002F098FC93
:10425000002002F095FC002002F092FC002002F009
:104260008FFC002002F08CFC002002F089FCE02092
:1042700002F092FC162002F083FC002002F080FC89
:104280001C2002F07DFC002002F07AFC212002F0CC
:1042900077FC002002F074FC362002F071FC002054
:1042A00002F06EFC462002F06BFC002002F068FC7D
:1042B000522002F065FC002002F062FC642002F053
:1042C0005FFC002002F05CFC7A2002F059FC002028
:1042D00002F056FC8B2002F053FC002002F050FC50
:1042E000992002F04DFC002002F04AFCA82002F0C8
:1042F00047FC002002F044FCB92002F041FC002001
:1043000002F03EFCC42002F03BFC002002F038FC2E
:10431000CA2002F035FC002002F032FCD22002F06C
:104320002FFC002002F02CFCD92002F029FC0020F8
:1043300002F026FCE02002F023FC002002F020FC2A
:10434000F32002F01DFC002002F01AFCE12002F034
:1043500023FC162002F014FC002002F011FC1C20AB
:1043600002F00EFC002002F00BFC222002F008FC00
:10437000002002F005FC362002F002FC002002F0D2
:10438000FFFB452002F0FCFB002002F0F9FB52206D
:1043900002F0F6FB002002F0F3FB642002F0F0FBD9
:1043A000002002F0EDFB7A2002F0EAFB002002F090
:1043B000E7FB8B2002F0E4FB002002F0E1FB9920F8
:1043C00002F0DEFB002002F0DBFBA82002F0D8FBAD
:1043D000002002F0D5FBB92002F0D2FB002002F051
:1043E000CFFBC42002F0CCFB002002F0C9FBCA20A6
:1043F00002F0C6FB002002F0C3FBD22002F0C0FB9B
:10440000002002F0BDFBD82002F0BAFB002002F031
:10441000B7FBE02002F0B4FB002002F0B1FBF32078
:1044200002F0AEFB002002F0ABFBE22002F0B4FB96
:10443000052002F0A5FB002002F0A2FB0B2002F0F9
:104440009FFB002002F09CFB1B2002F099FB002048
:1044500002F096FB342002F093FB002002F090FB68
:10446000442002F08DFB002002F08AFB4F2002F076
:1044700087FB002002F084FB612002F081FB00201A
:1044800002F07EFB792002F07BFB002002F078FB3B
:10449000882002F075FB002002F072FB972002F0EA
:1044A0006FFB002002F06CFBA62002F069FB0020ED
:1044B00002F066FBB72002F063FB002002F060FB15
:1044C000C22002F05DFB002002F05AFBC72002F080
:1044D00057FB002002F054FBD12002F051FB0020DA
:1044E00002F04EFBD62002F04BFB002002F048FB0E
:1044F000DD2002F045FB002002F042FBF32002F039
:104500003FFB002002F03CFBE32002F045FB0520CE
:1045100002F036FB002002F033FB0A2002F030FBF1
:10452000002002F02DFB1C2002F02AFB002002F0EC
:1045300027FB332002F024FB002002F021FB442063
:1045400002F01EFB002002F01BFB502002F018FBC3
:10455000002002F015FB622002F012FB002002F0A6
:104560000FFB782002F00CFB002002F009FB8820F2
:1045700002F006FB002002F003FB972002F000FB94
:10458000002002F0FDFAA62002F0FAFA002002F064
:10459000F7FAB72002F0F4FA002002F0F1FAC22094
:1045A00002F0EEFA002002F0EBFAC72002F0E8FA7F
:1045B000002002F0E5FAD12002F0E2FA002002F039
:1045C000DFFAD52002F0DCFA002002F0D9FADD2073
:1045D00002F0D6FA002002F0D3FAF32002F0D0FA6B
:1045E000002002F0CDFAE42002F0D6FA012002F019
:1045F000C7FA002002F0C4FA012002F0C1FA00203C
:1046000002F0BEFA022002F0BBFA002002F0B8FA73
:104610002A2002F0B5FA002002F0B2FA3C2002F0A3
:10462000AFFA002002F0ACFA4B2002F0A9FA002009
:1046300002F0A6FA5D2002F0A3FA002002F0A0FA30
:10464000742002F09DFA002002F09AFA842002F011
:1046500097FA002002F094FA932002F091FA0020D9
:1046600002F08EFAA22002F08BFA002002F088FA03
:10467000B32002F085FA002002F082FABE2002F098
:104680007FFA002002F07CFAC42002F079FA0020C0
:1046900002F076FACD2002F073FA002002F070FAF0
:1046A000D32002F06DFA002002F06AFADD2002F059
:1046B00067FA002002F064FAF32002F061FA0020A9
:1046C00002F05EFAE52002F067FA002002F058FAE4
:1046D000002002F055FA002002F052FA002002F009
:1046E0004FFA022002F04CFA002002F049FA292089
:1046F00002F046FA002002F043FA3C2002F040FAB1
:10470000002002F03DFA4B2002F03AFA002002F0BD
:1047100037FA5D2002F034FA002002F031FA7420FA
:1047200002F02EFA002002F02BFA842002F028FA80
:10473000002002F025FA932002F022FA002002F075
:104740001FFAA22002F01CFA002002F019FAB3208E
:1047500002F016FA002002F013FABE2002F010FA5E
:10476000002002F00DFAC42002F00AFA002002F044
:1047700007FACD2002F004FA002002F001FAD3205B
:1047800002F0FEF9002002F0FBF9DC2002F0F8F95B
:10479000002002F0F5F9F32002F0F2F9002002F017
:1047A000EFF9E62002F0F8F9112002F0E9F9002013
:1047B00002F0E6F9342002F0E3F9002002F0E0F91B
:1047C000562002F0DDF9002002F0DAF9762002F03E
:1047D000D7F9002002F0D4F9772002F0D1F90020B7
:1047E00002F0CEF9662002F0CBF9002002F0C8F901
:1047F000882002F0C5F9002002F0C2F9992002F0E9
:10480000BFF9002002F0BCF9BB2002F0B9F900208A
:1048100002F0B6F9992002F0B3F9002002F0B0F9E5
:10482000662002F0ADF9002002F0AAF9552002F04E
:10483000A7F9002002F0A4F9552002F0A1F9002008
:1048400002F09EF9452002F09BF9002002F098F951
:10485000432002F095F9002002F092F9442002F082
:104860008FF9002002F08CF9E72002F095F9322050
:1048700002F086F9002002F083F9552002F080F959
:10488000002002F07DF9762002F07AF9002002F093
:1048900077F9662002F074F9002002F071F96720C0
:1048A00002F06EF9002002F06BF9672002F068F95F
:1048B000002002F065F9872002F062F9002002F082
:1048C0005FF9992002F05CF9002002F059F9BB2051
:1048D00002F056F9002002F053F9992002F050F945
:1048E000002002F04DF9772002F04AF9002002F092
:1048F00047F9442002F044F9002002F041F9562023
:1049000002F03EF9002002F03BF9232002F038F9D2
:10491000002002F035F9332002F032F9002002F0D5
:104920002FF9452002F02CF9002002F029F9E820A7
:1049300002F032F9002002F023F9002002F020F901
:10494000992002F01DF9002002F01AF9872002F0E8
:1049500017F9002002F014F9882002F011F9002064
:1049600002F00EF9772002F00BF9002002F008F9AE
:10497000662002F005F9002002F002F9882002F01A
:10498000FFF8002002F0FCF8AA2002F0F9F800205D
:1049900002F0F6F8BB2002F0F3F8002002F0F0F885
:1049A000992002F0EDF8002002F0EAF8662002F00B
:1049B000E7F8002002F0E4F8552002F0E1F80020CA
:1049C00002F0DEF8552002F0DBF8002002F0D8F803
:1049D000442002F0D5F8002002F0D2F8442002F082
:1049E000CFF8002002F0CCF8552002F0C9F80020E2
:1049F00002F0C6F8E92002F0CFF8AA2002F0C0F8D1
:104A0000002002F0BDF8002002F0BAF8002002F009
:104A1000B7F8002002F0C0F8AA2002F0B1F8CF20C9
:104A200002F0BAF8002002F0ABF8002002F0A8F87B
:104A3000002002F0A5F8002002F0A2F8002002F009
:104A40009FF8002002F09CF8002002F099F8002066
:104A500002F096F8002002F093F8002002F090F89F
:104A6000002002F08DF8002002F08AF8002002F009
:104A700087F8002002F084F8002002F081F800207E
:104A800002F07EF8002002F07BF8F02002F084F8BB
:104A9000002002F075F8502002F072F8002002F0B9
:104AA0006FF8002002F06CF8002002F069F8F320A3
:104AB00002F072F8002002F063F8F92002F06CF8BE
:104AC000062002F05DF8102002F05AF8292002F0CA
:104AD00057F8002002F054F83A2002F05DF8552013
:104AE00002F04EF8112002F057F86420FEF740F96A
:104AF000292002F051F8352002F04EF8002002F093
:104B00003FF8512002F048F8FF2002F039F8532016
:104B100002F042F82C2002F033F8552002F03CF865
:104B2000822002F02DF82C2002F036F810BD10B5CE
:104B300055214FF4704002F045F8AA214FF20100D0
:104B400002F040F852214FF2020002F03BF8082137
:104B50004FF2030002F036F801214FF2040002F098
:104B600031F80D214FF4304002F02CF80D214BF2BA
:104B7000010002F027F80D214BF2020002F022F8AA
:104B800034214FF4364002F01DF834214BF201601D
:104B900002F018F834214BF2026002F013F80D21F4
:104BA0004FF4314002F00EF80D214BF2011002F0EB
:104BB00009F80D214BF2021002F004F834214FF4F1
:104BC000374001F0FFFF34214BF2017001F0FAFF92
:104BD00034214BF2027001F0F5FF00214FF4324016
:104BE00001F0F0FF00214BF2012001F0EBFF00216A
:104BF0004BF2022001F0E6FF24214FF4384001F08F
:104C0000E1FF24214BF6010001F0DCFF24214BF6EB
:104C1000020001F0D7FF01214FF43F4001F0D2FF25
:104C20000F214FF4334001F0CDFF0F214BF2013043
:104C300001F0C8FF0F214BF2023001F0C3FF342115
:104C40004FF4394001F0BEFF34214BF6011001F062
:104C5000B9FF34214BF6021001F0B4FF08214FF4E4
:104C6000354001F0AFFF08214BF2015001F0AAFFDF
:104C700008214BF2025001F0A5FF03214FF44240FE
:104C800001F0A0FF24214FF43A4001F09BFF2421C2
:104C90004BF6012001F096FF24214BF6022001F093
:104CA00091FF00214FF43C4001F08CFF78214BF63E
:104CB000014001F087FF00214BF6024001F082FF26
:104CC00000214FF43D4001F07DFF78214BF601506B
:104CD00001F078FF00214BF6025001F073FF002134
:104CE0004FF43E4001F06EFF64214BF6016001F08D
:104CF00069FF00214FF4514001F064FF33214DF270
:104D0000011001F05FFF00214DF2021001F05AFF87
:104D100034214DF2031001F055FF00214DF2041033
:104D200001F050FF3A214DF2051001F04BFF002138
:104D30004DF2061001F046FF4A214DF2071001F036
:104D400041FF00214DF2081001F03CFF5C214DF2C3
:104D5000091001F037FF00214DF20A1001F032FF77
:104D600081214DF20B1001F02DFF00214DF20C10AE
:104D700001F028FFA6214DF20D1001F023FF0021C4
:104D80004DF20E1001F01EFFE5214DF20F1001F063
:104D900019FF01214DF2101001F014FF13214DF203
:104DA000111001F00FFF01214DF2121001F00AFF66
:104DB00054214DF2131001F005FF01214DF21410A2
:104DC00001F000FF82214DF2151001F0FBFE0121E0
:104DD0004DF2161001F0F6FECA214DF2171001F047
:104DE000F1FE02214DF2181001F0ECFE00214DF20F
:104DF000191001F0E7FE02214DF21A1001F0E2FE57
:104E000001214DF21B1001F0DDFE02214DF21C10BC
:104E100001F0D8FE34214DF21D1001F0D3FE022125
:104E20004DF21E1001F0CEFE67214DF21F1001F071
:104E3000C9FE02214DF2201001F0C4FE84214DF282
:104E4000211001F0BFFE02214DF2221001F0BAFE46
:104E5000A4214DF2231001F0B5FE02214DF22410E1
:104E600001F0B0FEB7214DF2251001F0ABFE02219A
:104E70004DF2261001F0A6FECF214DF2271001F0D1
:104E8000A1FE02214DF2281001F09CFEDE214DF220
:104E9000291001F097FE02214DF22A1001F092FE36
:104EA000F2214DF22B1001F08DFE02214DF22C105B
:104EB00001F088FEFE214DF22D1001F083FE03214A
:104EC0004DF22E1001F07EFE10214DF22F1001F058
:104ED00079FE03214DF2301001F074FE33214DF2C2
:104EE000311001F06FFE03214DF2321001F06AFE25
:104EF0006D214DF2331001F065FE00214FF4524058
:104F000001F060FE33214DF2012001F05BFE002133
:104F10004DF2022001F056FE34214DF2032001F043
:104F200051FE00214DF2042001F04CFE3A214DF2D9
:104F3000052001F047FE00214DF2062001F042FE5F
:104F40004A214DF2072001F03DFE00214DF20820DC
:104F500001F038FE5C214DF2092001F033FE002102
:104F60004DF20A2001F02EFE81214DF20B2001F0BE
:104F700029FE00214DF20C2001F024FEA6214DF265
:104F80000D2001F01FFE00214DF20E2001F01AFE4F
:104F9000E5214DF20F2001F015FE01214DF2102008
:104FA00001F010FE13214DF2112001F00BFE012142
:104FB0004DF2122001F006FE54214DF2132001F0B3
:104FC00001FE01214DF2142001F0FCFD82214DF281
:104FD000152001F0F7FD01214DF2162001F0F2FD40
:104FE000CA214DF2172001F0EDFD02214DF21820EB
:104FF00001F0E8FD00214DF2192001F0E3FD02214E
:105000004DF21A2001F0DEFD01214DF21B2001F0CE
:10501000D9FD02214DF21C2001F0D4FD34214DF2C6
:105020001D2001F0CFFD02214DF21E2001F0CAFD2E
:1050300067214DF21F2001F0C5FD02214DF2202015
:1050400001F0C0FD84214DF2212001F0BBFD0221C1
:105050004DF2222001F0B6FDA4214DF2232001F0F3
:10506000B1FD02214DF2242001F0ACFDB7214DF23B
:10507000252001F0A7FD02214DF2262001F0A2FD1E
:10508000CF214DF2272001F09DFD02214DF2282075
:1050900001F098FDDE214DF2292001F093FD02215F
:1050A0004DF22A2001F08EFDF2214DF22B2001F06D
:1050B00089FD02214DF22C2001F084FDFE214DF2EC
:1050C0002D2001F07FFD03214DF22E2001F07AFD0D
:1050D00010214DF22F2001F075FD03214DF23020FB
:1050E00001F070FD33214DF2312001F06BFD032101
:1050F0004DF2322001F066FD6D214DF2332001F0BA
:1051000061FD00214FF4534001F05CFD33214DF26D
:10511000013001F057FD00214DF2023001F052FD47
:1051200034214DF2033001F04DFD00214DF20430E9
:1051300001F048FD3A214DF2053001F043FD002118
:105140004DF2063001F03EFD4A214DF2073001F0EC
:1051500039FD00214DF2083001F034FD5C214DF2A3
:10516000093001F02FFD00214DF20A3001F02AFD37
:1051700081214DF20B3001F025FD00214DF20C3064
:1051800001F020FDA6214DF20D3001F01BFD0021A4
:105190004DF20E3001F016FDE5214DF20F3001F019
:1051A00011FD01214DF2103001F00CFD13214DF2E3
:1051B000113001F007FD01214DF2123001F002FD26
:1051C00054214DF2133001F0FDFC01214DF2143059
:1051D00001F0F8FC82214DF2153001F0F3FC0121C1
:1051E0004DF2163001F0EEFCCA214DF2173001F0FD
:1051F000E9FC02214DF2183001F0E4FC00214DF2EF
:10520000193001F0DFFC02214DF21A3001F0DAFC16
:1052100001214DF21B3001F0D5FC02214DF21C3072
:1052200001F0D0FC34214DF21D3001F0CBFC022105
:105230004DF21E3001F0C6FC67214DF21F3001F027
:10524000C1FC02214DF2203001F0BCFC84214DF262
:10525000213001F0B7FC02214DF2223001F0B2FC06
:10526000A4214DF2233001F0ADFC02214DF2243097
:1052700001F0A8FCB7214DF2253001F0A3FC02217A
:105280004DF2263001F09EFCCF214DF2273001F087
:1052900099FC02214DF2283001F094FCDE214DF200
:1052A000293001F08FFC02214DF22A3001F08AFCF6
:1052B000F2214DF22B3001F085FC02214DF22C3011
:1052C00001F080FCFE214DF22D3001F07BFC03212A
:1052D0004DF22E3001F076FC10214DF22F3001F00E
:1052E00071FC03214DF2303001F06CFC33214DF2A2
:1052F000313001F067FC03214DF2323001F062FCE5
:105300006D214DF2333001F05DFC00214FF454402B
:1053100001F058FC33214DF2014001F053FC002113
:105320004DF2024001F04EFC34214DF2034001F0F9
:1053300049FC00214DF2044001F044FC3A214DF2B9
:10534000054001F03FFC00214DF2064001F03AFC1F
:105350004A214DF2074001F035FC00214DF2084092
:1053600001F030FC5C214DF2094001F02BFC0021E2
:105370004DF20A4001F026FC81214DF20B4001F074
:1053800021FC00214DF20C4001F01CFCA6214DF245
:105390000D4001F017FC00214DF20E4001F012FC0F
:1053A000E5214DF20F4001F00DFC01214DF21040BE
:1053B00001F008FC13214DF2114001F003FC012122
:1053C0004DF2124001F0FEFB54214DF2134001F06A
:1053D000F9FB01214DF2144001F0F4FB82214DF262
:1053E000154001F0EFFB01214DF2164001F0EAFB00
:1053F000CA214DF2174001F0E5FB02214DF21840A1
:1054000001F0E0FB00214DF2194001F0DBFB02212D
:105410004DF21A4001F0D6FB01214DF21B4001F084
:10542000D1FB02214DF21C4001F0CCFB34214DF2A6
:105430001D4001F0C7FB02214DF21E4001F0C2FBEE
:1054400067214DF21F4001F0BDFB02214DF22040CB
:1054500001F0B8FB84214DF2214001F0B3FB0221A1
:105460004DF2224001F0AEFBA4214DF2234001F0A9
:10547000A9FB02214DF2244001F0A4FBB7214DF21B
:10548000254001F09FFB02214DF2264001F09AFBDE
:10549000CF214DF2274001F095FB02214DF228402B
:1054A00001F090FBDE214DF2294001F08BFB02213F
:1054B0004DF22A4001F086FBF2214DF22B4001F023
:1054C00081FB02214DF22C4001F07CFBFE214DF2CC
:1054D0002D4001F077FB03214DF22E4001F072FBCD
:1054E00010214DF22F4001F06DFB03214DF23040B1
:1054F00001F068FB33214DF2314001F063FB0321E1
:105500004DF2324001F05EFB6D214DF2334001F06F
:1055100059FB00214FF4554001F054FB33214DF26B
:10552000015001F04FFB00214DF2025001F04AFB07
:1055300034214DF2035001F045FB00214DF204509F
:1055400001F040FB3A214DF2055001F03BFB0021F8
:105550004DF2065001F036FB4A214DF2075001F0A2
:1055600031FB00214DF2085001F02CFB5C214DF283
:10557000095001F027FB00214DF20A5001F022FBF7
:1055800081214DF20B5001F01DFB00214DF20C501A
:1055900001F018FBA6214DF20D5001F013FB002184
:1055A0004DF20E5001F00EFBE5214DF20F5001F0CF
:1055B00009FB01214DF2105001F004FB13214DF2C3
:1055C000115001F0FFFA01214DF2125001F0FAFAE8
:1055D00054214DF2135001F0F5FA01214DF214500F
:1055E00001F0F0FA82214DF2155001F0EBFA0121A1
:1055F0004DF2165001F0E6FACA214DF2175001F0B3
:10560000E1FA02214DF2185001F0DCFA00214DF2CE
:10561000195001F0D7FA02214DF21A5001F0D2FAD6
:1056200001214DF21B5001F0CDFA02214DF21C5028
:1056300001F0C8FA34214DF21D5001F0C3FA0221E5
:105640004DF21E5001F0BEFA67214DF21F5001F0DD
:10565000B9FA02214DF2205001F0B4FA84214DF242
:10566000215001F0AFFA02214DF2225001F0AAFAC6
:10567000A4214DF2235001F0A5FA02214DF224504D
:1056800001F0A0FAB7214DF2255001F09BFA02215A
:105690004DF2265001F096FACF214DF2275001F03D
:1056A00091FA02214DF2285001F08CFADE214DF2E0
:1056B000295001F087FA02214DF22A5001F082FAB6
:1056C000F2214DF22B5001F07DFA02214DF22C50C7
:1056D00001F078FAFE214DF22D5001F073FA03210A
:1056E0004DF22E5001F06EFA10214DF22F5001F0C4
:1056F00069FA03214DF2305001F064FA33214DF282
:10570000315001F05FFA03214DF2325001F05AFAA4
:105710006D214DF2335001F055FA00214FF45640FF
:1057200001F050FA33214DF2016001F04BFA0021F3
:105730004DF2026001F046FA34214DF2036001F0AF
:1057400041FA00214DF2046001F03CFA3A214DF299
:10575000056001F037FA00214DF2066001F032FADF
:105760004A214DF2076001F02DFA00214DF2086048
:1057700001F028FA5C214DF2096001F023FA0021C2
:105780004DF20A6001F01EFA81214DF20B6001F02A
:1057900019FA00214DF20C6001F014FAA6214DF225
:1057A0000D6001F00FFA00214DF20E6001F00AFACF
:1057B000E5214DF20F6001F005FA01214DF2106074
:1057C00001F000FA13214DF2116001F0FBF9012103
:1057D0004DF2126001F0F6F954214DF2136001F020
:1057E000F1F901214DF2146001F0ECF982214DF242
:1057F000156001F0E7F901214DF2166001F0E2F9C0
:10580000CA214DF2176001F0DDF902214DF2186056
:1058100001F0D8F900214DF2196001F0D3F902210D
:105820004DF21A6001F0CEF901214DF21B6001F03A
:10583000C9F902214DF21C6001F0C4F934214DF286
:105840001D6001F0BFF902214DF21E6001F0BAF9AE
:1058500067214DF21F6001F0B5F902214DF2206081
:1058600001F0B0F984214DF2216001F0ABF9022181
:105870004DF2226001F0A6F9A4214DF2236001F05F
:10588000A1F902214DF2246001F09CF9B7214DF2FB
:10589000256001F097F902214DF2266001F092F99E
:1058A000CF214DF2276001F08DF902214DF22860E1
:1058B00001F088F9DE214DF2296001F083F902211F
:1058C0004DF22A6001F07EF9F2214DF22B6001F0D9
:1058D00079F902214DF22C6001F074F9FE214DF2AC
:1058E0002D6001F06FF903214DF22E6001F06AF98D
:1058F00010214DF22F6001F065F903214DF2306067
:1059000001F060F933214DF2316001F05BF90321C0
:105910004DF2326001F056F96D214DF2336001F025
:1059200051F955214FF4704001F04CF9AA214FF282
:10593000010001F047F952214FF2020001F042F953
:1059400008214FF2030001F03DF900214FF204005D
:1059500001F038F9CC214FF4314001F033F9002146
:105960004BF2011001F02EF905214FF4364001F001
:1059700029F970214FF4374001F024F970214BF2DE
:10598000017001F01FF901214FF4384001F01AF9BC
:1059900003214BF6010001F015F903214BF602003B
:1059A00001F010F903214BF6030001F00BF902217D
:1059B0004FF43C4001F006F900214BF6014001F0A4
:1059C00001F900214BF6024001F0FCF8D0214FF420
:1059D000494001F0F7F802214CF6011001F0F2F80D
:1059E00050214CF6021001F0EDF850214CF6031056
:1059F00001F0E8F850214CF6041001F0E3F8002122
:105A00004FF4545001F0DEF855214FF4685001F086
:105A1000D9F84FF4885001F0BFF87820FDF7B2F9BB
:105A20004FF4245001F0B8F810BD10B5E22001F099
:105A3000B3F81D2001F0A4F8022001F0A1F8042021
:105A400001F09EF86420FDF79DF9E02001F0A4F834
:105A5000012001F095F80A20FDF78AF9E02001F015
:105A60009BF8032001F08CF80C20FDF781F9012050
:105A700001F092F80A20FDF77BF9E62001F08CF89E
:105A80002F2001F07DF8FF2001F07AF8FF2001F0CF
:105A900077F8B02001F080F8202001F071F80020A4
:105AA00001F06EF8032001F06BF840F21F3001F0B6
:105AB00067F8012001F064F840F2DF1001F060F8AF
:105AC000002001F05DF8B42001F066F8042001F038
:105AD00057F840F21F4001F053F8002001F050F851
