:020000040800F2
:10000000F0220020A101000857300008F525000863
:100010005530000889080008A542000800000000CB
:100020000000000000000000000000003532000861
:100030008B08000800000000593000083732000823
:10004000BB010008BB010008BB010008BB010008A0
:10005000BB010008BB010008BB010008BB01000890
:10006000BB010008BB010008BB010008BB01000880
:10007000BB010008BB010008BB010008BB01000870
:10008000BB010008BB010008BB010008BB01000860
:10009000BB010008BB010008BB010008BB01000850
:1000A000BB010008BB010008BB010008BB01000840
:1000B000BB010008BB010008BB010008BB01000830
:1000C000BB010008BB010008BB010008BB01000820
:1000D000BB01000899420008BB010008BB010008F1
:1000E000BB010008BB010008BB010008BB01000800
:1000F000BB010008BB010008BB010008BB010008F0
:10010000BB010008BB010008BB010008BB010008DF
:10011000BB010008BB010008BB010008BB010008CF
:10012000BB010008BB010008BB010008BB010008BF
:10013000BB010008BB010008BB010008BB010008AF
:10014000BB010008BB010008BB010008BB0100089F
:10015000BB010008BB010008BB010008BB0100088F
:10016000BB010008BB010008BB010008BB0100087F
:10017000BB010008BB010008BB0100080000000033
:10018000BB010008BB010008DFF810D000F058FBED
:1001900000480047894F0008AFF30080F02200209C
:1001A0000648804706480047FEE7FEE7FEE7FEE711
:1001B000FEE7FEE7FEE7FEE7FEE7FEE7D9320008CE
:1001C000890100082DE9F05F0546002092469B4614
:1001D00088460646814640241BE02846414647465D
:1001E000224600F040F953465A46C01A914110D3B6
:1001F00011461846224600F027F92D1A67EB010830
:100200004F4622460120002100F01EF917EB00099D
:100210004E41201EA4F10104DFDC484631462A4647
:100220004346BDE8F09FD2B201E000F8012B491E21
:10023000FBD270470022F6E710B513460A46044683
:100240001946FFF7F0FF204610BD10B5002200E070
:10025000521C835C8C5CA34201D1002BF8D1D8B234
:10026000E1B2401A10BD2DE9FE4F81EA030404F00B
:10027000004421F0004100944FF0000B23F00043B4
:1002800050EA01045ED052EA03045BD0C3F30A547F
:10029000C1F30A552C44A4F2F3340194A0FB025498
:1002A000C1F3130141F48011C3F3130343F480132A
:1002B00001FB024400FB034E840A970A44EA81547E
:1002C00047EA8357A4FB076802958D0A05FB07855B
:1002D0004FEA932C04FB0C542705029D4FEA065865
:1002E00047EA1637B5EB08056EEB070C870E920E42
:1002F00047EA811742EA8312A7FB0201B6EB0B0122
:1003000064EB00042B0D43EA0C335E1844EB1C50E5
:10031000DA465146E7FB0201C5F313044FEA0B33FB
:1003200043EA14534FEA0432019C43EA0603A4F162
:100330000C040294009CCDE900B400F0B3F803B0C3
:10034000BDE8F08F00200146F9E70EB540F23341D9
:1003500002910021CDE900110A460B4600F0A2F8F7
:1003600003B000BDC1F30A5210B5C1F3130140F24E
:10037000FF3341F480119A4201DA002010BD40F2AF
:1003800033439A42A2F2334203DC524200F06BF84C
:1003900010BD904010BD00F0004230F000400AD087
:1003A000C10D01F56071C0F3160042EA0151C208A7
:1003B00040071143704700200146704730B5041EC6
:1003C00071F1000404DB4FF00044404264EB010192
:1003D000141E73F1000405DB1C464FF0004352422B
:1003E00063EB04038B4208BF824230BD30B5041E6C
:1003F00071F1000404DB4FF00044404264EB010162
:10040000141E73F1000405DB1C464FF000435242FA
:1004100063EB0403994208BF904230BD30B50B46F0
:10042000014600202022012409E021FA02F59D4224
:1004300005D303FA02F5491B04FA02F52844151EF8
:10044000A2F10102F1DC30BD202A04DB203A00FADF
:1004500002F1002070479140C2F1200320FA03F31B
:10046000194390407047202A04DB203A21FA02F019
:100470000021704721FA02F3D040C2F120029140DE
:1004800008431946704710B5141E73F1000408DACA
:10049000401C41F1000192185B411A4301D120F048
:1004A000010010BD2DE9F04D92469B4611B1B1FA05
:1004B00081F202E0B0FA80F220329046FFF7C4FFEA
:1004C00004460F4640EA0A0041EA0B0153465A46E9
:1004D000084313D0114653EA010019D0C8F1400275
:1004E0005046FFF7C0FF05460E4650465946424665
:1004F000FFF7AAFF084305D0012004E02046394653
:10050000BDE8F08D0020054346EAE0762C433743F2
:100510000A986305E40AA0EB08000022FD0A44EAF9
:1005200047540A3002D500200146E9E701051019B9
:100530006941DDE9084500196941BDE8F04DA2E7D0
:100540002DE9FE4F804681EA0300C00F0C46009063
:1005500021F0004123F00045B8EB0200A94105D28B
:100560004046214690461C460B46024623F000407A
:10057000104347D0270DC7F30A00C3F30A51029076
:10058000401A019040286BDAC3F3130040F4801B3B
:100590000098924620B10023D2EB030A63EB0B0BC9
:1005A00001985946C0F140025046FFF74DFF0646FC
:1005B0000D4650465946019A00F054F910EB0800D8
:1005C0006141002487EA115284EAE7731A4340D05C
:1005D000009A62B3019A012A4FEA075215DC001B08
:1005E00061EB02014FF0004202EA0752CDE90042FE
:1005F000001C41F5801132462B46FFF753FF03B034
:10060000BDE8F08F40462146F9E7001B61EB02018F
:10061000001C41F5801300185B412018A2F500175B
:1006200047EB030140EAD570B6196D4111E06D0842
:100630004FEA360645EAC0754FEA0752001B61EBE8
:100640000201001C41F5801149084FEA30000019F1
:10065000514132462B4603B0BDE8F04FFFF713BFC0
:100660000098012240000023D0EB020263EBE0730C
:10067000009821464FEAE074B8EB000061EB0401FA
:10068000E9E783F000435BE781F0004158E72DE99B
:10069000F04D81EA030404F0004B21F000451446BC
:1006A0004FF0000A23F0004150EA050220D054EA3E
:1006B00001021DD0C5F30A570246C5F31303C1F367
:1006C0001300C1F30A5640F4801543F48013A7EBDE
:1006D0000608101BD64608F2FD3873EB050002D35E
:1006E00008F1010801E092185B41B8F1000F03DA4C
:1006F00000200146BDE8F08D00204FF48011064631
:1007000084460EE0171B73EB050705D3121B63EB42
:10071000050306434CEA010C49084FEA30009218E1
:100720005B4150EA0107EDD152EA030012D082EAA0
:10073000040083EA0501084305D0101BAB4106D233
:100740000122002306E000224FF0004302E06FF098
:10075000010253101AEB06004CEB085110EB0A0093
:1007600041EB0B01BDE8F04DFFF78DBE2DE9F04DDB
:1007700000231A461B1A8A4103DB00200146BDE80C
:10078000F08DC1F30A52C1F3130141F480154FF00B
:10079000000BD10702D100186D41521E00270446FC
:1007A00040F2FF11384601EB620A3E46804602469F
:1007B00000204FF48011FFF756FEC2197141BB189B
:1007C00046EB0100B4EB030C75EB000C04D3E41A08
:1007D00065EB000517460E46241908F101006D412E
:1007E00080463428E3DDF91946EB0600091BA841D1
:1007F00003D24FF0FF32134601E0002213461BEBF9
:10080000070046EB0A51BDE8F04DFFF73CBEC1F3CF
:100810000A52C1F3130140F2FF3341F480119A42AE
:1008200002DA00200146704740F233439A42A2F2B6
:10083000334202DC5242FFF716BEFFF705BE00004E
:10084000064C074D06E0E06840F0010394E807001D
:1008500098471034AC42F6D3FFF79AFCF0690008D1
:10086000106A0008202A06DBCB17203A41FA02F072
:1008700043EAE07306E041FA02F3D040C2F12002FD
:100880009140084319467047FEE77047F0B50C4D9C
:100890000C4F85B02C886D883F884FF0100CCDE947
:1008A000003CCDE90227241A6D1AA4B2ADB200268D
:1008B00004962B46224600F049FA05B0F0BD000030
:1008C000700000200200002072B6FEE730B5B3F5DC
:1008D000804F05D06FF0704140F82210002030BDED
:1008E0008C690B688D6823434C688989240144EA2C
:1008F0000524234343EA014150F82230014C2340B0
:100900001943E9E70000F0CF10B50A6850F822302B
:1009100023F0010340F822308C68082C23D00023F8
:100920004A682243CC681C430B6922431A434B6933
:100930000E4C1A43CB691A430B6A1A434B6A1A438B
:100940008B6A1A43CB6A1A430B6B1A438B691343A6
:10095000CA6B09681A4350F82130A343134340F887
:100960002130002010BD4023DAE700007FFF0F0098
:1009700030B5D1E9003443EA04138C688D89240230
:1009800044EA054423430C8A094D00EB820005EB41
:10099000045423430C7D6D0105EB046489692343F2
:1009A0000B43416801F040410B434360002030BDE0
:1009B0000000F0FF2DE9F04115460122DFF85880D4
:1009C0000C46064657033946404600F0E0FB05203A
:1009D00000F00BFA032000F021F8C4F3074000F008
:1009E0001DF8C4F3072000F019F8E0B200F016F883
:1009F000002405E0FF2000F011F83055641CA4B27B
:100A0000AC42F7D300223946404600F0C0FBBDE8B7
:100A1000F041052000F0E9B9000802402DE9F04757
:100A2000DFF85890164E054600244FF4006828065B
:100A300001D5012200E000224146484600F0A7FB14
:100A400000220121304600F0A2FB6806070E0421B7
:100A5000304600F08FFB40EA070501221146304680
:100A600000F095FB641CE4B2082CE0D3012211468F
:100A7000304600F08CFB2846BDE8F08700140240A9
:100A80000004024030B40C460178202A1BD00ADC56
:100A90000C2A0ED0102A14D0182A18D10D4800BFE5
:100AA00001FB030108E0302A0FD0402A0FD10A4889
:100AB000F6E7594301F50021204630BC1A46FFF7FE
:100AC00079BF0648ECE70648EAE70648E8E730BCA5
:100AD000704700000012080000920800000808009B
:100AE000002608000048080030B40C460146007893
:100AF0004978812809D3402907D3FF2905D0FF2849
:100B000003D07F290CD240390BE00020014603E0DE
:100B1000401C04F8011B80B29842F9D330BC7047E6
:100B200041398138C0B2C0EB4015C9B205EB801025
:100B300001EB400159430C2A0CD0102A0CD0182A82
:100B40000DD0202AEAD101F56011204630BC1A46AA
:100B5000FFF730BF034800E003480144F5E701F523
:100B6000ED11F2E70014090000DD110010B50122BB
:100B70001146034800F00BFBBDE8104000F002B83E
:100B80000004024070B586B04FF6FF7001F034FDEE
:100B9000002005466C462554401CC0B21828FAD3E4
:100BA000112200212046FFF705FF4FF4784610215F
:100BB0006B4632460846FFF769FE00202554401C6C
:100BC000C0B21828FAD3082214216846FFF7F2FEB3
:100BD0006B46324620211020FFF758FE0020255496
:100BE000401CC0B21828FAD308221E216846FFF71D
:100BF000E1FE6B46324630211020FFF747FE4FF4EE
:100C0000FA7000F059F906B070BD2DE9FF4FC1B080
:100C10001C46DDF840B116460D468946580700D0FF
:100C2000012000EBD400610810FB01F18A460C2C76
:100C300009D0102C07D0182C05D0202C03D0302C34
:100C400001D0402C30D10B46224669463046FFF792
:100C500019FF002626E01DF806704FF00008380640
:100C600001D54E9A03E0BBF1000F04D14F9A2946FB
:100C7000419801F0D5FD78066D1C070EADB2A5EBCD
:100C80000900A04205D141984D46401C80B24190D8
:100C900006E008F101001FFA80F8B8F1080FDED372
:100CA000761CB6B25645D6D345B0BDE8F08F0000ED
:100CB0002DE9FF4FA1B01C46DDF8C0B016460D4629
:100CC0008946580700D0012000EBD40010FB04F146
:100CD0008A460C2C05D0102C03D0182C01D0202CC7
:100CE00031D10B46224669463046FFF7FDFE00260D
:100CF00027E000BF1DF806704FF00008380601D548
:100D00002E9A03E0BBF1000F04D12F9A29462198B7
:100D100001F086FD78066D1C070EADB2A5EB09004B
:100D2000A04205D121984D46401C80B2219006E09A
:100D300008F1010000F0FF08B8F1080FDED3761CBF
:100D4000F6B25645D6D325B0BDE8F08F2DE9FE4F5B
:100D50000446DDE90C6780463078DDF840B00D468A
:100D6000002820D0E81808EB020AA0EB0709307829
:100D700080281AD9AAEB0700A04202DAE81985B246
:100D80004446A9450FDBDDE90E028DE805083B4628
:100D9000324629462046FFF78BFFE01984B216F849
:100DA000020F0028E3D1BDE8FE8FAAEB5701A14254
:100DB00002DAE9198DB24446A945F4DB0D280FD0BB
:100DC000DDE90E128DE806083B46324629462046EC
:100DD000FFF71BFF04EB570084B216F8010FE0E7A2
:100DE000E81985B24446761CF4E7002206E00021AB
:100DF000491CC9B26429FBD3521CD2B28242F6D339
:100E000070472DE9F0410446876D00F0C5F90646AC
:100E100094F835000025022806D08020606584F80B
:100E200034500120BDE8F0812068016821F01601EE
:100E300001602068416921F080014161206C08B99E
:100E4000A06C20B12068016821F0080101602068D1
:100E5000016821F0010101600CE000F09DF9801BA8
:100E6000052807D920206065032084F8350084F820
:100E70003450D7E720680068C007EED194F85C10C2
:100E80003F208840B860012084F8350084F8345051
:100E90000020C7E790F83510022903D08021416572
:100EA00001207047052180F835100068016821F0A5
:100EB000010101600020704770B5044600F06CF934
:100EC0000546601C02D004480078044400F064F930
:100ED000401BA042FAD370BD580000202DE9F0411C
:100EE00086B014216846FFF7A5F92048016800295B
:100EF00039D1012101601E480024016841F001013F
:100F0000016000684FF4805800F001000C27CDF814
:100F10000080CDE90470032602250396CDE9015433
:100F20006946144800F02EF84FF68070CDE90005B0
:100F300002AA694682E8D0000F4800F023F84CF27C
:100F40003370CDE9000502AA694682E8D0000B485B
:100F500000F018F802AA694682E8D000CDE90085C1
:100F6000074800F00FF806B0BDE8F0814C00002003
:100F7000383802400014024000100240000C0240C9
:100F8000001802402DE9F84FDFF8BCA1002201252E
:100F900003264FF00F090AF1040BAAF1040E00BF5B
:100FA0000B6805FA02F42340A34270D10F7907F0D1
:100FB0000307012F01D0022F16D187684FEA42089C
:100FC00006FA08FC27EA0C07D1F80CC00CFA08FC5A
:100FD0004CEA070CC0F808C04768A7430C79C4F373
:100FE000001494403C4344600C79E443A4070AD0C5
:100FF000C4684FEA420C06FA0CF7BC438F6807FA44
:101000000CF72743C7600C7904F00304022C12D1BB
:10101000D40800EB840CDCF820405707FF0E09FAD7
:1010200007F824EA0804D1F8108008FA07F848EA1B
:101030000408CCF8208004684FEA420C06FA0CF74A
:10104000BC430F7907F0030707FA0CF72743076043
:101050004C6814F4403F70D03C4C276847F48047FC
:101060002760246822F0030704F480440094384C7D
:1010700007EB040CDCF8084897074FEA177809FAE1
:1010800008F7BC43334FB84202D1002724E054E0B4
:10109000314FB84201D101271EE0304FB84201D193
:1010A000022719E02E4FB84201D1032714E02D4F3B
:1010B000B84201D104270FE02B4FB84201D10527D8
:1010C0000AE02A4FB84201D1062705E0284FB8426E
:1010D00001D1072700E0082707FA08F72743CCF8D3
:1010E0000878DAF800405746D1F804C09C435FEA1C
:1010F000CC2C00D51C433C60DBF800405F46D1F8A7
:1011000004C09C435FEA8C2C00D51C433C60DEF895
:1011100000407746D1F804C09C435FEA8C3C00D580
:101120001C433C60084F083F3C68D1F804C09C4316
:101130005FEACC3C00D51C433C60521C102AFFF4F3
:101140002FAFBDE8F88F0000083C01404438024052
:10115000003001400000024000040240000802404C
:10116000000C02400010024000140240001802402F
:10117000001C02400069084000D00120704742690D
:1011800021EA02030A4043EA0241816170470AB141
:10119000816170470904FBE70148806870470000DF
:1011A000580000200248816802781144816070472D
:1011B000580000200B4810B5016841F4007101602F
:1011C000016841F480610160016841F4807101604F
:1011D000032000F06FF80F2000F006F800F024F86C
:1011E000002010BD003C024070B50D4D04464FF488
:1011F0007A712878B1FBF0F00A490968B1FBF0F088
:1012000000F0D1FE48B9102C07D200222146501E12
:1012100000F030F800206C6070BD012070BD00004F
:1012200058000020640000200A4808B5016841F415
:1012300080410160006800F4804000900548001F74
:10124000016841F080510160006800F0805000901A
:1012500008BD000044380240002809DB00F01F02EE
:10126000012191404009800000F1E020C0F8001108
:1012700070470000F0B40E4B1B680C46C3F302230A
:10128000C3F10705042D00D90425191D072901D232
:10129000002300E0DB1E012606FA05F1491E21406D
:1012A00099409E40761E16403143F0BC03F096B93B
:1012B0000CED00E0064900F0070208684FF6FF0356
:1012C000184040EA0220034A1043086070470000BB
:1012D0000CED00E00000FA052DE9F8430546006832
:1012E0004FF00109C1074FF0000601D1400727D593
:1012F000DFF80C81C8F86860FFF74EFF0746414CE5
:1013000005E000BFFFF748FFC01B022857D8206840
:101310000001F7D468688101287A41EA00703949F0
:1013200084310860C8F86890FFF736FF074604E08C
:10133000FFF732FFC01B022841D820680001F7D513
:101340002878800752D52F484030016841F08051FD
:10135000016000682C4C00F080500090206840F440
:1013600080702060FFF718FF074604E0FFF714FFC6
:10137000C01B022823D82068C005F7D5214C703443
:10138000206810F4407020D0A98901F44071814296
:101390001BD020681D4920F44070C1F800900E60F9
:1013A00020602068C00710D0FFF7F6FE064641F225
:1013B000883707E0FFF7F0FE801BB84202D9032010
:1013C000BDE8F88320688007F4D5E9680D48C1F3CB
:1013D00001220830032A0BD0016821F4F8110160C2
:1013E0002068A989C1F30B01084320600020E7E7CA
:1013F0000268074B22F4F81219400A430260EFE733
:10140000000047420038024000700040400E474252
:10141000FFFCFF0F2DE9F0470E46050065D0DFF811
:101420001481D8F80000F7B200F00700B04207D2EC
:1014300088F80070D8F8000000F00700B04254D1DE
:1014400028683D4C810712D5400703D5206840F439
:10145000E05020602878000703D5206840F4604001
:1014600020602068A96820F0F000084320602878F8
:10147000C0072DD0304968680839012812D00228E9
:1014800013D0032811D00968890700292DDA2168B3
:1014900021F0030101432160FFF77EFE814641F206
:1014A000883A0EE009688903EFE709688901ECE7EB
:1014B000FFF772FEA0EB0901514502D90320BDE8F8
:1014C000F0872068696800F00C00B0EB810FEFD165
:1014D000D8F80010404601F00701B14207D9077063
:1014E000006800F00700B04201D00120E7E728784B
:1014F000400705D52068E96820F4E05008432060E3
:101500002878000706D52068296920F4604040EA61
:10151000C100206000F038F82168084AC1F30311C7
:10152000515CC8400649086006480068FFF75CFE49
:101530000020C4E7003C0240083802405C69000813
:10154000640000205C000020044805490068096828
:10155000044AC1F38221515CC840704764000020F6
:10156000083802406C6900080448054900680968A9
:10157000044AC1F34231515CC84070476400002006
:10158000083802406C690008154810B5006810F072
:101590000C02144813D04110042A0FD0082A0ED18F
:1015A0000F4C241F2268236802F03F025B0207D51C
:1015B0002068C0F38810A0FB010106E0084610BDBA
:1015C0002168C1F38811A1FB00010023FEF7FAFD99
:1015D0002168C1F30141491C4900B0FBF1F010BD85
:1015E000083802400024F4002DE9F84F04006ED0C2
:1015F0002078DFF84C93C007A9F104054AD009F11F
:1016000004000168C1F38101012908D00068C0F31A
:10161000810002280AD1D9F80000400206D52868C6
:10162000800337D560680028E1D033E06068B0F50A
:10163000803F10D0B0F5A02F286810D020F4803063
:101640002860286820F4802028606068A8B1FFF72F
:10165000A3FD06460DE0286840F48030F4E740F42E
:1016600080202860F7E700BFFFF796FD801B642805
:1016700073D828688003F7D50CE0FFF78DFD064688
:1016800005E000BFFFF788FD801B6428F0D82868BC
:101690008003F7D42078DFF8AC8280074FF0000A8F
:1016A0003ED5A748001D016811F00C0F08D0006856
:1016B000C0F3810002280BD1D9F80000400207D402
:1016C0002868800716D5E068012800D112E033E1D0
:1016D000E068B8B10120C8F80000FFF75DFD0646DC
:1016E00005E000BFFFF758FD801B0228C0D828681E
:1016F0008007F7D52868216920F0F80040EAC1008A
:1017000028600DE0C8F800A0FFF746FD064604E09B
:10171000FFF742FD801B02281FD828688007F7D4F6
:101720002078000722D5864F87486169703771B1EC
:1017300001210160FFF730FD064604E0FFF72CFDB4
:10174000801B022809D838688007F7D50EE0C0F85A
:1017500000A0FFF721FD064605E082E0FFF71CFD33
:10176000801B02287DD838688007F7D4207840078E
:1017700068D5DFF8CCB100270BF13C0BDBF800009B
:10178000C0000BD4DBF8001041F08051CBF8001002
:10179000DBF80000012700F0805000906B4E3068AD
:1017A000C00510D4306840F480703060FFF7F4FC5E
:1017B000009005E0FFF7F0FC0099401A022850D88D
:1017C0003068C005F6D55E4EA0686C3601280FD093
:1017D0000528306810D020F001003060306820F01B
:1017E00004003060A068B8B1FFF7D6FC00900FE0AD
:1017F000306840F00100F4E740F004003060F7E7A3
:10180000FFF7CAFC0099411A41F28830814266D83C
:1018100030688007F4D50EE0FFF7BEFC009007E0CB
:10182000FFF7BAFC0099411A41F28830814256D83C
:1018300030688007F4D42FB1DBF8001021F080511C
:10184000CBF80010A069C8B33D49091D0968C1F370
:10185000810102294AD00228504607D0C8F860000A
:1018600000E03CE0FFF798FC04463BE04746C8F840
:101870006000FFF791FC064605E000BFFFF78CFC17
:10188000801B02282BD828688001F7D4D4E90701EF
:101890000843A16A2E4A490802EB0141626A41EA03
:1018A0008211084394F82C1040EA0161C9F8001035
:1018B00001203866FFF770FC044606E03EE000BFFA
:1018C000FFF76AFC001B022809D828688001F7D5B9
:1018D00034E000BFFFF760FC001B022802D90320A0
:1018E000BDE8F88F28688001F4D427E00128F7D0FC
:1018F000D9F80000E26900F4800191421CD1226A0B
:1019000000F03F01914217D147F6C071626A014071
:10191000B1EB821F10D1A26A4FF0FF3300F44031C7
:1019200003EB5202B1EB024F06D194F82C1000F0F9
:101930007060B0EB016F01D00120D1E70020CFE74C
:101940000438024000004742800E474200700040C9
:101950000000FFFF10B500680B4641680D480140CC
:10196000080CD870C1F304245C7001F03F049C7033
:10197000C1F34231197052B901F06FFBD870587839
:1019800001F06BFB5870987801F067FB98700020AD
:1019900010BD00003FFFFF0010B50B460168896ACB
:1019A000596001680969C1F30E0199600068016816
:1019B0000D480140C1F305401870C1F306245C7066
:1019C00001F07F049C70890DD97052B901F045FB7C
:1019D0001870587801F041FB5870987801F03DFB81
:1019E0009870002010BD00007F7F7F0010B50400BC
:1019F00002D0607F10B106E0012010BD00202077EA
:101A0000204600F039F8022060772168CA20486239
:101A1000216853204862204601F034FB30BB206827
:101A20008168144A114081602168886862681043A7
:101A3000D4E904231A43104388602168E0680861F0
:101A400020680169228941EA02410161204601F0D2
:101A50003DFB58B921680A6C22F480220A6421688F
:101A60000A6CA3691A430A64012161772268FF2185
:101A7000516210BDBFFF8FFF1FB500210091019182
:101A8000029103910068084988420CD1022000901D
:101A9000C00103906846FFF71FFC08B1FEF714FF72
:101AA0000249012008601FBD002800403C0E47424B
:101AB00070B50446007F0B46012819D00126267711
:101AC00002206077B2B19878D97840EA0145587819
:101AD0001978000240EA413005432168CA20486273
:101AE000216853204862204601F0CCFAD0B122E0B0
:101AF000022070BD5878C10603D500F0EF000A300F
:101B00005870D87801F0B2FA0204587801F0AEFAB1
:101B100042EA0022987801F0A9FA0243187842EAD2
:101B20004035DAE70748054020684560204601F067
:101B3000CDFA00B966772268FF2151620021217732
:101B400070BD00003FFFFF002DE9F0410446007F1B
:101B50000D46012823D04FF0010884F81C80022094
:101B600060772068002780684FEA4060D2B1002883
:101B700000DBEF70A878297840EA01466878E978B8
:101B8000000240EA815006432168CA204862216869
:101B900053204862204601F075FAB8B12CE00220CB
:101BA000BDE8F081002800DBEF70287801F05EFAD4
:101BB0000204687801F05AFA42EA0022A87801F09B
:101BC00055FA0243E87842EA8056DDE70D480640C0
:101BD000206806602068816821F480218160D5E951
:101BE0000301084321688A6810438860204601F099
:101BF0006DFA08B984F81D802268FF2151622777A9
:101C0000CEE700007F7F7F0070B504460068C168A2
:101C100021F0A001C160FFF7BFFA05464FF47A76C4
:101C200007E000BFFFF7B8FA401BB04201D903201C
:101C300070BD2068C0688006F4D5002070BD70B506
:101C4000040009D0606A002540B125616561A56284
:101C500094F8510040B10CE0012070BD6068B0F50F
:101C6000827FF4D0E561F2E784F85050204600F01E
:101C700045F8022084F851002068016821F04001F5
:101C80000160A088218900F4827001F404410843B6
:101C9000A18901F400610843217C01F0020108439D
:101CA000217D01F001010843218B01F400710843FB
:101CB000217F01F03801084394F8201001F08001E1
:101CC0000843218D01F40051084321680860A06990
:101CD000042101EA104094F8241001F01001084397
:101CE000216848602068C16921F40061C1616565AF
:101CF000012084F85100002070BD000010B586B0AE
:101D0000044614216846FEF795FA13492068884274
:101D100020D112480021026842F48052026000681B
:101D200000F4805005900D481438026842F0020219
:101D30000260006800F00200059038200090022048
:101D4000CDE9010103200390052004906946044871
:101D5000FFF718F906B010BD0030014044380240CA
:101D6000000402402DE9F84F044690F85000002787
:101D70000A9E1D4692468B464FF0010901280ED05F
:101D8000012084F85000FFF707FA804694F85100CC
:101D9000616801280CD0B1F5827F07D102E00220F2
:101DA000BDE8F88FA16809B9042801D00227C2E074
:101DB000BBF1000F27D0BAF1000F24D01DB394F867
:101DC0005100042802D0052084F8510000206065ED
:101DD000C4F838A0E587A587C4F830B0E586A586A5
:101DE0002064606420680168490603D4016841F0FA
:101DF00040010160E068B0F5006F606805D0E8B3AD
:101E0000012D46D07FE0012795E008B1012D39D1A1
:101E1000206B21680088C860206B801C2063E08EE6
:101E2000401EE0862EE02068816889070FD5E18E8C
:101E300069B1B9F1010F0AD1216B0988C160206B2A
:101E4000801C2063E08E401EE0864FF00009206871
:101E50008168C9070CD0E18F51B1C068A16B0880BF
:101E6000A06B801CA063E08F401EE0874FF001094B
:101E7000FFF792F9A0EB0800B04200E009E001D3BF
:101E8000701C50D1E08E0028CDD1E08F0028CAD13F
:101E90003FE0206B216800780873206B401C2063B2
:101EA000E08E401EE0862EE02068816889070FD50D
:101EB000E18E69B1B9F1010F0AD1216B0978017383
:101EC000206B401C2063E08E401EE0864FF000092E
:101ED00020688168C9070CD0E18F51B1C068A16B3F
:101EE0000870A06B401CA063E08F401EE0874FF09D
:101EF0000109FFF751F9A0EB0800B04202D3701CB2
:101F000001D010E07EB1E08E0028CDD1E08F002816
:101F1000CAD142463146204601F004F928B10127D2
:101F20002020606507E0032705E0A06818B9206855
:101F3000C16880680090012084F85100002084F876
:101F4000500038462CE770B515460E46040003D005
:101F500094F8490010B107E0012070BD002084F81A
:101F60004800204600F01DF804F108012068FEF743
:101F7000CBFC3146A2682068FEF7FAFCD4E90102E6
:101F80002946236BFEF7A2FC2168A06851F82020A7
:101F900042F0010241F82020012084F8490000208D
:101FA00070BDFEF79BBF10B5401EB0F1807F01D31E
:101FB000012010BD4FF0E02460610F21601702F096
:101FC0000DFB0020A06107202061002010BD000053
:101FD00070B590F83C20012A32D0012480F83C40B2
:101FE000022280F83D2003685A689D6822F070063E
:101FF0000A6832435A60134B02689A4214D0B2F115
:10200000804F11D0104B9A420ED0104B9A420BD0F9
:102010000F4B9A4208D00F4B9A4205D00E4B9A4272
:1020200002D00E4B9A4204D1496825F0800319432F
:10203000916080F83D40002180F83C10084670BD5A
:10204000022070BD00000140000400400008004074
:10205000000C004000040140004001400018004016
:1020600010B5040003D094F83D0010B107E0012042
:1020700010BD002084F83C00204600F01FF802202C
:1020800084F83D00211D206801F02EF9012084F81C
:10209000460084F83E0084F83F0084F8400084F84D
:1020A000410084F8420084F8430084F8440084F836
:1020B000450084F83D00002010BD000008B5006810
:1020C0000649884208D10648016841F010010160C4
:1020D000006800F01000009008BD000000100040F3
:1020E0004038024090F83D10012901D0012070478E
:1020F000022180F83D1000681149884214D0B0F1E7
:10210000804F11D00F4988420ED00F4988420BD022
:102110000E49884208D00E49884205D00D498842B0
:1021200002D00D49884204D1816801F007010629D7
:1021300003D0016841F001010160002070470000F8
:10214000000001400004004000080040000C004076
:1021500000040140004001400018004001680A6A84
:1021600041F211131A4207D10A6A9B101A4203D195
:102170000A6822F001020A60012180F83D10002067
:102180007047704770470000F8B50168044608685A
:10219000CA684B6910F00F0F4FF0000559D003F0DB
:1021A000010602F49077374365D0C10705D0D10509
:1021B00003D5216C41F001012164410705D5D90700
:1021C00003D0216C41F002012164810705D5D907B4
:1021D00003D0216C41F004012164010707D502F00E
:1021E0002001314303D0216C41F008012164216CAE
:1021F00000293AD0800604D5900602D5204601F089
:102200000AFF20684069216CC0F38010090700D4E0
:1022100060B3204601F0D8FE20684069400621D511
:102220002068143050E8001F21F0400140E80012FF
:10223000002AF5D1A06BA8B16C490165A06BFEF72F
:1022400029FE002811D0A06B016D01B0BDE8F0405F
:10225000084783060FD593060DD52046BDE8F84004
:1022600001F0D9BE2046FFF78DFFF8BD2046FFF7ED
:1022700089FF2564F8BD266B2023012E79D1C6067F
:1022800077D5D60675D50868486800904869400635
:1022900040D5A16B086840680004000CEAD0A28D0C
:1022A0008242E7D9E085C869B0F5807F2DD02068EB
:1022B0000C3050E8001F21F4807140E80012002A21
:1022C000F5D12068143050E8001F21F0010140E8EA
:1022D0000012002AF5D12068143050E8001F21F0C8
:1022E000400140E80012002AF5D184F83E30256311
:1022F00020680C3050E8001F21F0100140E8001267
:10230000002AF5D1A06BFEF77CFDA08DE18D401A6F
:1023100081B229E0A08DE18D401A81B2E08D0028C4
:10232000A8D00029A6D020680C3050E8002F22F455
:10233000907240E80026002EF5D12068143050E855
:10234000002F22F0010240E80026002EF5D184F88B
:102350003E30256320680C3050E8002F22F0100238
:1023600040E80023002BF5D12046FFF70AFFF8BD17
:10237000FFE705062BD5150629D594F83D00212841
:10238000F5D1A068B0F5805F01D12069B0B1206AB5
:10239000411C2162216800784860E08C401E0004E6
:1023A000000CE084E3D12068C16821F08001C160A5
:1023B0002068C16841F04001C160D8E7206A008808
:1023C000C0F308004860206A801C2062E5E74006F0
:1023D000CDD55006CBD5CA68204622F04002CA604F
:1023E00084F83D3000F005F9C1E70000B93F00086E
:1023F00070B5040004D094F83D00002510B106E04B
:10240000012070BD84F83C50204600F023F82420C1
:1024100084F83D002068C16821F40051C160204665
:1024200001F05AFE2068016921F4904101612068A1
:10243000416921F02A0141612068C16841F40051DD
:10244000C1602564202084F83D0084F83E0000200F
:1024500070BD000010B586B0044614216846FDF733
:10246000E9FE18492068884229D1174800210268EE
:1024700042F010020260006800F01000059012485F
:102480001438026842F001020260006800F00100A6
:1024900005904FF4C06000900220CDE901010320B7
:1024A00003900720049069460848FEF76BFD002260
:1024B00002212520FEF7DEFE2520FEF7CDFE06B028
:1024C00010BD0000001001404438024000000240EE
:1024D00090F83E30202B0ED159B152B190F83C30DB
:1024E000012B08D0012380F83C300023036301F066
:1024F00079BE0120704702207047000000680E4935
:10250000884218D10D4801780A290FD0B0F800315F
:10251000421C9954B0F8001111F10101A0F800110A
:102520000649012201F58270FFF7D2BF012180F830
:1025300002110021F2E7704700100140A4110020B1
:102540002DE9F843044690F83D001F4616460D4617
:1025500020284CD1C5B1BEB194F83C00012846D02A
:10256000012084F83C004FF00008C4F8408021208E
:1025700084F83D00FEF710FEA6848146E684A0683C
:10258000B0F5805F03D004E00120BDE8F883206946
:1025900028B12E465FF0000584F83C800EE000264E
:1025A000FAE78021204601F03AFEA0B9AEB116F854
:1025B000010B21684860E08C401EE084E08C4B46B3
:1025C0004FF0000200970028EBD14FF04001204669
:1025D00001F025FE30B10320D7E735F8020BC0F338
:1025E0000800E6E7202084F83D000020CDE7022027
:1025F000CBE77047FEE70000F0B50D4D002407461D
:102600006B882A882146204600F090FA2E88688838
:1026100000214643084600F06FFA00F07DFB4FF0C2
:10262000D84002E0A0F88070641CB442FAD3F0BD38
:1026300070000020F0B400271949F0222C242A252C
:102640004FF4A0732B2638B101280FD04FF0010CA6
:10265000022813D003281AD08F710A804B800C8176
:102660004D818E810020F0BC00F008BA8F710A8085
:102670004B800C814D818E810320F4E781F806C0E8
:102680000B804A800C814D818E810520EBE781F81B
:1026900006C00B804A800C814D818E810620E2E7C6
:1026A000700000202DE9FE4F161ACDE900104FF002
:1026B00000085D1A47464FF0FF30002E02DD4FF054
:1026C000010102E003D14FF000018B4602E0834696
:1026D000C6F10006002D02DD4FF0010002E003D13B
:1026E0004FF00000824602E08246C5F10005AE428E
:1026F00001DD344600E02C46601C4FF000090290DA
:1027000019E000980C9A81B2019880B200F088F824
:10271000B0442F44A04504DD0198A8EB04085844B8
:102720000190A74203DD00983F1B5044009009F13F
:1027300001001FFA80F902998945E2DDBDE8FE8FAC
:1027400000B500F0D9F900F0E7FA03484FF0D8419E
:102750000088A1F8800000BD000000202DE9FF4F97
:10276000804600251446032082B00F46A0EB4406A5
:1027700051E0381B81B208EB050A01901FFA8AF07C
:10278000059A00F04DF8781B009081B208EB04091F
:102790001FFA89F0059A00F043F807EB050B1FFAC2
:1027A0008BF11FFA89F0059A00F03AF807EB04095B
:1027B0001FFA89F11FFA8AF0059A00F031F8A8EBA8
:1027C000050A1FFA89F11FFA8AF0059A00F028F825
:1027D000A8EB04091FFA8BF11FFA89F0059A00F0A3
:1027E0001FF80198059A81B21FFA8AF000F018F8D4
:1027F0000098059A81B21FFA89F000F011F86D1C5B
:10280000002E03DA06EB8506B61D04E0281B06EB56
:102810008006641E0A36A542ABDD06B0BDE8F08F27
:1028200030B50C4CA388A3F51345413D11D14FF0B1
:10283000D843658923F87E5F050A5D80C0B2588061
:10284000A0891880080A5880C8B25880208918804A
:102850005A8030BD7000002070B53220FEF72CFB8E
:10286000002000F0FFF874494FF6FF754FF0D84490
:10287000888049F24132FF2804D3A84202D0B0F543
:10288000134F14D1D320A4F87E0000F0E1F8888023
:1028900000F0DEF8888000F0DBF805EA0020888090
:1028A00000F0D6F88B881843888090427ED180B2A1
:1028B00090427CD1CF2024F87E0F00206080C12080
:1028C000608030206080ED202080642060800320C4
:1028D00060801220608081206080E8202080852038
:1028E0006080102060807A206080CB20208039209A
:1028F00060802C2060800020608034206080022076
:102900006080F720208020206080EA202080002046
:1029100060806080C02020801B206080C1202080DB
:1029200001206080C5202080302060806080C7202A
:102930002080B720608036202080482060803A20A8
:10294000208055206080B1202080002060801A20E7
:102950006080B62020800A206080A2206080F22063
:102960002080002060802620208001206080E020E0
:1029700020800F2060802A2060802820608008202E
:1029800060800E2060800820608054206080A92034
:102990006080432060800A2060800F2060800020DB
:1029A0006080608060806080E12001E043E035E08D
:1029B0002080002060801520608017206080072024
:1029C000608011206080062060802B20608056206F
:1029D00060803C20608005206080102060800F2097
:1029E00060803F20608060800F2060802B202080EE
:1029F000002060806080012060803F2060802A206D
:102A000020800020608060806080EF206080112046
:102A100020807820FEF750FA292020800020FFF740
:102A200009FE0122D1030548FEF7B1FB2846BDE8A7
:102A30007040FFF7E1BD70BD70000020000402404F
:102A40000246012000E05043491EC9B2FBD2704744
:102A500008B54FF0D840B0F88000ADF80000BDF8E0
:102A6000000008BD10B54FF0D841A1F87E0001204C
:102A7000FEF722FABDE81040FFF7EABF1D4B10B584
:102A80009A880021A2F51344413C32D1082812D281
:102A9000DFE800F0110406080A0C0E1080210AE09D
:102AA000402108E0C02106E0202104E0602102E08E
:102AB000A02100E0E02141F00801362000F036F9C5
:102AC0004FF0D840598920F87E1F00214180418075
:102AD0001988491E0A0A4280C9B241809989018039
:102AE0000021418041805988491E0A0A4280C9B2AA
:102AF000418010BD700000200B4B10B59A88A2F5E4
:102B00001344413C0ED14FF0D8425C8922F87E4FED
:102B1000040A5480C0B2508098891080080A5080FE
:102B2000C8B2508010BD00007000002070B5024493
:102B3000521E94B2CA18104B521E95B29A88A2F532
:102B40001346413E16D14FF0D8425E8922F87E6F7F
:102B5000060A5680C0B25080200A5080E0B25080F1
:102B600098891080080A5080C8B25080280A508086
:102B7000E8B2508070BD0000700000202DE9FF4FCA
:102B80001D460C468A46580700D0012000EBD500B0
:102B9000690810FB01F0203A00F0FF09D0B20026CE
:102BA000DFF894B0029043E00C2D10D0102D13D01C
:102BB000182D3FD10298214900EBC00001EB8000A5
:102BC0004FF00008875D38060BD50D9A0DE002988E
:102BD0001B4900EB4000F1E71A49029801EB001095
:102BE000EEE70E9828B91848428821460098FFF76A
:102BF00017FE7806070E641CBBF80200A4B2A042C0
:102C000018D9A4EB0A00A84209D100985446401CE8
:102C100080B20090BBF8001081420BD906E008F1A9
:102C2000010000F0FF08B8F1080FCCD3761CF6B213
:102C30004E45B9D3BDE8FF8F70000020FC5B000853
:102C4000985100080C560008000000202DE9FF4FA5
:102C500082B00026DDE90FBA1D4681463446B046F3
:102C60004FEA5B0726E0281B401EC1B20A20FFF78F
:102C7000E7FE0499B1FBF0F00A21B0FBF1F201FB91
:102C8000120026B9691E8C4201DA38B101263030B3
:102C9000C2B207FB049080B25B4604E007FB0490DD
:102CA00080B25B462022CDE900A80399FFF766FFBA
:102CB000641CE4B2AC42D6D306B0BDE8F08F2DE977
:102CC000FC4F044600F0FF0910190D461FFA80F86A
:102CD000581987B24FF0000ADDF82CB00D9E13E0B2
:102CE000444503D305EB0B004C4685B2BD4210D2E0
:102CF0000C99CDE9001A5B4629462046FFF73EFFB6
:102D000004EB5B0084B2761C3278A2F120005E28CE
:102D1000E6D9BDE8FC8F000003484FF0D841008998
:102D2000A1F87E0070470000700000204FF0D842EC
:102D300022F87E0F5180704710B58EB01C21684676
:102D4000FDF778FA1C2107A8FDF774FA1A484FF02E
:102D50002041102201601949416006218160002153
:102D6000C160C0E904128161C16113020162C0E95E
:102D700009139302C0E90B134163816341640F207F
:102D80003C230090CDE9010303AC112384E80E003D
:102D900009240691CDE907400AA8099480E80E00AD
:102DA0000D9107AA69460448FFF7CDF8002801D025
:102DB000FDF78AFD0EB010BD94100020040100A0A4
:102DC0002DE9F04186B014216846FDF733FA4848F2
:102DD0000025016841F004010160016801F004016F
:102DE0000591016841F020010160016801F02001B6
:102DF0000591016841F080010160016801F08001E6
:102E00000591016841F002010160016801F00201D1
:102E10000591016841F010010160016801F01001A5
:102E20000591016841F008010160016801F00801A5
:102E30000591016841F001010160016801F00101A3
:102E40000591016841F0400101600068294E00F0E1
:102E500040004FF400540590002221463046FEF712
:102E600096F9254F00224FF460613846FEF78FF93E
:102E7000DFF8888000224CF201014046FEF787F916
:102E800000940124CDE90145694630460395FEF7DB
:102E900079F84FF4C060CDE9000469463846CDE9C1
:102EA0000245FEF76FF848F201008DE831006946EF
:102EB00040460395FEF766F80620CDE90005694611
:102EC00002944046FEF75EF8E0028DE83100694664
:102ED00038460395FEF756F8A003CDE900040294A6
:102EE000694640460394FEF74DF806B0BDE8F08110
:102EF0003038024000080240001402400004024042
:102F000010B586B014216846FDF794F91E480024D8
:102F10001C490594C0E900147F218160FF21C0E9AC
:102F2000031444618461FEF761FD08B1FDF7CCFC38
:102F300023208DF8000059208DF8010040208DF8E5
:102F400002000394012269460F480494FEF7FCFD39
:102F500008B1FDF7B9FC02208DF8140007208DF8A8
:102F6000150016208DF8160024208DF81700012278
:102F700005A90548FEF79CFD002801D0FDF7A4FC3B
:102F800006B010BD00280040E41000200F4810B526
:102F90000D4901604FF48271416000218160C16080
:102FA0004FF400720161C0E90512C1610162416222
:102FB00081620A21C162FEF742FE002803D0BDE80B
:102FC0001040FDF781BC10BD00300140041100200D
:102FD0001CB500240E4800940C4901940160532153
:102FE000C0E901144FF6FF718461C160FFF738F842
:102FF00008B1FDF769FC0094694605480194FEF7A5
:10300000E7FF002801D0FDF75FFC1CBD0010004069
:103010005C11002010B50E4C0C480C2120604FF4C0
:10302000E13060600020A060E060C4E90401A061BC
:10303000E0612046FFF7DCF908B1FDF745FC2068A8
:10304000C16841F02001C16010BD000000100140C6
:10305000A8120020FEE7FEE77047010901EB81019D
:1030600000F00F0000EB4100C0B27047002103E008
:10307000491C0A38C9B2C0B20A28F9D2090740EA85
:10308000116070472DE9F041044600680025C168D1
:10309000490618D4C16841F08001C160FEF77CF890
:1030A00006464FF47A78042707E000BFFEF774F86D
:1030B000801B404501D9677701252068C06840061C
:1030C00001D4002DF2D02846BDE8F08170B5044649
:1030D00000680025C16821F08001C1602068806817
:1030E000800606D42046FEF78FFD10B104206077DD
:1030F0000125284670BD000001B582B06420009013
:10310000012301AA02A90348FEF72CFE9DF8040042
:103110000EBD0000041100200149C8617047000085
:103120000411002038B504461248134B0068B0FB68
:10313000F3F04FF47A73584300906068B0F5827FE3
:103140000DD10B46009200228021204600F016F897
:1031500070B1606D40F020006065032038BD0098BC
:1031600030B1401E009020688068C0430006F6D54C
:10317000002038BD6400002000366E012DE9F843C0
:103180001E46914688460446089DFEF705F8401BFA
:10319000351AFEF701F8074625480068C0F3CB3022
:1031A000684338E0701C37D0FDF7F6FFC01BA8421B
:1031B00003D215B1009860B32CE02068416821F07B
:1031C000E00141606068B0F5827F0BD1A068B0F586
:1031D000004F02D0B0F5806F04D12068016821F063
:1031E00040010160A06AB0F5005F09D12068016864
:1031F00021F4005101602068016841F40051016030
:10320000012084F85100002084F850000320BDE81C
:10321000F8830025401E00902068816838EA01008C
:1032200004D000214945BDD10020F0E70121F9E794
:10323000640000207047FDF7B5BF000030B593B0C3
:1032400030216846FCF7F6FF14210CA8FCF7F2FFCA
:103250001F480025016841F080510160006800F0BE
:10326000805011901B48016841F480410160006862
:10327000022400F480401190052000904FF480302B
:103280000190012002908005CDE9064008200890B9
:103290004FF4A870CDE9090404200B906846FEF7AE
:1032A000A3F908B172B6FEE70CA90F2081E831003E
:1032B0004FF4A0500F904FF48050109005210CA8AF
:1032C000FEF7A8F8002801D072B6FEE713B030BDB3
:1032D00040380240007000400248016841F470012B
:1032E0000160704788ED00E0F0B50268254C264D7E
:1032F000264E274F274B4FF0804CA04209D0604507
:1033000007D0A84205D0B04203D0B84201D09842BD
:1033100004D122F0700E4A6842EA0E02A0421BD08D
:10332000604519D0A84217D0B04215D0B84213D08A
:10333000984211D0184DA8420ED0184DA8420BD07B
:10334000174DA84208D0174DA84205D0164DA842E7
:1033500002D0164DA84203D122F44075CA682A4310
:103360004D6922F080022A4302608A68C2620A68BC
:103370008262A04201D0984201D109690163012112
:103380004161F0BD00000140000400400008004021
:10339000000C004000040140004001400044014096
:1033A0000048014000180040001C00400020004080
:1033B0002DE9FF4F83B0804610A84FF4784490E881
:1033C000000E55481025564E048054A00095CDE9B6
:1033D00001400F4673883288A0212820FFF76FFC38
:1033E00050A00095CDE9014073883288A021782053
:1033F000FFF765FC4CA00095CDE901407388328849
:10340000B4212820FFF75BFC48A00095CDE90140DE
:1034100073883288B4217820FFF751FC44A00095CE
:10342000CDE9014073883288C8212820FFF747FC86
:1034300040A00095CDE9014073883288C8217820EA
:10344000FFF73DFC3CA00095CDE901407388328830
:10345000DC212820FFF733FC38A00095CDE901409E
:1034600073883288DC217820FFF729FC34A000958E
:10347000CDE9014073883288F0212820FFF71FFC36
:10348000CDE9005404234246A0214020FFF7DEFB93
:10349000CDE9005404233A46A0219020FFF7D6FB43
:1034A000CDE900540423B4214020059AFFF7CEFB58
:1034B000CDE900540423B4219020069AFFF7C6FBFF
:1034C000CDE9005404234A46C8214020FFF7BEFB43
:1034D000CDE9005404235246C8219020FFF7B6FBE3
:1034E000CDE9005404235A46DC214020FFF7AEFB0F
:1034F000CDE900540423DC219020139AFFF7A6FBAA
:10350000CDE900540323F0216020149AFFF79EFBBD
:1035100007B0BDE8F08F00000000002078313A00CD
:103520007000002079313A0078323A0079323A005E
:1035300078333A0079333A0078343A0079343A00F3
:103540006661632069733A002DE9F04FDFF810B42B
:103550001F202DED0C8B89B04FF6FF7A00245646C4
:103560002546D846ABF80000FE48A0F800A030463B
:10357000FFF742F80027FC48A8F800704FF0100849
:103580000168CDF80080CDE9017128216423A022D3
:103590000846FFF794FB4FF47849F4A08DE8010347
:1035A0001023F022C8210820CDE90367FDF7CEFBE8
:1035B000F4A08DE801031023F022DC210820CDE9DE
:1035C0000367FDF7C3FB14214A46084600F0B2FA30
:1035D000F24E86F820709FEDF20A86ED090A9FED03
:1035E000F18B9FEDF29B9FEDF3BB71680120884743
:1035F00096F820000121B1EB901F45D120F040004A
:1036000086F8200005A8B18920F8241000EB84007A
:10361000641C0025F18AE4B24180012C06D0022C02
:1036200010D0032C1DD0042C2ED13CE01421524686
:10363000084600F07FFAE1484A460088143880B214
:1036400014211FE0DD48524614210088143880B24E
:1036500000F070FAD9484A464088143881B21420E4
:1036600010E0D64852464088143881B2142000F049
:1036700061FAD2484A464088143881B2CF4800885F
:10368000143880B200F056FA0A20FDF715FC6D1CC4
:10369000ADB2B5F57A7FA8D900F08CFA09B0BDECCF
:1036A0000C8BBDE8F08FBDF81400BDF81810411A5E
:1036B00000D54942BDF81600BDF81A20801A00D581
:1036C0004042494340430844FCF73FFE41EC100BA5
:1036D00000F094FF51EC100BFCF744FE84B2BDF8EF
:1036E0001C00BDF82010401A00D54042BDF81E1045
:1036F000BDF82220891A00D54942404301FB010050
:10370000FCF723FE41EC100B00F078FF51EC100B9E
:10371000FCF728FE00EE104A80B20090F8EE400A56
:1037200000EE100AB8EE401A80EE810A10EE100A80
:10373000FCF731FE41EC1A0B53EC182BFCF73EFE64
:103740005CD353EC192B51EC1A0BFCF74FFE55D3FD
:10375000F4B30098E0B3BDF81400BDF81C10401A93
:1037600000D54042BDF81610BDF81E20891A00D5BC
:103770004942404301FB0100FCF7E7FD41EC100B1F
:1037800000F03CFF51EC100BFCF7ECFD84B2BDF8EF
:103790001800BDF82010411A00D54942BDF81A00A2
:1037A000BDF82220801A00D54042494340430844D6
:1037B000FCF7CBFD41EC100B00F020FF51EC100B9F
:1037C000FCF7D0FD00EE104A80B2F8EE400A00E0AF
:1037D00014E000EE100AB8EE401A80EE810A10EEF6
:1037E000100AFCF7D8FDB0EE48CAF0EE68CA41EC0A
:1037F0001A0B53EC1C2BFCF7E1FD30D26F48002470
:103800005246418800881439143889B280B200F0D9
:1038100091F914214A46084600F08CF953EC1B2B11
:1038200051EC1A0BFCF71FFDFCF79CFD80B2BDF8B4
:103830002210BDF82030BDF81E20CDE90310CDE9DF
:103840000123BDF81C000090BDF81A30BDF8182007
:10385000BDF81610BDF81400FFF7AAFDC5E6B0EEDE
:1038600049DAF0EE69DA53EC1D2B51EC1A0BFCF738
:10387000BDFDC3D3BDF81800BDF81C10401A00D51B
:103880004042BDF81A10BDF81E20891A00D54942E1
:10389000404301FB0100FCF758FD41EC100B00F028
:1038A000ADFE51EC100BFCF75DFD84B2BDF81400C9
:1038B000BDF82010411A00D54942BDF81600BDF8E8
:1038C0002220801A00D54042494340430844FCF777
:1038D0003CFD41EC100B00F091FE51EC100BFCF79D
:1038E00041FD00EE104A80B2F8EE400A00EE100AE8
:1038F000B8EE401A80EE810A10EE100AFCF74BFD7C
:1039000041EC1A0B53EC1C2BFCF758FDB1D353ECD4
:103910001D2B51EC1A0BFCF769FDAAD3BDF818401A
:10392000BDF81430254AE01A00EE100A1088F8EEAF
:10393000C00AA0F1280100EE101AE118B8EEC00A82
:1039400080EE201A00EE101AF8EE400A00EE100A7F
:10395000B8EE400A86ED091A01EE600A30E0000078
:10396000000000200200002058690008D0A3D7BC46
:10397000A3BAD2C0B4CEB5E3CBC4BDC7B5C4B5E31A
:1039800000000000202020202020BDF8D0D0B4A5C9
:10399000C3FEC6C1D0A3D7BC000000000C000020AD
:1039A00000000000666666666666EE3FCDCCCCCC55
:1039B000CCCCF03F00000000000059407000002017
:1039C000F6EE001A20EE210A86ED0B0ABDF81E4025
:1039D000BDF81630E11A00EE101A51882344F8EEB3
:1039E000C00AA1F1280C00EE10CAB8EEC02A82EE7F
:1039F000200A00EE903AB8EE602A00EE901AF8EE37
:103A0000600A86ED0A0A40EE420A60EEA10AC6ED9F
:103A10000C0AFDEEC10A10EE903A002B00DA5B4270
:103A2000022B08DCBDEEC00A10EE103A002B00DAC3
:103A30005B42022B2CDD14391438002489B280B289
:103A4000524600F077F814214A46084600F072F812
:103A500025A2CDF800802948CDE90192438802884B
:103A60001A212820FFF72BF996F8340040B10020E6
:103A700086F8340030B1224890210170D02105E051
:103A80000120F5E71E48D021017090214170ACE57E
:103A90001F20ABF8000054465046FEF7ADFD19A0BC
:103AA000CDF80080CDE9019014484D464646438844
:103AB00002886E212020FFF702F918A0CDE9000648
:103AC000CDE902541023F022822104972020FDF733
:103AD0003DF94FF47A70FDF7EFF900F0B1F92046A7
:103AE000FEF78AFDDAE500005450204E656564203B
:103AF000726561646A7573742100000070000020B3
:103B000004000020546F7563682053637265656E0E
:103B10002041646A757374204F4B2100B4A5C3FE25
:103B2000C6C1D0A3D7BCCDEAB3C9A3AC4F4BA3A1A8
:103B3000A3A100002DE9F84305461D4816460C4692
:103B4000028005F10D00009282B2193880B20B4656
:103B5000FEF7A8FD04F10D0083B2193881B22A46A0
:103B600010460096FEF79EFD671C05F10109B9B2EB
:103B70001FFA89F0FEF7E4FDA5F10108B9B21FFABA
:103B800088F0FEF7DDFD671EB9B21FFA89F0FEF777
:103B9000D7FDB9B21FFA88F0FEF7D2FD01B0334667
:103BA00021462846BDE8F0430622FEF7D7BD0000B7
:103BB0000000002000B587B018220021684600F000
:103BC000B9FB9DF812109DF811000A2900D110B11F
:103BD000002007B000BD17499DED000ADFED160A71
:103BE00081ED010AB8EEC00A01F10800002280EE62
:103BF000201A80ED091A9DED010AB8EEC00A80EE88
:103C0000201A80ED0A1A9DED020AB8EEC00A80ED76
:103C10000B0A9DED030A81ED010AB8EEC00A80EDA2
:103C20000C0A80F83420D0200870902048700120C1
:103C3000CFE700000400002020BCBE4C70B50D4949
:103C4000A1F10A000C46054600F0A8F821462846D6
:103C500000F0A4F8FFF7AEFF08B1002070BD4FF6EA
:103C6000FF70FEF7C9FCFFF76FFCFFF7A3FF012011
:103C700070BD0000220000202DE9F04700252B4EEA
:103C800007462C462A4601213046FDF780FA0022DD
:103C9000F1142748FDF77BFADFF898904FF40058AD
:103CA000002241464846FDF772FA384600F058F9BE
:103CB000062001F03FF9002201213046FDF767FAA6
:103CC000012001F037F9012211463046FDF75FFA75
:103CD000012001F02FF9002201213046FDF757FAAB
:103CE0004FF6FF7707EA4404002201213046FDF732
:103CF0004EFA012001F01EF9012211463046FDF76F
:103D000046FA04213046FDF735FA08B1641CA4B226
:103D10006D1CEDB2102DE5D3240901224146484621
:103D2000FDF735FA2046BDE8F087000000040240A8
:103D30000014024000080240FEB5064600256C460D
:103D40003046FFF799FF24F815006D1CADB2052D24
:103D5000F6D30020431C99B20CE000BF34F81020C9
:103D600034F81150AA4203D924F8105024F8112035
:103D7000491C89B20529F1D398B20428EAD300215D
:103D80005FF0010034F81020401C114480B289B269
:103D90000428F7D30320B1FBF0F0FEBD2DE9F0417C
:103DA000074C06460D462078FFF7C6FF07466078A9
:103DB000FFF7C2FF378028800120BDE8F0810000B6
:103DC000040000207FB50C460546694602A8FFF7AF
:103DD000E5FF00282FD001A903A8FFF7DFFF002887
:103DE00029D0BDF80C30BDF80820934203D803F168
:103DF0003200824205D39A421FD802F13200834238
:103E00001BD2BDF80410BDF80000814203D801F1B7
:103E10003206B04204D388420FD8323081420CD2ED
:103E2000D01840082880BDF80000BDF804100844F0
:103E300040082080012004B070BD0020FBE7000096
:103E4000194800B590ED090ADFED180A011F87B087
:103E500020EE200A1822BDEEC00A81ED000A8DED89
:103E6000000A90ED0A0A20EE200ABDEEC00A8DED90
:103E7000010A90ED0B0ABDEEC00A8DED020A90ED2D
:103E80000C0ABDEEC00A81ED000A8DED030A002187
:103E900080F834108DF811100A208DF81200684651
:103EA00000F0C2FA07B000BD0C00002020BCBE4CE0
:103EB00070B5054602212848FDF75CF9274C40B152
:103EC00094F8200001063BD520F0800084F8200003
:103ED0003DE0224800F116010C3015B1FFF772FFEA
:103EE00022E0FFF76FFFF8B1A089D4ED0B0A00EED6
:103EF000100A94ED091AB8EE400A41EE000ABCEE31
:103F0000E00A10EE100AA081E08A94ED0C0A00EE9F
:103F1000900A94ED0A1AF8EE600A01EE200ABCEE4F
:103F2000C00A10EE100AE08294F8200000060ED4B9
:103F3000C02084F82000A089A082E08AE08306E007
:103F40000020A082E0834FF6FF70A081E08294F809
:103F5000200000F0800070BD000402400C00002032
:103F60002DE9F041DFF84880124E054600244FF459
:103F70000067280601D5012200E0002239464046AC
:103F8000FDF705F96806050E002201213046FDF710
:103F9000FEF8012000F0CEFF012211463046FDF769
:103FA000F6F8641CE4B2082CE3D3BDE8F08100000D
:103FB000001402400004024010B5806B0021C1854E
:103FC000C184FEF7DFF810BD01680C3151E8002F05
:103FD00022F4907241E80023002BF5D101681431DE
:103FE00051E8002F22F0010241E80023002BF5D117
:103FF000016B012909D101680C3151E8002F22F031
:10400000100241E80023002BF5D1202180F83E105A
:1040100000210163704708B590F83E10222901D0B5
:10402000022008BD82684FF480539A4201D1016991
:1040300021B1816A9A421BD04AB10AE00268816AC2
:104040005268C2F308020A80816A891C08E002698A
:1040500072B10268526802F07F020A70816A491CDC
:104060008162C18D491E0904090CC18503D019E084
:1040700002685268F1E70168CA6822F02002CA604B
:104080000168CA6822F48072CA6001684A6922F035
:1040900001024A61202180F83E10016B012903D002
:1040A000FEF72CFA002008BD0021016301680C31E5
:1040B00051E8002F22F0100241E80023002BF5D137
:1040C00001680A68D20602D50A6849680091818DA4
:1040D000FEF757F8E6E7000070B50446006801698E
:1040E000E26821F44051114301612169A068E2694D
:1040F00008436169114308432168CA6849F20C63A7
:104100009A430243CA6020684169A26921F4407160
:104110001143416131492068884202D030498842C8
:1041200002D1FDF721FA01E0FDF70EFAE269002362
:10413000192164253226B2F5004F626828D0A0FB11
:104140000101930F9200FCF73DF80146B0FBF5F03A
:104150006FF01802504301EB800006EB0010B0FB3B
:10416000F5F000F0F002B1FBF5F002EB0012B1FB4C
:10417000F5F06FF01803584301EB800006EB0010D8
:10418000B0FBF5F000F00F0021681044886070BDAE
:10419000A0FB010192185B41FCF714F80146B0FB4B
:1041A000F5F00201B1FBF5F06FF01803584301EB95
:1041B000800006EBC000B0FBF5F000F0F80002EB69
:1041C0004002B1FBF5F0584301EB800006EBC00064
:1041D000B0FBF5F000F00700D6E70000001001404A
:1041E0000014014081628285C2850021016422227F
:1041F00080F83E2080F83C10016921B10168CA684E
:1042000042F48072CA6001684A6942F001024A6160
:104210000068C16841F02001C160002070472DE9AD
:10422000F041984617460E460446069D27E0681C56
:1042300025D02DB1FCF7B0FFA0EB0800A8421ED995
:1042400020680C3050E8001F21F4D07140E80012C3
:10425000002AF5D12068143050E8001F21F0010138
:1042600040E80012002AF5D1202084F83D0084F8AF
:104270003E00002084F83C000320BDE8F081206867
:10428000006836EA000004D00020B842CFD00020F9
:10429000F3E70120F9E700000148FDF775BF0000D2
:1042A000A8120020FEE7000070B50446014613A0E6
:1042B00000F070F9240300F005F900F0ADF8114E9C
:1042C0004FF48045002229463046FCF760FF20204D
:1042D000FEF712FFC4F30740FEF70EFFC4F30720FA
:1042E000FEF70AFFE0B2FEF707FF0122294630463B
:1042F000FCF74DFFBDE8704000F08EB866653A25CA
:10430000780D0A000004024010B5FF20FEF7F4FE0D
:104310000020FEF701FF012291030448FCF737FF5C
:1043200000F038F80249088010BD00000004024087
:10433000440000202DE9F041DFF8548015460C467A
:1043400006464FF48047002239464046FCF71FFFDF
:104350000320FEF7D1FEC4F30740FEF7CDFEC4F301
:104360000720FEF7C9FEE0B2FEF7C6FE002405E016
:10437000FF20FEF7C1FE3055641CA4B2AC42F7D357
:1043800039464046BDE8F0410122FCF700BF00007D
:104390000004024070B5124E00244FF480452246BE
:1043A00029463046FCF7F3FE9020FEF7A5FE0020DC
:1043B000FEF7A2FE0020FEF79FFE0020FEF79CFE07
:1043C000FF20FEF799FE44EA0024FF20FEF794FE4A
:1043D0000443012229463046FCF7D9FE204670BD31
:1043E0000004024070B50B4E4FF480450022294670
:1043F0003046FCF7CCFE0520FEF77EFEFF20FEF7E0
:104400007BFE0446012229463046FCF7C0FE2046CA
:1044100070BD0000000402402DE91040FFF7E2FFEC
:10442000C007FBD110BD00002DE9F05FC1F30B0602
:10443000DFF88C800F0BC6F58054894682461546FE
:10444000A24200D8144639038B464FF480524046AE
:10445000FFF770FF002006E0321818F80210FF295D
:1044600003D1401C80B2A042F6D3A04222D23846EB
:10447000FFF71AFF002006E01AF800208319401CFD
:1044800008F8032080B2A042F6D359464FF4805278
:104490004FEA080000F02CF8A5420FD0281BA244D8
:1044A000A144002685B24FF480547F1CA542CAD88F
:1044B0002C46C8E7224649465046EBE7BDE8F09F48
:1044C0007E00002070B5094D4FF480440022214643
:1044D0002846FCF75CFE0620FEF70EFE2146284625
:1044E000BDE870400122FCF752BE0000000402400B
:1044F0002DE9F0410746C8B2C0F580740E46154656
:10450000A24200D814464FF48078224631463846FD
:1045100000F00EF8A54208D0281B2744264485B297
:104520004446A542F1D82C46EFE7BDE8F0810000F3
:104530002DE9F04115460C460646FFF7C3FFDFF8AC
:1045400050804FF48047002239464046FCF71FFE5A
:104550000220FEF7D1FDC4F30740FEF7CDFDC4F302
:104560000720FEF7C9FDE0B2FEF7C6FD002404E017
:10457000305DFEF7C1FD641CA4B2AC42F8D3012249
:1045800039464046FCF703FEBDE8F041FFF744BF63
:10459000000402400FB4054B10B503A9044A029869
:1045A00000F040F910BC5DF814FB0000654F0008F6
:1045B000680000200FB4084B10B504A902AA0398A4
:1045C00000F030F9044602A9002000F0AEFC2046BD
:1045D00010BC5DF814FB00002B4F00080907090E02
:1045E000002804DB00F1E02080F80014704700F0A0
:1045F0000F0000F1E02080F8141D704700B52DED8C
:10460000048BB0EE409AF0EE609A83B051EC190B37
:10461000FCF7ACF841EC180B18EE100A18EE901AE3
:104620008DED008B002818BF0120084320F00040CA
:10463000C0F17F6000F1E040C00F14D019EE101AF5
:1046400019EE900A8DED009B002918BF0121084347
:1046500020F00040C0F17F6000F1E040C00F04BFD7
:10466000012000F017F8B0EE480A03B0F0EE680A37
:10467000BDEC048B00BD02E008C8121F08C1002A6F
:10468000FAD170477047002001E001C1121F002AD3
:10469000FBD1704701490860704700006C000020A2
:1046A0002DE9FF5F82B00021DDE90430020DDDF865
:1046B00040B0034318D044F61050A2F2FF324243F8
:1046C0001514119801281FD0A5EB0B00401C5FEAC0
:1046D000000A4FF000064E4FDFF83891B0465046C2
:1046E00015D5CAF1000413E0119801244AA301284A
:1046F00001D16FEA0B010298119AC0E90031C0E9BB
:10470000024206B0BDE8F09FCBF10000DFE70446AF
:104710000021404A491842EB0450CDE9001012E054
:10472000E00707D032463B4640464946FBF79BFD33
:104730008046894632463B4610461946FBF793FDB4
:1047400006460F466410002CEAD1DDE90401DDE9DC
:104750000023BAF1000F06DAFBF785FD42464B460F
:10476000FBF781FD05E0FBF792FF42464B46FBF766
:104770008EFF04460E460022284BFBF737FE03D877
:104780004FF0FF30014607E00022254B204631461E
:10479000FBF7D6FEFCF73BF8102409E0002C0ADBFF
:1047A0000A220023FBF70EFD039B30321A55641ECC
:1047B00050EA0102F2D1641C039AC4F111031444BB
:1047C000119A012A03D0012208430DD10AE00843BF
:1047D00004D000204FF0110B119072E7A3EB0B05F2
:1047E0006D1E0DE05B4504DD4FF0000205F1010593
:1047F00004E003DA4FF00002A5F10105002AECD035
:1048000002981199C0E90231C0E9004579E700003A
:10481000000014400000F03F300000000000F043B2
:104820000000E03F2DE9FF4F95B09A4688460646C6
:104830000025EEE1252877D100242746F94A0121F9
:10484000039400E0044316F8013F203B01FA03F013
:104850001042F7D130782A2811D06FF02F0330782A
:10486000A0F13002092A16D8039A44F0020402EBA0
:10487000820203EB42021044761C0390EFE758F8E3
:10488000042B0392002A03DA504244F400540390AC
:1048900044F00204761C30782E2816D116F8010F49
:1048A00044F004042A280DD06FF02F023078A0F1D4
:1048B0003003092B09D807EB870302EB4303C71822
:1048C000761CF3E758F8047B761C30786C280FD000
:1048D00006DC4C2817D068280DD06A2814D104E0D3
:1048E000742810D07A280FD10DE044F400140AE0A7
:1048F00044F4801401E044F440147278824202D1FE
:1049000004F58014761C761C307866280BD013DCF6
:10491000582877D009DC002875D04528F6D04628DD
:10492000F4D047281AD193E118E0632835D06428E1
:1049300079D0652812D18BE1702873D008DC672804
:10494000F1D069286FD06E280DD06F2806D1ACE069
:1049500073282CD0752874D0782853D052461799D4
:1049600090476D1C54E1C4F30250022809D003287B
:104970000DD0D8F8001004280DD00D6008F10408FF
:1049800046E1D8F80010EA17C1E90052F6E7D8F876
:1049900000100D80F2E70D70F0E718F8041B8DF899
:1049A000001000208DF80100EB46012003E058F8CC
:1049B00004BB4FF0FF3061074FF0000102D40DE05F
:1049C00009F101018946B9420FDA8145F8DB1BF88C
:1049D00009100029F4D108E009F10101894681425A
:1049E000FADB1BF809100029F6D103985346A0EB17
:1049F000090721463846179A00F080FA284400EB50
:104A0000090507E044E008E10DE01BF8010B524600
:104A100017999047B9F10109F7D253462146384614
:104A2000179AF2E039E00A21C4F302524FF0000B6A
:104A30000091022A06D058F8040BC117032A09D0A6
:104A40000AE023E008F1070020F00702F2E8020183
:104A5000904605E000B2C117042A01D140B2C11747
:104A6000002906DA0A460021404261EB02012D22AC
:104A700002E0220504D52B228DF80420012203E058
:104A8000E20701D02022F7E7914657E00A2100E033
:104A900010214FF0000B00910BE010214FF0000BA4
:104AA00044F004040827009103E008204FF0000BB5
:104AB0000090C4F30252022A05D058F8040B0021DA
:104AC000032A08D008E008F1070020F00702F2E806
:104AD0000201904603E080B2042A00D1C0B24FF038
:104AE000000922072AD53278702A07D0DDF800C0E5
:104AF0008CF0100C5CEA0B0C05D00EE040228DF817
:104B00000420012208E050EA010306D030238DF88A
:104B100004308DF8052002229146009B83F00803A3
:104B200053EA0B030AD150EA010201D1620705D50D
:104B300030228DF804204FF001097F1E3278582A68
:104B400004D039A20C920CAA02920BE03BA2F9E726
:104B50005B46009AFBF736FB0C9B9B5C029A521E4D
:104B60000292137050EA0102F2D1029804A9081AC5
:104B700000F1200B600702D524F4803400E0012707
:104B80005F4502DDA7EB0B0000E0002000EB0B010E
:104B9000009003984944401A0390E00306D453461A
:104BA0002146179A039800F0A9F90544002706E06A
:104BB00001A85246C05D179990476D1C7F1C4F4558
:104BC000F6DBE0030CD553462146179A039800F014
:104BD00095F9054404E030205246179990476D1C22
:104BE0000099481E00900029F5DC08E0029802991F
:104BF00052460078491C0291179990476D1CBBF1F1
:104C00000001ABF1010BF1DC5BE100F065F905445B
:104C1000761C307800287FF40DAE19B02846BDE828
:104C2000F08F000009280100303132333435363737
:104C300038396162636465660000000030313233E8
:104C40003435363738394142434445460000000088
:104C5000600700D4062708F1070020F00700F0E8FD
:104C60000223804603F0004C5FEA0C0001D097A0BD
:104C700009E0200501D596A005E0E00701D095A048
:104C800001E0AFF24C001390307823F00043652828
:104C90000CD006DC452809D046281DD047287FD1F6
:104CA0003BE0662818D067287AD136E00021112F22
:104CB00001DB112000E0781CCDE9000104A90CA85B
:104CC000FFF7EEFCDDE90D010C9A4FF0000B07F148
:104CD0000109109200914EE04FF000400097CDE99D
:104CE000011004A90CA8FFF7DBFCDDE90D020C9B09
:104CF0000F994FF0000B91461093009211B9791C57
:104D000000EB0109B7EB090003D4C0F1FF3B07F149
:104D10000109A9EB0700019042E0012F00DA012709
:104D20000021112F01DD112000E03846CDE90001FE
:104D300004A90CA8FFF7B4FCDDE90D010C9A009161
:104D40004FF0000BB946109221070FD4009A4A4544
:104D500003DA914601E0A9F10109B9F1010F05DD7E
:104D6000109AA9F10101515C3029F4D0B84202DA5D
:104D700010F1040F03DA0121CDE9011010E0002841
:104D800003DC8344A9EB000102E0411C494500DD3E
:104D90008946A0EB0B00401C01904FF000400290B0
:104DA000200705D40198484502DB4FF0FF30019001
:104DB00000208DF84B0002980DF14B07B0F1004F29
:104DC00025D002200C902B200D90029800280CDAA0
:104DD000404202902D200D9007E00A210298FBF737
:104DE0001DFB3031029007F8011D0C99481E0C90F4
:104DF0000029F2DC02980028EFD1791E0D98087086
:104E0000307800F0200040F0450007F8020D11A8AE
:104E1000C01BC01D02901398007800B1012000EB68
:104E20000901019801EBE071029801440398401ACE
:104E3000401E0390E00306D453462146179A039878
:104E400000F05CF805441398007818B152461799A1
:104E500090476D1CE00323D553462146179A0398CB
:104E600000F04CF805441BE0BBF1000F07DB009895
:104E7000584504DD1098179910F80B0001E01799B8
:104E800030205246904701980BF1010B401E05F16E
:104E90000105019004D12E205246179990476D1CB0
:104EA000B9F10001A9F10109DEDC05E017F8010BF9
:104EB0005246179990476D1C0299481E029000298E
:104EC000F4DC53462146179A03989EE62D00000015
:104ED0002B000000200000002DE9F04104460025D1
:104EE0001E461746880404D405E039462020B04702
:104EF0006D1C641EF9D52846BDE8F0812DE9F0410E
:104F0000044600251E469046C80301D5302700E020
:104F10002027880404D505E041463846B0476D1C7B
:104F2000641EF9D52846BDE8F0810A68531C0B6061
:104F30001070704770B54FF6FA75281A84B2084899
:104F4000FDF7D0F8064801684C62006801E0416A4C
:104F50008CB2AC42FBD3BDE870400148FDF7FEB80F
:104F60005C11002013B54FF6FF7301226946054816
:104F7000FDF7E6FA034800680168C9434906FBD417
:104F800000981CBDA8120020A0B0FCF713F9FEF792
:104F900055F9FDF715FFFDF7CFFEFEF73BF8FEF7DD
:104FA00017F8FDF7F3FFFDF7ABFFFDF755FCFFF733
:104FB000ABF9FBF7DBFDDFF83491D9F8000080474F
:104FC00001224B494B48FDF783FAFFF7E3F901460D
:104FD00049A0FFF7DFFADFF834A11F26DFF81081C0
:104FE0004FF6FF7520274FF0000B9AF80200544649
:104FF0003B2806D14FF47A70FBF75EFF2846FDF799
:10500000FBFA002241494248FCF7C6FC0022414914
:105010003F48FCF79FFC0FF2001C3E483FA28378FC
:105020004178CDE901123EA10091CDE9033CC3785E
:105030003CA23DA105A8FFF7BDFAA3783EA2617886
:105040003DA08DE80F0023783CA23EA112A8FFF7F7
:10505000B1FA05A8CDE900070296CDE9035B5C46ED
:105060002023F02250210020FBF770FE12A8CDE98A
:1050700000070296CDE903542023F0229621002058
:10508000FBF764FE0120FEF713FF30B1B9F81620DC
:10509000B9F80C102FA0FFF77DFA98F8020101284B
:1050A000A3D188F8024131A108F10100FBF7CDF846
:1050B00090B908F10100FFF76DFA2E4801782EA093
:1050C000FFF768FA304C4FF400712046FCF757F8B0
:1050D00021152046FCF753F82CA0FFF75BFAFF21BF
:1050E00008F10100FBF7A6F87FE700000C000020A4
:1050F000A4110020A81200205732355131366964BE
:1051000020697320305825580000000080100020CE
:10511000E410002046000020C8D50000D4C20000E2
:10512000C4EA00003230000025732564257325642D
:1051300025732564257300003A000000CAB1BCE461
:1051400000000000257325642573256425732564FC
:10515000000000007820697320307825582C7920D1
:10516000697320307825580D0A0000004C45440D25
:10517000000000005400002074656D7020697320E9
:1051800025640D0A000000000014024055415254ED
:105190005F464C41470D0A0000000000000000007F
:1051A00000000000000000003F4000000000000080
:1051B00000003000400030004000000009000BC03B
:1051C0003D000BC03D00090018C024407FE0224094
:1051D00031800000180024C01B000D803240018087
:1051E00003801C4027401C800740004010006000E6
:1051F00000000000000000000000000000001F8010
:10520000204040200000402020401F80000000007F
:10521000090006001F8006000900000004000400C9
:105220003F80040004000000001000600000000047
:10523000000000000400040004000400040000005A
:10524000000000400000000000000000002001C03D
:1052500006003800400000001F8020402040204011
:105260001F800000000010403FC000400000000010
:1052700018C02140224024401840000010802040E7
:10528000244024401B80000002000D0011003FC09C
:10529000014000003C802440244024402380000042
:1052A0001F80244024403440038000003000200050
:1052B00027C03800200000001B80244024402440E8
:1052C0001B8000001C0022C0224022401F800000E2
:1052D0000000000008400000000000000000000086
:1052E0000460000000000000000004000A0011003B
:1052F0002080404009000900090009000900000061
:1053000000004040208011000A0004001800200026
:1053100023402400180000001F802040274029401F
:105320001F400000004007C039000F0001C00040CE
:1053300020403FC0244024401B8000001F802040AC
:10534000204020403080000020403FC020402040CE
:105350001F80000020403FC024402E4030C000008D
:1053600020403FC024402E00300000000F0010807D
:10537000204022403380020020403FC0040004004F
:105380003FC02040204020403FC02040204000003F
:105390000060202020203FC02000200020403FC08F
:1053A00024400B0030C0204020403FC0204000403F
:1053B000004000C03FC03C0003C03C003FC00000B4
:1053C00020403FC00C4023003FC020001F802040F1
:1053D000204020401F80000020403FC02440240087
:1053E000180000001F802140214020E01FA0000085
:1053F00020403FC02440260019C0004018C024406F
:105400002440224031800000300020403FC0204036
:105410003000000020003F80004000403F8020001E
:1054200020003E0001C0070038002000380007C0FF
:105430003C0007C038000000204039C0060039C0D9
:10544000204000002000384007C038402000000005
:10545000304021C02640384020C00000000000003D
:105460007FE0402040200000000070000C0003801E
:10547000004000000000402040207FE000000000CD
:10548000000020004000200000000000001000107C
:10549000001000100010001000000000400000008C
:1054A00000000000000002800540054003C00040ED
:1054B00020003FC00440044003800000000003803F
:1054C00004400440064000000000038004402440E3
:1054D0003FC000400000038005400540034000003D
:1054E000000004401FC0244024402000000002E0CF
:1054F000055005500650042020403FC004400400E1
:1055000003C000400000044027C00040000000002D
:1055100000100010041027E00000000020403FC0F1
:105520000140070004C00440204020403FC000402C
:105530000040000007C0040007C0040003C00000D2
:10554000044007C00440040003C000400000038082
:105550000440044003800000041007F0045004409D
:1055600003800000000003800440045007F0001096
:10557000044007C002400400040000000000064090
:105580000540054004C00000000004001F800440E6
:1055900000400000040007800040044007C00040B5
:1055A0000400070004C0018006000400060001C0DA
:1055B000070001C006000000044006C0010006C04C
:1055C000044000000410071004E0018006000400FD
:1055D0000000044005C00640044000000000000038
:1055E00004007BE040200000000000000000FFF00D
:1055F00000000000000040207BE0040000000000EC
:10560000400080004000200020004000000000001A
:10561000000000000000000000000000000000008A
:1056200000001FCC000C000000000000000008007B
:10563000300060000800300060000000022003FC21
:105640001E20022003FC1E200220000000000E1875
:1056500011043FFF10840C78000000000F0010843C
:105660000F3800C0077818840078000000780F8495
:1056700010C411240E9800E400840008080068009B
:1056800070000000000000000000000000000000AA
:10569000000007E01818200440020000000040024B
:1056A0002004181807E0000000000000024002403B
:1056B00001800FF001800240024000000080008065
:1056C00000800FF800800080008000000001000DC5
:1056D000000E00000000000000000000000000803C
:1056E0000080008000800080008000800000000CAE
:1056F000000C000000000000000000000000000698
:10570000001800600180060018002000000007F06B
:10571000080810041004080807F00000000008043E
:1057200008041FFC000400040000000000000E0C30
:1057300010141024104411840E0C000000000C18EA
:1057400010041104110412880C700000000000E025
:105750000320042408241FFC0024000000001F98DC
:10576000108411041104108810700000000007F06C
:1057700008881104110418880070000000001C0043
:10578000100010FC13001C001000000000000E3878
:1057900011441084108411440E38000000000700EA
:1057A000088C10441044088807F000000000000036
:1057B0000000030C030C00000000000000000000CB
:1057C0000001010600000000000000000000008051
:1057D00001400220041008081004000002200220EA
:1057E00002200220022002200220000000001004FB
:1057F00008080410022001400080000000000E0094
:105800001200100C106C10800F00000003E00C1848
:1058100013E4142417C4082807D000000004003C37
:1058200003C41C40074000E4001C000410041FFCDB
:105830001104110411040E880070000003E00C181C
:1058400010041004100410081C10000010041FFCA9
:10585000100410041004080807F0000010041FFCD6
:105860001104110417C410040818000010041FFCD0
:105870001104110017C010000800000003E00C180C
:105880001004100410441C780040000010041FFC99
:1058900010840080008010841FFC1004000010049D
:1058A00010041FFC1004100400000000000300019D
:1058B000100110011FFE10001000000010041FFC5A
:1058C000110403801464181C1004000010041FFC51
:1058D0001004000400040004000C000010041FFC6D
:1058E0001F0000FC1F001FFC1004000010041FFC20
:1058F0000C04030000E010181FFC100007F008085B
:10590000100410041004080807F0000010041FFC25
:1059100010841080108010800F00000007F008181D
:1059200010241024101C080A07F2000010041FFCA9
:105930001104110011C011300E0C000400000E1CE7
:1059400011041084108410441C380000180010004A
:1059500010041FFC100410001800000010001FF8B5
:1059600010040004000410041FF8100010001E00B2
:1059700011E0001C007013801C0010001FC0103CC0
:1059800000E01F0000E0103C1FC000001004180CD5
:10599000163401C001C01634180C100410001C008D
:1059A000130400FC13041C00100000000804101C69
:1059B0001064108413041C04101800000000000080
:1059C00000007FFE40024002400200000000300064
:1059D0000C0003800060001C000300000000400277
:1059E000400240027FFE00000000000000000000B6
:1059F00020004000400040002000000000010001A5
:105A00000001000100010001000100010000400050
:105A1000400020000000000000000000000000988E
:105A2000012401440144014400FC000410001FFC57
:105A3000008801040104008800700000000000706C
:105A400000880104010401040088000000000070C7
:105A500000880104010411081FFC0004000000F884
:105A6000014401440144014400C800000000010455
:105A700001040FFC1104110411001800000000D6ED
:105A800001290129012901C90106000010041FFC98
:105A9000008401000100010400FC00040000010476
:105AA000190419FC000400040000000000000003B9
:105AB00000010101190119FE0000000010041FFC83
:105AC0000024004001B4010C010400000000100497
:105AD00010041FFC0004000400000000010401FC8D
