:020000040800F2
:1000000020190020290200083317000801100008F9
:10001000311700081F040008F11800080000000054
:10002000000000000000000000000000371700087A
:1000300021040008000000003517000839170008E7
:10004000430200084302000843020008430200087C
:10005000430200084302000843020008430200086C
:10006000430200084302000843020008430200085C
:10007000430200084302000843020008430200084C
:10008000430200084302000843020008430200083C
:10009000430200084302000843020008430200082C
:1000A000430200084302000843020008430200081C
:1000B000430200084302000843020008430200080C
:1000C00043020008430200084302000843020008FC
:1000D00043020008430200084302000843020008EC
:1000E00043020008430200084302000843020008DC
:1000F00043020008430200084302000843020008CC
:1001000043020008430200084302000843020008BB
:1001100043020008430200084302000843020008AB
:10012000430200084302000843020008430200089B
:10013000430200084302000843020008430200088B
:10014000430200084302000843020008430200087B
:10015000430200084302000843020008430200086B
:10016000430200084302000843020008430200085B
:100170004302000843020008430200080000000098
:10018000430200084302000800F002F800F03CF8C7
:100190000AA090E8000C82448344AAF10107DA45E2
:1001A00001D100F031F8AFF2090EBAE80F0013F0F8
:1001B000010F18BFFB1A43F00103184798170000FE
:1001C000B8170000103A24BF78C878C1FAD852078F
:1001D00024BF30C830C144BF04680C6070470000C1
:1001E0000023002400250026103A28BF78C1FBD840
:1001F000520728BF30C148BF0B6070471FB501F0E0
:1002000097FB1FBD10B510BD00F0CFF81146FFF7EA
:10021000F5FF01F07EFB00F0EDF803B4FFF7F2FF0D
:1002200003BC00F0F5F80000094880470948004782
:10023000FEE7FEE7FEE7FEE7FEE7FEE7FEE7FEE796
:10024000FEE7FEE704480549054A064B70470000F3
:10025000D51700088901000820010020201900207E
:10026000200900202009002053EA020C00F06980D8
:100270002DE9F04B4FF00006002B1FBFB3FA83F5BA
:1002800003FA05F424FA05F65E4012BF1643B2FAEB
:1002900082F502FA05F4C5F120051EBF22FA05FC1D
:1002A00044EA0C04203556EA044C4FEA144418BFC3
:1002B000641C4FF000084FF00009904271EB030CF2
:1002C00039D3002919BFB1FA81F701FA07F6B0FA5C
:1002D00080F700FA07F6C7F120071EBF20FA07FCD7
:1002E00046EA0C062037B6FBF4FCA7EB0507103FE7
:1002F00007F01F0BCBF120060CFA0BFB2CFA06F6CD
:1003000044BFB3460026202FA4BF5E464FF0000B2B
:100310005BEA060C08BF4FF0010B19EB0B09ABFBB6
:10032000027C48EB0608C01B06FB02CC0BFB03CC8F
:1003300071EB0C01C1E70B46024641464846BDE859
:10034000F08B13B54FF000004FF00001AFF30080C9
:10035000BDE81C4070474FF0000200B513469446BC
:100360009646203922BFA0E80C50A0E80C50B1F10D
:100370002001BFF4F7AF090728BFA0E80C5048BF21
:100380000CC05DF804EB890028BF40F8042B08BFBF
:10039000704748BF20F8022B11F0804F18BF00F8BB
:1003A000012B7047704770477047754600F02CF876
:1003B000AE4605006946534620F00700854618B052
:1003C00020B5FFF73FFFBDE820404FF000064FF09B
:1003D00000074FF000084FF0000B21F00701AC467A
:1003E000ACE8C009ACE8C009ACE8C009ACE8C00999
:1003F0008D46704710B50446AFF300802046BDE837
:100400001040FFF70ABF000000487047BC00002002
:1004100001491820ABBEFEE7260002007047FEE748
:10042000704738B54FF6FF7000F0ECFD4FF478449C
:100430008023DC2240211420009400F039FE402368
:10044000DC2280211420009400F032FE1F20009056
:100450008023DC224021142000F078FE4FF61F0498
:10046000234651226021782000F092FE234650223C
:100470006021782000F08CFE23464F2260217820F6
:1004800000F086FEBDE838404FF47A7000F076B890
:1004900072B6FEE730B5B3F5804F05D06FF070410E
:1004A00040F82210002030BD8C690B688D68234312
:1004B0004C688989240144EA0524234343EA014125
:1004C00050F82230014C23401943E9E70000F0CFF7
:1004D00010B50A6850F8223023F0010340F82230AA
:1004E0008C68082C23D000234A682243CC681C4324
:1004F0000B6922431A434B690E4C1A43CB691A43CA
:100500000B6A1A434B6A1A438B6A1A43CB6A1A4323
:100510000B6B1A438B691343CA6B09681A4350F873
:100520002130A343134340F82130002010BD402365
:10053000DAE700007FFF0F0030B5D1E9003443EA6D
:1005400004138C688D89240244EA054423430C8AF1
:10055000094D00EB820005EB045423430C7D6D0133
:1005600005EB0464896923430B43416801F0404172
:100570000B434360002030BD0000F0FF70B504461F
:1005800000F060F90546601C02D00448007804447D
:1005900000F058F9401BA042FAD370BD08000020BB
:1005A0002DE9F04186B014216846FFF7D4FE2048BB
:1005B0000168002939D1012101601E480024016829
:1005C00041F00101016000684FF4805800F0010023
:1005D0000C27CDF80080CDE9047003260225039690
:1005E000CDE901546946144800F02EF84FF68070AA
:1005F000CDE9000502AA694682E8D0000F4800F064
:1006000023F84CF23370CDE9000502AA694682E86E
:10061000D0000B4800F018F802AA694682E8D00022
:10062000CDE90085074800F00FF806B0BDE8F0817D
:100630000000002038380240001402400010024040
:10064000000C0240001802402DE9F84FDFF8BCA171
:100650000022012503264FF00F090AF1040BAAF12D
:10066000040E00BF0B6805FA02F42340A34270D1C8
:100670000F7907F00307012F01D0022F16D18768E9
:100680004FEA420806FA08FC27EA0C07D1F80CC02A
:100690000CFA08FC4CEA070CC0F808C04768A743EE
:1006A0000C79C4F3001494403C4344600C79E44357
:1006B000A4070AD0C4684FEA420C06FA0CF7BC4300
:1006C0008F6807FA0CF72743C7600C7904F003041E
:1006D000022C12D1D40800EB840CDCF82040570720
:1006E000FF0E09FA07F824EA0804D1F8108008FA86
:1006F00007F848EA0408CCF8208004684FEA420C66
:1007000006FA0CF7BC430F7907F0030707FA0CF75A
:10071000274307604C6814F4403F70D03C4C276876
:1007200047F480472760246822F0030704F48044DC
:100730000094384C07EB040CDCF8084897074FEAA4
:10074000177809FA08F7BC43334FB84202D10027A3
:1007500024E054E0314FB84201D101271EE0304F70
:10076000B84201D1022719E02E4FB84201D1032728
:1007700014E02D4FB84201D104270FE02B4FB842AF
:1007800001D105270AE02A4FB84201D1062705E02A
:10079000284FB84201D1072700E0082707FA08F7D9
:1007A0002743CCF80878DAF800405746D1F804C05F
:1007B0009C435FEACC2C00D51C433C60DBF8004036
:1007C0005F46D1F804C09C435FEA8C2C00D51C43E3
:1007D0003C60DEF800407746D1F804C09C435FEAF5
:1007E0008C3C00D51C433C60084F083F3C68D1F866
:1007F00004C09C435FEACC3C00D51C433C60521CC7
:10080000102AFFF42FAFBDE8F88F0000083C01402C
:100810004438024000300140000002400004024021
:1008200000080240000C0240001002400014024088
:1008300000180240001C02400AB18161704709049F
:10084000FBE70000014880687047000008000020B6
:1008500002488168027811448160704708000020D6
:100860000B4810B5016841F400710160016841F462
:1008700080610160016841F480710160032000F033
:1008800061F80F2000F006F800F024F8002010BDF9
:10089000003C024070B50D4D04464FF47A71287843
:1008A000B1FBF0F00A490968B1FBF0F000F02CFB55
:1008B00048B9102C07D200222146501E00F022F821
:1008C00000206C6070BD012070BD00000800002099
:1008D000140000200A4808B5016841F48041016015
:1008E000006800F4804000900548001F016841F056
:1008F00080510160006800F08050009008BD000049
:1009000044380240F0B40E4B1B680C46C3F302237C
:10091000C3F10705042D00D90425191D072901D2AB
:10092000002300E0DB1E012606FA05F1491E2140E6
:1009300099409E40761E16403143F0BC00F0D9BF6E
:100940000CED00E0064900F0070208684FF6FF03CF
:10095000184040EA0220034A104308607047000034
:100960000CED00E00000FA052DE9F0470E46050009
:1009700065D0DFF81481D8F80000F7B200F0070066
:10098000B04207D288F80070D8F8000000F00700E5
:10099000B04254D128683D4C810712D5400703D599
:1009A000206840F4E05020602878000703D52068D4
:1009B00040F4604020602068A96820F0F0000843FF
:1009C00020602878C0072DD0304968680839012890
:1009D00012D0022813D0032811D0096889070029F2
:1009E0002DDA216821F0030101432160FFF72AFF7E
:1009F000814641F2883A0EE009688903EFE7096809
:100A00008901ECE7FFF71EFFA0EB0901514502D970
:100A10000320BDE8F0872068696800F00C00B0EBA7
:100A2000810FEFD1D8F80010404601F00701B14224
:100A300007D90770006800F00700B04201D001201C
:100A4000E7E72878400705D52068E96820F4E050FA
:100A5000084320602878000706D52068296920F41B
:100A6000604040EAC100206000F038F82168084A80
:100A7000C1F30311515CC84006490860064800688C
:100A8000FFF708FF0020C4E7003C0240083802409E
:100A90003A190008140000200C0000200448054901
:100AA00000680968044AC1F38221515CC84070475C
:100AB00014000020083802404A190008044805497B
:100AC00000680968044AC1F34231515CC84070476C
:100AD00014000020083802404A190008154810B5D3
:100AE000006810F00C02144813D04110042A0FD0F3
:100AF000082A0ED10F4C241F2268236802F03F02FF
:100B00005B0207D52068C0F38810A0FB010106E056
:100B1000084610BD2168C1F38811A1FB0001002324
:100B2000FFF7A2FB2168C1F30141491C4900B0FB5A
:100B3000F1F010BD083802400024F4002DE9F84F10
:100B400004006ED02078DFF84C93C007A9F10405AB
:100B50004AD009F104000168C1F38101012908D0DC
:100B60000068C0F3810002280AD1D9F800004002D1
:100B700006D52868800337D560680028E1D033E0C7
:100B80006068B0F5803F10D0B0F5A02F286810D075
:100B900020F480302860286820F480202860606875
:100BA000A8B1FFF74FFE06460DE0286840F48030FC
:100BB000F4E740F480202860F7E700BFFFF742FE2B
:100BC000801B642873D828688003F7D50CE0FFF7F2
:100BD00039FE064605E000BFFFF734FE801B64289F
:100BE000F0D828688003F7D42078DFF8AC8280073B
:100BF0004FF0000A3ED5A748001D016811F00C0F08
:100C000008D00068C0F3810002280BD1D9F8000099
:100C1000400207D42868800716D5E068012800D173
:100C200012E033E1E068B8B10120C8F80000FFF736
:100C300009FE064605E000BFFFF704FE801B022800
:100C4000C0D828688007F7D52868216920F0F80007
:100C500040EAC10028600DE0C8F800A0FFF7F2FDEF
:100C6000064604E0FFF7EEFD801B02281FD8286827
:100C70008007F7D42078000722D5864F874861691E
:100C8000703771B101210160FFF7DCFD064604E019
:100C9000FFF7D8FD801B022809D838688007F7D5F0
:100CA0000EE0C0F800A0FFF7CDFD064605E082E0AB
:100CB000FFF7C8FD801B02287DD838688007F7D46D
:100CC0002078400768D5DFF8CCB100270BF13C0B4A
:100CD000DBF80000C0000BD4DBF8001041F08051BD
:100CE000CBF80010DBF80000012700F080500090E6
:100CF0006B4E3068C00510D4306840F480703060AE
:100D0000FFF7A0FD009005E0FFF79CFD0099401A59
:100D1000022850D83068C005F6D55E4EA0686C3603
:100D200001280FD00528306810D020F00100306075
:100D3000306820F004003060A068B8B1FFF782FD91
:100D400000900FE0306840F00100F4E740F004004C
:100D50003060F7E7FFF776FD0099411A41F28830DD
:100D6000814266D830688007F4D50EE0FFF76AFD4F
:100D7000009007E0FFF766FD0099411A41F28830C4
:100D8000814256D830688007F4D42FB1DBF80010C8
:100D900021F08051CBF80010A069C8B33D49091D6E
:100DA0000968C1F3810102294AD00228504607D0C0
:100DB000C8F8600000E03CE0FFF744FD04463BE07B
:100DC0004746C8F86000FFF73DFD064605E000BF56
:100DD000FFF738FD801B02282BD828688001F7D444
:100DE000D4E907010843A16A2E4A490802EB0141F0
:100DF000626A41EA8211084394F82C1040EA0161CA
:100E0000C9F8001001203866FFF71CFD044606E013
:100E10003EE000BFFFF716FD001B022809D8286836
:100E20008001F7D534E000BFFFF70CFD001B02285E
:100E300002D90320BDE8F88F28688001F4D427E0A8
:100E40000128F7D0D9F80000E26900F4800191424E
:100E50001CD1226A00F03F01914217D147F6C071C0
:100E6000626A0140B1EB821F10D1A26A4FF0FF33DA
:100E700000F4403103EB5202B1EB024F06D194F87B
:100E80002C1000F07060B0EB016F01D00120D1E7B1
:100E90000020CFE70438024000004742800E47425E
:100EA000007000400000FFFF70B515460E460400BC
:100EB00003D094F8490010B107E0012070BD002074
:100EC00084F84800204600F01DF804F1080120686D
:100ED000FFF7FEFA3146A2682068FFF72DFBD4E940
:100EE00001022946236BFFF7D5FA2168A06851F863
:100EF000202042F0010241F82020012084F849001E
:100F0000002070BDFFF74CBB10B5401EB0F1807FD4
:100F100001D3012010BD4FF0E02460610F21601764
:100F200000F0E7FC0020A06107202061002010BD38
:100F300070B5040004D094F83D00002510B106E01F
:100F4000012070BD84F83C50204600F023F8242096
:100F500084F83D002068C16821F40051C16020463A
:100F600000F040FC2068016921F490410161206893
:100F7000416921F02A0141612068C16841F40051B2
:100F8000C1602564202084F83D0084F83E000020E4
:100F900070BD000010B586B0044614216846FFF706
:100FA000DAF914492068884221D1134800210268E7
:100FB00042F010020260006800F0100005900E4838
:100FC0001438026842F001020260006800F001007B
:100FD00005904FF4C06000900220CDE9010103208C
:100FE00003900720049069460448FFF72DFB06B0E4
:100FF00010BD0000001001404438024000000240D3
:10100000FEE70000F0B50D4D002407466B882A88E6
:101010002146204600F09CFA2E886888002146432D
:10102000084600F07BFA00F0BBFA4FF0D84002E02F
:10103000A0F88070641CB442FAD3F0BD1800002000
:10104000F0B400271949F0222C242A254FF4A0736C
:101050002B2638B101280FD04FF0010C022813D0F5
:1010600003281AD08F710A804B800C814D818E81AC
:101070000020F0BC00F014BA8F710A804B800C8104
:101080004D818E810320F4E781F806C00B804A80F1
:101090000C814D818E810520EBE781F806C00B8025
:1010A0004A800C814D818E810620E2E718000020E5
:1010B0002DE9FE4F161ACDE900104FF000085D1A19
:1010C00047464FF0FF30002E02DD4FF0010102E0F5
:1010D00003D14FF000018B4602E08346C6F10006C3
:1010E000002D02DD4FF0010002E003D14FF00000BF
:1010F000824602E08246C5F10005AE4201DD34467B
:1011000000E02C46601C4FF00009029019E00098A6
:101110000C9A81B2019880B200F09CF8B0442F4440
:10112000A04504DD0198A8EB040858440190A742AB
:1011300003DD00983F1B5044009009F101001FFAA5
:1011400080F902998945E2DDBDE8FE8F2DE9F8417D
:101150001D46079C1646884607460B460094FFF737
:10116000A7FF3A462B46414610460094FFF7A0FFE2
:101170002B463246194638460094FFF799FF32460F
:101180002B46414610460094FFF792FFBDE8F881D8
:101190002DE9FF4F804600251446032082B00F46FC
:1011A000A0EB440651E0381B81B208EB050A019020
:1011B0001FFA8AF0059A00F04DF8781B009081B272
:1011C00008EB04091FFA89F0059A00F043F807EBD1
:1011D000050B1FFA8BF11FFA89F0059A00F03AF817
:1011E00007EB04091FFA89F11FFA8AF0059A00F04B
:1011F00031F8A8EB050A1FFA89F11FFA8AF0059A5F
:1012000000F028F8A8EB04091FFA8BF11FFA89F007
:10121000059A00F01FF80198059A81B21FFA8AF02A
:1012200000F018F80098059A81B21FFA89F000F0D2
:1012300011F86D1C002E03DA06EB8506B61D04E0DE
:10124000281B06EB8006641E0A36A542ABDD06B0FD
:10125000BDE8F08F30B50C4CA388A3F51345413D94
:1012600011D14FF0D843658923F87E5F050A5D8070
:10127000C0B25880A0891880080A5880C8B2588027
:10128000208918805A8030BD1800002070B53220A7
:10129000FFF774F9002000F0F7F874494FF6FF7576
:1012A0004FF0D844888049F24132FF2804D3A84245
:1012B00002D0B0F5134F14D1D320A4F87E0000F073
:1012C000D9F8888000F0D6F8888000F0D3F805EAD5
:1012D0000020888000F0CEF88B88184388809042E8
:1012E0007ED180B290427CD1CF2024F87E0F0020A6
:1012F0006080C120608030206080ED2020806420EC
:101300006080032060801220608081206080E8205F
:10131000208085206080102060807A206080CB2033
:101320002080392060802C20608000206080342064
:10133000608002206080F720208020206080EA20EA
:101340002080002060806080C02020801B20608082
:10135000C120208001206080C52020803020608056
:101360006080C7202080B720608036202080482001
:1013700060803A20208055206080B12020800020AD
:1013800060801A206080B62020800A206080A22021
:101390006080F220208000206080262020800120B4
:1013A0006080E02020800F2060802A20608028203C
:1013B0006080082060800E206080082060805420BB
:1013C0006080A9206080432060800A2060800F2018
:1013D000608000206080608060806080E12001E0AB
:1013E00043E035E0208000206080152060801720D9
:1013F00060800720608011206080062060802B20A4
:101400006080562060803C20608005206080102035
:1014100060800F2060803F20608060800F206080AF
:101420002B202080002060806080012060803F2091
:1014300060802A2020800020608060806080EF2013
:101440006080112020807820FFF798F829202080E4
:101450000020FFF7F5FD0122D1030548FFF7ECF965
:101460002846BDE87040FFF7CDBD70BD18000020D4
:101470000004024008B54FF0D840B0F88000ADF845
:101480000000BDF8000008BD10B54FF0D841A1F82C
:101490007E000120FFF772F8BDE81040FFF7EABFB9
:1014A0001D4B10B59A880021A2F51344413C32D15E
:1014B000082812D2DFE800F0110406080A0C0E100A
:1014C00080210AE0402108E0C02106E0202104E05C
:1014D000602102E0A02100E0E02141F00801362077
:1014E00000F068F84FF0D840598920F87E1F00219D
:1014F000418041801988491E0A0A4280C9B2418050
:10150000998901800021418041805988491E0A0A39
:101510004280C9B2418010BD180000200B4B10B5AD
:101520009A88A2F51344413C0ED14FF0D8425C8911
:1015300022F87E4F040A5480C0B2508098891080EF
:10154000080A5080C8B2508010BD0000180000206A
:1015500070B50244521E94B2CA18104B521E95B276
:101560009A88A2F51346413E16D14FF0D8425E89C3
:1015700022F87E6F060A5680C0B25080200A508042
:10158000E0B2508098891080080A5080C8B250801C
:10159000280A5080E8B2508070BD0000180000207A
:1015A00003484FF0D8410089A1F87E007047000041
:1015B000180000204FF0D84222F87E0F518070476B
:1015C00010B58EB01C216846FEF7C5FE1C2107A889
:1015D000FEF7C1FE1A484FF0204110220160194960
:1015E0004160062181600021C160C0E9041281616F
:1015F000C16113020162C0E909139302C0E90B1330
:101600004163816341640F203C230090CDE90103D5
:1016100003AC112384E80E0009240691CDE90740AC
:101620000AA8099480E80E000D9107AA69460448AB
:10163000FFF73AFC002801D0FEF72AFF0EB010BDDC
:1016400028000020040100A070B586B0142168466F
:10165000FEF781FE26480024016841F08001016008
:10166000016801F080010591016841F020010160ED
:10167000016801F020010591016841F0100101604D
:10168000016801F010010591016841F0020101605B
:10169000016801F002010591016841F00801016053
:1016A000016801F008010591016841F00101016044
:1016B000016801F001010591016841F040010160FC
:1016C00000680C4E00F040004FF4004505900022E9
:1016D00029463046FFF7B0F801200095CDE9010416
:1016E000694630460394FEF7AFFF06B070BD0000B8
:1016F00030380240000402400C4810B50A4901602D
:101700004FF4E1314160002181600C22C160C0E9E9
:1017100004128161C161FFF70BFC002803D0BDE812
:101720001040FEF7B5BE10BD00100140780000204B
:10173000FEE7FEE770477047FFF78AB830B593B011
:1017400030216846FEF707FE14210CA8FEF703FEC1
:101750001E480025016841F080510160006800F0DA
:10176000805011901A48016841F48041016000687E
:10177000022400F4804011900120009000040190A8
:101780008001CDE90640082008904FF4A870CDE90B
:10179000090404200B906846FFF7D0F908B172B62F
:1017A000FEE70CA90F2081E831004FF4A0500F9004
:1017B0004FF48050109005210CA8FFF7D5F80028B1
:1017C00001D072B6FEE713B030BD000040380240D1
:1017D000007000400248016841F4700101607047E8
:1017E00088ED00E070B5044600680169E26821F404
:1017F0004051114301612169A068E26908436169B0
:10180000114308432168CA6849F20C639A430243B2
:10181000CA6020684169A26921F4407111434161A5
:1018200031492068884202D03049884202D1FFF70E
:1018300045F901E0FFF732F9E26900231921642537
:101840003226B2F5004F626828D0A0FB0101930F49
:101850009200FEF709FD0146B0FBF5F06FF01802AB
:10186000504301EB800006EB0010B0FBF5F000F0F8
:10187000F002B1FBF5F002EB0012B1FBF5F06FF0F6
:101880001803584301EB800006EB0010B0FBF5F0A5
:1018900000F00F0021681044886070BDA0FB0101BA
:1018A00092185B41FEF7E0FC0146B0FBF5F0020147
:1018B000B1FBF5F06FF01803584301EB800006EB25
:1018C000C000B0FBF5F000F0F80002EB4002B1FB05
:1018D000F5F0584301EB800006EBC000B0FBF5F0DB
:1018E00000F00700D6E7000000100140001401409E
:1018F000FEE70907090E002804DB00F1E02080F86C
:101900000014704700F00F0000F1E02080F8141D73
:101910007047FEF7A5FFFFF711FFFFF795FEFFF7F2
:101920004FFEFFF7E9FEFFF7B1FCFEF77AFDFEE799
:101930004FF04070E1EE100A704700000000000018
:10194000000001020304060708090000000001026C
:1019500003040000741900080000002018000000B3
:10196000C40100088C1900081800002008190000A4
:10197000E00100080000000000000000010000007D
:0C19800010000000000000000024F40033
:040000050800018965
:00000001FF
