:020000040800F2
:10000000D0110020A1010008F32C000825240008CD
:10001000F12C0008530700083D32000800000000E2
:10002000000000000000000000000000F72C0008A5
:10003000E508000800000000F52C0008A32E0008C9
:10004000BB010008BB010008BB010008BB010008A0
:10005000BB010008BB010008BB010008BB01000890
:10006000BB010008BB010008BB010008BB01000880
:10007000BB010008BB010008BB010008BB01000870
:10008000BB010008BB010008BB010008BB01000860
:10009000BB010008BB010008BB010008BB01000850
:1000A000BB010008BB010008BB010008BB01000840
:1000B000BB010008BB010008BB010008BB01000830
:1000C000BB010008BB010008BB010008BB01000820
:1000D000BB01000831320008BB010008BB01000869
:1000E000BB010008BB010008BB010008BB01000800
:1000F000BB010008BB010008BB010008BB010008F0
:10010000BB010008BB010008BB010008BB010008DF
:10011000BB010008BB010008BB010008BB010008CF
:10012000BB010008BB010008BB010008BB010008BF
:10013000BB010008BB010008BB010008BB010008AF
:10014000BB010008BB010008BB010008BB0100089F
:10015000BB010008BB010008BB010008BB0100088F
:10016000BB010008BB010008BB010008BB0100087F
:10017000BB010008BB010008BB0100080000000033
:10018000BB010008BB010008DFF810D000F060FAE6
:1001900000480047513B0008AFF30080D011002019
:1001A0000648804706480047FEE7FEE7FEE7FEE711
:1001B000FEE7FEE7FEE7FEE7FEE7FEE7412F000869
:1001C000890100082DE9F05F0546002092469B4614
:1001D00088460646814640241BE02846414647465D
:1001E000224600F06CF853465A46C01A914110D38B
:1001F00011461846224600F053F82D1A67EB010805
:100200004F4622460120002100F04AF817EB000972
:100210004E41201EA4F10104DFDC484631462A4647
:100220004346BDE8F09FD2B201E000F8012B491E21
:10023000FBD270470022F6E710B513460A46044683
:100240001946FFF7F0FF204610BD421C10F8011BB5
:100250000029FBD1801A704710B5002200E0521C23
:10026000835C8C5CA34201D1002BF8D1D8B2E1B2FF
:10027000401A10BD30B50B46014600202022012453
:1002800009E021FA02F59D4205D303FA02F5491B64
:1002900004FA02F52844151EA2F10102F1DC30BD7A
:1002A000202A04DB203A00FA02F100207047914036
:1002B000C2F1200320FA03F3194390407047202A2B
:1002C00004DB203A21FA02F00021704721FA02F300
:1002D000D040C2F1200291400843194670472DE9F1
:1002E000FE4F804681EA0300C00F0C46009021F0CB
:1002F000004123F00045B8EB0200A94105D2404679
:10030000214690461C460B46024623F0004010430F
:1003100047D0270DC7F30A00C3F30A510290401AD1
:10032000019040286BDAC3F3130040F4801B00985F
:10033000924620B10023D2EB030A63EB0B0B01982A
:100340005946C0F140025046FFF7AAFF06460D4647
:1003500050465946019A00F08DF910EB08006141B2
:10036000002487EA115284EAE7731A4340D0009AC6
:1003700062B3019A012A4FEA075215DC001B61EBB8
:1003800002014FF0004202EA0752CDE90042001C90
:1003900041F5801132462B4600F08DF903B0BDE8DF
:1003A000F08F40462146F9E7001B61EB0201001C7B
:1003B00041F5801300185B412018A2F5001747EBA8
:1003C000030140EAD570B6196D4111E06D084FEA9E
:1003D000360645EAC0754FEA0752001B61EB020181
:1003E000001C41F5801149084FEA300000195141C5
:1003F00032462B4603B0BDE8F04F00F04DB90098EF
:10040000012240000023D0EB020263EBE07300986E
:1004100021464FEAE074B8EB000061EB0401E9E724
:1004200083F000435BE781F0004158E72DE9FE4F80
:1004300081EA030404F0004421F0004100944FF0ED
:10044000000B23F0004350EA01045ED052EA03049B
:100450005BD0C3F30A54C1F30A552C44A4F2F3341D
:100460000194A0FB0254C1F3130141F48011C3F3C2
:10047000130343F4801301FB024400FB034E840A80
:10048000970A44EA815447EA8357A4FB0768029518
:100490008D0A05FB07854FEA932C04FB0C542705B6
:1004A000029D4FEA065847EA1637B5EB08056EEB92
:1004B000070C870E920E47EA811742EA8312A7FBC8
:1004C0000201B6EB0B0164EB00042B0D43EA0C3385
:1004D0005E1844EB1C50DA465146E7FB0201C5F3B7
:1004E00013044FEA0B3343EA14534FEA0432019CDE
:1004F00043EA0603A4F10C040294009CCDE900B485
:1005000000F0D9F803B0BDE8F08F00200146F9E70C
:100510002DE9F04D81EA030404F0004B21F0004581
:1005200014464FF0000A23F0004150EA050220D0A3
:1005300054EA01021DD0C5F30A570246C5F313035E
:10054000C1F31300C1F30A5640F4801543F480133D
:10055000A7EB0608101BD64608F2FD3873EB050022
:1005600002D308F1010801E092185B41B8F1000FD5
:1005700003DA00200146BDE8F08D00204FF4801121
:10058000064684460EE0171B73EB050705D3121BC6
:1005900063EB050306434CEA010C49084FEA3000BF
:1005A00092185B4150EA0107EDD152EA030012D0E4
:1005B00082EA040083EA0501084305D0101BAB4121
:1005C00006D20122002306E000224FF0004302E0A1
:1005D0006FF0010253101AEB06004CEB085110EBC0
:1005E0000A0041EB0B01BDE8F04D00F055B8C1F336
:1005F0000A52C1F3130140F2FF3341F480119A42D1
:1006000002DA00200146704740F233439A42A2F2D8
:10061000334202DC5242FFF752BEFFF741BE0000F8
:1006200030B5041E71F1000404DB4FF00044404279
:1006300064EB0101141E73F1000405DB1C464FF04E
:100640000043524263EB0403994208BF904230BD1D
:10065000064C074D06E0E06840F0010394E807000F
:1006600098471034AC42F6D3FFF792FDD8B6020893
:10067000F8B60208202A06DBCB17203A41FA02F02E
:1006800043EAE07306E041FA02F3D040C2F12002EF
:10069000914008431946704710B5141E73F10004C9
:1006A00008DA401C41F1000192185B411A4301D164
:1006B00020F0010010BD2DE9F04D92469B4611B18E
:1006C000B1FA81F202E0B0FA80F220329046FFF7F0
:1006D000E7FD04460F4640EA0A0041EA0B01534693
:1006E0005A46084313D0114653EA010019D0C8F105
:1006F00040025046FFF7E3FD05460E465046594678
:100700004246FFF7CDFD084305D0012004E0204616
:100710003946BDE8F08D0020054346EAE0762C43DB
:1007200037430A986305E40AA0EB08000022FD0A9B
:1007300044EA47540A3002D500200146E9E70105A2
:1007400010196941DDE9084500196941BDE8F04D1E
:10075000A2E7FEE7F8B54EF67D7001F065FE35A321
:100760001F221021182000F02BFA364C4FF4784548
:10077000009560880521401F83B22088401F82B207
:10078000084601F095FF4FF6E07600966088142148
:10079000143883B22088143882B2084601F088FFEA
:1007A0001F20009060883221323883B2208832388E
:1007B00082B2084601F07CFF4FF61F00009060886F
:1007C0006421503883B22088503882B2502001F022
:1007D0006FFF4FF47A7000F0F9FE4FF6FF7001F0F2
:1007E00023FE00F01DFA4FF4FA74204600F0EEFEEE
:1007F000002001F019FE204600F0E8FE284601F036
:1008000013FE204600F0E2FE304601F00DFE2046C9
:1008100000F0DCFE4FF4FC6001F006FE204600F024
:10082000D5FE1F2001F000FE2046BDE8F84000F094
:10083000CDBE0000313A20D1D5C9ABCCEEB3E4B285
:10084000E2CAD400240000202DE9F0430D4D1F46DC
:10085000164688468146002404EB041015F8101053
:10086000B14209D105EB40014878B84204D1424673
:100870004846891C00F02AF8641CA4B2382CEBD33B
:10088000BDE8F083C05300082DE9F0430E4D1F462C
:10089000164688468146002404EB840000EB441091
:1008A00015F81010B14209D105EB40014878B84263
:1008B00004D142464846891C00F008F8641CA4B2E2
:1008C000092CE9D3BDE8F083965B000810B500233E
:1008D00005E000BF11F8014B00F8014B5B1C93428F
:1008E000F8D310BD7047000010B54EF67D7001F0D2
:1008F0009BFD4FF61F0426A322460421102000F082
:1009000077F928A322462021302000F071F95823DE
:10091000E0224021102000F07DF825A31F22442171
:10092000302000F04DF98023E0226821102000F0F3
:1009300071F823A31F226C21302000F041F9A82375
:10094000E0229021102000F065F821A31F229421BD
:10095000302000F035F94FF4784421A32246B42129
:10096000102000F02DF924A32246C421102000F00D
:1009700027F94FF4FA6000F029FEFFF7EBFE00F0D4
:1009800065FA00F03DFBBDE8104002F0FFB9000041
:1009900044657645426F782DB4F3D4BDB4B4D0C26B
:1009A00000000000D2BABEA7C6C1B2E2CAD400009D
:1009B000313A20D1D5C9ABCCEEB3E4B2E2CAD4000F
:1009C000323A20CEC4D7D6CFD4CABEB2E2CAD400FF
:1009D000333A20CDBCC6ACCFD4CABEB2E2CAD40032
:1009E000463A206D63756465762E74616F62616F3F
:1009F0002E636F6D00000000463A2073686F7033FD
:100A000038393935373239302E74616F62616F2E63
:100A1000636F6D002DE9F8431C464FF6FF780746DB
:100A200015460E460B46CDF8008001F053FD3A46C0
:100A3000234631461046CDF8008001F04BFD601E84
:100A400083B281B248F21048781C80B22A46CDF8B1
:100A5000008001F03FFD44F2082923462A4619464A
:100A60003846CDF8009001F035FD681E82B2711C49
:100A700089B280B22346CDF8008001F02BFD2A46D2
:100A8000234631461046CDF8009001F023FDBDE825
:100A9000F8830000F0B50C4D0C4F85B02C886D88A4
:100AA0003F884FF0300CCDE9003CCDE90227241AF5
:100AB0006D1AA4B2ADB2002604962B46224600F071
:100AC0006FFC05B0F0BD00002400002002000020F3
:100AD000F0B50C4D0C4F85B02C886D883F884FF0D9
:100AE000400CCDE9003CCDE90227241A6D1AA4B2CE
:100AF000ADB2002604962B46224600F051FC05B00C
:100B0000F0BD00002400002002000020F0B50C4DD4
:100B10000C4F85B02C886D883F884FF00C0CCDE9C8
:100B2000003CCDE90227241A6D1AA4B2ADB200260A
:100B300004962B46224600F033FC05B0F0BD0000C1
:100B40002400002002000020F0B50C4D0C4F85B0B1
:100B50002C886D883F884FF0100CCDE9003CCDE922
:100B60000227241A6D1AA4B2ADB2002604962B46B1
:100B7000224600F015FC05B0F0BD00002400002066
:100B800002000020F0B50C4D0C4F85B02C886D880C
:100B90003F884FF0200CCDE9003CCDE90227241A14
:100BA0006D1AA4B2ADB2002604962B46224600F080
:100BB000F7FB05B0F0BD000024000020020000207B
:100BC0002DE9FF41094D002610272C886D88CDE9BD
:100BD0000037CDE90226241A6D1AA4B2ADB22B4615
:100BE000224602F011F9BDE8FF8100002400002038
:100BF0002DE9FF41094D002618272C886D88CDE985
:100C00000037CDE90226241A6D1AA4B2ADB22B46E4
:100C1000224602F0F9F8BDE8FF8100002400002020
:100C200038B54FF6FF7001F0FFFB4FF47844802396
:100C3000DC2240211420009401F04CFC4023DC22F3
:100C400080211420009401F045FC1F200090802397
:100C5000DC224021142001F08BFC4FF61F042346B8
:100C600051226021782001F0A5FC2346502260210A
:100C7000782001F09FFC23464F226021782001F06C
:100C800099FCBDE838404FF47A7000F09FBC72B612
:100C9000FEE7000030B5B3F5804F05D06FF070412E
:100CA00040F82210002030BD8C690B688D6823430A
:100CB0004C688989240144EA0524234343EA01411D
:100CC00050F82230014C23401943E9E70000F0CFEF
:100CD00010B50A6850F8223023F0010340F82230A2
:100CE0008C68082C23D000234A682243CC681C431C
:100CF0000B6922431A434B690E4C1A43CB691A43C2
:100D00000B6A1A434B6A1A438B6A1A43CB6A1A431B
:100D10000B6B1A438B691343CA6B09681A4350F86B
:100D20002130A343134340F82130002010BD40235D
:100D3000DAE700007FFF0F0030B5D1E9003443EA65
:100D400004138C688D89240244EA054423430C8AE9
:100D5000094D00EB820005EB045423430C7D6D012B
:100D600005EB0464896923430B43416801F040416A
:100D70000B434360002030BD0000F0FF2DE9F0413F
:100D800015460122DFF858800C46064657033946BF
:100D9000404600F086FD052000F088FB032000F0AF
:100DA00021F8C4F3074000F01DF8C4F3072000F059
:100DB00019F8E0B200F016F8002405E0FF2000F07A
:100DC00011F83055641CA4B2AC42F7D30022394666
:100DD000404600F066FDBDE8F041052000F066BB2E
:100DE000000802402DE9F047DFF85890164E0546FE
:100DF00000244FF40068280601D5012200E00022FB
:100E00004146484600F04DFD00220121304600F0E9
:100E100048FD6806070E0421304600F035FD40EA23
:100E2000070501221146304600F03BFD641CE4B288
:100E3000082CE0D301221146304600F032FD28464E
:100E4000BDE8F087001402400004024070B54EF681
:100E50007D74204601F0E8FA27A31F2210211820F4
:100E6000FFF7AEFE4FF47A7000F0B0FB204601F0C1
:100E7000DBFA25A3002204211020FFF7B9FE27A3E7
:100E8000002220213020FFF7B3FE27A300225021AB
:100E90001820FFF795FE28A34FF4FC62602118206C
:100EA000FFF78EFE27A31F2270211820FFF788FE70
:100EB0004FF4784527A32A4680211820FFF780FEAB
:100EC00028A31F2290211020FFF77AFE2BA31F22B8
:100ED000A0211020FFF774FE2F4B2A46B0211020CE
:100EE000FFF76EFE40F6B83000F070FB2046BDE81C
:100EF000704001F099BA0000323A20CEC4D7D6CF64
:100F0000D4CABEB2E2CAD40044657645426F782D99
:100F1000B4F3D4BDB4B4D0C200000000D2BABEA7AE
:100F2000C6C1B2E2CAD40000C7B6C8EBCABDBFAAE8
:100F3000B7A2CDF800000000D6D0CEC4B2E2CAD429
:100F400000000000D7A8D7A2D2BABEA7C5FAB7A2A0
:100F500000000000C8ABB3CCBCBCCAF5D6A7B3D662
:100F600000000000463A206D63756465762E74615A
:100F70006F62616F2E636F6D00000000463A207350
:100F8000686F703338393935373239302E74616FC4
:100F900062616F2E636F6D0094B6020830B40C4628
:100FA0000178202A1BD00ADC0C2A0ED0102A14D07B
:100FB000182A18D10D4800BF01FB030108E0302AB0
:100FC0000FD0402A0FD10A48F6E7594301F5002116
:100FD000204630BC1A46FFF7D1BE0648ECE706486B
:100FE000EAE70648E8E730BC704700000012080056
:100FF00000920800000808000026080000480800C9
:10100000F0B54FF6FF7485B0204601F00DFA42A30B
:101010001F2210211820FFF797FD4FF47A7000F07F
:10102000D5FA204601F000FA1F252020CDE9010560
:101030003FA000260090CDE903462023F022314650
:10104000182000F0ADF910273DA0CDE90007CDE94B
:1010500002543B46F02228210496384600F0A0F9BD
:101060003BA0CDE90007CDE902541023F02238213E
:101070000496184600F094F93BA31F224821102043
:10108000FFF744FD3DA00095CDE90140C8230C22A7
:101090006021102000F0D4F90C20CDE901053EA01C
:1010A0000090CDE903460C23F0227821102000F0B7
:1010B00077F93EA0CDE90007CDE902541023F022D4
:1010C00088210496184600F06BF91820CDE9010537
:1010D0003AA00090CDE903461823F0229C2110206D
:1010E00000F05EF938A31F22B8211020FFF74AFD57
:1010F00038A31F22DC211020FFF7CCFC36A31F22CF
:10110000DC217820FFF7E4FC05B040F6B830BDE8FC
:10111000F04000F05BBA0000323A2047424BD7D68D
:10112000BFE22D2DCFD4CABEB2E2CAD40000000067
:10113000CAAED6D6D7D6BFE2B2E2CAD4000000000B
:10114000C9E8BCC6A3BAB4F3D4BDB5E7D7D3000091
:1011500046726F6D3A206D63756465762E74616FAB
:1011600062616F2E636F6D00446174653A203230A6
:1011700031392F30352F303800000000BED3D6D0A3
:10118000CFD4CABEBAAFCAFD3A20323031392F307F
:10119000352F303800000000BABAD7D63132783156
:1011A000322D47424BD7D6BFE2A3BA00BABAD7D640
:1011B0003136783136D7D6BFE2A3BA00323478322E
:1011C00034D7D6BFE2A3BA003332783332D7D6BF92
:1011D000E2A3BA00343800003634000030B40C46C4
:1011E000014600784978812809D3402907D3FF298F
:1011F00005D0FF2803D07F290CD240390BE0002016
:10120000014603E0401C04F8011B80B29842F9D368
:1012100030BC704741398138C0B2C0EB4015C9B20B
:1012200005EB801001EB400159430C2A0CD0102A29
:101230000CD0182A0DD0202AEAD101F560112046E1
:1012400030BC1A46FFF79ABD034800E0034801444A
:10125000F5E701F5ED11F2E70014090000DD1100DA
:101260002DE9FF4FC1B01C46DDF840B116460D46D2
:101270008946580700D0012000EBD400610810FB1C
:1012800001F18A460C2C09D0102C07D0182C05D05F
:10129000202C03D0302C01D0402C30D10B462246DC
:1012A00069463046FFF77AFE002626E01DF80670F4
:1012B0004FF00008380601D54E9A03E0BBF1000F4D
:1012C00004D14F9A2946419801F0D6F978066D1C51
:1012D000070EADB2A5EB0900A04205D141984D46DD
:1012E000401C80B2419006E008F101001FFA80F82E
:1012F000B8F1080FDED3761CB6B25645D6D345B04A
:10130000BDE8F08F2DE9FF4FA1B01C46DDF8C0B05D
:1013100016460D468946580700D0012000EBD40040
:1013200010FB04F18A460C2C05D0102C03D0182C8D
:1013300001D0202C31D10B46224669463046FFF7BA
:101340004DFF002627E000BF1DF806704FF0000893
:10135000380601D52E9A03E0BBF1000F04D12F9A75
:101360002946219801F088F978066D1C070EADB268
:10137000A5EB0900A04205D121984D46401C80B242
:10138000219006E008F1010000F0FF08B8F1080F15
:10139000DED3761CF6B25645D6D325B0BDE8F08F25
:1013A0002DE9FE4F0446DDE90C6780463078DDF814
:1013B00040B00D46002820D0E81808EB020AA0EB48
:1013C0000709307880281AD9AAEB0700A04202DA70
:1013D000E81985B24446A9450FDBDDE90E028DE828
:1013E00005083B46324629462046FFF78BFFE019A9
:1013F00084B216F8020F0028E3D1BDE8FE8FAAEBF5
:101400005701A14202DAE9198DB24446A945F4DB3D
:101410000D280FD0DDE90E128DE806083B46324656
:1014200029462046FFF71CFF04EB570084B216F84C
:10143000010FE0E7E81985B24446761CF4E70000A6
:101440002DE9F04786B08146DDE90F751E4614464A
:101450008A462846DDF83880FEF7F7FE61084143EA
:1014600089B201221048B1420AD9CDF80880CDE9ED
:101470000372CDE9005443880288514648460EE085
:10148000CDF80880CDE90372CDE90054711A01EB63
:10149000D1714388028809EB510080B25146FFF7B1
:1014A0007FFF06B0BDE8F08724000020002206E0A0
:1014B0000021491CC9B26429FBD3521CD2B282421A
:1014C000F6D3704770B415461E46027843780C4632
:1014D000812A10D3402B0ED3FF2B0CD0FF2A0AD029
:1014E0000C2E11D0102E11D0182E0DD129462046C9
:1014F00070BCFFF7C9B90020014603E0401C04F8A6
:10150000011BC0B2A842F9D370BC704729462046DF
:1015100070BCFFF799B92DE9F0410446876D00F0E2
:10152000C5F9064694F835000025022806D080202B
:10153000606584F834500120BDE8F08120680168BE
:1015400021F0160101602068416921F080014161AC
:10155000206C08B9A06C20B12068016821F0080156
:1015600001602068016821F0010101600CE000F0D9
:101570009DF9801B052807D920206065032084F889
:10158000350084F83450D7E720680068C007EED1F2
:1015900094F85C103F208840B860012084F8350042
:1015A00084F834500020C7E790F83510022903D0A2
:1015B0008021416501207047052180F835100068C1
:1015C000016821F0010101600020704770B50446F8
:1015D00000F06CF90546601C02D004480078044411
:1015E00000F064F9401BA042FAD370BD1000002047
:1015F0002DE9F04186B014216846FEF71BFE204815
:101600000168002939D1012101601E4800240168C8
:1016100041F00101016000684FF4805800F00100C2
:101620000C27CDF80080CDE904700326022503962F
:10163000CDE901546946144800F02EF84FF6807049
:10164000CDE9000502AA694682E8D0000F4800F003
:1016500023F84CF23370CDE9000502AA694682E80E
:10166000D0000B4800F018F802AA694682E8D000C2
:10167000CDE90085074800F00FF806B0BDE8F0811D
:1016800004000020383802400014024000100240DC
:10169000000C0240001802402DE9F84FDFF8BCA111
:1016A0000022012503264FF00F090AF1040BAAF1CD
:1016B000040E00BF0B6805FA02F42340A34270D168
:1016C0000F7907F00307012F01D0022F16D1876889
:1016D0004FEA420806FA08FC27EA0C07D1F80CC0CA
:1016E0000CFA08FC4CEA070CC0F808C04768A7438E
:1016F0000C79C4F3001494403C4344600C79E443F7
:10170000A4070AD0C4684FEA420C06FA0CF7BC439F
:101710008F6807FA0CF72743C7600C7904F00304BD
:10172000022C12D1D40800EB840CDCF820405707BF
:10173000FF0E09FA07F824EA0804D1F8108008FA25
:1017400007F848EA0408CCF8208004684FEA420C05
:1017500006FA0CF7BC430F7907F0030707FA0CF7FA
:10176000274307604C6814F4403F70D03C4C276816
:1017700047F480472760246822F0030704F480447C
:101780000094384C07EB040CDCF8084897074FEA44
:10179000177809FA08F7BC43334FB84202D1002743
:1017A00024E054E0314FB84201D101271EE0304F10
:1017B000B84201D1022719E02E4FB84201D10327C8
:1017C00014E02D4FB84201D104270FE02B4FB8424F
:1017D00001D105270AE02A4FB84201D1062705E0CA
:1017E000284FB84201D1072700E0082707FA08F779
:1017F0002743CCF80878DAF800405746D1F804C0FF
:101800009C435FEACC2C00D51C433C60DBF80040D5
:101810005F46D1F804C09C435FEA8C2C00D51C4382
:101820003C60DEF800407746D1F804C09C435FEA94
:101830008C3C00D51C433C60084F083F3C68D1F805
:1018400004C09C435FEACC3C00D51C433C60521C66
:10185000102AFFF42FAFBDE8F88F0000083C0140CC
:1018600044380240003001400000024000040240C1
:1018700000080240000C0240001002400014024028
:1018800000180240001C02400069084000D00120FE
:101890007047426921EA02030A4043EA024181613A
:1018A00070470AB1816170470904FBE7014880680D
:1018B000704700001000002002488168027811443F
:1018C00081607047100000200B4810B5016841F49A
:1018D00000710160016841F480610160016841F4B8
:1018E00080710160032000F06FF80F2000F006F80F
:1018F00000F024F8002010BD003C024070B50D4DF2
:1019000004464FF47A712878B1FBF0F00A4909686F
:10191000B1FBF0F000F03AFB48B9102C07D20022DE
:101920002146501E00F030F800206C6070BD012090
:1019300070BD0000100000201C0000200A4808B5FF
:10194000016841F480410160006800F4804000902B
:101950000548001F016841F080510160006800F0F7
:101960008050009008BD000044380240002809DB88
:1019700000F01F02012191404009800000F1E020A9
:10198000C0F8001170470000F0B40E4B1B680C4605
:10199000C3F30223C3F10705042D00D90425191D43
:1019A000072901D2002300E0DB1E012606FA05F11B
:1019B000491E214099409E40761E16403143F0BC9E
:1019C00001F04EBC0CED00E0064900F0070208688B
:1019D0004FF6FF03184040EA0220034A1043086014
:1019E000704700000CED00E00000FA052DE9F0471B
:1019F0000E46050065D0DFF81481D8F80000F7B274
:101A000000F00700B04207D288F80070D8F8000054
:101A100000F00700B04254D128683D4C810712D530
:101A2000400703D5206840F4E05020602878000784
:101A300003D5206840F4604020602068A96820F049
:101A4000F000084320602878C0072DD0304968682E
:101A50000839012812D0022813D0032811D00968B0
:101A6000890700292DDA216821F003010143216053
:101A7000FFF71CFF814641F2883A0EE009688903AE
:101A8000EFE709688901ECE7FFF710FFA0EB090118
:101A9000514502D90320BDE8F0872068696800F04D
:101AA0000C00B0EB810FEFD1D8F80010404601F0E8
:101AB0000701B14207D90770006800F00700B04283
:101AC00001D00120E7E72878400705D52068E968BC
:101AD00020F4E050084320602878000706D52068ED
:101AE000296920F4604040EAC100206000F038F825
:101AF0002168084AC1F30311515CC84006490860D7
:101B000006480068FFF7FAFE0020C4E7003C0240E8
:101B1000083802407AB602081C0000201400002099
:101B20000448054900680968044AC1F38221515CF0
:101B3000C84070471C000020083802408AB60208DE
:101B40000448054900680968044AC1F34231515C00
:101B5000C84070471C000020083802408AB60208BE
:101B6000154810B5006810F00C02144813D041104D
:101B7000042A0FD0082A0ED10F4C241F2268236894
:101B800002F03F025B0207D52068C0F38810A0FB7B
:101B9000010106E0084610BD2168C1F38811A1FBD0
:101BA00000010023FEF70EFB2168C1F30141491C2F
:101BB0004900B0FBF1F010BD083802400024F400E9
:101BC0002DE9F84F04006ED02078DFF84C93C00761
:101BD000A9F104054AD009F104000168C1F38101AB
:101BE000012908D00068C0F3810002280AD1D9F881
:101BF0000000400206D52868800337D560680028B9
:101C0000E1D033E06068B0F5803F10D0B0F5A02F90
:101C1000286810D020F480302860286820F48020C4
:101C200028606068A8B1FFF741FE06460DE028680D
:101C300040F48030F4E740F480202860F7E700BFEC
:101C4000FFF734FE801B642873D828688003F7D51B
:101C50000CE0FFF72BFE064605E000BFFFF726FE6F
:101C6000801B6428F0D828688003F7D42078DFF838
:101C7000AC8280074FF0000A3ED5A748001D0168DE
:101C800011F00C0F08D00068C0F3810002280BD1BE
:101C9000D9F80000400207D42868800716D5E0680C
:101CA000012800D112E033E1E068B8B10120C8F8A2
:101CB0000000FFF7FBFD064605E000BFFFF7F6FD5D
:101CC000801B0228C0D828688007F7D528682169BA
:101CD00020F0F80040EAC10028600DE0C8F800A03C
:101CE000FFF7E4FD064604E0FFF7E0FD801B022855
:101CF0001FD828688007F7D42078000722D5864FA0
:101D000087486169703771B101210160FFF7CEFD2D
:101D1000064604E0FFF7CAFD801B022809D8386890
:101D20008007F7D50EE0C0F800A0FFF7BFFD06461C
:101D300005E082E0FFF7BAFD801B02287DD83868F5
:101D40008007F7D42078400768D5DFF8CCB10027AA
:101D50000BF13C0BDBF80000C0000BD4DBF80010EB
:101D600041F08051CBF80010DBF80000012700F0B3
:101D7000805000906B4E3068C00510D4306840F43D
:101D800080703060FFF792FD009005E0FFF78EFD58
:101D90000099401A022850D83068C005F6D55E4E2A
:101DA000A0686C3601280FD00528306810D020F0CC
:101DB00001003060306820F004003060A068B8B1E5
:101DC000FFF774FD00900FE0306840F00100F4E789
:101DD00040F004003060F7E7FFF768FD0099411A12
:101DE00041F28830814266D830688007F4D50EE031
:101DF000FFF75CFD009007E0FFF758FD0099411ADE
:101E000041F28830814256D830688007F4D42FB12F
:101E1000DBF8001021F08051CBF80010A069C8B3A6
:101E20003D49091D0968C1F3810102294AD00228F0
:101E3000504607D0C8F8600000E03CE0FFF736FDF0
:101E400004463BE04746C8F86000FFF72FFD064612
:101E500005E000BFFFF72AFD801B02282BD8286869
:101E60008001F7D4D4E907010843A16A2E4A490842
:101E700002EB0141626A41EA8211084394F82C1096
:101E800040EA0161C9F8001001203866FFF70EFD35
:101E9000044606E03EE000BFFFF708FD001B0228F5
:101EA00009D828688001F7D534E000BFFFF7FEFCB1
:101EB000001B022802D90320BDE8F88F28688001A2
:101EC000F4D427E00128F7D0D9F80000E26900F443
:101ED000800191421CD1226A00F03F01914217D14A
:101EE00047F6C071626A0140B1EB821F10D1A26A4D
:101EF0004FF0FF3300F4403103EB5202B1EB024FDD
:101F000006D194F82C1000F07060B0EB016F01D096
:101F10000120D1E70020CFE704380240000047420B
:101F2000800E4742007000400000FFFF70B515466C
:101F30000E46040003D094F8490010B107E00120D8
:101F400070BD002084F84800204600F01DF804F120
:101F500008012068FEF7BCFE3146A2682068FEF743
:101F6000EBFED4E901022946236BFEF793FE2168BC
:101F7000A06851F8202042F0010241F82020012001
:101F800084F84900002070BDFFF732BB10B5401E39
:101F9000B0F1807F01D3012010BD4FF0E0246061DB
:101FA0000F21601701F05CF90020A061072020617B
:101FB000002010BD70477047F8B5016804460868F6
:101FC000CA684B6910F00F0F4FF0000559D003F0AD
:101FD000010602F49077374365D0C10705D0D105DB
:101FE00003D5216C41F001012164410705D5D907D2
:101FF00003D0216C41F002012164810705D5D90786
:1020000003D0216C41F004012164010707D502F0DF
:102010002001314303D0216C41F008012164216C7F
:1020200000293AD0800604D5900602D5204600F05B
:10203000BEFF20684069216CC0F38010090700D4FE
:1020400060B3204600F08CFF20684069400621D52F
:102050002068143050E8001F21F0400140E80012D1
:10206000002AF5D1A06BA8B16C490165A06BFFF700
:102070009BFA002811D0A06B016D01B0BDE8F040C3
:10208000084783060FD593060DD52046BDE8F840D6
:1020900000F08DBF2046FFF78EFFF8BD2046FFF70A
:1020A0008AFF2564F8BD266B2023012E79D1C60650
:1020B00077D5D60675D50868486800904869400607
:1020C00040D5A16B086840680004000CEAD0A28DDE
:1020D0008242E7D9E085C869B0F5807F2DD02068BD
:1020E0000C3050E8001F21F4807140E80012002AF3
:1020F000F5D12068143050E8001F21F0010140E8BC
:102100000012002AF5D12068143050E8001F21F099
:10211000400140E80012002AF5D184F83E302563E2
:1021200020680C3050E8001F21F0100140E8001238
:10213000002AF5D1A06BFFF7EEF9A08DE18D401AD2
:1021400081B229E0A08DE18D401A81B2E08D002896
:10215000A8D00029A6D020680C3050E8002F22F427
:10216000907240E80026002EF5D12068143050E827
:10217000002F22F0010240E80026002EF5D184F85D
:102180003E30256320680C3050E8002F22F010020A
:1021900040E80023002BF5D12046FFF70BFFF8BDE8
:1021A000FFE705062BD5150629D594F83D00212813
:1021B000F5D1A068B0F5805F01D12069B0B1206A87
:1021C000411C2162216800784860E08C401E0004B8
:1021D000000CE084E3D12068C16821F08001C16077
:1021E0002068C16841F04001C160D8E7206A0088DA
:1021F000C0F308004860206A801C2062E5E74006C2
:10220000CDD55006CBD5CA68204622F04002CA6020
:1022100084F83D3000F005F9C1E70000512F0008B7
:1022200070B5040004D094F83D00002510B106E01C
:10223000012070BD84F83C50204600F023F8242093
:1022400084F83D002068C16821F40051C160204637
:1022500000F00EFF2068016921F4904101612068BF
:10226000416921F02A0141612068C16841F40051AF
:10227000C1602564202084F83D0084F83E000020E1
:1022800070BD000010B586B0044614216846FDF705
:10229000D1FF18492068884229D1174800210268D7
:1022A00042F010020260006800F010000590124831
:1022B0001438026842F001020260006800F0010078
:1022C00005904FF4C06000900220CDE90101032089
:1022D00003900720049069460848FFF7DDF90022C3
:1022E00002212520FFF750FB2520FFF73FFB06B01A
:1022F00010BD0000001001404438024000000240C0
:1023000090F83E30202B0ED159B152B190F83C30AC
:10231000012B08D0012380F83C300023036300F038
:102320002DBF0120704702207047000000680E4951
:10233000884218D10D4801780A290FD0B0F8003131
:10234000421C9954B0F8001111F10101A0F80011DC
:102350000649012201F58270FFF7D2BF012180F802
:1023600002110021F2E770470010014084000020B4
:102370002DE9F843044690F83D001F4616460D46E9
:1023800020284CD1C5B1BEB194F83C00012846D0FC
:10239000012084F83C004FF00008C4F84080212060
:1023A00084F83D00FFF782FAA6848146E684A0689F
:1023B000B0F5805F03D004E00120BDE8F883206918
:1023C00028B12E465FF0000584F83C800EE0002620
:1023D000FAE78021204600F0EEFEA0B9AEB116F873
:1023E000010B21684860E08C401EE084E08C4B4685
:1023F0004FF0000200970028EBD14FF0400120463B
:1024000000F0D9FE30B10320D7E735F8020BC0F356
:102410000800E6E7202084F83D000020CDE70220F8
:10242000CBE77047FEE70000F0B50D4D00240746EE
:102430006B882A882146204600F0BEFA2E886888DC
:1024400000214643084600F09DFA00F045FB4FF09E
:10245000D84002E0A0F88070641CB442FAD3F0BD0A
:1024600024000020F0B400271949F0222C242A254A
:102470004FF4A0732B2638B101280FD04FF0010C78
:10248000022813D003281AD08F710A804B800C8148
:102490004D818E810020F0BC00F036BA8F710A8029
:1024A0004B800C814D818E810320F4E781F806C0BA
:1024B0000B804A800C814D818E810520EBE781F8ED
:1024C00006C00B804A800C814D818E810620E2E798
:1024D000240000202DE9FE4F161ACDE900104FF020
:1024E00000085D1A47464FF0FF30002E02DD4FF026
:1024F000010102E003D14FF000018B4602E0834668
:10250000C6F10006002D02DD4FF0010002E003D10C
:102510004FF00000824602E08246C5F10005AE425F
:1025200001DD344600E02C46601C4FF000090290AB
:1025300019E000980C9A81B2019880B200F09CF8E2
:10254000B0442F44A04504DD0198A8EB040858448A
:102550000190A74203DD00983F1B5044009009F111
:1025600001001FFA80F902998945E2DDBDE8FE8F7E
:102570002DE9F8411D46079C1646884607460B463E
:102580000094FFF7A7FF3A462B46414610460094B9
:10259000FFF7A0FF2B463246194638460094FFF756
:1025A00099FF32462B46414610460094FFF792FFB2
:1025B000BDE8F8812DE9FF4F804600251446032031
:1025C00082B00F46A0EB440651E0381B81B208EB05
:1025D000050A01901FFA8AF0059A00F04DF8781B61
:1025E000009081B208EB04091FFA89F0059A00F007
:1025F00043F807EB050B1FFA8BF11FFA89F0059AD8
:1026000000F03AF807EB04091FFA89F11FFA8AF083
:10261000059A00F031F8A8EB050A1FFA89F11FFAB4
:102620008AF0059A00F028F8A8EB04091FFA8BF14C
:102630001FFA89F0059A00F01FF80198059A81B2F7
:102640001FFA8AF000F018F80098059A81B21FFA74
:1026500089F000F011F86D1C002E03DA06EB8506F8
:10266000B61D04E0281B06EB8006641E0A36A54250
:10267000ABDD06B0BDE8F08F30B50C4CA388A3F5F8
:102680001345413D11D14FF0D843658923F87E5F52
:10269000050A5D80C0B25880A0891880080A588059
:1026A000C8B25880208918805A8030BD240000208C
:1026B0002DE9F0438146A2EB0900401C1E4685B27D
:1026C0000C464FF0D848079F10E02146484600F0DE
:1026D00059F900F001FA0020414603E0A1F88070AA
:1026E000401C80B2A842F9D3641CA4B2B442ECD915
:1026F000BDE8F08370B53220FEF768FF002000F0DF
:10270000F7F874494FF6FF754FF0D844888049F2C6
:102710004132FF2804D3A84202D0B0F5134F14D1A0
:10272000D320A4F87E0000F0D9F8888000F0D6F815
:10273000888000F0D3F805EA0020888000F0CEF809
:102740008B881843888090427ED180B290427CD1A1
:10275000CF2024F87E0F00206080C12060803020D0
:102760006080ED2020806420608003206080122043
:10277000608081206080E82020808520608010209B
:1027800060807A206080CB202080392060802C20DF
:102790006080002060803420608002206080F7200C
:1027A000208020206080EA202080002060806080DF
:1027B000C02020801B206080C120208001206080FC
:1027C000C5202080302060806080C7202080B72016
:1027D000608036202080482060803A20208055206C
:1027E0006080B1202080002060801A206080B620A8
:1027F00020800A206080A2206080F22020800020BB
:1028000060802620208001206080E02020800F2032
:1028100060802A20608028206080082060800E2050
:1028200060800820608054206080A9206080432060
:1028300060800A2060800F206080002060806080BF
:1028400060806080E12001E043E035E020800020EE
:102850006080152060801720608007206080112034
:102860006080062060802B206080562060803C20A5
:10287000608005206080102060800F2060803F20F5
:10288000608060800F2060802B202080002060808E
:102890006080012060803F2060802A20208000200E
:1028A000608060806080EF20608011202080782030
:1028B000FEF78CFE292020800020FFF7D3FD0122A7
:1028C000D1030548FEF7EDFF2846BDE87040FFF74D
:1028D000ABBD70BD240000200004024008B54FF0DD
:1028E000D840B0F88000ADF80000BDF8000008BD89
:1028F00010B54FF0D841A1F87E000120FEF766FE2A
:10290000BDE81040FFF7EABF1D4B10B59A880021C3
:10291000A2F51344413C32D1082812D2DFE800F07E
:10292000110406080A0C0E1080210AE0402108E07C
:10293000C02106E0202104E0602102E0A02100E0A7
:10294000E02141F00801362000F0D0F84FF0D840E7
:10295000598920F87E1F0021418041801988491E35
:102960000A0A4280C9B241809989018000214180D0
:1029700041805988491E0A0A4280C9B2418010BD6F
:10298000240000200B4B10B59A88A2F51344413C5B
:102990000ED14FF0D8425C8922F87E4F040A548051
:1029A000C0B2508098891080080A5080C8B2508008
:1029B00010BD00002400002070B50244521E94B2E5
:1029C000CA18104B521E95B29A88A2F51346413E82
:1029D00016D14FF0D8425E8922F87E6F060A5680E3
:1029E000C0B25080200A5080E0B250809889108098
:1029F000080A5080C8B25080280A5080E8B250803F
:102A000070BD0000240000202DE9FF4F1D460C463C
:102A10008A46580700D0012000EBD500690810FB5A
:102A200001F0203A00F0FF09D0B20026DFF894B0A0
:102A3000029043E00C2D10D0102D13D0182D3FD153
:102A40000298214900EBC00001EB80004FF0000824
:102A5000875D38060BD50D9A0DE002981B4900EBF7
:102A60004000F1E71A49029801EB0010EEE70E98DA
:102A700028B91848428821460098FFF7FDFD7806DE
:102A8000070E641CBBF80200A4B2A04218D9A4EB44
:102A90000A00A84209D100985446401C80B2009018
:102AA000BBF8001081420BD906E008F1010000F0EC
:102AB000FF08B8F1080FCCD3761CF6B24E45B9D357
:102AC000BDE8FF8F2400002064460008003C000899
:102AD000744000080000002003484FF0D8410089EE
:102AE000A1F87E0070470000240000204FF0D8427B
:102AF00022F87E0F5180704710B58EB01C216846B9
:102B0000FDF798FB1C2107A8FDF794FB1A484FF02E
:102B10002041102201601949416006218160002195
:102B2000C160C0E904128161C16113020162C0E9A0
:102B300009139302C0E90B134163816341640F20C1
:102B40003C230090CDE9010303AC112384E80E007F
:102B500009240691CDE907400AA8099480E80E00EF
:102B60000D9107AA69460448FFF7E0F9002801D053
:102B7000FEF78DF80EB010BD34000020040100A057
:102B80002DE9F04387B014216846FDF753FB444814
:102B90000024016841F004010160016801F00401B2
:102BA0000591016841F020010160016801F02001F8
:102BB0000591016841F080010160016801F0800128
:102BC0000591016841F002010160016801F0020114
:102BD0000591016841F010010160016801F01001E8
:102BE0000591016841F008010160016801F00801E8
:102BF0000591016841F001010160016801F00101E6
:102C00000591016841F0400101600068254F00F026
:102C100040004FF400550590002229463846FEF743
:102C200040FEDFF8849000224FF460614846FEF7D2
:102C300038FEDFF8788048F201060022314640462F
:102C4000FEF72FFE00950125CDE90154694638466F
:102C50000394FEF721FD4FF4C060CDE90005CDE9F6
:102C6000025469464846FEF717FD0096CDE9015427
:102C7000694640460394FEF70FFD06208DE83100BB
:102C800069464046FEF708FDE8020090CDE9015490
:102C9000694648460394FEF7FFFC07B0BDE8F083A1
:102CA0003038024000080240001402400004024094
:102CB00010B50E4C0C480C2120604FF4E1306060E0
:102CC0000020A060E060C4E90401A061E06120464A
:102CD000FFF7A6FA08B1FDF7DAFF2068C16841F0F6
:102CE0002001C16010BD00000010014088010020DB
:102CF000FEE7FEE7704770472DE9F04F0446814636
:102D000093B01D4616468A46580700D0012000EBB6
:102D1000D50010FB05F0C0B283460C2D03D0102D5A
:102D200001D0182D2CD1024669463046FEF7CAFB69
:102D3000002022E01DF808700026380601D51C9AF4
:102D400003E01D9828B91048028851462046FFF735
:102D500093FC7806641C070EA4B2A4EB0900A842F9
:102D600004D10AF101004C461FFA80FA761CF6B233
:102D7000082EE2D308F10100C0B280465845D9D3ED
:102D800013B0BDE8F08F0000020000202DE9F041F3
:102D90004FF6FF7500242846FFF746FB15A31F22B8
:102DA00010211820FDF70CFF4FF47A70FEF70EFC8F
:102DB0002846FFF739FB4FF4A07500212B46F0227F
:102DC0000846FFF7F9FDFFF787FE0E4A00204FF097
:102DD000D8430021165D641C175D07EB0626A3F897
:102DE0008060491C641CF029F4D3401CA842F0D335
:102DF000BDE8F081333A20CDBCC6ACCFD4CABEB258
:102E0000E2CAD4007A5E00082DE9FC5F0446DDE9E1
:102E10000C6780463078DDF83CB00D4600281FD0A6
:102E2000E81808EB020AA0EB07093278802A19D9C2
:102E3000AAEB0700A04202DAE81985B24446A94588
:102E40000EDB0E99CDE9001B3B4632462946204653
:102E5000FFF752FFE01984B216F8020F0028E4D100
:102E6000BDE8FC9FAAEB5700A04202DAE81985B240
:102E70004446A945F4DB0D2A0ED00E99CDE9001B7E
:102E80003B4629462046FFF7BFFD00BF04EB570035
:102E900084B216F8010FE1E7E81985B24446761CC2
:102EA000F4E7FEF709BD000030B593B03021684665
:102EB000FDF7C0F914210CA8FDF7BCF91E48002548
:102EC000016841F080510160006800F0805011906D
:102ED0001A48016841F4804101600068022400F44E
:102EE0008040119001200090000401908001CDE904
:102EF0000640082008904FF4A870CDE9090404208A
:102F00000B906846FEF75CFE08B172B6FEE70CA9AE
:102F10000F2081E831004FF4A0500F904FF4805003
:102F2000109005210CA8FEF761FD002801D072B6B3
:102F3000FEE713B030BD0000403802400070004092
:102F40000248016841F470010160704788ED00E0BB
:102F500010B5806B0021C185C184FFF72CF810BD2E
:102F600001680C3151E8002F22F4907241E80023EF
:102F7000002BF5D10168143151E8002F22F0010235
:102F800041E80023002BF5D1016B012909D101682B
:102F90000C3151E8002F22F0100241E80023002BF1
:102FA000F5D1202180F83E1000210163704708B55B
:102FB00090F83E10222901D0022008BD82684FF40B
:102FC00080539A4201D1016921B1816A9A421BD092
:102FD0004AB10AE00268816A5268C2F308020A80B4
:102FE000816A891C08E0026972B10268526802F0C5
:102FF0007F020A70816A491C8162C18D491E0904E1
:10300000090CC18503D019E002685268F1E7016834
:10301000CA6822F02002CA600168CA6822F480727D
:10302000CA6001684A6922F001024A61202180F8E1
:103030003E10016B012903D0FFF778F9002008BD8D
:103040000021016301680C3151E8002F22F01002C9
:1030500041E80023002BF5D101680A68D20602D5A9
:103060000A6849680091818DFEF7A4FFE6E7000039
:1030700070B5044600680169E26821F440511143CB
:1030800001612169A068E26908436169114308434D
:103090002168CA6849F20C639A430243CA602068F7
:1030A0004169A26921F440711143416131492068AD
:1030B000884202D03049884202D1FEF741FD01E04A
:1030C000FEF72EFDE2690023192164253226B2F5B0
:1030D000004F626828D0A0FB0101930F9200FDF71A
:1030E00071F80146B0FBF5F06FF01802504301EBA8
:1030F000800006EB0010B0FBF5F000F0F002B1FB31
:10310000F5F002EB0012B1FBF5F06FF01803584335
:1031100001EB800006EB0010B0FBF5F000F00F00B3
:1031200021681044886070BDA0FB010192185B41CA
:10313000FDF748F80146B0FBF5F00201B1FBF5F0F0
:103140006FF01803584301EB800006EBC000B0FBA2
:10315000F5F000F0F80002EB4002B1FBF5F0584347
:1031600001EB800006EBC000B0FBF5F000F00700BB
:10317000D6E7000000100140001401408162828502
:10318000C28500210164222280F83E2080F83C1094
:10319000016921B10168CA6842F48072CA6001689D
:1031A0004A6942F001024A610068C16841F02001A9
:1031B000C160002070472DE9F041984617460E4641
:1031C0000446069D27E0681C25D02DB1FEF76EFB56
:1031D000A0EB0800A8421ED920680C3050E8001F60
:1031E00021F4D07140E80012002AF5D12068143093
:1031F00050E8001F21F0010140E80012002AF5D13B
:10320000202084F83D0084F83E00002084F83C0033
:103210000320BDE8F0812068006836EA000004D091
:103220000020B842CFD00020F3E70120F9E70000EA
:103230000148FEF7C1BE000088010020FEE7000043
:103240000FB4054B10B503A9044A029800F0EAF840
:1032500010BC5DF814FB00002D3B0008200000208E
:103260000907090E002804DB00F1E02080F80014B3
:10327000704700F00F0000F1E02080F8141D704747
:1032800002E008C8121F08C1002AFAD1704770472F
:10329000002001E001C1121F002AFBD1704700008D
:1032A0002DE9FF5F82B00021DDE90430020DDDF879
:1032B00040B0034318D044F61050A2F2FF3242430C
:1032C0001514119801281FD0A5EB0B00401C5FEAD4
:1032D000000A4FF000064E4FDFF83891B0465046D6
:1032E00015D5CAF1000413E0119801244AA301285E
:1032F00001D16FEA0B010298119AC0E90031C0E9CF
:10330000024206B0BDE8F09FCBF10000DFE70446C3
:103310000021404A491842EB0450CDE9001012E068
:10332000E00707D032463B4640464946FDF77EF867
:103330008046894632463B4610461946FDF776F8E8
:1033400006460F466410002CEAD1DDE90401DDE9F0
:103350000023BAF1000F06DAFDF768F842464B4643
:10336000FDF764F805E0FDF7D3F842464B46FDF75C
:10337000CFF804460E460022284BFDF751F903D83A
:103380004FF0FF30014607E00022254B2046314632
:10339000FCF7A5FFFDF72BF9102409E0002C0ADB50
:1033A0000A220023FCF70EFF039B30321A55641EDD
:1033B00050EA0102F2D1641C039AC4F111031444CF
:1033C000119A012A03D0012208430DD10AE00843D3
:1033D00004D000204FF0110B119072E7A3EB0B0506
:1033E0006D1E0DE05B4504DD4FF0000205F10105A7
:1033F00004E003DA4FF00002A5F10105002AECD049
:1034000002981199C0E90231C0E9004579E700004E
:10341000000014400000F03F300000000000F043C6
:103420000000E03F2DE9FF4F95B09A4688460646DA
:103430000025EEE1252877D100242746F94A01210D
:10344000039400E0044316F8013F203B01FA03F027
:103450001042F7D130782A2811D06FF02F0330783E
:10346000A0F13002092A16D8039A44F0020402EBB4
:10347000820203EB42021044761C0390EFE758F8F7
:10348000042B0392002A03DA504244F400540390C0
:1034900044F00204761C30782E2816D116F8010F5D
:1034A00044F004042A280DD06FF02F023078A0F1E8
:1034B0003003092B09D807EB870302EB4303C71836
:1034C000761CF3E758F8047B761C30786C280FD014
:1034D00006DC4C2817D068280DD06A2814D104E0E7
:1034E000742810D07A280FD10DE044F400140AE0BB
:1034F00044F4801401E044F440147278824202D112
:1035000004F58014761C761C307866280BD013DC0A
:10351000582877D009DC002875D04528F6D04628F1
:10352000F4D047281AD193E118E0632835D06428F5
:1035300079D0652812D18BE1702873D008DC672818
:10354000F1D069286FD06E280DD06F2806D1ACE07D
:1035500073282CD0752874D0782853D052461799E8
:1035600090476D1C54E1C4F30250022809D003288F
:103570000DD0D8F8001004280DD00D6008F1040813
:1035800046E1D8F80010EA17C1E90052F6E7D8F88A
:1035900000100D80F2E70D70F0E718F8041B8DF8AD
:1035A000001000208DF80100EB46012003E058F8E0
:1035B00004BB4FF0FF3061074FF0000102D40DE073
:1035C00009F101018946B9420FDA8145F8DB1BF8A0
:1035D00009100029F4D108E009F10101894681426E
:1035E000FADB1BF809100029F6D103985346A0EB2B
:1035F000090721463846179A00F080FA284400EB64
:10360000090507E044E008E10DE01BF8010B524614
:1036100017999047B9F10109F7D253462146384628
:10362000179AF2E039E00A21C4F302524FF0000B7E
:103630000091022A06D058F8040BC117032A09D0BA
:103640000AE023E008F1070020F00702F2E8020197
:10365000904605E000B2C117042A01D140B2C1175B
:10366000002906DA0A460021404261EB02012D22C0
:1036700002E0220504D52B228DF80420012203E06C
:10368000E20701D02022F7E7914657E00A2100E047
:1036900010214FF0000B00910BE010214FF0000BB8
:1036A00044F004040827009103E008204FF0000BC9
:1036B0000090C4F30252022A05D058F8040B0021EE
:1036C000032A08D008E008F1070020F00702F2E81A
:1036D0000201904603E080B2042A00D1C0B24FF04C
:1036E000000922072AD53278702A07D0DDF800C0F9
:1036F0008CF0100C5CEA0B0C05D00EE040228DF82B
:103700000420012208E050EA010306D030238DF89E
:1037100004308DF8052002229146009B83F00803B7
:1037200053EA0B030AD150EA010201D1620705D521
:1037300030228DF804204FF001097F1E3278582A7C
:1037400004D039A20C920CAA02920BE03BA2F9E73A
:103750005B46009AFCF736FD0C9B9B5C029A521E5E
:103760000292137050EA0102F2D1029804A9081AD9
:1037700000F1200B600702D524F4803400E001271B
:103780005F4502DDA7EB0B0000E0002000EB0B0122
:10379000009003984944401A0390E00306D453462E
:1037A0002146179A039800F0A9F90544002706E07E
:1037B00001A85246C05D179990476D1C7F1C4F456C
:1037C000F6DBE0030CD553462146179A039800F028
:1037D00095F9054404E030205246179990476D1C36
:1037E0000099481E00900029F5DC08E00298029933
:1037F00052460078491C0291179990476D1CBBF105
:103800000001ABF1010BF1DC5BE100F065F905446F
:10381000761C307800287FF40DAE19B02846BDE83C
:10382000F08F00000928010030313233343536374B
:1038300038396162636465660000000030313233FC
:10384000343536373839414243444546000000009C
:10385000600700D4062708F1070020F00700F0E811
:103860000223804603F0004C5FEA0C0001D097A0D1
:1038700009E0200501D596A005E0E00701D095A05C
:1038800001E0AFF24C001390307823F0004365283C
:103890000CD006DC452809D046281DD047287FD10A
:1038A0003BE0662818D067287AD136E00021112F36
:1038B00001DB112000E0781CCDE9000104A90CA86F
:1038C000FFF7EEFCDDE90D010C9A4FF0000B07F15C
:1038D0000109109200914EE04FF000400097CDE9B1
:1038E000011004A90CA8FFF7DBFCDDE90D020C9B1D
:1038F0000F994FF0000B91461093009211B9791C6B
:1039000000EB0109B7EB090003D4C0F1FF3B07F15D
:103910000109A9EB0700019042E0012F00DA01271D
:103920000021112F01DD112000E03846CDE9000112
:1039300004A90CA8FFF7B4FCDDE90D010C9A009175
:103940004FF0000BB946109221070FD4009A4A4558
:1039500003DA914601E0A9F10109B9F1010F05DD92
:10396000109AA9F10101515C3029F4D0B84202DA71
:1039700010F1040F03DA0121CDE9011010E0002855
:1039800003DC8344A9EB000102E0411C494500DD52
:103990008946A0EB0B00401C01904FF000400290C4
:1039A000200705D40198484502DB4FF0FF30019015
:1039B00000208DF84B0002980DF14B07B0F1004F3D
:1039C00025D002200C902B200D90029800280CDAB4
:1039D000404202902D200D9007E00A210298FCF74A
:1039E00049FC3031029007F8011D0C99481E0C90DB
:1039F0000029F2DC02980028EFD1791E0D9808709A
:103A0000307800F0200040F0450007F8020D11A8C2
:103A1000C01BC01D02901398007800B1012000EB7C
:103A20000901019801EBE071029801440398401AE2
:103A3000401E0390E00306D453462146179A03988C
:103A400000F05CF805441398007818B152461799B5
:103A500090476D1CE00323D553462146179A0398DF
:103A600000F04CF805441BE0BBF1000F07DB0098A9
:103A7000584504DD1098179910F80B0001E01799CC
:103A800030205246904701980BF1010B401E05F182
:103A90000105019004D12E205246179990476D1CC4
:103AA000B9F10001A9F10109DEDC05E017F8010B0D
:103AB0005246179990476D1C0299481E02900029A2
:103AC000F4DC53462146179A03989EE62D00000029
:103AD0002B000000200000002DE9F04104460025E5
:103AE0001E461746880404D405E039462020B04716
:103AF0006D1C641EF9D52846BDE8F0812DE9F04122
:103B0000044600251E469046C80301D5302700E034
:103B10002027880404D505E041463846B0476D1C8F
:103B2000641EF9D52846BDE8F081000013B54FF6B4
:103B3000FF73012269460548FEF71AFC0348006836
:103B40000168C9434906FBD400981CBD88010020C8
:103B5000FDF7BAFEFFF7A8F9FFF712F8FEF7CCFF62
:103B6000FFF7A6F8FEF7C6FD012218491848FEF730
:103B7000C7FBFCF7B9FE174F174D144C00264FF446
:103B800000784FF4806900BF94F802010128FBD14E
:103B900084F8026111A1601CFCF75EFB70B9601C27
:103BA000FFF74EFB39780FA0FFF74AFB4146284646
:103BB000FDF76FFE49462846FDF76BFE0DA0FFF7A7
:103BC0003FFBFF21601CFCF735FBDDE78400002094
:103BD000880100200C000020001402404C45440DD8
:103BE0000000000074656D702069732025640D0A63
:103BF00000000000554152545F464C41470D0A00F9
:103C000000000000000000000000000000000000B4
:103C10003F40000000000000000030004000300085
:103C20004000000009000BC03D000BC03D00090032
:103C300018C024407FE0224031800000180024C0DA
:103C40001B000D803240018003801C4027401C80F7
:103C5000074000401000600000000000000000006D
:103C60000000000000001F80204040200000402095
:103C700020401F8000000000090006001F80060091
:103C800009000000040004003F800400040000005C
:103C900000100060000000000000000004000400AC
:103CA00004000400040000000000004000000000C8
:103CB00000000000002001C00600380040000000A5
:103CC0001F802040204020401F8000000000104046
:103CD0003FC000400000000018C0214022402440A6
:103CE0001840000010802040244024401B80000029
:103CF00002000D0011003FC0014000003C80244044
:103D000024402440238000001F802440244034406D
:103D1000038000003000200027C038002000000091
:103D20001B802440244024401B8000001C0022C033
:103D3000224022401F8000000000000008400000D8
:103D4000000000000000000004600000000000000F
:103D5000000004000A001100208040400900090012
:103D60000900090009000000000040402080110007
:103D70000A0004001800200023402400180000005E
:103D80001F802040274029401F400000004007C0FE
:103D900039000F0001C0004020403FC024402440B3
:103DA0001B8000001F802040204020403080000009
:103DB00020403FC0204020401F80000020403FC0E6
:103DC00024402E4030C0000020403FC024402E0040
:103DD000300000000F00108020402240338002009D
:103DE00020403FC0040004003FC02040204020404D
:103DF0003FC02040204000000060202020203FC025
:103E00002000200020403FC024400B0030C0204054
:103E100020403FC020400040004000C03FC03C0068
:103E200003C03C003FC0000020403FC00C402300C6
:103E30003FC020001F802040204020401F80000005
:103E400020403FC024402400180000001F80214073
:103E5000214020E01FA0000020403FC02440260059
:103E600019C0004018C02440244022403180000086
:103E7000300020403FC020403000000020003F8044
:103E8000004000403F80200020003E0001C00700AD
:103E900038002000380007C03C0007C03800000090
:103EA000204039C0060039C02040000020003840C2
:103EB00007C0384020000000304021C02640384074
:103EC00020C00000000000007FE0402040200000F3
:103ED000000070000C000380004000000000402043
:103EE00040207FE000000000000020004000200093
:103EF0000000000000100010001000100010001062
:103F000000000000400000000000000000000280EF
:103F10000540054003C0004020003FC0044004406D
:103F200003800000000003800440044006400000BD
:103F300000000380044024403FC000400000038094
:103F40000540054003400000000004401FC024401D
:103F500024402000000002E00550055006500420D7
:103F600020403FC00440040003C000400000044063
:103F700027C000400000000000100010041027E0DF
:103F80000000000020403FC00140070004C0044082
:103F9000204020403FC000400040000007C0040017
:103FA00007C0040003C00000044007C00440040030
:103FB00003C0004000000380044004400380000070
:103FC000041007F004500440038000000000038048
:103FD0000440045007F00010044007C002400400F1
:103FE00004000000000006400540054004C0000039
:103FF000000004001F80044000400000040007800F
:104000000040044007C000400400070004C00180D5
:1040100006000400060001C0070001C00600000001
:10402000044006C0010006C0044000000410071050
:1040300004E00180060004000000044005C00640C2
:10404000044000000000000004007BE0402000006D
:10405000000000000000FFF0000000000000402011
:104060007BE00400000000004000800040002000D1
:1040700020004000000000000000000000000000E0
:10408000000000000000000000001FCC000C000039
:104090000000000000000800300060000800300050
:1040A00060000000022003FC1E20022003FC1E20F2
:1040B0000220000000000E1811043FFF10840C784D
:1040C000000000000F0010840F3800C0077818842B
:1040D0000078000000780F8410C411240E9800E4CA
:1040E0000084000808006800700000000000000064
:1040F0000000000000000000000007E01818200485
:1041000040020000000040022004181807E00000F0
:10411000000000000240024001800FF001800240D8
:10412000024000000080008000800FF800800080C6
:10413000008000000001000D000E000000000000E3
:1041400000000000000000800080008000800080EF
:10415000008000800000000C000C00000000000047
:10416000000000000000000600180060018006004A
:1041700018002000000007F00808100410040808C8
:1041800007F000000000080408041FFC00040004FD
:104190000000000000000E0C1014102410441184C4
:1041A0000E0C000000000C181004110411041288F9
:1041B0000C700000000000E00320042408241FFC11
:1041C0000024000000001F981084110411041088BE
:1041D00010700000000007F008881104110418880E
:1041E0000070000000001C00100010FC13001C00F8
:1041F0001000000000000E38114410841084114497
:104200000E38000000000700088C10441044088895
:1042100007F00000000000000000030C030C000089
:104220000000000000000000000101060000000086
:104230000000000000000080014002200410080877
:10424000100400000220022002200220022002208E
:1042500002200000000010040808041002200140A1
:104260000080000000000E001200100C106C108086
:104270000F00000003E00C1813E4142417C40828EE
:1042800007D000000004003C03C41C40074000E4C9
:10429000001C000410041FFC1104110411040E88FA
:1042A0000070000003E00C18100410041004100843
:1042B0001C10000010041FFC100410041004080857
:1042C00007F0000010041FFC1104110417C41004AF
:1042D0000818000010041FFC1104110017C0100082
:1042E0000800000003E00C181004100410441C78AF
:1042F0000040000010041FFC108400800080108427
:104300001FFC10040000100410041FFC1004100413
:104310000000000000030001100110011FFE10004A
:104320001000000010041FFC110403801464181C0A
:104330001004000010041FFC10040004000400041A
:10434000000C000010041FFC1F0000FC1F001FFCDD
:104350001004000010041FFC0C04030000E01018FF
:104360001FFC100007F008081004100410040808CF
:1043700007F0000010041FFC1084108010801080D3
:104380000F00000007F0081810241024101C080A61
:1043900007F2000010041FFC1104110011C01130BD
:1043A0000E0C000400000E1C110410841084104434
:1043B0001C3800001800100010041FFC100410002E
:1043C0001800000010001FF810040004000410047E
:1043D0001FF8100010001E0011E0001C0070138078
:1043E0001C0010001FC0103C00E01F0000E0103C4B
:1043F0001FC000001004180C163401C001C0163490
:10440000180C100410001C00130400FC13041C0002
:10441000100000000804101C1064108413041C0415
:10442000101800000000000000007FFE4002400263
:1044300040020000000030000C0003800060001CFF
:104440000003000000004002400240027FFE000026
:10445000000000000000000020004000400040007C
:104460002000000000010001000100010001000126
:10447000000100010000400040002000000000009A
:1044800000000000000000980124014401440144A0
:1044900000FC000410001FFC0088010401040088D7
:1044A0000070000000000070008801040104010495
:1044B0000088000000000070008801040104110859
:1044C0001FFC0004000000F80144014401440144C1
:1044D00000C800000000010401040FFC11041104D5
:1044E00011001800000000D601290129012901C985
:1044F0000106000010041FFC0084010001000104FB
:1045000000FC000400000104190419FC000400046C
:10451000000000000000000300010101190119FE64
:104520000000000010041FFC0024004001B4010C36
:10453000010400000000100410041FFC000400042B
:1045400000000000010401FC0104010001FC010461
:10455000010000FC010401FC0084010001000104D1
:1045600000FC0004000000F801040104010401043F
:1045700000F80000010101FF00850104010400882A
:1045800000700000000000700088010401040105B3
:1045900001FF00010104010401FC00840104010089
:1045A00001800000000000CC01240124012401242A
:1045B0000198000000000100010007F80104010457
:1045C00000000000010001F80004000400040108DC
:1045D00001FC0004010001800170000C001001606A
:1045E0000180010001F0010C003001C00030010C1D
:1045F00001F0010000000104018C00740170018CC5
:1046000001040000010101810171000E0018016028
:104610000180010000000184010C01340144018487
:10462000010C0000000000000000000001003EFC42
:10463000400240020000000000000000FFFF0000F8
:10464000000000000000400240023EFC01000000AB
:10465000000000000000600080008000400040007A
:10466000200020000000000000000000000000000A
:10467000000000000000000000000000000000003A
:10468000000000000000000000000000000000002A
:10469000000000000000000F80380FFE380F803847
:1046A000000000000000000000000000000000000A
:1046B00000000100000600000C000038000031007E
:1046C000000600000C000038000030000000000070
:1046D0000000000061800067F807F9800061800039
:1046E00061800061800061800067F807F9800061E7
:1046F0008000000000000000000001C0E003E0F0C6
:104700000630080418081FFFFE040E080787F00390
:1047100081E000000000000001F000060C0004042D
:1047200008060C7001F9C0000E00003BE000EC1818
:10473000070808040C180003E00000000001E00076
:1047400007F003F818041C0804170807E1D003C099
:10475000E00023B0003C080020080000100000002A
:104760000000000100003100003200001C000000C9
:104770000000000000000000000000000000000039
:104780000000000000000000000000000000000029
:10479000000000007F0001FFC00780F00C0018102F
:1047A00000042000020000000000002000021000B1
:1047B000040C00180780F001FFC0007F000000001B
:1047C00000000000000000000000000000000000E9
:1047D0004200006600006600003C0000180003FF75
:1047E000C0001800003C00006600006600004200A7
:1047F0000000000008000008000008000008000099
:10480000080001FFC00008000008000008000008C0
:10481000000008000000000000010000310000322C
:1048200000001C000000000000000000000000006C
:104830000000000000000000000000000800000868
:104840000000080000080000080000080000080040
:104850000008000008000008000000000000000040
:1048600000000000380000380000380000000000A0
:104870000000000000000000000000000000000038
:1048800000000000000600001C0000700001800015
:104890000E0000380000C0000700001C00003000BF
:1048A00000000000000000007F8001FFE003807036
:1048B00006001804000804000806001803807001B0
:1048C000FFE0007F80000000000000000000010009
:1048D0000801000801000803FFF807FFF8000008BE
:1048E00000000800000800000000000000000001B7
:1048F000C03802C0580400980401180402180404C7
:1049000018061C1803F81801E0F800000000000069
:1049100000000001C0E003C0F0040008040808041F
:10492000080806180803F41801E7F00001E0000089
:1049300000000000000000000300000D0000110056
:1049400000610000810803010807FFF80FFFF8006D
:1049500001080001080000000000000000E007FC62
:10496000D0060808061008061008061008061838B1
:10497000060FF00607C00000000000000000000065
:104980003F8001FFE003843002081804100804107F
:1049900008041008071810030FF00007C0000000FB
:1049A00000000000000003C0000700000600000631
:1049B00000F80607F806180006E0000700000600E9
:1049C0000000000000000001E1E003F7F0063410F1
:1049D000041808041808040C08040C080616180328
:1049E000F3F001C1E000000000000000F80003FC4B
:1049F0003003063804020804020804020804041004
:104A00000308F001FFC0007F00000000000000006C
:104A1000000000000000000000000000703800707E
:104A200038007038000000000000000000000000A6
:104A30000000000000000000000000000000000076
:104A4000301A00301C0000000000000000000000D0
:104A5000000000000000000000000008000014003A
:104A6000002200004100008080010040020020047C
:104A700000100800080000000000000021000021D4
:104A80000000210000210000210000210000210081
:104A900000210000210000210000000000000000B3
:104AA00000000800080400100200200100400080FF
:104AB00080004100002200001400000800000000F7
:104AC00000000003C00004C0000400000800380813
:104AD0000F380808380810000C300007E00003C049
:104AE00000000000000000003F8000FFE003807035
:104AF000020F1006708804C088048308047F8802AF
:104B0000C09003012000FE400000080000180001D2
:104B1000F8003E0801C20007020007E20000FE00A4
:104B2000001FC80001F80000380000080400080752
:104B3000FFF807FFF8040808040808040808040838
:104B40000806180803F41801E7F00001E00000006F
:104B5000000000003F8001FFE003807002001804A5
:104B60000008040008040008040010060020078064
:104B7000C000000004000807FFF807FFF804000861
:104B800004000804000804001802001003807001EB
:104B9000FFE0007F8000000004000807FFF807FF27
:104BA000F8040808040808040808040808043E0873
:104BB0000400080600180100600000000400080757
:104BC000FFF807FFF80408080408000408000408B8
:104BD00000043E0006000006000001800000000006
:104BE000000000003F8001FFE00380700600180411
:104BF00000080402080402080203F00783F0000220
:104C00000000020004000807FFF807FFF804080886
:104C10000008000008000008000008000408080759
:104C2000FFF807FFF804000800000000000004007F
:104C30000804000804000807FFF807FFF80400084C
:104C4000040008040008000000000000000000004C
:104C50000006000007000001040001040001040038
:104C60000307FFFE07FFFC0400000400000400002F
:104C700004000807FFF807FFF8040C0800180000FC
:104C80003E0004C7800503C80600F804003804008D
:104C90001800000804000807FFF807FFF8040008E0
:104CA00000000800000800000800000800000800DC
:104CB000001800006000000004000807FFF80780EB
:104CC0000807FC00007FC00003F80007C000780060
:104CD00007800807FFF807FFF8040008040008072A
:104CE000FFF807000803C00000E000003800001EC5
:104CF000000007000001C00400F007FFF8040000F6
:104D0000000000007F8001FFE003807006001804AF
:104D1000000804000806001803003001FFE0007FCF
:104D20008000000004000807FFF807FFF8040408EB
:104D3000040400040400040400040400060C00033E
:104D4000F80001F000000000000000007F8001FF7B
:104D5000E00380700600880400880400C806003C58
:104D600003003E01FFE6007F840000000400080706
:104D7000FFF807FFF8040808040800040C00040FFB
:104D800000040BC00610F003F03801E00800000832
:104D900000000001E0F803F03006301004180804A9
:104DA0001808040C08040C080206180207F0078112
:104DB000E000000001800006000004000004000084
:104DC00004000807FFF807FFF804000804000004C7
:104DD000000006000001800004000007FFE007FF5C
:104DE000F004001800000800000800000800000897
:104DF00000000804001007FFE004000004000006A3
:104E0000000007E00007FE00041FE00001F80000BA
:104E1000380001E0043E0007C00006000004000066
:104E200004000007E00007FFC0041FF80007C007E8
:104E3000F80007FF80043FF80007C004F8000700EF
:104E40000004000000000004000806001807C078F5
:104E500005F1C8003E00001F800463E80780F806E3
:104E6000001804000800000004000006000007808D
:104E70000007E008047C08001FF80007F800180885
:104E800004E0080700000600000400000000000124
:104E900000080600380400F80403E8040F08047C46
:104EA0000805F00807C008070018040060000000AB
:104EB0000000000000000000000000000000003FB3
:104EC000FFFE20000220000220000220000220003D
:104ED00002000000000000000000080000070000C1
:104EE00000C0000038000006000001C000003000D3
:104EF000000E000001000000000000000000200083
:104F0000022000022000022000022000023FFFFEDB
:104F10000000000000000000000000000000000091
:104F20000000000000080000100000300000200019
:104F30000030000010000008000000000000000029
:104F4000000001000001000001000001000001005C
:104F5000000100000100000100000100000100004C
:104F6000010000010000000000000000002000001F
:104F700020000010000010000000000000000000F1
:104F800000000000000000000000000000F0001918
:104F9000F8001B180022080026080024080024102E
:104FA000003FF8001FF8000008000018000000048F
:104FB000000007FFF80FFFF000181800100800208D
:104FC00008002008003018001FF0000FC00000008B
:104FD0000000000007C0001FF0001830002008008B
:104FE0002008002008003C08001C100000600000A1
:104FF000000000000000000007C0001FF00038188B
:1050000000200800200800200804101007FFF80FF7
:10501000FFF000001000000000000000000000078A
:10502000C0001FF0001230002218002208002208E1
:10503000003208001E10000E2000000000000000DA
:10504000200000200800200801FFF803FFF80620D8
:1050500008042008042008072000030000000000C6
:1050600000000000000E000E6E001FF30031B100C2
:1050700020B10020B1003191001F13002E1E00202E
:105080000E00300000000004000807FFF80FFFF8D2
:10509000001008002000002000002008003FF80059
:1050A0001FF80000080000000000000000000020C1
:1050B00008002008002008063FF8063FF800000816
:1050C00000000800000800000000000000000000D0
:1050D0000000000003000003002001002001002068
:1050E00003063FFE063FFC00000000000000000039
:1050F00000000004000807FFF80FFFF80001880017
:105100000300002FC00038F80020380020080000FD
:10511000080000000000000000000400080400086F
:1051200004000807FFF80FFFF8000008000008005F
:105130000008000000000000002008003FF8003FC9
:10514000F8001008002000003FF8003FF8001008A9
:10515000002000003FF8003FF800000800000000B9
:105160002008003FF8003FF8001008001000002061
:1051700000002008003FF8001FF8000008000000B1
:105180000000000007C0000FF000183000300800D9
:105190002008002008003008001830000FF0000739
:1051A000C0000000000000002001003FFF003FFFA2
:1051B00000101100200900200800200800303800ED
:1051C0001FF0000FC00000000000000007C0001F1B
:1051D000F0003818002008002008002009001011F5
:1051E000001FFF003FFF000001000000002008003A
:1051F0002008002008003FF8003FF80008080010D1
:1052000008002008002000003000003000000000EE
:10521000000000000000000C78001E180033080099
:1052200023080021080021880021980030F0003870
:1052300060000000000000002000002000002000AE
:1052400000FFF003FFF800200800200800200800FD
:105250000030000000000000000000002000003FBF
:10526000F0007FF80000180000080000080020107F
:10527000003FF8007FF00000100000000000000078
:105280002000003000003C00003F800023F00000C0
:1052900078000070002380003C00003000002000F7
:1052A000002000003C00003FE00023F80000E00088
:1052B0002700003E00003FE00021F80001E0003E32
:1052C00000002000000000002008002008003838FE
:1052D000003E680027800003C8002CF80038380022
:1052E000201800200800000000000000200000300E
:1052F00003003C01003F830023EC0000700023808A
:10530000003C000020000020000000000000000021
:1053100000000038080020380020F80023E8002FA3
:1053200088003E08003808002018000070000000C7
:10533000000000000000000000000000000000006D
:1053400008000014001FF7FC3000062000020000D7
:10535000000000000000000000000000000000004D
:10536000000000000000FFFFFF0000000000000040
:10537000000000000000000000000000000020000D
:10538000023000061FF7FC001400000800000000B7
:1053900000000000000000000000000000000018F5
:1053A00000006000004000004000002000001000ED
:1053B000000800000400000400000C0000100000C1
:1053C000B5E70200020002007FF0421042107FF0B9
:1053D000421042107FF042000208020801F800006B
:1053E0000000D7D37FF000200040008001000200C1
:1053F000FFF80200020002000200020002000E009C
:1054000000000000BCBC10201020102013FEFC2067
:105410001020102015FC18843088D048105010201F
:10542000105051882606CAF5010001200110011014
:105430007FFC03800540054009201110210841042C
:105440000102010001000100D2BA0080404027F8AB
:10545000114001408278424816A81AD023502220D9
:1054600042204250028800000000BEA73FE02020FA
:105470003FE020203FE00000FDF885088508FDF8AA
:1054800085088508FDF8850800000000B2E20008E4
:105490004F8828880AA88AA84AA80AA82AA82AA859
:1054A0004228450884888888103800000000CAD443
:1054B0004050204820400FF80040E0402740224064
:1054C000224022202A2833A82E18000800000000BD
:1054D000B3CC00001BF0E210221023F0F8002000F3
:1054E00033F068806080A3F02080208027F80000DF
:1054F0000000D0F2020001003FF820002FF0202031
:10550000224021803FF82088209040804080838086
:1055100000000000D1D5200010F87E20444028F87B
:105520007E8848A850A864A848A872A88450188803
:10553000610800000000C9AB100010003FE04040CF
:1055400080807FF04210421042107FF040004008FF
:1055500040083FF800000000CCEE20802FF82080AB
:1055600027F0F41027F0241027F0241027F034102F
:10557000CFF80220041000000000B3E40400020091
:10558000FFF80800104020207FF008900880088075
:10559000088010882088C07800000000CEC4040075
:1055A00002000200FFF8104010400880088005004B
:1055B0000200050008803060C01800000000D7D647
:1055C00004000200FFF8800880083FC0008001004E
:1055D0000200FFF80200020002000E0000000000BE
:1055E000CFD43FE0202020203FE0202020203FE0BB
:1055F00008804890289028A008800880FFF80000C4
:105600000000CABE00003FE0000000000000FFF8FC
:1056100002001240122022104208820802000E00EE
:1056200000000000CDBC7FF84008440847C8484847
:10563000548843084CC8733840884C084308408855
:105640007FF800000000C6AC008020802080208011
:105650003FF02000200020003FC02040204020409C
:105660004040804000000000B4A520403840484041
:1056700091F07D50555055507D5055F054407C4030
:10568000545057F88C0800000000C3FE222022204E
:1056900027F8FA2027F0241027F03410E7F02080B4
:1056A0002FF821402220EC1800000000CAE44080BE
:1056B0004140F22044108BE8A000F78824A827A8D6
:1056C00034A8E7A824A8248825B800000000C8EB67
:1056D0000800040004000200020005000500088024
:1056E000088010401040202040108008000000007A
:1056F000C8AB020002000500088010402020DFD85F
:10570000020002001FC0020002000200FFF80000B9
:105710000000B3CC00001BF0E210221023F0F800D0
:10572000200033F068806080A3F02080208027F87C
:1057300000000000BCBC208020802080F7F020808A
:10574000208027E03220E2202140208021402220BA
:10575000EC1800000000CAF502000240022002001E
:10576000FFF807000A800A801240222042108208B7
:105770000200020000000000D6A702000200FFF8AD
:10578000020002007FE010201040088005000200A7
:10579000050018C0E03800000000B3D6208020804B
:1057A00023F0F880208027F828203020E7F82020F8
:1057B000222021202020E0E000000000D7A80200E5
:1057C00002007FF004000400FFF8080010003FE032
:1057D000002000401C800300008000000000D7A2D1
:1057E00001004080200017F0008080804080008011
:1057F00017F010802080208040804FF800000000CB
:10580000C5FA204024402440F44824502760244016
:105810003440E4402440244025482648E438000031
:105820000000B7A202002220221044007FF80400EA
:1058300008000FE0142024404280810006C0383860
:1058400000000000B3C900A0009000807FF84080F5
:1058500040907C90449044A044A0444858A84118EB
:10586000820800000000B9A601000100F90023F041
:10587000211021102110211021103910C210021006
:105880000410086000000000D2C60000002000786C
:105890000CE47904516810307E6019981A3C2FE4AA
:1058A00048E40838003000600000D1A10000012069
:1058B000012003FC62203420042003FC240021B0DA
:1058C00021202220323E18000FE00000D4F1000019
:1058D000000010FC1304110C3DF8703E10D0159020
:1058E0007CF0503E18101BFE023000200000CFEE6E
:1058F0000000000003FE00607C4012FC1104110651
:10590000113611241F44794400C0009C0186000018
:10591000C4BF000000000FE03C18200820043E0433
:10592000600460047E046004200C20081FF00180E5
:105930000000B6CC0000080011FC103E3EF82D8C93
:105940002904490409043E8C50FC10881EC811FC2F
:10595000100E0000B0B400000040006012FE130200
:105960003A427F4410C41BFE3C987190113011A044
:105970000078004C0000C8B70000004000F878C470
:105980001F8C313821EC2126413A7DE2272225FA6D
:105990003D26012401040000B6A8000001000170AA
:1059A0005FFC700420042FF801001100113821C49D
:1059B00031003F0063E040380000B3A40000000065
:1059C0000818086008C00B001E00181C7FF01000AB
:1059D000118010E01838098E0F000000B0B40000EC
:1059E0000040006012FE13023A427F4410C41BFEC6
:1059F0003C987190113011A00078004C0000B7B5B0
:105A00000000000007F80600240014F8078C0404C6
:105A10002408261825F0647C64C220801FC0000082
:105A2000BBD8000000001FF030182008278C2C4441
:105A3000284428442CC427842004300C1FF80380F9
:105A40000000C7B60100210821083FF800202220ED
:105A5000223EFF42229422103E10221022283E288D
:105A600022440082CABD0048004400440040FFFEBA
:105A7000004000403E4008400840082008220F1225
:105A8000780A20060002BFAA00007FFC0820082038
:105A9000082008200820FFFE0820082008200820F1
:105AA0001020102020204020B7A201001110110862
:105AB00022003FFC0200040007F80A080908111040
:105AC00010A0204040A003181C06CDF800007FFC69
:105AD00040044004421452944A54442444244A54F6
