:020000040800F2
:1000000010290020A10100082B3C000851310008F4
:10001000293C000895060008655A00080000000009
:10002000000000000000000000000000F54900088A
:1000300055070008000000002D3C0008F7490008A3
:10004000BB010008BB010008BB010008BB010008A0
:10005000BB010008BB010008BB010008BB01000890
:10006000BB010008BB010008BB010008BB01000880
:10007000BB010008BB010008BB010008BB01000870
:10008000BB010008BB010008BB010008BB01000860
:10009000BB010008BB010008BB010008BB01000850
:1000A000BB010008BB010008BB010008BB01000840
:1000B000BB010008BB010008BB010008BB01000830
:1000C000BB010008BB010008BB010008BB01000820
:1000D000BB010008595A0008BB010008BB01000819
:1000E000BB010008BB010008BB010008BB01000800
:1000F000BB010008BB010008BB010008BB010008F0
:10010000BB010008FD3C0008BB010008BB01000862
:10011000BB010008BB010008BB010008BB010008CF
:10012000BB010008BB010008BB01000899060008DC
:10013000BB010008BB010008BB010008BB010008AF
:10014000BB010008BB010008BB010008BB0100089F
:10015000BB010008A5060008BB010008BB010008A0
:10016000BB010008BB010008BB010008BB0100087F
:10017000BB010008BB010008BB0100080000000033
:10018000BB010008BB010008DFF810D000F014FA32
:100190000048004701770008AFF3008010290020D5
:1001A0000648804706480047FEE7FEE7FEE7FEE711
:1001B000FEE7FEE7FEE7FEE7FEE7FEE7994A0008F6
:1001C000890100082DE9F05F0546002092469B4614
:1001D00088460646814640241BE02846414647465D
:1001E000224600F02AF953465A46C01A914110D3CC
:1001F00011461846224600F011F92D1A67EB010846
:100200004F4622460120002100F008F917EB0009B3
:100210004E41201EA4F10104DFDC484631462A4647
:100220004346BDE8F09FD2B201E000F8012B491E21
:10023000FBD270470022F6E710B513460A46044683
:100240001946FFF7F0FF204610BD10B5002200E070
:10025000521C835C8C5CA34201D1002BF8D1D8B234
:10026000E1B2401A10BD2DE9FE4F81EA030404F00B
:10027000004421F0004100944FF0000B23F00043B4
:1002800050EA01045ED052EA03045BD0C3F30A547F
:10029000C1F30A552C44A4F2F3340194A0FB025498
:1002A000C1F3130141F48011C3F3130343F480132A
:1002B00001FB024400FB034E840A970A44EA81547E
:1002C00047EA8357A4FB076802958D0A05FB07855B
:1002D0004FEA932C04FB0C542705029D4FEA065865
:1002E00047EA1637B5EB08056EEB070C870E920E42
:1002F00047EA811742EA8312A7FB0201B6EB0B0122
:1003000064EB00042B0D43EA0C335E1844EB1C50E5
:10031000DA465146E7FB0201C5F313044FEA0B33FB
:1003200043EA14534FEA0432019C43EA0603A4F162
:100330000C040294009CCDE900B400F09DF803B0D9
:10034000BDE8F08F00200146F9E70EB540F23341D9
:1003500002910021CDE900110A460B4600F08CF80D
:1003600003B000BDC1F30A5210B5C1F3130140F24E
:10037000FF3341F480119A4201DA002010BD40F2AF
:1003800033439A42A2F2334203DC524200F055F862
:1003900010BD904010BD00F0004230F000400AD087
:1003A000C10D01F56071C0F3160042EA0151C208A7
:1003B00040071143704700200146704730B5041EC6
:1003C00071F1000404DB4FF00044404264EB010192
:1003D000141E73F1000405DB1C464FF0004352422B
:1003E00063EB04038B4208BF824230BD30B5041E6C
:1003F00071F1000404DB4FF00044404264EB010162
:10040000141E73F1000405DB1C464FF000435242FA
:1004100063EB0403994208BF904230BD202A04DBFD
:10042000203A00FA02F1002070479140C2F1200307
:1004300020FA03F3194390407047202A04DB203A46
:1004400021FA02F00021704721FA02F3D040C2F1F4
:100450002002914008431946704710B5141E73F1ED
:10046000000408DA401C41F1000192185B411A4374
:1004700001D120F0010010BD2DE9F04D92469B46C0
:1004800011B1B1FA81F202E0B0FA80F22032904666
:10049000FFF7C4FF04460F4640EA0A0041EA0B0199
:1004A00053465A46084313D0114653EA010019D067
:1004B000C8F140025046FFF7C0FF05460E465046C1
:1004C00059464246FFF7AAFF084305D0012004E041
:1004D00020463946BDE8F08D0020054346EAE07627
:1004E0002C4337430A986305E40AA0EB0800002276
:1004F000FD0A44EA47540A3002D500200146E9E7E4
:10050000010510196941DDE9084500196941BDE897
:10051000F04DA2E72DE9F04D00231A461B1A8A413F
:1005200003DB00200146BDE8F08DC1F30A52C1F3A0
:10053000130141F480154FF0000BD10702D10018D0
:100540006D41521E0027044640F2FF11384601EB70
:10055000620A3E468046024600204FF48011FFF7B3
:100560006CFFC2197141BB1846EB0100B4EB030CE0
:1005700075EB000C04D3E41A65EB000517460E4634
:10058000241908F101006D4180463428E3DDF91992
:1005900046EB0600091BA84103D24FF0FF32134679
:1005A00001E0002213461BEB070046EB0A51BDE8B1
:1005B000F04DFFF752BF0000064C074D06E0E06823
:1005C00040F0010394E8070098471034AC42F6D39A
:1005D000FFF7DEFDBC420308DC4203087047000061
:1005E0000146014801F088BD4C11002010B50448B7
:1005F00001F094FD042801D0012010BD002010BDA1
:100600004C11002010B500F015F8012801D0012090
:1006100010BD074801F09CFE040006D14FF40061B4
:10062000034801F00FFC00B10124204610BD00007A
:100630004C11002008B501208DF800009DF8000045
:1006400008BD0000134610B50A46014600240348C1
:1006500001F07AFF00B10124204610BD4C110020AA
:10066000014901208860704790000020134610B5B2
:100670000A4601460024034802F000F800B10124B4
:10068000204610BD4C1100200149012048607047F0
:1006900090000020FEE70000014800F099BB000038
:1006A000D0110020014800F093BB00003012002060
:1006B00001681823CAB2103AB2FBF3F2054B6FF38C
:1006C0000901032A9B5CC36500D9091D81650846A1
:1006D000704700002996000810B5014600208B697C
:1006E0008A6A4FF0C07453B1B3F5005F15D072B190
:1006F000012A0CD0022A0AD0032A09D104E01AB137
:10070000012A06D0022A03D1C96AC90100D50120F5
:1007100010BDC96AA142FAD010BD002AF7D0012A43
:10072000F2D0022AF3D0032AF3D010BD30B504680A
:10073000256825F480252560046863608368402B64
:10074000036803D099600068C26030BD9A60006899
:10075000C16030BD70470000F0B50C4D0C4F85B046
:100760002C886D883F884FF0100CCDE9003CCDE916
:100770000227241A6D1AA4B2ADB2002604962B46A5
:10078000224600F06DFA05B0F0BD0000B800002070
:100790000200002072B6FEE7002200F001B800005F
:1007A00030B50E4B054601209C7B022C15D2987B60
:1007B00000241C54987B03EB800045609D7B03F173
:1007C0000C002A54987B421C9A73303008703A20EF
:1007D00048702F208870CC70002030BDFC1800209D
:1007E00030B5B3F5804F05D06FF0704140F822105E
:1007F000002030BD8C690B688D6823434C68898963
:10080000240144EA0524234343EA014150F82230FD
:10081000014C23401943E9E70000F0CF10B50A6806
:1008200050F8223023F0010340F822308C68082C65
:1008300023D000234A682243CC681C430B6922431F
:100840001A434B690E4C1A43CB691A430B6A1A437D
:100850004B6A1A438B6A1A43CB6A1A430B6B1A43CF
:100860008B691343CA6B09681A4350F82130A343BC
:10087000134340F82130002010BD4023DAE7000088
:100880007FFF0F0030B5D1E9003443EA04138C68D0
:100890008D89240244EA054423430C8A094D00EB68
:1008A000820005EB045423430C7D6D0105EB0464C9
:1008B000896923430B43416801F040410B43436086
:1008C000002030BD0000F0FF2DE9F0411546012267
:1008D000DFF858800C46064657033946404600F07C
:1008E00054FD052000F00BFA032000F021F8C4F3BA
:1008F000074000F01DF8C4F3072000F019F8E0B23B
:1009000000F016F8002405E0FF2000F011F8305543
:10091000641CA4B2AC42F7D300223946404600F032
:1009200034FDBDE8F041052000F0E9B900080240BF
:100930002DE9F047DFF85890164E054600244FF495
:100940000068280601D5012200E000224146484601
:1009500000F01BFD00220121304600F016FD680664
:10096000070E0421304600F003FD40EA070501228E
:100970001146304600F009FD641CE4B2082CE0D3B7
:1009800001221146304600F000FD2846BDE8F08700
:10099000001402400004024030B40C460178202AC2
:1009A0001BD00ADC0C2A0ED0102A14D0182A18D119
:1009B0000D4800BF01FB030108E0302A0FD0402A98
:1009C0000FD10A48F6E7594301F50021204630BC13
:1009D0001A46FFF779BF0648ECE70648EAE70648FB
:1009E000E8E730BC704700000012080000920800E1
:1009F00000080800002608000048080030B40C4633
:100A0000014600784978812809D3402907D3FF2976
:100A100005D0FF2803D07F290CD240390BE00020FD
:100A2000014603E0401C04F8011B80B29842F9D350
:100A300030BC704741398138C0B2C0EB4015C9B2F3
:100A400005EB801001EB400159430C2A0CD0102A11
:100A50000CD0182A0DD0202AEAD101F560112046C9
:100A600030BC1A46FFF730BF034800E0034801449A
:100A7000F5E701F5ED11F2E70014090000DD1100C2
:100A800010B501221146034800F07FFCBDE810407C
:100A900000F002B80004024070B586B04FF6FF7057
:100AA00002F058FB002005466C462554401CC0B29D
:100AB0001828FAD3112200212046FFF705FF4FF432
:100AC000784610216B4632460846FFF745FE002067
:100AD0002554401CC0B21828FAD3082214216846B5
:100AE000FFF7F2FE6B46324620211020FFF734FE5E
:100AF00000202554401CC0B21828FAD308221E2119
:100B00006846FFF7E1FE6B46324630211020FFF7C2
:100B100023FE4FF4FA7000F0CDFA06B070BD2DE957
:100B2000FF4FC1B01C46DDF840B116460D46894660
:100B3000580700D0012000EBD400610810FB01F140
:100B40008A460C2C09D0102C07D0182C05D0202C4C
:100B500003D0302C01D0402C30D10B4622466946C0
:100B60003046FFF719FF002626E01DF806704FF00B
:100B70000008380601D54E9A03E0BBF1000F04D1FE
:100B80004F9A2946419802F0F9FB78066D1C070E32
:100B9000ADB2A5EB0900A04205D141984D46401CDD
:100BA00080B2419006E008F101001FFA80F8B8F128
:100BB000080FDED3761CB6B25645D6D345B0BDE895
:100BC000F08F00002DE9FF4FA1B01C46DDF8C0B04A
:100BD00016460D468946580700D0012000EBD40088
:100BE00010FB04F18A460C2C05D0102C03D0182CD5
:100BF00001D0202C31D10B46224669463046FFF702
:100C0000FDFE002627E000BF1DF806704FF000082B
:100C1000380601D52E9A03E0BBF1000F04D12F9ABC
:100C20002946219802F0AAFB78066D1C070EADB28A
:100C3000A5EB0900A04205D121984D46401C80B289
:100C4000219006E008F1010000F0FF08B8F1080F5C
:100C5000DED3761CF6B25645D6D325B0BDE8F08F6C
:100C60002DE9FE4F0446DDE90C6780463078DDF85B
:100C700040B00D46002820D0E81808EB020AA0EB8F
:100C80000709307880281AD9AAEB0700A04202DAB7
:100C9000E81985B24446A9450FDBDDE90E028DE86F
:100CA00005083B46324629462046FFF78BFFE019F0
:100CB00084B216F8020F0028E3D1BDE8FE8FAAEB3C
:100CC0005701A14202DAE9198DB24446A945F4DB85
:100CD0000D280FD0DDE90E128DE806083B4632469E
:100CE00029462046FFF71BFF04EB570084B216F895
:100CF000010FE0E7E81985B24446761CF4E70022CC
:100D000006E00021491CC9B26429FBD3521CD2B2AF
:100D10008242F6D370472DE9F0410446876D00F01A
:100D200039FB064694F835000025022806D08020BD
:100D3000606584F834500120BDE8F08120680168C6
:100D400021F0160101602068416921F080014161B4
:100D5000206C08B9A06C20B12068016821F008015E
:100D600001602068016821F0010101600CE000F0E1
:100D700011FB801B052807D920206065032084F81B
:100D8000350084F83450D7E720680068C007EED1FA
:100D900094F85C103F208840B860012084F835004A
:100DA00084F834500020C7E790F83510022903D0AA
:100DB0008021416501207047052180F835100068C9
:100DC000016821F00101016000207047406D70470B
:100DD0002DE9F84304464FF00009CDF80090634830
:100DE0004FF41651A56D0068B0FBF1F72E6894F82A
:100DF0005C10082000FA01F131420FD021680A6826
:100E000052070BD50A6822F004020A6094F85C10BD
:100E10008840A860606D40F00100606594F85C1047
:100E20004FF0010808FA01F0304208D02168496902
:100E3000090604D5A860606D40F00200606594F872
:100E40005C1004208840304208D021680968890776
:100E500004D5A860606D40F00400606594F85C10F3
:100E600010208840304218D021680968090714D53D
:100E7000A86020680168490304D50068000308D50C
:100E8000A16C07E00168C90503D4016821F00801DD
:100E90000160216C09B12046884794F85C1020203D
:100EA0008840304231D021680968C9062DD5A86034
:100EB00094F8350005282068016806D0490347D515
:100EC000006800031DD4616C1CE021F01601016074
:100ED0002068416921F080014161206C08B9A06C53
:100EE00020B12068016821F00801016094F85C10CD
:100EF0003F208840A86084F8358084F83490216DC4
:100F00001FE0E16B09B120468847606D00282BD0B7
:100F1000606DC00714D0052084F835002068016892
:100F200021F0010101600098401C0090B84203D8F4
:100F300020680068C007F6D184F8358084F83490C2
:100F4000E16C002910D001B02046BDE8F04308470D
:100F50000168C905D5D4016821F01001016084F849
:100F6000358084F83490CCE7BDE8F8838C0000200D
:100F70002DE9F041044600F00DFA06465CB102206E
:100F800084F83500002584F834502068016821F089
:100F9000010101600DE00120BDE8F08100F0FAF9E7
:100FA000801B052805D920206065032084F83500C2
:100FB000F2E720680068C007F0D122681168204875
:100FC0000140D4E901031843D4E9033633431843FD
:100FD00063691843A3691843E3691843236A1843F4
:100FE0000843616A042903D1D4E90B131943084368
:100FF000106020684069666A20F0070130460E43A1
:10100000012704280CD1A06A0643E06A40B12046BB
:10101000FFF762FB20B14020606584F83570BAE7C5
:10102000206846612046FFF743FB94F85C203F218F
:1010300091408160656584F835700020ACE7000060
:101040003F8010F02DE9F0410446866D90F83400A1
:10105000002501280DD0012084F8340094F8357063
:101060000020012F07D084F8340002252846BDE86F
:10107000F0810220FBE7022784F835706065204686
:10108000FFF754FB94F85C103F208840B060206864
:10109000016841F016010160206C20B120680168F0
:1010A00041F0080101602068016841F00101016020
:1010B000DCE7000070B5044600F06CF90546601CE2
:1010C00002D004480078044400F064F9401BA042B8
:1010D000FAD370BD800000202DE9F04186B01421C4
:1010E0006846FFF7A7F820480168002939D1012197
:1010F00001601E480024016841F0010101600068A0
:101100004FF4805800F001000C27CDF80080CDE9A5
:101110000470032602250396CDE90154694614485C
:1011200000F02EF84FF68070CDE9000502AA69465E
:1011300082E8D0000F4800F023F84CF23370CDE97C
:10114000000502AA694682E8D0000B4800F018F8B2
:1011500002AA694682E8D000CDE90085074800F080
:101160000FF806B0BDE8F081740000203838024066
:101170000014024000100240000C0240001802401F
:101180002DE9F84FDFF8BCA10022012503264FF01E
:101190000F090AF1040BAAF1040E00BF0B6805FA4F
:1011A00002F42340A34270D10F7907F00307012F07
:1011B00001D0022F16D187684FEA420806FA08FCD0
:1011C00027EA0C07D1F80CC00CFA08FC4CEA070C13
:1011D000C0F808C04768A7430C79C4F300149440D2
:1011E0003C4344600C79E443A4070AD0C4684FEA46
:1011F000420C06FA0CF7BC438F6807FA0CF727433A
:10120000C7600C7904F00304022C12D1D40800EB5F
:10121000840CDCF820405707FF0E09FA07F824EA8F
:101220000804D1F8108008FA07F848EA0408CCF856
:10123000208004684FEA420C06FA0CF7BC430F7991
:1012400007F0030707FA0CF7274307604C6814F40C
:10125000403F70D03C4C276847F4804727602468A3
:1012600022F0030704F480440094384C07EB040C8C
:10127000DCF8084897074FEA177809FA08F7BC43E3
:10128000334FB84202D1002724E054E0314FB84236
:1012900001D101271EE0304FB84201D1022719E0E9
:1012A0002E4FB84201D1032714E02D4FB84201D18F
:1012B00004270FE02B4FB84201D105270AE02A4F3F
:1012C000B84201D1062705E0284FB84201D10727CF
:1012D00000E0082707FA08F72743CCF80878DAF87F
:1012E00000405746D1F804C09C435FEACC2C00D59F
:1012F0001C433C60DBF800405F46D1F804C09C43CF
:101300005FEA8C2C00D51C433C60DEF80040774639
:10131000D1F804C09C435FEA8C3C00D51C433C6080
:10132000084F083F3C68D1F804C09C435FEACC3CBE
:1013300000D51C433C60521C102AFFF42FAFBDE8BF
:10134000F88F0000083C0140443802400030014062
:10135000000002400004024000080240000C02406D
:10136000001002400014024000180240001C02401D
:101370000069084000D001207047426921EA020359
:101380000A4043EA0241816170470AB181617047B6
:101390000904FBE7014880687047000080000020D6
:1013A0000248816802781144816070478000002003
:1013B0000B4810B5016841F400710160016841F407
:1013C00080610160016841F480710160032000F0D8
:1013D0006FF80F2000F006F800F024F8002010BD90
:1013E000003C024070B50D4D04464FF47A712878E8
:1013F000B1FBF0F00A490968B1FBF0F001F081FBA4
:1014000048B9102C07D200222146501E00F030F8B7
:1014100000206C6070BD012070BD000080000020C5
:101420008C0000200A4808B5016841F48041016041
:10143000006800F4804000900548001F016841F0FA
:1014400080510160006800F08050009008BD0000ED
:1014500044380240002809DB00F01F0201219140BE
:101460004009800000F1E020C0F800117047000042
:10147000F0B40E4B1B680C46C3F30223C3F10705FF
:10148000042D00D90425191D072901D2002300E0ED
:10149000DB1E012606FA05F1491E214099409E40B7
:1014A000761E16403143F0BC04F078BC0CED00E031
:1014B000064900F0070208684FF6FF03184040EAAB
:1014C0000220034A10430860704700000CED00E062
:1014D0000000FA052DE9F843054600684FF00109C0
:1014E000C1074FF0000601D1400727D5DFF80C8176
:1014F000C8F86860FFF74EFF0746414C05E000BFA3
:10150000FFF748FFC01B022857D820680001F7D416
:1015100068688101287A41EA00703949843108609D
:10152000C8F86890FFF736FF074604E0FFF732FF80
:10153000C01B022841D820680001F7D52878800711
:1015400052D52F484030016841F080510160006859
:101550002C4C00F080500090206840F48070206097
:10156000FFF718FF074604E0FFF714FFC01B02282F
:1015700023D82068C005F7D5214C7034206810F4BA
:10158000407020D0A98901F4407181421BD02068AD
:101590001D4920F44070C1F800900E602060206862
:1015A000C00710D0FFF7F6FE064641F2883707E085
:1015B000FFF7F0FE801BB84202D90320BDE8F88394
:1015C00020688007F4D5E9680D48C1F3012208308E
:1015D000032A0BD0016821F4F81101602068A98961
:1015E000C1F30B01084320600020E7E70268074BC6
:1015F00022F4F81219400A430260EFE70000474264
:101600000038024000700040400E4742FFFCFF0FD0
:101610002DE9F0470E46050065D0DFF81481D8F8B3
:101620000000F7B200F00700B04207D288F800705F
:10163000D8F8000000F00700B04254D128683D4CB3
:10164000810712D5400703D5206840F4E0502060A0
:101650002878000703D5206840F4604020602068A7
:10166000A96820F0F000084320602878C0072DD03A
:10167000304968680839012812D0022813D003289D
:1016800011D00968890700292DDA216821F00301AA
:1016900001432160FFF77EFE814641F2883A0EE069
:1016A00009688903EFE709688901ECE7FFF772FE33
:1016B000A0EB0901514502D90320BDE8F08720685D
:1016C000696800F00C00B0EB810FEFD1D8F8001082
:1016D000404601F00701B14207D90770006800F0E9
:1016E0000700B04201D00120E7E72878400705D580
:1016F0002068E96820F4E05008432060287800075B
:1017000006D52068296920F4604040EAC1002060C5
:1017100000F038F82168084AC1F30311515CC84051
:101720000649086006480068FFF75CFE0020C4E731
:10173000003C024008380240319600088C0000202E
:10174000840000200448054900680968044AC1F380
:101750008221515CC84070478C000020083802404C
:10176000419600080448054900680968044AC1F325
:101770004231515CC84070478C000020083802405C
:1017800041960008154810B5006810F00C02144886
:1017900013D04110042A0FD0082A0ED10F4C241F59
:1017A0002268236802F03F025B0207D52068C0F37D
:1017B0008810A0FB010106E0084610BD2168C1F3B6
:1017C0008811A1FB00010023FEF7FCFC2168C1F396
:1017D0000141491C4900B0FBF1F010BD083802403E
:1017E0000024F4002DE9F84F04006ED02078DFF8D3
:1017F0004C93C007A9F104054AD009F1040001681F
:10180000C1F38101012908D00068C0F381000228DA
:101810000AD1D9F80000400206D52868800337D5E0
:1018200060680028E1D033E06068B0F5803F10D0F8
:10183000B0F5A02F286810D020F4803028602868E8
:1018400020F4802028606068A8B1FFF7A3FD064659
:101850000DE0286840F48030F4E740F480202860F0
:10186000F7E700BFFFF796FD801B642873D8286850
:101870008003F7D50CE0FFF78DFD064605E000BFBD
:10188000FFF788FD801B6428F0D828688003F7D410
:101890002078DFF8AC8280074FF0000A3ED5A748D9
:1018A000001D016811F00C0F08D00068C0F3810022
:1018B00002280BD1D9F80000400207D4286880071D
:1018C00016D5E068012800D112E033E1E068B8B134
:1018D0000120C8F80000FFF75DFD064605E000BFE7
:1018E000FFF758FD801B0228C0D828688007F7D56D
:1018F0002868216920F0F80040EAC10028600DE066
:10190000C8F800A0FFF746FD064604E0FFF742FDD9
:10191000801B02281FD828688007F7D4207800078A
:1019200022D5864F87486169703771B10121016006
:10193000FFF730FD064604E0FFF72CFD801B022870
:1019400009D838688007F7D50EE0C0F800A0FFF787
:1019500021FD064605E082E0FFF71CFD801B022802
:101960007DD838688007F7D42078400768D5DFF83D
:10197000CCB100270BF13C0BDBF80000C0000BD40E
:10198000DBF8001041F08051CBF80010DBF80000CC
:10199000012700F0805000906B4E3068C00510D4D5
:1019A000306840F480703060FFF7F4FC009005E090
:1019B000FFF7F0FC0099401A022850D83068C005A3
:1019C000F6D55E4EA0686C3601280FD00528306829
:1019D00010D020F001003060306820F0040030604A
:1019E000A068B8B1FFF7D6FC00900FE0306840F077
:1019F0000100F4E740F004003060F7E7FFF7CAFCAD
:101A00000099411A41F28830814266D830688007D7
:101A1000F4D50EE0FFF7BEFC009007E0FFF7BAFC3C
:101A20000099411A41F28830814256D830688007C7
:101A3000F4D42FB1DBF8001021F08051CBF8001066
:101A4000A069C8B33D49091D0968C1F38101022994
:101A50004AD00228504607D0C8F8600000E03CE0B9
:101A6000FFF798FC04463BE04746C8F86000FFF7E4
:101A700091FC064605E000BFFFF78CFC801B0228A6
:101A80002BD828688001F7D4D4E907010843A16A5C
:101A90002E4A490802EB0141626A41EA8211084379
:101AA00094F82C1040EA0161C9F800100120386652
:101AB000FFF770FC044606E03EE000BFFFF76AFC5B
:101AC000001B022809D828688001F7D534E000BF40
:101AD000FFF760FC001B022802D90320BDE8F88F45
:101AE00028688001F4D427E00128F7D0D9F8000055
:101AF000E26900F4800191421CD1226A00F03F01AA
:101B0000914217D147F6C071626A0140B1EB821F62
:101B100010D1A26A4FF0FF3300F4403103EB5202C0
:101B2000B1EB024F06D194F82C1000F07060B0EBCE
:101B3000016F01D00120D1E70020CFE70438024037
:101B400000004742800E4742007000400000FFFF47
:101B500010B500680B4641680D480140080CD8706C
:101B6000C1F304245C7001F03F049C70C1F3423166
:101B7000197052B902F05BF8D870587802F057F833
:101B80005870987802F053F89870002010BD00004B
:101B90003FFFFF0010B50B460168896A5960016874
:101BA0000969C1F30E019960006801680D480140A0
:101BB000C1F305401870C1F306245C7001F07F0486
:101BC0009C70890DD97052B902F031F818705878AC
:101BD00002F02DF85870987802F029F898700020DB
:101BE00010BD00007F7F7F0010B5040002D0607F31
:101BF00010B106E0012010BD00202077204600F043
:101C000039F8022060772168CA2048622168532091
:101C10004862204602F020F830BB20688168144AF0
:101C2000114081602168886862681043D4E9042308
:101C30001A43104388602168E068086120680169E0
:101C4000228941EA02410161204602F029F858B98F
:101C500021680A6C22F480220A6421680A6CA36954
:101C60001A430A64012161772268FF21516210BD85
:101C7000BFFF8FFF1FB500210091019102910391D9
:101C80000068084988420CD102200090C0010390EE
:101C90006846FFF71FFC08B1FEF77CFD02490120F2
:101CA00008601FBD002800403C0E474270B5044646
:101CB000007F0B46012819D0012626770220607785
:101CC000B2B19878D97840EA01455878197800027D
:101CD00040EA413005432168CA2048622168532008
:101CE0004862204601F0B8FFD0B122E0022070BD6A
:101CF0005878C10603D500F0EF000A305870D87844
:101D000001F09EFF0204587801F09AFF42EA002297
:101D1000987801F095FF0243187842EA4035DAE7F7
:101D20000748054020684560204601F0B9FF00B92A
:101D300066772268FF2151620021217770BD000083
:101D40003FFFFF002DE9F0410446007F0D460128CA
:101D500023D04FF0010884F81C80022060772068AF
:101D6000002780684FEA4060D2B1002800DBEF70A6
:101D7000A878297840EA01466878E978000240EAC4
:101D8000815006432168CA20486221685320486276
:101D9000204601F061FFB8B12CE00220BDE8F081DF
:101DA000002800DBEF70287801F04AFF0204687811
:101DB00001F046FF42EA0022A87801F041FF024309
:101DC000E87842EA8056DDE70D4806402068066064
:101DD0002068816821F480218160D5E903010843EE
:101DE00021688A6810438860204601F059FF08B9CD
:101DF00084F81D802268FF2151622777CEE700001A
:101E00007F7F7F0070B504460068C16821F0A001A3
:101E1000C160FFF7BFFA05464FF47A7607E000BFCE
:101E2000FFF7B8FA401BB04201D9032070BD20680B
:101E3000C0688006F4D5002070BD10B5FEF7CEFB5B
:101E400010BD00002DE9FE430446002603200D4688
:101E500084F83400606C03285ED0B5F5805F5BD0F9
:101E60004FF4006700204FF08068BD421FD18146CB
:101E7000009001900021206801F03DFF800113D403
:101E80006946204602F02AFB07000DD10198400365
:101E900034D5B4F850000104206801F063FF070056
:101EA00002D10221206823E0A06B384328E01DB155
:101EB000A06B40F0006023E081460090019000217B
:101EC000206801F018FF8001EED46946204602F038
:101ED00005FB0700E8D10198C0030FD5B4F8500006
:101EE0000104206801F03EFF0700DDD100212068D9
:101EF00001F085FF0700D7D14F46D5E74746D3E726
:101F0000A063A06B144F4FF0010848B120688763AD
:101F100084F8348001260EE0A06B40F08050EFE79B
:101F2000211DD4E9050C0EC9CDE90050CDF808C03B
:101F3000206801F0E9FE4FF40071206801F046FFCF
:101F400028B121688F63A16B0143A163012684F846
:101F500034803046BDE8FE83FF0540007047000036
:101F6000F0B5426E920F0A70426EC2F383624A70FD
:101F7000426EC2F301628A70426E120CCA70B0F8EF
:101F80006420120A0A7190F864204A71826E120D60
:101F9000CA80826EC2F303420A72B0F86820C2F3AC
:101FA000C0324A72B0F86820C2F380328A72B0F848
:101FB0006820C2F34032CA72B0F86820C2F300321F
:101FC0000A7300264E73426C4FF40075012462B10F
:101FD000012A3AD0026847499163816B41F08051F0
:101FE000816380F834400120F0BDB0F86820C36EF2
:101FF0009205120D42EA93720A61C26EC2F3C26286
:102000000A75C26EC2F302624A75C26EC2F34252D0
:102010008A75C26EC2F38242CA75C26EC2F3C23200
:102020000A760A69521C42650B7E03F007039B1C6B
:102030009A4042650B7A03F00F0704FA07F38365B1
:102040005B0A5A43C0E917250EE090F86820C36E7A
:102050009206920A42EA13420A610A69521C9202EB
:102060004265C0E91652056630F86C2FC2F3803223
:1020700001F8192F0288C2F3C6124A70027802F0E2
:102080007F028A704268D20FCA704268C2F34172FE
:102090000A714268C2F382624A714268C2F3835293
:1020A0008A714268C2F34052CA710E724268C2F32A
:1020B00000424A728288C2F3C0328A728288C2F3B6
:1020C0008032CA728288C2F340320A738288C2F3B5
:1020D00000324A738288C2F381228A738288C2F3F3
:1020E0000122CA730079C0F3460008744C740020C2
:1020F000F0BD0000FF054000426C0A60826C4A603F
:10210000C26C8A60026DCA60426D0A61826D4A616A
:10211000C26D8A61006EC8610020704770B50446C8
:10212000B0F8500000250104206801F050FF18B1FC
:10213000A16B0143A16304E00021206801F0DBFDF5
:102140000546C5F3432070BDF8B5056B044600682D
:10215000416B09041BD5290719D5D4E90A56002E6D
:1021600014D00027206801F0E5FD05F8010B010AF5
:1021700005F8011B010C05F8021B000E361F7F1C21
:1021800005F8010C082FEDD3C4E90A56F8BD416BE0
:102190004FF00006C9054FF0010744D539028163AD
:1021A0002068C16B4CF23A329143C1632068C16A26
:1021B00021F00101C16228071DD515F0220F09D0B9
:1021C000206801F035FF28B1A16B0143A1632046CF
:1021D000FFF7C4FE216840F23A50886384F83470F7
:1021E0002663A80703D0204600F040FAF8BD204639
:1021F00000F040FAF8BD2806FCD5A80609D52068ED
:1022000001F016FF28B1A16B0143A1632046FFF73F
:10221000A5FEA807EED12068C16A21F00801C162BD
:1022200084F83470E3E7416B490424D5290722D5AB
:10223000D4E90856002EDDD05FF0000715F8010B39
:10224000009015F8011B361F40EA0120009015F898
:10225000021B40EA0140009015F8011C40EA0160B1
:1022600000906946206801F078FD7F1C082FE5D3B7
:10227000C4E90856F8BD416B40F23A221142F9D048
:10228000416B890703D5A16B41F00201A163416B4A
:10229000090703D5A16B41F00801A163416B8906D1
:1022A00003D5A16B41F02001A163416BC90603D5A1
:1022B000A16B41F01001A163416B890503D5A16BAE
:1022C00041F00801A16340F23A7181632068C16B5B
:1022D00040F23A329143C163206801F0A9FEA16B3C
:1022E0000843A063280706D584F834702663204687
:1022F000FFF734FEF8BD2806FCD515F0300F0CD0E2
:10230000E16B11480865E06BFEF74EFD0028F1D047
:10231000E06BBDE8F84002F0BFB8A8070CD0216C14
:102320000A480865206CFEF73FFD0028E2D0206CCB
:10233000BDE8F84002F087B8A66384F834702663DD
:102340002046FFF77AFDF8BD99440008474400088D
:1023500070B504000ED094F83400002518B9257724
:10236000204600F04FF8032084F83400204600F0A7
:102370000BF808B1012070BDA5632563012084F826
:102380003400002070BD0000FEB500250446762014
:102390000095CDE9015029460B460A46206801F018
:1023A000B3FC48BB154E46F8A05F206801F0BEFCA8
:1023B000012535600220FEF77DFE204602F072F90D
:1023C00030B100BF84F83450A16B0143A16313E026
:1023D000204602F0F0F80028F4D14FF40071206894
:1023E00001F0F4FC002808D0226805499163A16B34
:1023F0000143A16384F834500120FEBD00802542D2
:10240000FF0540002DE9F04F87B0054614216846CE
:10241000FDF710FF4649286888427DD1454800688D
:10242000444940F400600860086800F400600590CA
:102430004048143800683F4940F0040014390860EF
:10244000086800F004000590086840F00800086083
:102450000868022400F0080005904FF4F850CDE918
:10246000000402AA002003264FF00C0882E8410174
:1024700069463148FEF784FE02AA002082E8410145
:102480000427CDE9007469462C48FEF779FE2D4CEF
:102490002B484FF00068C4E9000800204FF4806921
:1024A000A060C4E90309B8024FF4804BC4E9050BEE
:1024B000C4E909764FF0200A0020C4E907A07E0590
:1024C000B7102046C4E90B67FEF752FD08B1FEF7CE
:1024D00061F92C64A5631B4C194860344830C4E989
:1024E00000084020A0600020C4E90309C4E907A057
:1024F0000420606204F12802032082E8C1004FF446
:102500008051C4E9051B2046FEF732FD08B1FEF7F5
:1025100041F9EC63002200E007E011463120A56399
:10252000FEF7A6FF3120FEF795FF07B0BDE8F08F5C
:10253000002C01404438024000080240000C0240D8
:1025400058640240D01100202DE9F04786B01F46A4
:102550000446154639B194F83400012807D002200A
:1025600006B0BDE8F087A06B40F0006008E00020F6
:10257000A063E36DEA199A4204D9A06B40F00070A1
:10258000A06369E0032284F8342022688146D06287
:102590002268D36B40F22A363343D363236C2F4A2D
:1025A000DA63236C2E4ADA64226C1065226C906028
:1025B000206C0068026822F0C002026020680A46AF
:1025C000266C4FEA472800F180014FEA9803304615
:1025D000FEF738FDDFF88CA0012670B12068C16BD2
:1025E00021F49571C1632168C1F838A0A06B40F057
:1025F0008040A06384F834602EE01B480660606C65
:10260000012800D06D024FF0FF30CDE90008902086
:10261000029002200596CDE903096946206801F081
:1026200054FB012F06D9822020632946206801F03F
:102630003FFC05E0812020632946206801F051FC21
:1026400000288DD02268C2F838A0A16B0143A16395
:1026500084F83460C4F83090012081E70544000814
:10266000A1430008FF0540008C85254210B5FDF709
:10267000F7FF10BD10B5FEF707F810BD2DE9F04FBC
:102680005FEA010B87B01E460446114607D094F856
:102690003400012807D0022007B0BDE8F08FA06BFE
:1026A00040F0006008E00025A563E26D88199042C3
:1026B00004D9A06B40F00070A06356E0032084F8BA
:1026C00034002068C5622068C26B40F21A2942EAD1
:1026D0000902C263E26B2D48D063E26B2C48D064E0
:1026E000E06B0565606C012800D049024FF090084E
:1026F000012E05D9A0202063206801F0B3FC04E07E
:10270000C4F83080206801F0C6FCDFF888A00127FB
:1027100030B12268C2F838A0A16B0143A16321E067
:102720001D480760E16B40208860E06B006801682D
:1027300021F0C00141F04001016022687602B30837
:1027400059468032E06BFEF77DFC80B12068C16B9A
:1027500021EA0901C1632168C1F838A0A06B40F0EB
:102760008040A06384F834702563012094E74FF023
:10277000FF30CDE90006CDE90285CDE90457694671
:10278000206801F0A2FA002086E700008B440008D0
:10279000A1430008FF0540008C85254270B5040068
:1027A00009D0606A002540B125616561A56294F891
:1027B000510040B10CE0012070BD6068B0F5827F2F
:1027C000F4D0E561F2E784F85050204600F044F878
:1027D000022084F851002068016821F04001016066
:1027E000A088218900F4827001F404410843A18982
:1027F00001F400610843217C01F002010843217DBE
:1028000001F001010843218B01F400710843217F8D
:1028100001F03801084394F8201001F080010843CA
:10282000218D01F40051084321680860A06904214A
:1028300001EA104094F8241001F0100108432168C7
:1028400048602068C16921F40061C16165650120AB
:1028500084F85100002070BD10B586B004461421E4
:102860006846FDF7E7FC13492068884220D11248EA
:102870000021026842F480520260006800F4805037
:1028800005900D481438026842F0020202600068A8
:1028900000F002000590382000900220CDE90101EF
:1028A000032003900520049069460448FEF768FC65
:1028B00006B010BD00300140443802400004024020
:1028C0002DE9F84F044690F8500000270A9E1D4657
:1028D00092468B464FF0010901280ED0012084F862
:1028E0005000FEF757FD804694F8510061680128BA
:1028F0000CD0B1F5827F07D102E00220BDE8F88F4D
:10290000A16809B9042801D00227C2E0BBF1000F79
:1029100027D0BAF1000F24D01DB394F85100042839
:1029200002D0052084F8510000206065C4F838A06A
:10293000E587A587C4F830B0E586A5862064606485
:1029400020680168490603D4016841F04001016034
:10295000E068B0F5006F606805D0E8B3012D46D09F
:102960007FE0012795E008B1012D39D1206B216866
:102970000088C860206B801C2063E08E401EE086CB
:102980002EE02068816889070FD5E18E69B1B9F121
:10299000010F0AD1216B0988C160206B801C206364
:1029A000E08E401EE0864FF0000920688168C9076C
:1029B0000CD0E18F51B1C068A16B0880A06B801C66
:1029C000A063E08F401EE0874FF00109FEF7E2FCB4
:1029D000A0EB0800B04200E009E001D3701C50D128
:1029E000E08E0028CDD1E08F0028CAD13FE0206BD7
:1029F000216800780873206B401C2063E08E401E25
:102A0000E0862EE02068816889070FD5E18E69B1E4
:102A1000B9F1010F0AD1216B09780173206B401CB9
:102A20002063E08E401EE0864FF000092068816838
:102A3000C9070CD0E18F51B1C068A16B0870A06BC1
:102A4000401CA063E08F401EE0874FF00109FEF7B5
:102A5000A1FCA0EB0800B04202D3701C01D010E032
:102A60007EB1E08E0028CDD1E08F0028CAD1424649
:102A70003146204601F036FF28B10127202060654D
:102A800007E0032705E0A06818B92068C1688068DE
:102A90000090012084F85100002084F8500038464E
:102AA0002CE770B515460E46040003D094F8490093
:102AB00010B107E0012070BD002084F848002046D6
:102AC00000F01DF804F108012068FDF7A7FE31466B
:102AD000A2682068FDF7D6FED4E901022946236BDF
:102AE000FDF77EFE2168A06851F8202042F0010227
:102AF00041F82020012084F84900002070BDFEF735
:102B0000EBBA10B5401EB0F1807F01D3012010BD9B
:102B10004FF0E02460610F21601703F03FF90020BF
:102B2000A06107202061002010BD000070B590F862
:102B30003C20012A32D0012480F83C40022280F857
:102B40003D2003685A689D6822F070060A68324387
:102B50005A60134B02689A4214D0B2F1804F11D0E0
:102B6000104B9A420ED0104B9A420BD00F4B9A4208
:102B700008D00F4B9A4205D00E4B9A4202D00E4B12
:102B80009A4204D1496825F080031943916080F886
:102B90003D40002180F83C10084670BD022070BD09
:102BA000000001400004004000080040000C00400C
:102BB00000040140004001400018004010B504002E
:102BC00003D094F83D0010B107E0012010BD0020B3
:102BD00084F83C00204600F01FF8022084F83D00F5
:102BE000211D206801F060FF012084F8460084F870
:102BF0003E0084F83F0084F8400084F8410084F8E7
:102C0000420084F8430084F8440084F8450084F8C6
:102C10003D00002010BD000008B50068064988424C
:102C200008D10648016841F010010160006800F019
:102C30001000009008BD0000001000404038024025
:102C400090F83D10012901D001207047022180F841
:102C50003D1000681149884214D0B0F1804F11D066
:102C60000F4988420ED00F4988420BD00E49884246
:102C700008D00E49884205D00D49884202D00D493E
:102C8000884204D1816801F00701062903D0016858
:102C900041F0010101600020704700000000014088
:102CA0000004004000080040000C00400004014007
:102CB000004001400018004001680A6A41F2111307
:102CC0001A4207D10A6A9B101A4203D10A6822F0FD
:102CD00001020A60012180F83D1000207047704712
:102CE00070470000F8B5016804460868CA684B6977
:102CF00010F00F0F4FF0000559D003F0010602F459
:102D00009077374365D0C10705D0D10503D5216C35
:102D100041F001012164410705D5D90703D0216C99
:102D200041F002012164810705D5D90703D0216C48
:102D300041F004012164010707D502F0200131436D
:102D400003D0216C41F008012164216C00293AD0A4
:102D5000800604D5900602D5204602F03CFD20688E
:102D60004069216CC0F38010090700D460B320468D
:102D700002F00AFD20684069400621D52068143021
:102D800050E8001F21F0400140E80012002AF5D170
:102D9000A06BA8B16C490165A06BFEF705F800288F
:102DA00011D0A06B016D01B0BDE8F040084783066B
:102DB0000FD593060DD52046BDE8F84002F00BBDB7
:102DC0002046FFF78DFFF8BD2046FFF789FF2564F9
:102DD000F8BD266B2023012E79D1C60677D5D606FD
:102DE00075D50868486800904869400640D5A16BD1
:102DF000086840680004000CEAD0A28D8242E7D93E
:102E0000E085C869B0F5807F2DD020680C3050E88F
:102E1000001F21F4807140E80012002AF5D12068DB
:102E2000143050E8001F21F0010140E80012002A90
:102E3000F5D12068143050E8001F21F0400140E82F
:102E40000012002AF5D184F83E30256320680C304A
:102E500050E8001F21F0100140E80012002AF5D1CF
:102E6000A06BFDF758FFA08DE18D401A81B229E0DB
:102E7000A08DE18D401A81B2E08D0028A8D00029F4
:102E8000A6D020680C3050E8002F22F4907240E861
:102E90000026002EF5D12068143050E8002F22F0D3
:102EA000010240E80026002EF5D184F83E3025636B
:102EB00020680C3050E8002F22F0100240E8002378
:102EC000002BF5D12046FFF70AFFF8BDFFE7050606
:102ED0002BD5150629D594F83D002128F5D1A068F9
:102EE000B0F5805F01D12069B0B1206A411C216238
:102EF000216800784860E08C401E0004000CE084EB
:102F0000E3D12068C16821F08001C1602068C168F8
:102F100041F04001C160D8E7206A0088C0F3080092
:102F20004860206A801C2062E5E74006CDD5500647
:102F3000CBD5CA68204622F04002CA6084F83D30F2
:102F400000F005F9C1E700007957000870B50400EA
:102F500004D094F83D00002510B106E0012070BDBA
:102F600084F83C50204600F023F8242084F83D00EB
:102F70002068C16821F40051C160204602F08CFC39
:102F80002068016921F4904101612068416921F0C4
:102F90002A0141612068C16841F40051C160256483
:102FA000202084F83D0084F83E00002070BD000021
:102FB00010B586B0044614216846FDF73BF9184960
:102FC0002068884229D117480021026842F0100287
:102FD0000260006800F01000059012481438026882
:102FE00042F001020260006800F0010005904FF419
:102FF000C06000900220CDE901010320039007206A
:10300000049069460848FEF7BBF8002202212520FB
:10301000FEF72EFA2520FEF71DFA06B010BD0000BF
:1030200000100140443802400000024090F83E3059
:10303000202B0ED159B152B190F83C30012B08D061
:10304000012380F83C300023036302F0ABBC012075
:10305000704702207047000000680E49884218D16E
:103060000D4801780A290FD0B0F80031421C99545C
:10307000B0F8001111F10101A0F800110649012278
:1030800001F58270FFF7D2BF012180F80211002103
:10309000F2E7704700100140301300202DE9F8439B
:1030A000044690F83D001F4616460D4620284CD198
:1030B000C5B1BEB194F83C00012846D0012084F887
:1030C0003C004FF00008C4F84080212084F83D0007
:1030D000FEF760F9A6848146E684A068B0F5805FBB
:1030E00003D004E00120BDE8F883206928B12E4612
:1030F0005FF0000584F83C800EE00026FAE78021AE
:10310000204602F06CFCA0B9AEB116F8010B2168A4
:103110004860E08C401EE084E08C4B464FF000029B
:1031200000970028EBD14FF04001204602F057FCF9
:1031300030B10320D7E735F8020BC0F30800E6E70B
:10314000202084F83D000020CDE70220CBE7704727
:10315000FEE70000F0B50D4D002407466B882A8875
:103160002146204600F090FA2E88688800214643C8
:10317000084600F06FFA00F07DFB4FF0D84002E007
:10318000A0F88070641CB442FAD3F0BDB8000020EF
:10319000F0B400271949F0222C242A254FF4A073FB
:1031A0002B2638B101280FD04FF0010C022813D084
:1031B00003281AD08F710A804B800C814D818E813B
:1031C0000020F0BC00F008BA8F710A804B800C819F
:1031D0004D818E810320F4E781F806C00B804A8080
:1031E0000C814D818E810520EBE781F806C00B80B4
:1031F0004A800C814D818E810620E2E7B8000020D4
:103200002DE9FE4F161ACDE900104FF000085D1AA7
:1032100047464FF0FF30002E02DD4FF0010102E083
:1032200003D14FF000018B4602E08346C6F1000651
:10323000002D02DD4FF0010002E003D14FF000004D
:10324000824602E08246C5F10005AE4201DD344609
:1032500000E02C46601C4FF00009029019E0009835
:103260000C9A81B2019880B200F088F8B0442F44E3
:10327000A04504DD0198A8EB040858440190A7423A
:1032800003DD00983F1B5044009009F101001FFA34
:1032900080F902998945E2DDBDE8FE8F00B500F0B6
:1032A000D9F900F0E7FA03484FF0D8410088A1F8B7
:1032B000800000BD000000202DE9FF4F8046002562
:1032C0001446032082B00F46A0EB440651E0381BA1
:1032D00081B208EB050A01901FFA8AF0059A00F006
:1032E0004DF8781B009081B208EB04091FFA89F0B1
:1032F000059A00F043F807EB050B1FFA8BF11FFA54
:1033000089F0059A00F03AF807EB04091FFA89F1F1
:103310001FFA8AF0059A00F031F8A8EB050A1FFAA7
:1033200089F11FFA8AF0059A00F028F8A8EB040941
:103330001FFA8BF11FFA89F0059A00F01FF8019827
:10334000059A81B21FFA8AF000F018F80098059AE1
:1033500081B21FFA89F000F011F86D1C002E03DA1B
:1033600006EB8506B61D04E0281B06EB8006641EEE
:103370000A36A542ABDD06B0BDE8F08F30B50C4C87
:10338000A388A3F51345413D11D14FF0D84365897A
:1033900023F87E5F050A5D80C0B25880A08918803E
:1033A000080A5880C8B25880208918805A8030BDD9
:1033B000B800002070B53220FDF77CFE002000F040
:1033C000FFF874494FF6FF754FF0D844888049F2F2
:1033D0004132FF2804D3A84202D0B0F5134F14D1D4
:1033E000D320A4F87E0000F0E1F8888000F0DEF839
:1033F000888000F0DBF805EA0020888000F0D6F82D
:103400008B881843888090427ED180B290427CD1D4
:10341000CF2024F87E0F00206080C1206080302003
:103420006080ED2020806420608003206080122076
:10343000608081206080E8202080852060801020CE
:1034400060807A206080CB202080392060802C2012
:103450006080002060803420608002206080F7203F
:10346000208020206080EA20208000206080608012
:10347000C02020801B206080C1202080012060802F
:10348000C5202080302060806080C7202080B72049
:10349000608036202080482060803A20208055209F
:1034A0006080B1202080002060801A206080B620DB
:1034B00020800A206080A2206080F22020800020EE
:1034C00060802620208001206080E02020800F2066
:1034D00060802A20608028206080082060800E2084
:1034E00060800820608054206080A9206080432094
:1034F00060800A2060800F206080002060806080F3
:1035000060806080E12001E043E035E02080002021
:103510006080152060801720608007206080112067
:103520006080062060802B206080562060803C20D8
:10353000608005206080102060800F2060803F2028
:10354000608060800F2060802B20208000206080C1
:103550006080012060803F2060802A202080002041
:10356000608060806080EF20608011202080782063
:10357000FDF7A0FD292020800020FFF709FE012291
:10358000D1030548FDF701FF2846BDE87040FFF76D
:10359000E1BD70BDB80000200004024002460120D9
:1035A00000E05043491EC9B2FBD2704708B54FF046
:1035B000D840B0F88000ADF80000BDF8000008BDAC
:1035C00010B54FF0D841A1F87E000120FDF772FD43
:1035D000BDE81040FFF7EABF1D4B10B59A880021E7
:1035E000A2F51344413C32D1082812D2DFE800F0A2
:1035F000110406080A0C0E1080210AE0402108E0A0
:10360000C02106E0202104E0602102E0A02100E0CA
:10361000E02141F00801362000F036F94FF0D840A3
:10362000598920F87E1F0021418041801988491E58
:103630000A0A4280C9B241809989018000214180F3
:1036400041805988491E0A0A4280C9B2418010BD92
:10365000B80000200B4B10B59A88A2F51344413CEA
:103660000ED14FF0D8425C8922F87E4F040A548074
:10367000C0B2508098891080080A5080C8B250802B
:1036800010BD0000B800002070B50244521E94B274
:10369000CA18104B521E95B29A88A2F51346413EA5
:1036A00016D14FF0D8425E8922F87E6F060A568006
:1036B000C0B25080200A5080E0B2508098891080BB
:1036C000080A5080C8B25080280A5080E8B2508062
:1036D00070BD0000B80000202DE9FF4F1D460C46CC
:1036E0008A46580700D0012000EBD500690810FB7E
:1036F00001F0203A00F0FF09D0B20026DFF894B0C4
:10370000029043E00C2D10D0102D13D0182D3FD176
:103710000298214900EBC00001EB80004FF0000847
:10372000875D38060BD50D9A0DE002981B4900EB1A
:103730004000F1E71A49029801EB0010EEE70E98FD
:1037400028B91848428821460098FFF717FE7806E6
:10375000070E641CBBF80200A4B2A04218D9A4EB67
:103760000A00A84209D100985446401C80B200903B
:10377000BBF8001081420BD906E008F1010000F00F
:10378000FF08B8F1080FCCD3761CF6B24E45B9D37A
:10379000BDE8FF8FB8000020C08800085C7E0008EC
:1037A000D0820008000000202DE9FF4F82B00026E3
:1037B000DDE90FBA1D4681463446B0464FEA5B0745
:1037C00026E0281B401EC1B20A20FFF7E7FE04993D
:1037D000B1FBF0F00A21B0FBF1F201FB120026B9B7
:1037E000691E8C4201DA38B101263030C2B207FBC3
:1037F000049080B25B4604E007FB049080B25B4615
:103800002022CDE900A80399FFF766FF641CE4B20B
:10381000AC42D6D306B0BDE8F08F2DE9FC4F04468C
:1038200000F0FF0910190D461FFA80F8581987B2E9
:103830004FF0000ADDF82CB00D9E13E0444503D391
:1038400005EB0B004C4685B2BD4210D20C99CDE978
:10385000001A5B4629462046FFF73EFF04EB5B005B
:1038600084B2761C3278A2F120005E28E6D9BDE849
:10387000FC8F000003484FF0D8410089A1F87E007A
:1038800070470000B80000204FF0D84222F87E0FA9
:10389000518070470D4808B5016841F4800101600E
:1038A0000068002200F48000009011463B20FDF7E4
:1038B000DFFD3B20FDF7CEFD002211464520FDF740
:1038C000D7FDBDE808404520FDF7C4BD30380240B3
:1038D00010B504490448FCF75FFF0249491E08700F
:1038E00010BD00009D0000204C96000810B58EB061
:1038F0001C216846FCF79EFC1C2107A8FCF79AFCDB
:103900001A484FF0204110220160194941600621F8
:1039100081600021C160C0E904128161C1611302AC
:103920000162C0E909139302C0E90B13416381638B
:1039300041640F203C230090CDE9010303AC112327
:1039400084E80E0009240691CDE907400AA80994ED
:1039500080E80E000D9107AA69460448FFF7A1F818
:10396000002801D0FCF716FF0EB010BDDC100020BF
:10397000040100A02DE9F04186B014216846FCF74F
:1039800059FC48480025016841F0040101600168C4
:1039900001F004010591016841F020010160016816
:1039A00001F020010591016841F08001016001688A
:1039B00001F080010591016841F002010160016898
:1039C00001F002010591016841F0100101600168F8
:1039D00001F010010591016841F0080101600168E2
:1039E00001F008010591016841F0010101600168E1
:1039F00001F001010591016841F04001016000689A
:103A0000294E00F040004FF400540590002221465A
:103A10003046FDF7BAFC254F00224FF4606138466E
:103A2000FDF7B3FCDFF8888000224CF2010140462C
:103A3000FDF7ABFC00940124CDE901456946304611
:103A40000395FDF79DFB4FF4C060CDE90004694686
:103A50003846CDE90245FDF793FB48F201008DE8B9
:103A60003100694640460395FDF78AFB0620CDE903
:103A70000005694602944046FDF782FBE0028DE8AE
:103A80003100694638460395FDF77AFBA003CDE97E
:103A900000040294694640460394FDF771FB06B0AA
:103AA000BDE8F081303802400008024000140240B6
:103AB0000004024010B586B014216846FCF7BAFB3A
:103AC0001E4800241C490594C0E900147F21816030
:103AD000FF21C0E9031444618461FEF785F808B151
:103AE000FCF758FE23208DF8000059208DF80100C6
:103AF00040208DF802000394012269460F48049487
:103B0000FEF720F908B1FCF745FE02208DF81400FD
:103B100007208DF8150016208DF8160024208DF84A
:103B20001700012205A90548FEF7C0F8002801D0BA
:103B3000FCF730FE06B010BD002800402C1100201C
:103B4000064805490160002141608160C160416112
:103B50008161016170470000002C01404C11002080
:103B60000F4810B50D4901604FF48271416000218A
:103B70008160C1604FF400720161C0E90512C1614A
:103B80000162416281620A21C162FEF707FE0028DC
:103B900003D0BDE81040FCF7FDBD10BD0030014072
:103BA000901200201CB500240E4800940C4901948A
:103BB00001605321C0E901144FF6FF718461C160B7
:103BC000FEF7FCFF08B1FCF7E5FD009469460548E7
:103BD0000194FEF7ABFF002801D0FCF7DBFD1CBD14
:103BE00000100040E812002010B50E4C0C480C21CB
:103BF00020604FF4E13060600020A060E060C4E924
:103C00000401A061E0612046FFF7A0F908B1FCF7CC
:103C1000C1FD2068C16841F02001C16010BD0000F5
:103C20000010014034140020FEE7FEE77047010950
:103C300001EB810100F00F0000EB4100C0B27047C2
:103C4000002103E0491C0A38C9B2C0B20A28F9D2DF
:103C5000090740EA116070472DE9F0410446006809
:103C60000025C168490618D4C16841F08001C160CF
:103C7000FDF790FB06464FF47A78042707E000BF73
:103C8000FDF788FB801B404501D967770125206837
:103C9000C068400601D4002DF2D02846BDE8F0816E
:103CA00070B5044600680025C16821F08001C1603C
:103CB00020688068800606D42046FEF7A3F810B17D
:103CC000042060770125284670BD0A6842624A6870
:103CD0008262D1E902231A43D1E904310B43C16A5C
:103CE0001A4321F0F7011143C162002070470068B8
:103CF00000F0030070470844406970470148FEF730
:103D000023BA00004C11002070B50DF1100C1143C6
:103D10009CE870002343194329434268314347F626
:103D2000FF639A430A434260002070BD0321016093
:103D300000207047D0F8800070470A688260D1E99F
:103D400001231A43D1E903310B43C1681A436FF3CE
:103D50000B011143C160002070470968C0F8801052
:103D60000020704710B585B004463720CDE900101B
:103D700040200290002003904FF480600490694638
:103D80002046FFF7DAFF41F288323721204600F063
:103D90009BF905B010BD000010B504460A4885B077
:103DA00001432920CDE9001040200290002003901B
:103DB0004FF48060049069462046FFF7BEFF20461E
:103DC00000F03AFA05B010BD0000108010B585B0C3
:103DD00004461020CDE900104020029000200390FE
:103DE0004FF48060049069462046FFF7A6FF41F239
:103DF00088321021204600F067F905B010BD10B5DB
:103E000085B004460620CDE9001040200290002035
:103E100003904FF48060049069462046FFF78DFFC1
:103E200041F288320621204600F04EF905B010BD5F
:103E300030B585B000240546009401944FF48060AD
:103E40000294CDE9034069462846FFF776FF0B4808
:103E50004FF4FA510068B0FBF1F041F28831484369
:103E6000401E03D24FF0004005B030BD696B09061B
:103E7000F6D5C520A8632046F6E700008C00002098
:103E800010B585B004464FF4D5700090082001901D
:103E900040200290002003904FF480600490694617
:103EA0002046FFF74AFF204600F02CFA05B010BD6F
:103EB00010B585B004461220CDE9001040200290D4
:103EC000002003904FF48060049069462046FFF77D
:103ED00034FF41F288321221204600F0F5F805B097
:103EE00010BD10B585B004461120CDE9001040206A
:103EF0000290002003904FF48060049069462046B1
:103F0000FFF71BFF41F288321121204600F0DCF858
:103F100005B010BD10B585B004460720CDE90020DE
:103F200040200290002003904FF480600490694686
:103F30002046FFF702FF41F288320721204600F0B9
:103F4000C3F805B010BD10B585B0044600210220AD
:103F5000CDE90010C020CDE902014FF4806004904B
:103F600069462046FFF7E9FE204600F03DF905B01E
:103F700010BD10B585B004460920CDE90010C02061
:103F80000290002003904FF4806004906946204620
:103F9000FFF7D3FE204600F027F905B010BD10B59D
:103FA00085B0044600213320CDE900104020CDE942
:103FB00002010001049069462046FFF7BEFE41F26F
:103FC00088323321204600F07FF805B010BD10B5CF
:103FD00085B004460D20CDE900104020029000205D
:103FE00003904FF48060049069462046FFF7A5FED9
:103FF00041F288320D21204600F066F805B010BD70
:1040000030B585B00C46054600210320CDE90010EF
:104010004020CDE902010001049069462846FFF7DF
:104020008CFE22460321284600F028F905B030BD59
:1040300010B585B0044600210C20CDE900104020C9
:10404000CDE902010001049069462046FFF775FEA4
:10405000034A0C21204600F037F805B010BD0000DF
:1040600000E1F50510B585B004461920CDE9001032
:1040700040200290002003904FF480600490694635
:104080002046FFF75AFE41F288321921204600F0FF
:104090001BF805B010BD10B585B004461820CDE959
:1040A000001040200290002003904FF480600490A4
:1040B00069462046FFF741FE41F28832182120462A
:1040C00000F002F805B010BD454B10B51B684FF469
:1040D000FA54B3FBF4F353435B1E02D24FF000409B
:1040E00010BD426B12F0450FF6D01205F4D4426BAE
:1040F000520703D504218163084610BD426BD207E5
:1041000002D00121816305E0C52282630269D2B237
:104110008A4201D0012010BD0021FFF7ECFD31499A
:10412000084201D1002010BD002802DA4FF00070D3
:1041300010BD410001D5402010BD810001D5802077
:1041400010BDC10002D54FF4807010BD010102D531
:104150004FF4007010BD410102D54FF4806010BDD6
:10416000C10102D54FF4006010BD010202D54FF429
:10417000805010BD410202D54FF4005010BD8102A5
:1041800002D54FF4804010BDC10202D54FF400406B
:1041900010BD410302D54FF4003010BD810302D59C
:1041A0004FF4802010BDC10302D54FF4002010BD94
:1041B000010402D54FF4801010BD410402D54FF424
:1041C000001010BD810402D54FF4800010BD00071F
:1041D00002D54FF4000010BD4FF4803010BD000038
:1041E0008C00002008E0FFFD12494FF4FA520968E4
:1041F000B1FBF2F141F288325143491E02D24FF035
:1042000000407047426B12F0450FF6D01205F4D40F
:10421000416B490703D50421816308467047416B10
:10422000C90703D00121816308467047C521816316
:10423000002070478C0000200F494FF4FA520968A3
:10424000B1FBF2F141F288325143491E02D24FF0E4
:1042500000407047426B12F0450FF6D01205F4D4BF
:10426000416B490703D50421816308467047C52186
:1042700081630020704700008C00002030B5204B87
:104280004FF4FA541B68B3FBF4F341F288346343F0
:104290005B1E02D24FF0004030BD446B14F0450F5E
:1042A000F6D02405F4D4436B5B0703D50421816366
:1042B000084630BD436BDB0702D00121816303E078
:1042C0000369DBB28B4201D0012030BDC52181637F
:1042D0000021FFF710FD10F4604F04D0410406D513
:1042E0004FF4005030BD000C1080002030BD0004A1
:1042F00002D54FF4805030BD4FF4803030BD000007
:104300008C00002014494FF4FA520968B1FBF2F115
:1043100041F288325143491E02D24FF000407047AB
:10432000426B12F0450FF6D01205F4D4416B4907E9
:1043300003D50421816308467047416BC90703D048
:104340000121816308467047416B490601D5402130
:1043500081630020704700008C00002010B5064CDF
:1043600001202070FCF742F918B9207820F00100F4
:104370002070207810BD00009000002070B5054628
:10438000FDF708F8044603E0FCF730F9002806D0F2
:10439000FDF700F8001BA842F6D34FF0FF3070BDC8
:1043A00010B5846BFCF712FD022828D0206C416DFB
:1043B000E06B406D012901D001281DD12168104812
:1043C00088632068C16B21F49D71C163A06B40F0CC
:1043D0008040A0632046FDF7A1FE062801D00528F5
:1043E00005D12068FFF724FEA16B0843A0630120DC
:1043F00084F83400002020632046FDF7AFFD10BD97
:10440000FF05400010B5846B206B822809D120681D
:10441000FFF70EFE28B1A16B0143A1632046FDF713
:104420009DFD2068C16A21F00801C162216840F247
:104430003A508863012084F834000020206320462D
:10444000FEF714F910BD10B5846B40F23A502168A4
:1044500088632046FDF762FE012184F834100021B4
:104460002163062801D0052805D12068FFF7E0FD6B
:10447000A16B0843A063A06B0028204602D0FDF783
:104480006DFD10BDFDF7D9FC10BD806B0068C16BE0
:1044900041F48071C163704710B5846B40F23A50AB
:1044A000216888632046FDF739FE012184F8341025
:1044B00000212163062801D0052805D12068FFF7D7
:1044C000B7FDA16B0843A063A06B0028204602D073
:1044D000FDF744FD10BDFDF7B0FC10BD2DE9F04720
:1044E00088B00D460446FCF755FF0026824600962C
:1044F0000196374608212068FFF768FC002829D17B
:10450000B4F8500001042068FFF72CFC002821D1EA
:10451000401E4FF00808CDE9020830204FF0020994
:10452000CDE904090120CDE9067002A92068FFF752
:10453000CCFB2068FFF733FD00280BD16F462068C5
:10454000416B11F02A0F08D0416B09071AD5C0F84A
:104550003880082008B0BDE8F087416B890205D596
:10456000FFF7E8FB47F82600761C02E0416B890460
:10457000EAD5FCF70FFFA0EB0A00401CDFD14FF09B
:104580000040E7E7416B890703D5C0F83890022067
:10459000E0E7416B890603D5202181630846D9E70E
:1045A00040F23A518163019800BA2860009800BA3D
:1045B00068600020CEE710B590B004460120ADF849
:1045C00038002068FFF793FB002854D0606C032864
:1045D00042D02068FFF7B7FC00284AD100212068AC
:1045E000FFF789FB606704212068FFF784FBA06761
:1045F00008212068FFF77FFBE0670C212068FFF7A8
:104600007AFBC4F88000606C032825D00EA92068CE
:10461000FFF7F6FC00282CD1606C03281CD0BDF8F5
:104620003800206501042068FFF7A3FC002820D192
:1046300000212068FFF75FFB606604212068FFF718
:104640005AFBA06608212068FFF755FBE0660C21A5
:104650002068FFF750FB206704212068FFF74BFB21
:10466000000DE06403A92046FDF77AFC30B14FF05D
:10467000805010B010BD4FF08060FAE7B4F85000E1
:10468000002302042068FFF745FC0028F1D104F163
:10469000100007C88DE8070094E80F00FFF734FB0F
:1046A0000020E6E72DE9F84F00260446009635463F
:1046B000B0460068FFF7BCFB002827D12068FFF751
:1046C000DFFB4FF0805B4FF001094FF6FF7748B1F9
:1046D000A6642068FFF7ACFB002817D1A06C012866
:1046E00002D020E0C4F8489000212068FFF73AFB90
:1046F00058B918E000212068FFF734FB002805D1E5
:1047000051462068FFF748FB10B15846BDE8F88FC6
:1047100000212068FFF7EFFA05464FEAD0780098AD
:10472000401C009002E0DFF82CA00098B84202D2B2
:10473000B8F1000FDED00098B84202D34FF080707D
:10474000E4E7680002D5C4F8449000E06664002005
:10475000DCE70000000010C170B50546FBF752FF12
:10476000034C18B92846FFF7F9FD2070207870BD7A
:104770009000002010B5124888B014460078C00799
:1047800002D0032008B010BDC1B1012905D0022913
:1047900008D003290CD00420F4E76846FBF720FF7B
:1047A00006980AE06846FBF71BFF0798208005E0A3
:1047B0006846FBF715FF0798400A20600020E1E7F4
:1047C000900000202DE9F04147F230551C46174675
:1047D000884601262846FFF7D1FD002826DB224621
:1047E00039464046FBF72EFF00BB134C4FF0000844
:1047F000C4F80880FCF7CEFD0746A06820B9FCF796
:10480000C9FDC01BA842F8D3A06828B1C4F808802D
:10481000FCF7C0FD044604E0012607E0FBF7E6FED6
:1048200038B1FCF7B7FD001BA842F7D33046BDE80E
:10483000F0810026FAE7000090000020FFF78EBD0F
:104840002DE9F0471B4C4FF000081F4691468A4661
:104850000126C4F8048047F230552846FFF78EFD44
:10486000002821DB3A4649465046FBF7FFFED8B9FF
:10487000FCF790FD0746606820B9FCF78BFDC01B74
:10488000A842F8D3606828B1C4F80480FCF782FD20
:10489000044604E0012607E0FBF7A8FE38B1FCF768
:1048A00079FD001BA842F7D33046BDE8F08700260B
:1048B000FAE700009000002001B582B0642000906B
:1048C000012301AA02A90348FDF7FAFF9DF804009D
:1048D0000EBD0000901200200149C8617047000021
:1048E0009012002038B504461248134B0068B0FB04
:1048F000F3F04FF47A73584300906068B0F5827F0C
:104900000DD10B46009200228021204600F016F8BF
:1049100070B1606D40F020006065032038BD0098E4
:1049200030B1401E009020688068C0430006F6D574
:10493000002038BD8C00002000366E012DE9F843C0
:104940001E46914688460446089DFCF723FD401B01
:10495000351AFCF71FFD074625480068C0F3CB3029
:10496000684338E0701C37D0FCF714FDC01BA84228
:1049700003D215B1009860B32CE02068416821F0A3
:10498000E00141606068B0F5827F0BD1A068B0F5AE
:10499000004F02D0B0F5806F04D12068016821F08B
:1049A00040010160A06AB0F5005F09D1206801688C
:1049B00021F4005101602068016841F40051016058
:1049C000012084F85100002084F850000320BDE845
:1049D000F8830025401E00902068816838EA0100B5
:1049E00004D000214945BDD10020F0E70121F9E7BD
:1049F0008C0000207047FCF7D3BC000030B593B0AA
:104A000030216846FBF716FC14210CA8FBF712FCBA
:104A10001F480025016841F080510160006800F0E6
:104A2000805011901B48016841F48041016000688A
:104A3000022400F480401190052000904FF4803053
:104A40000190012002908005CDE9064004200890E5
:104A5000A820CDE9090407200B906846FCF7C2FEA8
:104A600008B172B6FEE70CA90F2081E831004FF4BF
:104A7000A0500F904FF48050109005210CA8FCF727
:104A8000C7FD002801D072B6FEE713B030BD0000AC
:104A900040380240007000400248016841F4700153
:104AA0000160704788ED00E0F0B50268254C264DA6
:104AB000264E274F274B4FF0804CA04209D060452F
:104AC00007D0A84205D0B04203D0B84201D09842E6
:104AD00004D122F0700E4A6842EA0E02A0421BD0B6
:104AE000604519D0A84217D0B04215D0B84213D0B3
:104AF000984211D0184DA8420ED0184DA8420BD0A4
:104B0000174DA84208D0174DA84205D0164DA8420F
:104B100002D0164DA84203D122F44075CA682A4338
:104B20004D6922F080022A4302608A68C2620A68E4
:104B30008262A04201D0984201D10969016301213A
:104B40004161F0BD00000140000400400008004049
:104B5000000C0040000401400040014000440140BE
:104B60000048014000180040001C004000200040A8
:104B70002DE9FF4F83B0804610A84FF4784490E8A9
:104B8000000E55481025564E048054A00095CDE9DE
:104B900001400F4673883288A0212820FEF73DFE91
:104BA00050A00095CDE9014073883288A02178207B
:104BB000FEF733FE4CA00095CDE9014073883288A2
:104BC000B4212820FEF729FE48A00095CDE9014038
:104BD00073883288B4217820FEF71FFE44A0009528
:104BE000CDE9014073883288C8212820FEF715FEE0
:104BF00040A00095CDE9014073883288C821782013
:104C0000FEF70BFE3CA00095CDE901407388328889
:104C1000DC212820FEF701FE38A00095CDE90140F7
:104C200073883288DC217820FEF7F7FD34A00095E8
:104C3000CDE9014073883288F0212820FEF7EDFD90
:104C4000CDE9005404234246A0214020FEF7ACFDEC
:104C5000CDE9005404233A46A0219020FEF7A4FD9C
:104C6000CDE900540423B4214020059AFEF79CFDB1
:104C7000CDE900540423B4219020069AFEF794FD58
:104C8000CDE9005404234A46C8214020FEF78CFD9C
:104C9000CDE9005404235246C8219020FEF784FD3C
:104CA000CDE9005404235A46DC214020FEF77CFD68
:104CB000CDE900540423DC219020139AFEF774FD03
:104CC000CDE900540323F0216020149AFEF76CFD17
:104CD00007B0BDE8F08F00000000002078313A00F6
:104CE000B800002079313A0078323A0079323A003F
:104CF00078333A0079333A0078343A0079343A001C
:104D00006661632069733A002DE9F04FDFF810B453
:104D10001F202DED0C8B89B04FF6FF7A00245646EC
:104D20002546D846ABF80000FE48A0F800A0304663
:104D3000FEF710FA0027FC48A8F800704FF01008A2
:104D40000168CDF80080CDE9017128216423A022FB
:104D50000846FEF762FD4FF47849F4A08DE80103A0
:104D60001023F022C8210820CDE90367FBF778FF64
:104D7000F4A08DE801031023F022DC210820CDE906
:104D80000367FBF76DFF14214A46084600F0B2FAAC
:104D9000F24E86F820709FEDF20A86ED090A9FED2B
:104DA000F18B9FEDF29B9FEDF3BB7168012088476B
:104DB00096F820000121B1EB901F45D120F0400072
:104DC00086F8200005A8B18920F8241000EB8400A3
:104DD000641C0025F18AE4B24180012C06D0022C2B
:104DE00010D0032C1DD0042C2ED13CE014215246AF
:104DF000084600F07FFAE1484A460088143880B23D
:104E000014211FE0DD48524614210088143880B276
:104E100000F070FAD9484A464088143881B214200C
:104E200010E0D64852464088143881B2142000F071
:104E300061FAD2484A464088143881B2CF48008887
:104E4000143880B200F056FA0A20FCF733F96D1CD2
:104E5000ADB2B5F57A7FA8D900F08CFA09B0BDECF7
:104E60000C8BBDE8F08FBDF81400BDF81810411A86
:104E700000D54942BDF81600BDF81A20801A00D5A9
:104E80004042494340430844FBF75FFA41EC100BB2
:104E900000F094FF51EC100BFBF764FA84B2BDF8FC
:104EA0001C00BDF82010401A00D54042BDF81E106D
:104EB000BDF82220891A00D54942404301FB010078
:104EC000FBF743FA41EC100B00F078FF51EC100BAC
:104ED000FBF748FA00EE104A80B20090F8EE400A64
:104EE00000EE100AB8EE401A80EE810A10EE100AA9
:104EF000FBF751FA41EC1A0B53EC182BFBF75EFA57
:104F00005CD353EC192B51EC1A0BFBF76FFA55D30A
:104F1000F4B30098E0B3BDF81400BDF81C10401ABB
:104F200000D54042BDF81610BDF81E20891A00D5E4
:104F30004942404301FB0100FBF707FA41EC100B2B
:104F400000F03CFF51EC100BFBF70CFA84B2BDF8FB
:104F50001800BDF82010411A00D54942BDF81A00CA
:104F6000BDF82220801A00D54042494340430844FE
:104F7000FBF7EBF941EC100B00F020FF51EC100BAC
:104F8000FBF7F0F900EE104A80B2F8EE400A00E0BC
:104F900014E000EE100AB8EE401A80EE810A10EE1E
:104FA000100AFBF7F8F9B0EE48CAF0EE68CA41EC17
:104FB0001A0B53EC1C2BFBF701FA30D26F4800247C
:104FC0005246418800881439143889B280B200F002
:104FD00091F914214A46084600F08CF953EC1B2B3A
:104FE00051EC1A0BFBF73FF9FBF7BCF980B2BDF8A7
:104FF0002210BDF82030BDF81E20CDE90310CDE908
:105000000123BDF81C000090BDF81A30BDF818202F
:10501000BDF81610BDF81400FFF7AAFDC5E6B0EE06
:1050200049DAF0EE69DA53EC1D2B51EC1A0BFBF761
:10503000DDF9C3D3BDF81800BDF81C10401A00D527
:105040004042BDF81A10BDF81E20891A00D5494209
:10505000404301FB0100FBF778F941EC100B00F035
:10506000ADFE51EC100BFBF77DF984B2BDF81400D6
:10507000BDF82010411A00D54942BDF81600BDF810
:105080002220801A00D54042494340430844FBF7A0
:105090005CF941EC100B00F091FE51EC100BFBF7AA
:1050A00061F900EE104A80B2F8EE400A00EE100AF4
:1050B000B8EE401A80EE810A10EE100AFBF76BF989
:1050C00041EC1A0B53EC1C2BFBF778F9B1D353ECE2
:1050D0001D2B51EC1A0BFBF789F9AAD3BDF8184028
:1050E000BDF81430254AE01A00EE100A1088F8EED8
:1050F000C00AA0F1280100EE101AE118B8EEC00AAB
:1051000080EE201A00EE101AF8EE400A00EE100AA7
:10511000B8EE400A86ED091A01EE600A30E00000A0
:1051200000000020020000201C960008D0A3D7BC7D
:10513000A3BAD2C0B4CEB5E3CBC4BDC7B5C4B5E342
:1051400000000000202020202020BDF8D0D0B4A5F1
:10515000C3FEC6C1D0A3D7BC000000000C000020D5
:1051600000000000666666666666EE3FCDCCCCCC7D
:10517000CCCCF03F0000000000005940B8000020F7
:10518000F6EE001A20EE210A86ED0B0ABDF81E404D
:10519000BDF81630E11A00EE101A51882344F8EEDB
:1051A000C00AA1F1280C00EE10CAB8EEC02A82EEA7
:1051B000200A00EE903AB8EE602A00EE901AF8EE5F
:1051C000600A86ED0A0A40EE420A60EEA10AC6EDC8
:1051D0000C0AFDEEC10A10EE903A002B00DA5B4299
:1051E000022B08DCBDEEC00A10EE103A002B00DAEC
:1051F0005B42022B2CDD14391438002489B280B2B2
:10520000524600F077F814214A46084600F072F83A
:1052100025A2CDF800802948CDE901924388028873
:105220001A212820FEF7F9FA96F8340040B1002040
:1052300086F8340030B1224890210170D02105E079
:105240000120F5E71E48D021017090214170ACE5A6
:105250001F20ABF8000054465046FDF77BFF19A015
:10526000CDF80080CDE9019014484D46464643886C
:1052700002886E212020FEF7D0FA18A0CDE90006A2
:10528000CDE902541023F022822104972020FBF75D
:10529000E7FC4FF47A70FBF70DFF00F0B1F9204600
:1052A000FDF758FFDAE500005450204E6565642094
:1052B000726561646A75737421000000B800002093
:1052C00004000020546F7563682053637265656E37
:1052D0002041646A757374204F4B2100B4A5C3FE4E
:1052E000C6C1D0A3D7BCCDEAB3C9A3AC4F4BA3A1D1
:1052F000A3A100002DE9F84305461D4816460C46BB
:10530000028005F10D00009282B2193880B20B467E
:10531000FDF776FF04F10D0083B2193881B22A46F9
:1053200010460096FDF76CFF671C05F10109B9B244
:105330001FFA89F0FDF7B2FFA5F10108B9B21FFA13
:1053400088F0FDF7ABFF671EB9B21FFA89F0FDF7D1
:10535000A5FFB9B21FFA88F0FDF7A0FF01B03346F0
:1053600021462846BDE8F0430622FDF7A5BF000010
:105370000000002000B587B018220021684600F028
:10538000B9FB9DF812109DF811000A2900D110B147
:10539000002007B000BD17499DED000ADFED160A99
:1053A00081ED010AB8EEC00A01F10800002280EE8A
:1053B000201A80ED091A9DED010AB8EEC00A80EEB0
:1053C000201A80ED0A1A9DED020AB8EEC00A80ED9F
:1053D0000B0A9DED030A81ED010AB8EEC00A80EDCB
:1053E0000C0A80F83420D0200870902048700120EA
:1053F000CFE700000400002020BCBE4C70B50D4972
:10540000A1F10A000C46054600F0A8F821462846FE
:1054100000F0A4F8FFF7AEFF08B1002070BD4FF612
:10542000FF70FDF797FEFFF76FFCFFF7A3FF01206A
:1054300070BD0000220000202DE9F04700252B4E12
:1054400007462C462A4601213046FBF79EFF0022E4
:10545000F1142748FBF799FFDFF898904FF40058B4
:10546000002241464846FBF790FF384600F058F9C5
:10547000062001F0C5F8002201213046FBF785FF28
:10548000012001F0BDF8012211463046FBF77DFFF7
:10549000012001F0B5F8002201213046FBF775FF2D
:1054A0004FF6FF7707EA4404002201213046FBF75C
:1054B0006CFF012001F0A4F8012211463046FBF7F1
:1054C00064FF04213046FBF753FF08B1641CA4B20B
:1054D0006D1CEDB2102DE5D324090122414648464A
:1054E000FBF753FF2046BDE8F087000000040240B0
:1054F0000014024000080240FEB5064600256C4636
:105500003046FFF799FF24F815006D1CADB2052D4C
:10551000F6D30020431C99B20CE000BF34F81020F1
:1055200034F81150AA4203D924F8105024F811205D
:10553000491C89B20529F1D398B20428EAD3002185
:105540005FF0010034F81020401C114480B289B291
:105550000428F7D30320B1FBF0F0FEBD2DE9F041A4
:10556000074C06460D462078FFF7C6FF07466078D1
:10557000FFF7C2FF378028800120BDE8F0810000DE
:10558000040000207FB50C460546694602A8FFF7D7
:10559000E5FF00282FD001A903A8FFF7DFFF0028AF
:1055A00029D0BDF80C30BDF80820934203D803F190
:1055B0003200824205D39A421FD802F13200834260
:1055C0001BD2BDF80410BDF80000814203D801F1E0
:1055D0003206B04204D388420FD8323081420CD216
:1055E000D01840082880BDF80000BDF80410084419
:1055F00040082080012004B070BD0020FBE70000BF
:10560000194800B590ED090ADFED180A011F87B0AF
:1056100020EE200A1822BDEEC00A81ED000A8DEDB1
:10562000000A90ED0A0A20EE200ABDEEC00A8DEDB8
:10563000010A90ED0B0ABDEEC00A8DED020A90ED55
:105640000C0ABDEEC00A81ED000A8DED030A0021AF
:1056500080F834108DF811100A208DF81200684679
:1056600000F0C2FA07B000BD0C00002020BCBE4C08
:1056700070B5054602212848FBF77AFE274C40B159
:1056800094F8200001063BD520F0800084F820002B
:105690003DE0224800F116010C3015B1FFF772FF12
:1056A00022E0FFF76FFFF8B1A089D4ED0B0A00EEFE
:1056B000100A94ED091AB8EE400A41EE000ABCEE59
:1056C000E00A10EE100AA081E08A94ED0C0A00EEC8
:1056D000900A94ED0A1AF8EE600A01EE200ABCEE78
:1056E000C00A10EE100AE08294F8200000060ED4E2
:1056F000C02084F82000A089A082E08AE08306E030
:105700000020A082E0834FF6FF70A081E08294F831
:10571000200000F0800070BD000402400C0000205A
:105720002DE9F041DFF84880124E054600244FF481
:105730000067280601D5012200E0002239464046D4
:10574000FBF723FE6806050E002201213046FBF719
:105750001CFE012000F054FF012211463046FBF7E9
:1057600014FE641CE4B2082CE3D3BDE8F081000011
:10577000001402400004024010B5806B0021C18576
:10578000C184FDF7ADFA10BD01680C3151E8002F5E
:1057900022F4907241E80023002BF5D10168143106
:1057A00051E8002F22F0010241E80023002BF5D13F
:1057B000016B012909D101680C3151E8002F22F059
:1057C000100241E80023002BF5D1202180F83E1083
:1057D00000210163704708B590F83E10222901D0DE
:1057E000022008BD82684FF480539A4201D10169BA
:1057F00021B1816A9A421BD04AB10AE00268816AEB
:105800005268C2F308020A80816A891C08E00269B2
:1058100072B10268526802F07F020A70816A491C04
:105820008162C18D491E0904090CC18503D019E0AC
:1058300002685268F1E70168CA6822F02002CA6073
:105840000168CA6822F48072CA6001684A6922F05D
:1058500001024A61202180F83E10016B012903D02A
:10586000FDF7FAFB002008BD0021016301680C313F
:1058700051E8002F22F0100241E80023002BF5D15F
:1058800001680A68D20602D50A6849680091818DCC
:10589000FDF725FAE6E7000070B5044600680169E7
:1058A000E26821F44051114301612169A068E26975
:1058B00008436169114308432168CA6849F20C63CF
:1058C0009A430243CA6020684169A26921F4407189
:1058D0001143416131492068884202D030498842F1
:1058E00002D1FBF73FFF01E0FBF72CFFE269002349
:1058F000192164253226B2F5004F626828D0A0FB3A
:105900000101930F9200FAF75DFC0146B0FBF5F040
:105910006FF01802504301EB800006EB0010B0FB63
:10592000F5F000F0F002B1FBF5F002EB0012B1FB74
:10593000F5F06FF01803584301EB800006EB001000
:10594000B0FBF5F000F00F0021681044886070BDD6
:10595000A0FB010192185B41FAF734FC0146B0FB51
:10596000F5F00201B1FBF5F06FF01803584301EBBD
:10597000800006EBC000B0FBF5F000F0F80002EB91
:105980004002B1FBF5F0584301EB800006EBC0008C
:10599000B0FBF5F000F00700D6E700000010014072
:1059A0000014014081628285C285002101642222A7
:1059B00080F83E2080F83C10016921B10168CA6876
:1059C00042F48072CA6001684A6942F001024A6189
:1059D0000068C16841F02001C160002070472DE9D6
:1059E000F041984617460E460446069D27E0681C7F
:1059F00025D02DB1FBF7CEFCA0EB0800A8421ED9A4
:105A000020680C3050E8001F21F4D07140E80012EB
:105A1000002AF5D12068143050E8001F21F0010160
:105A200040E80012002AF5D1202084F83D0084F8D7
:105A30003E00002084F83C000320BDE8F08120688F
:105A4000006836EA000004D00020B842CFD0002021
:105A5000F3E70120F9E700000148FDF743B9000032
:105A600034140020FEE7000070B50446014613A080
:105A700000F070F9240300F005F900F0ADF8114EC4
:105A80004FF48045002229463046FBF77EFC20205B
:105A9000FEF712FFC4F30740FEF70EFFC4F3072022
:105AA000FEF70AFFE0B2FEF707FF01222946304663
:105AB000FBF76BFCBDE8704000F08EB866653A25D8
:105AC000780D0A000004024010B5FF20FEF7F4FE36
:105AD0000020FEF701FF012291030448FBF755FC6B
