:020000040800F2
:1000000000E00120A1010008332D00083926000876
:10001000312D0008F50200085D38000800000000DE
:10002000000000000000000000000000E9330008AC
:100030006B040008000000001B320008EB330008CE
:10004000BB010008BB010008BB010008BB010008A0
:10005000BB010008BB010008BB010008BB01000890
:10006000BB010008BB010008BB010008BB01000880
:10007000BB010008BB010008BB010008BB01000870
:10008000BB010008BB010008BB010008BB01000860
:10009000BB010008BB010008BB010008BB01000850
:1000A000BB010008BB010008BB010008BB01000840
:1000B000BB010008BB010008BB010008BB01000830
:1000C000BB010008BB010008BB010008BB01000820
:1000D000BB01000851380008BB010008BB01000843
:1000E000BB010008BB010008BB010008BB01000800
:1000F000BB010008BB010008BB010008BB010008F0
:10010000BB010008BB010008BB010008BB010008DF
:10011000BB010008BB010008BB010008BB010008CF
:10012000BB0100089D030008BB010008BB010008DB
:10013000BB010008BB010008BB010008BB010008AF
:10014000BB010008BB010008BB010008BB0100089F
:10015000BB010008BB010008BB010008BB0100088F
:10016000BB010008BB010008BB010008BB0100087F
:10017000BB010008BB01000891030008000000005B
:10018000BB010008BB010008DFF810D000F0A0F8A8
:1001900000480047CD3A0008AFF3008000E001209E
:1001A0000648804706480047FEE7FEE7FEE7FEE711
:1001B000FEE7FEE7FEE7FEE7FEE7FEE7993400080C
:1001C000890100082DE9F05F0546002092469B4614
:1001D00088460646814640241BE02846414647465D
:1001E000224600F065F853465A46C01A914110D392
:1001F00011461846224600F04CF82D1A67EB01080C
:100200004F4622460120002100F043F817EB000979
:100210004E41201EA4F10104DFDC484631462A4647
:100220004346BDE8F09FD2B201E000F8012B491E21
:10023000FBD270470022F6E710B513460A46044683
:100240001946FFF7F0FF204610BD10B5002200E070
:10025000521C835C8C5CA34201D1002BF8D1D8B234
:10026000E1B2401A10BD30B50B46014600202022F5
:10027000012409E021FA02F59D4205D303FA02F5B3
:10028000491B04FA02F52844151EA2F10102F1DC13
:1002900030BD202A04DB203A00FA02F1002070472A
:1002A0009140C2F1200320FA03F3194390407047B4
:1002B000202A04DB203A21FA02F00021704721FABB
:1002C00002F3D040C2F12002914008431946704722
:1002D000064C074D06E0E06840F0010394E8070093
:1002E00098471034AC42F6D3FFF752FF8051000814
:1002F000B0510008FEE710B5806B816B496D022993
:1003000002D0012180F8251000F026F910BD10B5AB
:10031000846BA26AA06B0168CAB10A68A36A02F47E
:100320000022DB0706D12AB1C968E26A01EBC201EB
:10033000002207E00A68120319D40969E26A01EB96
:10034000C201012200F097FAA06A401E0EE0086880
:10035000000302D5606BC86009E00868000306D49A
:10036000E26A606B00EB82000861206BA062A06A09
:10037000216B88420BD12068C16841F00101C16046
:1003800020680068800702D5012084F8250010BD90
:10039000014800F0EBB8000034900120014800F063
:1003A0008DBF00007490012001681823CAB2103A72
:1003B000B2FBF3F2054B6FF30901032A9B5CC365A3
:1003C00000D9091D81650846704700005D5100088D
:1003D00010B5014600208B698A6A4FF0C07453B192
:1003E000B3F5005F15D072B1012A0CD0022A0AD0F1
:1003F000032A09D104E01AB1012A06D0022A03D146
:10040000C96AC90100D5012010BDC96AA142FAD04C
:1004100010BD002AF7D0012AF2D0022AF3D0032A15
:10042000F3D010BD10B5046863608368402B036887
:1004300003D099600068C26010BD9A600068C16016
:1004400010BD30B50468256825F480252560046852
:1004500063608368402B036803D099600068C260C2
:1004600030BD9A600068C16030BD704772B6FEE76B
:1004700030B5B3F5804F05D06FF0704140F82210D1
:10048000002030BD8C690B688D6823434C688989D6
:10049000240144EA0524234343EA014150F8223071
:1004A000014C23401943E9E70000F0CF10B50A687A
:1004B00050F8223023F0010340F822308C68082CD9
:1004C00023D000234A682243CC681C430B69224393
:1004D0001A434B690E4C1A43CB691A430B6A1A43F1
:1004E0004B6A1A438B6A1A43CB6A1A430B6B1A4343
:1004F0008B691343CA6B09681A4350F82130A34330
:10050000134340F82130002010BD4023DAE70000FB
:100510007FFF0F0030B5D1E9003443EA04138C6843
:100520008D89240244EA054423430C8A094D00EBDB
:10053000820005EB045423430C7D6D0105EB04643C
:10054000896923430B43416801F040410B434360F9
:10055000002030BD0000F0FF704700000248016835
:10056000491C016070470000000000202DE9F041A7
:10057000044600680569224F69074FF004060BD551
:100580004661E06B40F00200E06384F82560A06BF8
:100590000765A06B00F07FFEA8070DD5216802203B
:1005A0004861E06B40F00100E06384F82560A06BD7
:1005B0000765A06B00F06FFEE80605D521681020E6
:1005C0004861204600F061F8280705D52168082019
:1005D0004861204600F04EF9E8070FD02068016816
:1005E000890703D5C16821F01E01C1602068C16878
:1005F00021F00101C1602046FFF7B0FFBDE8F081A6
:10060000F702000870B5040004D094F82500002516
:1006100010B109E0012070BD84F82450204600F09C
:1006200035F8204600F032F8022084F825002068D2
:10063000016840F6F872914301606169606808439F
:10064000D4E9031211430843A1680843A169084390
:10065000216A084321680A6810430860606810280E
:1006600008D1A17FA08B61F31F40E17F40EA0160C8
:10067000216888612068C16841F01E01C160E5639E
:10068000012084F82500002070BD7047F0B587B0C8
:10069000064614216846FFF7CDFD40493068884280
:1006A0007AD13F480025016841F0010101600068EE
:1006B0003B4900F00100091F0590086840F0100058
:1006C0000860086800F010000590086840F001001C
:1006D0000860086800F001000590086840F0040018
:1006E0000860086800F004000590086840F0020007
:1006F00008600868022400F00200059060208DE880
:1007000031000D27CDE903576946264800F0AEFFBA
:1007100050208DE83100CDE903576946224800F0AA
:10072000A5FF4FF43C608DE83100CDE903576946E1
:100730001E4800F09BFFC0208DE83100CDE9035733
:1007400069461B4800F092FF1B4C1A4820604FF08E
:100750000070C4E90105C013C4E903508000606162
:100760008000A0618011E06140022062042060628C
:100770000320C4E90A052046256300F06FFE08B196
:10078000FFF774FEB463002211464E20A66301F009
:10079000E5F84E2001F0D4F807B0F0BD0000055098
:1007A00034380240001002400000024000080240BD
:1007B000000402402864024074900120F8B5044609
:1007C00090F82400012827D0012084F82400022575
:1007D00084F8255025682E6846F480462E602568EA
:1007E0002E6826F002062E6025682E680E432E60C5
:1007F000A56B1E49E963A66B1D4DF564A66B00252C
:100800003565A56206042563B34207D22168A06B53
:10081000283100F08DFE1FE00220F8BDA76B79643F
:10082000A062E362626305E0E06A4008E062A06AF9
:100830004000A062E06AB042F6D2A06A801EA062C8
:10084000A06A2063E06A02EB8003E06A00902168FE
:10085000A06B283100F016F82068016841F0010112
:10086000016084F824500020F8BD00000F03000848
:10087000F70200087047006812B10161002070475C
:10088000C160FBE72DE9F84F044600200A9D009067
:10089000A0684FF4807A802817D0E06BB8B1606C04
:1008A000A8B1E06C98B194F83400012813D001206D
:1008B00084F8340094F835600020012E0DD084F8BF
:1008C000340002200090BDE8F88F504600E0402040
:1008D00060650120F7E70220F5E7022684F835601D
:1008E00060652068066846F480260660206803611B
:1008F0002B462046FFF796FDDFF800844FF4006B8F
:100900004FF4001EFE48FD4AFD4BFC4DFC4EFB4FD4
:10091000DFF8ECC3DFF8E4932168483A6033183518
:100920001836303F0CF1780C09F13009414534D9C3
:10093000814205D0914203D0994201D0A94201D110
:10094000202125E0B14205D0B94203D0614501D054
:10095000494501D159461BE0DFF8A48308F130086E
:10096000414511D0DFF89483A8F1180841450BD018
:10097000DFF88C8308F19008414505D0DFF87C83CF
:1009800008F14808414501D1714601E04FF000618E
:10099000DFF86883A8F14C0839E0DFF8648308F1D8
:1009A000A808414536D9814205D0914203D09942E9
:1009B00001D0A94201D1202125E0B14205D0B942A0
:1009C00003D0614501D0494501D159461BE0DFF80C
:1009D000308308F13008414511D0DFF82083A8F1B9
:1009E000180841450BD0DFF8188308F190084145FD
:1009F00005D0DFF8088308F14808414501D1714668
:100A000001E04FF00061DFF8F482A8F15008C8F867
:100A1000001072E0DFF8E88208F14808414536D955
:100A2000814205D0914203D0994201D0A94201D11F
:100A3000202125E0B14205D0B94203D0614501D063
:100A4000494501D159461BE0DFF8B48208F130086E
:100A5000414511D0DFF8A482A8F1180841450BD018
:100A6000DFF89C8208F19008414505D0DFF88C82C0
:100A700008F14808414501D1714601E04FF000619D
:100A8000DFF87C82A8F11008C8F80C1035E081422C
:100A900005D0914203D0994201D0A94201D1202131
:100AA00025E0B14205D0B94203D0614501D04945A6
:100AB00001D159461BE0DFF8488208F13008414572
:100AC00011D0DFF83882A8F1180841450BD0DFF8C3
:100AD000308208F19008414505D0DFF8208208F106
:100AE0004808414501D1714601E04FF00061DFF84F
:100AF0001082A8F11008C8F80810DFF800822168F9
:100B00004FF4806B4FF4801E414534D9814205D0AB
:100B1000914203D0994201D0A94201D1102125E090
:100B2000B14205D0B94203D0614501D0494501D158
:100B300059461BE0DFF8C88108F13008414511D063
:100B4000DFF8B881A8F1180841450BD0DFF8B08173
:100B500008F19008414505D0DFF8A08108F1480868
:100B6000414501D1714601E04FF08061DFF88C8191
:100B7000A8F14C0839E0DFF8888108F1A808414560
:100B800036D9814205D0914203D0994201D0A94281
:100B900001D1102125E0B14205D0B94203D0614511
:100BA00001D0494501D159461BE0DFF8548108F1D5
:100BB0003008414511D0DFF84481A8F118084145BB
:100BC0000BD0DFF83C8108F19008414505D0DFF8F3
:100BD0002C8108F14808414501D1714601E04FF0F0
:100BE0008061DFF81881A8F15008C8F8001072E0A1
:100BF000DFF80C8108F14808414536D9814205D01B
:100C0000914203D0994201D0A94201D1102125E09F
:100C1000B14205D0B94203D0614501D0494501D167
:100C200059461BE0DFF8D88008F13008414511D063
:100C3000DFF8C880A8F1180841450BD0DFF8C08064
:100C400008F19008414505D0DFF8B08008F1480868
:100C5000414501D1714601E04FF08061DFF8A0808D
:100C6000A8F11008C8F80C1035E0814205D0914277
:100C700003D0994201D0A94201D1102125E0B1420F
:100C800005D0B94203D0614501D0494501D159464B
:100C90001BE0DFF86C8008F13008414511D0DFF827
:100CA0005C80A8F1180841450BD0DFF8548008F1AA
:100CB0009008414505D0DFF8448008F148084145D7
:100CC00001D1714601E04FF08061DFF83480A8F176
:100CD0001008C8F80810DFF8248021684FF4007B62
:100CE0004FF4002E414534D9814205D0914203D0C2
:100CF000994201D0A94205D1082125E0586402405B
:100D000010600240B14205D0B94203D0614501D024
:100D1000494501D1594617E0DFF8E08441450FD03D
:100D2000DFF8DC8441450BD0DFF8D08408F160089F
:100D3000414505D0DFF8C88408F16008414501D17C
:100D4000714601E04FF00071DFF8B484A8F1340877
:100D500035E0DFF8A88408F17808414532D98142AE
:100D600005D0914203D0994201D0A94201D1082176
:100D700021E0B14205D0B94203D0614501D04945D7
:100D800001D1594617E0DFF8748441450FD0DFF8F0
:100D9000708441450BD0DFF8648408F16008414558
:100DA00005D0DFF85C8408F16008414501D1714647
:100DB00001E04FF00071DFF84884A8F13808C8F866
:100DC00000106AE0DFF8348408F11808414532D990
:100DD000814205D0914203D0994201D0A94201D16C
:100DE000082121E0B14205D0B94203D0614501D0CC
:100DF000494501D1594617E0DFF8008441450FD03D
:100E0000DFF8FC8341450BD0DFF8F08308F1600880
:100E1000414505D0DFF8E88308F16008414501D17C
:100E2000714601E04FF00071DFF8D083A8F140086F
:100E3000C8F80C1031E0814205D0914203D09942AC
:100E400001D0A94201D1082121E0B14205D0B94227
:100E500003D0614501D0494501D1594617E0DFF87B
:100E60009C8341450FD0DFF8988341450BD0DFF8D4
:100E70008C8308F16008414505D0DFF8848308F1D0
:100E80006008414501D1714601E04FF00071DFF883
:100E90006C83A8F14008C8F80810DFF86483216863
:100EA00008F118084FF4802B4FF0807E41452FD970
:100EB000814205D0914203D0994201D0A94201D18B
:100EC000042120E0B14205D0B94203D0614501D0F0
:100ED000494501D1514616E0DFF8208341450FD046
:100EE000DFF81C8341450BD0DFF8108308F1600860
:100EF000414505D0DFF8088308F16008414501D17C
:100F0000594600E07146DFF8F882A8F1340834E071
:100F1000DFF8E88208F17808414531D9814205D0EF
:100F2000914203D0994201D0A94201D1042120E08D
:100F3000B14205D0B94203D0614501D0494501D144
:100F4000514616E0DFF8B48241450FD0DFF8B08299
:100F500041450BD0DFF8A48208F16008414505D077
:100F6000DFF89C8208F16008414501D1594600E054
:100F70007146DFF88C82A8F13808C8F8001068E0E4
:100F8000DFF8788208F11808414531D9814205D04F
:100F9000914203D0994201D0A94201D1042120E01D
:100FA000B14205D0B94203D0614501D0494501D1D4
:100FB000514616E0DFF8448241450FD0DFF8408209
:100FC00041450BD0DFF8348208F16008414505D077
:100FD000DFF82C8208F16008414501D1594600E054
:100FE0007146DFF81882A8F14008C8F80C1030E00C
:100FF000814205D0914203D0994201D0A94201D14A
:10100000042120E0B14205D0B94203D0614501D0AE
:10101000494501D1514616E0DFF8E08141450FD046
:10102000DFF8DC8141450BD0DFF8D08108F16008A2
:10103000414505D0DFF8C88108F16008414501D17C
:10104000594600E07146DFF8B481A8F14008C8F8BD
:101050000810DFF8AC81216808F118084FF4803AD5
:101060004FF4800B414527D9814205D0914203D0EE
:10107000994201D0A94201D101201AE0B14205D024
:10108000B94203D0614501D0494501D1402010E06B
:101090005A4881420AD05A48814207D057486030A6
:1010A000814203D056486030814201D1504600E071
:1010B0005846534934392CE0DFF8408108F178086C
:1010C000414528D9814205D0914203D0994201D0AF
:1010D000A94201D101201AE0B14205D0B94203D0A2
:1010E000614501D0494501D1402010E0434881428B
:1010F0000AD04348814207D040486030814203D043
:101100003F486030814201D1504600E058463C499A
:101110003839086056E0DFF8E48008F118084145E6
:1011200028D9814205D0914203D0994201D0A942E9
:1011300001D101201AE0B14205D0B94203D0614586
:1011400001D0494501D1402010E02C4881420AD00D
:101150002B48814207D029486030814203D028487B
:101160006030814201D1504600E058462349403961
:10117000C86027E0814205D0914203D0994201D056
:10118000A94201D101201AE0B14205D0B94203D0F1
:10119000614501D0494501D1402010E01748814206
:1011A0000AD01748814207D014486030814203D0EA
:1011B00013486030814201D1504600E058460F4943
:1011C000403988602068016841F01601016020689C
:1011D000416941F080014161206C08B9A06C20B1E7
:1011E0002068016841F0080101602068016841F051
:1011F000010101600098BDE8F88F000040600240E6
:10120000406402402DE9F0410446876D00F038FB50
:10121000064694F835000025022806D08020606537
:1012200084F834500120BDE8F0812068016821F085
:10123000160101602068416921F080014161206C44
:1012400008B9A06C20B12068016821F00801016094
:101250002068016821F0010101600CE000F010FB42
:10126000801B052807D920206065032084F83500FD
:1012700084F83450D7E720680068C007EED194F8AE
:101280005C103F208840B860012084F8350084F865
:1012900034500020C7E790F83510022903D0802190
:1012A000416501207047052180F83510006801680C
:1012B00021F0010101600020704700002DE9F84392
:1012C00004464FF00009CDF8009063484FF41651E2
:1012D000A56D0068B0FBF1F72E6894F85C1008204B
:1012E00000FA01F131420FD021680A6852070BD58C
:1012F0000A6822F004020A6094F85C108840A86032
:10130000606D40F00100606594F85C104FF00108DA
:1013100008FA01F0304208D021684969090604D56D
:10132000A860606D40F00200606594F85C100420D5
:101330008840304208D021680968890704D5A86030
:10134000606D40F00400606594F85C1010208840E7
:10135000304218D021680968090714D5A8602068B0
:101360000168490304D50068000308D5A16C07E0B3
:101370000168C90503D4016821F008010160216CEE
:1013800009B12046884794F85C10202088403042FC
:1013900031D021680968C9062DD5A86094F83500B8
:1013A00005282068016806D0490347D50068000376
:1013B0001DD4616C1CE021F01601016020684169B8
:1013C00021F080014161206C08B9A06C20B1206837
:1013D000016821F00801016094F85C103F2088400A
:1013E000A86084F8358084F83490216D1FE0E16BAB
:1013F00009B120468847606D00282BD0606DC0077A
:1014000014D0052084F835002068016821F001011E
:1014100001600098401C0090B84203D82068006822
:10142000C007F6D184F8358084F83490E16C002947
:1014300010D001B02046BDE8F04308470168C90557
:10144000D5D4016821F01001016084F8358084F85A
:101450003490CCE7BDE8F8831C0000202DE9F04172
:10146000044600F00DFA06465CB1022084F835000F
:10147000002584F834502068016821F001010160E2
:101480000DE00120BDE8F08100F0FAF9801B05288D
:1014900005D920206065032084F83500F2E7206834
:1014A0000068C007F0D12268116820480140D4E9E3
:1014B00001031843D4E903363343184363691843DF
:1014C000A3691843E3691843236A18430843616A10
:1014D000042903D1D4E90B13194308431060206891
:1014E0004069666A20F0070130460E430127042850
:1014F0000CD1A06A0643E06A40B12046FEF768FFBF
:1015000020B14020606584F83570BAE720684661F4
:101510002046FEF749FF94F85C203F21914081600E
:10152000656584F835700020ACE700003F8010F05E
:101530002DE9F0410446866D90F83400002501281D
:101540000DD0012084F8340094F835700020012F6C
:1015500007D084F8340002252846BDE8F081022037
:10156000FBE7022784F8357060652046FEF769FFC7
:1015700094F85C103F208840B0602068016841F01A
:1015800016010160206C20B12068016841F008015B
:1015900001602068016841F001010160DCE70000A2
:1015A00070B5044600F06CF90546601C02D0044892
:1015B0000078044400F064F9401BA042FAD370BDE7
:1015C000100000202DE9F04186B014216846FEF796
:1015D00031FE20480168002939D1012101601E48EF
:1015E0000024016841F00101016000684FF4805857
:1015F00000F001000C27CDF80080CDE9047003262F
:1016000002250396CDE901546946144800F02EF8EE
:101610004FF68070CDE9000502AA694682E8D00045
:101620000F4800F023F84CF23370CDE9000502AA10
:10163000694682E8D0000B4800F018F802AA694613
:1016400082E8D000CDE90085074800F00FF806B029
:10165000BDE8F08104000020383802400014024048
:1016600000100240000C0240001802402DE9F84F23
:10167000DFF8BCA10022012503264FF00F090AF173
:10168000040BAAF1040E00BF0B6805FA02F4234014
:10169000A34270D10F7907F00307012F01D0022F69
:1016A00016D187684FEA420806FA08FC27EA0C07B9
:1016B000D1F80CC00CFA08FC4CEA070CC0F808C0C2
:1016C0004768A7430C79C4F3001494403C4344603A
:1016D0000C79E443A4070AD0C4684FEA420C06FA26
:1016E0000CF7BC438F6807FA0CF72743C7600C79E7
:1016F00004F00304022C12D1D40800EB840CDCF8B3
:1017000020405707FF0E09FA07F824EA0804D1F829
:10171000108008FA07F848EA0408CCF8208004682A
:101720004FEA420C06FA0CF7BC430F7907F00307A7
:1017300007FA0CF7274307604C6814F4403F70D059
:101740003C4C276847F480472760246822F0030751
:1017500004F480440094384C07EB040CDCF808488F
:1017600097074FEA177809FA08F7BC43334FB84296
:1017700002D1002724E054E0314FB84201D10127C3
:101780001EE0304FB84201D1022719E02E4FB84277
:1017900001D1032714E02D4FB84201D104270FE0F7
:1017A0002B4FB84201D105270AE02A4FB84201D198
:1017B000062705E0284FB84201D1072700E0082797
:1017C00007FA08F72743CCF80878DAF800405746BC
:1017D000D1F804C09C435FEACC2C00D51C433C608C
:1017E000DBF800405F46D1F804C09C435FEA8C2CD4
:1017F00000D51C433C60DEF800407746D1F804C0B9
:101800009C435FEA8C3C00D51C433C60084F083F7A
:101810003C68D1F804C09C435FEACC3C00D51C4333
:101820003C60521C102AFFF42FAFBDE8F88F000077
:10183000083C0140443802400030014000000240B2
:101840000004024000080240000C02400010024068
:101850000014024000180240001C024000690840C9
:1018600000D001207047426921EA02030A4043EA9E
:101870000241816170470AB1816170470904FBE749
:10188000014880687047000010000020024881680D
:101890000278114481607047100000200B4810B599
:1018A000016841F400710160016841F480610160E8
:1018B000016841F480710160032000F06FF80F208F
:1018C00000F006F800F024F8002010BD003C0240B3
:1018D00070B50D4D04464FF47A712878B1FBF0F0E5
:1018E0000A490968B1FBF0F000F080FB48B9102C00
:1018F00007D200222146501E00F030F800206C6014
:1019000070BD012070BD0000100000201C000020F0
:101910000A4808B5016841F480410160006800F49C
:10192000804000900548001F016841F0805101602F
:10193000006800F08050009008BD0000443802406C
:10194000002809DB00F01F020121914040098000BE
:1019500000F1E020C0F8001170470000F0B40E4B19
:101960001B680C46C3F30223C3F10705042D00D9FD
:101970000425191D072901D2002300E0DB1E0126E2
:1019800006FA05F1491E214099409E40761E1640F8
:101990003143F0BC01F074BF0CED00E0064900F0EB
:1019A000070208684FF6FF03184040EA0220034A86
:1019B00010430860704700000CED00E00000FA05DD
:1019C0002DE9F0470E46050065D0DFF81481D8F800
:1019D0000000F7B200F00700B04207D288F80070AC
:1019E000D8F8000000F00700B04254D128683D4C00
:1019F000810712D5400703D5206840F4E0502060ED
:101A00002878000703D5206840F4604020602068F3
:101A1000A96820F0F000084320602878C0072DD086
:101A2000304968680839012812D0022813D00328E9
:101A300011D00968890700292DDA216821F00301F6
:101A400001432160FFF71CFF814641F2883A0EE016
:101A500009688903EFE709688901ECE7FFF710FFE0
:101A6000A0EB0901514502D90320BDE8F0872068A9
:101A7000696800F00C00B0EB810FEFD1D8F80010CE
:101A8000404601F00701B14207D90770006800F035
:101A90000700B04201D00120E7E72878400705D5CC
:101AA0002068E96820F4E0500843206028780007A7
:101AB00006D52068296920F4604040EAC100206012
:101AC00000F038F82168084AC1F30311515CC8409E
:101AD0000649086006480068FFF7FAFE0020C4E7E0
:101AE000003C024008380240655100081C000020FC
:101AF000140000200448054900680968044AC1F33D
:101B00008221515CC84070471C0000200838024008
:101B1000755100080448054900680968044AC1F382
:101B20004231515CC84070471C0000200838024018
:101B300075510008154810B5006810F00C021448E3
:101B400013D04110042A0FD0082A0ED10F4C241FA5
:101B50002268236802F03F025B0207D52068C0F3C9
:101B60008810A0FB010106E0084610BD2168C1F302
:101B70008811A1FB00010023FEF724FB2168C1F3BB
:101B80000141491C4900B0FBF1F010BD083802408A
:101B90000024F400F0B51F4C16460D461D4B0021E5
:101BA00002220327283C0028186887B019D040F08B
:101BB00004001860186800F00400059010020090FE
:101BC000CDE90121CDE9037169461348FFF74EFDC8
:101BD000206845EAC60120F078400843206007B03D
:101BE000F0BD40F001001860186800F00100059099
:101BF0004FF480700090CDE90121CDE90371694671
:101C00000648FFF733FD2068354320F0EC60284399
:101C1000E4E70000303802400008024000000240C3
:101C20002DE9F84F04006ED02078DFF84C93C00700
:101C3000A9F104054AD009F104000168C1F381014A
:101C4000012908D00068C0F3810002280AD1D9F820
:101C50000000400206D52868800337D56068002858
:101C6000E1D033E06068B0F5803F10D0B0F5A02F30
:101C7000286810D020F480302860286820F4802064
:101C800028606068A8B1FFF7FBFD06460DE02868F4
:101C900040F48030F4E740F480202860F7E700BF8C
:101CA000FFF7EEFD801B642873D828688003F7D502
:101CB0000CE0FFF7E5FD064605E000BFFFF7E0FD9D
:101CC000801B6428F0D828688003F7D42078DFF8D8
:101CD000AC8280074FF0000A3ED5A748001D01687E
:101CE00011F00C0F08D00068C0F3810002280BD15E
:101CF000D9F80000400207D42868800716D5E068AC
:101D0000012800D112E033E1E068B8B10120C8F841
:101D10000000FFF7B5FD064605E000BFFFF7B0FD88
:101D2000801B0228C0D828688007F7D52868216959
:101D300020F0F80040EAC10028600DE0C8F800A0DB
:101D4000FFF79EFD064604E0FFF79AFD801B022880
:101D50001FD828688007F7D42078000722D5864F3F
:101D600087486169703771B101210160FFF788FD13
:101D7000064604E0FFF784FD801B022809D8386876
:101D80008007F7D50EE0C0F800A0FFF779FD064602
:101D900005E082E0FFF774FD801B02287DD83868DB
:101DA0008007F7D42078400768D5DFF8CCB100274A
:101DB0000BF13C0BDBF80000C0000BD4DBF800108B
:101DC00041F08051CBF80010DBF80000012700F053
:101DD000805000906B4E3068C00510D4306840F4DD
:101DE00080703060FFF74CFD009005E0FFF748FD84
:101DF0000099401A022850D83068C005F6D55E4ECA
:101E0000A0686C3601280FD00528306810D020F06B
:101E100001003060306820F004003060A068B8B184
:101E2000FFF72EFD00900FE0306840F00100F4E76E
:101E300040F004003060F7E7FFF722FD0099411AF7
:101E400041F28830814266D830688007F4D50EE0D0
:101E5000FFF716FD009007E0FFF712FD0099411A09
:101E600041F28830814256D830688007F4D42FB1CF
:101E7000DBF8001021F08051CBF80010A069C8B346
:101E80003D49091D0968C1F3810102294AD0022890
:101E9000504607D0C8F8600000E03CE0FFF7F0FCD7
:101EA00004463BE04746C8F86000FFF7E9FC0646F9
:101EB00005E000BFFFF7E4FC801B02282BD8286850
:101EC0008001F7D4D4E907010843A16A2E4A4908E2
:101ED00002EB0141626A41EA8211084394F82C1036
:101EE00040EA0161C9F8001001203866FFF7C8FC1C
:101EF000044606E03EE000BFFFF7C2FC001B0228DC
:101F000009D828688001F7D534E000BFFFF7B8FC96
:101F1000001B022802D90320BDE8F88F2868800141
:101F2000F4D427E00128F7D0D9F80000E26900F4E2
:101F3000800191421CD1226A00F03F01914217D1E9
:101F400047F6C071626A0140B1EB821F10D1A26AEC
:101F50004FF0FF3300F4403103EB5202B1EB024F7C
:101F600006D194F82C1000F07060B0EB016F01D036
:101F70000120D1E70020CFE70438024000004742AB
:101F8000800E4742007000400000FFFF70B515460C
:101F90000E46040003D094F8490010B107E0012078
:101FA00070BD002084F84800204600F01DF804F1C0
:101FB00008012068FEF77AFA3146A2682068FEF729
:101FC000A9FAD4E901022946236BFEF751FA2168E8
:101FD000A06851F8202042F0010241F820200120A1
:101FE00084F84900002070BDFFF7ECBA10B5401E20
:101FF000B0F1807F01D3012010BD4FF0E02460617B
:102000000F21601701F03CFC0020A0610720206137
:10201000002010BD70B590F83C20012A32D0012478
:1020200080F83C40022280F83D2003685A689D6891
:1020300022F070060A6832435A60134B02689A42D3
:1020400014D0B2F1804F11D0104B9A420ED0104BE9
:102050009A420BD00F4B9A4208D00F4B9A4205D0B0
:102060000E4B9A4202D00E4B9A4204D1496825F099
:1020700080031943916080F83D40002180F83C10B6
:10208000084670BD022070BD000001400004004001
:1020900000080040000C00400004014000400140E6
:1020A0000018004010B5040003D094F83D0010B1B2
:1020B00007E0012010BD002084F83C00204600F01D
:1020C0001FF8022084F83D00211D206801F0ECF982
:1020D000012084F8460084F83E0084F83F0084F82C
:1020E000400084F8410084F8420084F8430084F8FA
:1020F000440084F8450084F83D00002010BD000035
:1021000008B500680649884208D10648016841F0D0
:1021100010010160006800F01000009008BD000090
:10212000001000404038024090F83D10012901D0D5
:1021300001207047022180F83D1000681149884253
:1021400014D0B0F1804F11D00F4988420ED00F4902
:1021500088420BD00E49884208D00E49884205D0EB
:102160000D49884202D00D49884204D1816801F0AE
:102170000701062903D0016841F001010160002038
:1021800070470000000001400004004000080040CB
:10219000000C0040000401400040014000180040D5
:1021A00001680A6A41F211131A4207D10A6A9B10A8
:1021B0001A4203D10A6822F001020A60012180F864
:1021C0003D1000207047704770470000F8B5016867
:1021D00004460868CA684B6910F00F0F4FF00005FD
:1021E00059D003F0010602F49077374365D0C10758
:1021F00005D0D10503D5216C41F0010121644107CF
:1022000005D5D90703D0216C41F002012164810773
:1022100005D5D90703D0216C41F0040121640107E1
:1022200007D502F02001314303D0216C41F00801B1
:102230002164216C00293AD0800604D5900602D58D
:10224000204601F0C4F920684069216CC0F3801079
:10225000090700D460B3204601F092F92068406974
:10226000400621D52068143050E8001F21F04001BD
:1022700040E80012002AF5D1A06BA8B16C490165B5
:10228000A06BFFF708F8002811D0A06B016D01B01A
:10229000BDE8F040084783060FD593060DD52046CC
:1022A000BDE8F84001F093B92046FFF78DFFF8BD77
:1022B0002046FFF789FF2564F8BD266B2023012EF9
:1022C00079D1C60677D5D60675D5086848680090D6
:1022D0004869400640D5A16B086840680004000CBE
:1022E000EAD0A28D8242E7D9E085C869B0F5807F47
:1022F0002DD020680C3050E8001F21F4807140E898
:102300000012002AF5D12068143050E8001F21F097
:10231000010140E80012002AF5D12068143050E88D
:10232000001F21F0400140E80012002AF5D184F896
:102330003E30256320680C3050E8001F21F010016A
:1023400040E80012002AF5D1A06BFEF75BFFA08DDC
:10235000E18D401A81B229E0A08DE18D401A81B251
:10236000E08D0028A8D00029A6D020680C3050E8C5
:10237000002F22F4907240E80026002EF5D120684C
:10238000143050E8002F22F0010240E80026002E11
:10239000F5D184F83E30256320680C3050E8002FDA
:1023A00022F0100240E80023002BF5D12046FFF771
:1023B0000AFFF8BDFFE705062BD5150629D594F8C9
:1023C0003D002128F5D1A068B0F5805F01D12069DA
:1023D000B0B1206A411C2162216800784860E08C1D
:1023E000401E0004000CE084E3D12068C16821F0A5
:1023F0008001C1602068C16841F04001C160D8E738
:10240000206A0088C0F308004860206A801C2062AF
:10241000E5E74006CDD55006CBD5CA68204622F068
:102420004002CA6084F83D3000F005F9C1E70000C1
:102430007135000870B5040004D094F83D00002503
:1024400010B106E0012070BD84F83C50204600F039
:1024500023F8242084F83D002068C16821F400514D
:10246000C160204601F014F92068016921F490410F
:1024700001612068416921F02A0141612068C16839
:1024800041F40051C1602564202084F83D0084F8A7
:102490003E00002070BD000010B586B00446142137
:1024A0006846FDF7C7FE18492068884229D11748B9
:1024B0000021026842F010020260006800F0100083
:1024C000059012481438026842F001020260006868
:1024D00000F0010005904FF4C06000900220CDE9AB
:1024E0000101032003900720049069460848FFF784
:1024F000BDF8002202212520FFF730FA2520FFF742
:102500001FFA06B010BD0000001001404438024020
:102510000000024090F83E30202B0ED159B152B14C
:1025200090F83C30012B08D0012380F83C30002388
:10253000036301F033B901207047022070470000A7
:1025400000680E49884218D10D4801780A290FD039
:10255000B0F80031421C9954B0F8001111F101019A
:10256000A0F800110649012201F58270FFF7D2BFE1
:10257000012180F802110021F2E7704700100140AC
:102580006C9101202DE9F843044690F83D001F4668
:1025900016460D4620284CD1C5B1BEB194F83C007A
:1025A000012846D0012084F83C004FF00008C4F810
:1025B0004080212084F83D00FFF762F9A68481461F
:1025C000E684A068B0F5805F03D004E00120BDE898
:1025D000F883206928B12E465FF0000584F83C801E
:1025E0000EE00026FAE78021204601F0F4F8A0B9B9
:1025F000AEB116F8010B21684860E08C401EE08403
:10260000E08C4B464FF0000200970028EBD14FF0D2
:102610004001204601F0DFF830B10320D7E735F85C
:10262000020BC0F30800E6E7202084F83D000020FC
:10263000CDE70220CBE77047FEE70000F0B50D4D77
:10264000002407466B882A882146204600F0AEF910
:102650002E88688800214643084600F08DF900F076
:10266000CDF94FF0D84002E0A0F88070641CB4426D
:10267000FAD3F0BD24000020F0B400271949F0225D
:102680002C242A254FF4A0732B2638B101280FD013
:102690004FF0010C022813D003281AD08F710A8042
:1026A0004B800C814D818E810020F0BC00F026B95A
:1026B0008F710A804B800C814D818E810320F4E75D
:1026C00081F806C00B804A800C814D818E810520E7
:1026D000EBE781F806C00B804A800C814D818E812A
:1026E0000620E2E72400002070B53220FEF758FFF4
:1026F000002000F0F7F874494FF6FF754FF0D8440A
:10270000888049F24132FF2804D3A84202D0B0F5B4
:10271000134F14D1D320A4F87E0000F0D9F888809C
:1027200000F0D6F8888000F0D3F805EA0020888011
:1027300000F0CEF88B881843888090427ED180B21A
:1027400090427CD1CF2024F87E0F00206080C120F1
:10275000608030206080ED20208064206080032035
:1027600060801220608081206080E82020808520A9
:102770006080102060807A206080CB20208039200B
:1027800060802C20608000206080342060800220E7
:102790006080F720208020206080EA2020800020B8
:1027A00060806080C02020801B206080C12020804D
:1027B00001206080C5202080302060806080C7209C
:1027C0002080B720608036202080482060803A201A
:1027D000208055206080B1202080002060801A2059
:1027E0006080B62020800A206080A2206080F220D5
:1027F0002080002060802620208001206080E02052
:1028000020800F2060802A2060802820608008209F
:1028100060800E2060800820608054206080A920A5
:102820006080432060800A2060800F20608000204C
:102830006080608060806080E12001E043E035E0FE
:102840002080002060801520608017206080072095
:10285000608011206080062060802B2060805620E0
:1028600060803C20608005206080102060800F2008
:1028700060803F20608060800F2060802B2020805F
:10288000002060806080012060803F2060802A20DE
:1028900020800020608060806080EF2060801120B8
:1028A00020807820FEF77CFE292020800020FFF782
:1028B000E3FE0122D1030548FEF7DDFF2846BDE80F
:1028C0007040FFF7BBBE70BD240000200004024032
:1028D00008B54FF0D840B0F88000ADF80000BDF862
:1028E000000008BD10B54FF0D841A1F87E000120CE
:1028F000FEF756FEBDE81040FFF7EABF1D4B10B5CE
:102900009A880021A2F51344413C32D1082812D202
:10291000DFE800F0110406080A0C0E1080210AE01E
:10292000402108E0C02106E0202104E0602102E00F
:10293000A02100E0E02141F00801362000F068F815
:102940004FF0D840598920F87E1F002141804180F6
:102950001988491E0A0A4280C9B2418099890180BA
:102960000021418041805988491E0A0A4280C9B22B
:10297000418010BD240000200B4B10B59A88A2F5B1
:102980001344413C0ED14FF0D8425C8922F87E4F6F
:10299000040A5480C0B2508098891080080A508080
:1029A000C8B2508010BD00002400002070B5024461
:1029B000521E94B2CA18104B521E95B29A88A2F5B4
:1029C0001346413E16D14FF0D8425E8922F87E6F01
:1029D000060A5680C0B25080200A5080E0B2508073
:1029E00098891080080A5080C8B25080280A508008
:1029F000E8B2508070BD00002400002003484FF072
:102A0000D8410089A1F87E00704700002400002012
:102A10004FF0D84222F87E0F518070470C4810B515
:102A20000A49016000212022C0E90112C160016150
:102A30004161816108210162FDF7E4FD002803D0B6
:102A4000BDE81040FDF712BD10BD000000000550AC
:102A500034900120094808B5016841F48001016003
:102A60000068002200F48000009011463920FEF733
:102A700075FFBDE808403920FEF762BF30380240DC
:102A800010B58EB01C216846FDF7D4FB1C2107A8A9
:102A9000FDF7D0FB1A484FF0204110220160194980
:102AA0004160062181600021C160C0E9041281619A
:102AB000C16113020162C0E909139302C0E90B135B
:102AC0004163816341640F203C230090CDE9010301
:102AD00003AC112384E80E0009240691CDE90740D8
:102AE0000AA8099480E80E000D9107AA69460448D7
:102AF000FFF74CFA002801D0FDF7B8FC0EB010BD6E
:102B0000D4900120040100A02DE9F04F87B01421DA
:102B10006846FDF78FFB5E480024016841F0100114
:102B20000160016801F010010591016841F00401A4
:102B30000160016801F004010591016841F0200184
:102B40000160016801F020010591016841F08001F8
:102B50000160016801F080010591016841F0010107
:102B60000160016801F001010591016841F0020175
:102B70000160016801F002010591016841F008015E
:102B80000160016801F008010591016841F0400110
:102B9000016000683F4F00F040004FF40055059081
:102BA000002229463846FEF766FEDFF8EC90002248
:102BB0004FF460614846FEF75EFEDFF8E0A048F2A1
:102BC0000106002231465046FEF755FEDFF8D0B030
:102BD0000122C0215846FEF74EFE4FF40248012262
:102BE00041463048FEF747FE00950125CDE90154E6
:102BF000694638460394FEF739FD4FF4C060CDE9CD
:102C00000005CDE9025469464846FEF72FFD0096BF
:102C1000CDE90154694650460394FEF727FD06208E
:102C20008DE8310069465046FEF720FDE80200902D
:102C3000CDE90154694648460394FEF717FD280282
:102C400000900226CDE90164039469461648049475
:102C5000FEF70CFD40201127CDE90007CDE9025415
:102C600069465846FEF702FD8020CDE90007CDE910
:102C7000025669465846FEF7F9FCCDE90085CDE9D4
:102C8000025669460748FEF7F1FC07B0BDE8F08F31
:102C900030380240000802400014024000040240A4
:102CA000000C024000180240000002401CB5002445
:102CB0000E4800940C49019401605321C0E90114AD
:102CC0004FF6FF718461C160FFF7ECF908B1FDF7C1
:102CD000CDFB0094694605480194FFF79BF9002855
:102CE00001D0FDF7C3FB1CBD001000402491012062
:102CF00010B50E4C0C480C2120604FF4E1306060A0
:102D00000020A060E060C4E90401A061E061204609
:102D1000FFF790FB08B1FDF7A9FB2068C16841F0FF
:102D20002001C16010BD0000001001407092012020
:102D3000FEE7FEE770B50446042802D2C4F10400A1
:102D400000E0201FC5B243F212260321304600F0F6
:102D500046FA2807010E45F2875000F040FA45F286
:102D60008850042C01D2092100E0012100F037FA3B
:102D70001321304600F033FA3046BDE87040A321FD
:102D800000F02DBA2DE9F041064643F21225032149
:102D9000284600F024FA1C2145F2813000F01FFA89
:102DA0005A2145F2823000F01AFA062145F28330AA
:102DB00000F015FA114906EB4600002401EB40062D
:102DC00045F28437315DE01900F009FA641CE4B281
:102DD000062CF7D3982145F28B3000F000FA012140
:102DE00045F28A3000F0FBF91321284600F0F7F98C
:102DF0002846BDE8F041A32100F0F1B91E510008BA
:102E000070B500252024072814D2DFE800F004065E
:102E100009130B0E1100142400E01824254609E0C4
:102E20001C24FBE71025242404E01825282401E0B5
:102E30001C252C2443F212260321304600F0CFF942
:102E4000294645F2855000F0CAF9214645F28650E0
:102E500000F0C5F91321304600F0C1F93046BDE855
:102E60007040A32100F0BBB92DE9F04143F22305E6
:102E700000240121284600F0B2F943F2220808217B
:102E8000404600F0ACF94FF47A76284600F03FF95E
:102E9000641CA4B20746B44216D80520FEF780FB96
:102EA000002FF2D10121284600F099F90421404673
:102EB00000F095F900242F46384600F028F9641CEC
:102EC000A4B20546B44202D90220BDE8F081052033
:102ED000FEF766FB002DEFD10020F6E72DE9F0416B
:102EE0004FF440584FF400452021404600F077F958
:102EF000274E002440F6ED77315D284600F06FF94B
:102F00006D1C641CA4B2ADB2BC42F5D3002143F2E7
:102F1000220000F064F9002143F2230000F05FF981
:102F2000002143F2240000F05AF9002143F2250069
:102F300000F055F9002143F2260000F050F900217D
:102F400043F2270000F04BF9002143F2280000F083
:102F500046F943F229067F21304600F040F900216E
:102F6000404600F03CF900244FF47A77304600F0F8
:102F7000CEF805460520FEF713FB641CA4B2BC4244
:102F800002D90120BDE8F081702DEFD10020F9E7D2
:102F9000E440000870B5294E00244FF40045224655
:102FA00029463046FEF767FC1420FEF7F9FA0022A6
:102FB000A9113046FEF75FFC0520FEF7F1FA012269
:102FC00029463046FEF757FC1420FEF7E9FA0520A3
:102FD000FEF7E6FA43F20A0000F099F84FF6FF71A7
:102FE00001EA002543F20B0000F091F82843A0F518
:102FF000AC41403905D0014611A000F031FC012060
:1030000070BD112143F2031000F0E9F8822143F270
:10301000080000F0E4F80A20FEF7C2FA0A4D00BFEB
:1030200005EB8400817835F8240000F0D8F8641CA2
:10303000A4B2CF2CF4D3002070BD000000180240D1
:1030400049443A25640D0A00A83D000870B50646BB
:1030500043F212250321284600F0C1F80B49002451
:10306000C6EBC600461804F55050315D00F0B7F8C5
:10307000641CE4B2072CF6D31321284600F0AFF805
:103080002846BDE87040A32100F0A9B8FB50000815
:103090002DE9F0410E46074643F212281C4615461C
:1030A0000321404600F09BF8290A43F6080000F08F
:1030B00096F8E9B243F6090000F091F8210A43F6C8
:1030C0000A0000F08CF8E1B243F60B0000F087F83C
:1030D000390A43F6100000F082F8F9B243F6110005
:1030E00000F07DF8310A43F6120000F078F8F1B2F2
:1030F00043F6130000F073F81321404600F06FF818
:10310000A321404600F06BF80020BDE8F08110B527
:10311000044600F0DDF8782000F018F9200A00F0ED
:1031200015F9E0B200F012F900F0F2F800F0D0F872
:10313000792000F00BF900F097F8044600F06EF8E3
:1031400000F0E6F8204610BD70B5074D002400BF22
:1031500005EB8400817835F8240000F040F8641C09
:10316000A4B22D2CF4D370BDF43C000870B5044615
:1031700045F20830851F212C05D2652100F02FF87B
:103180002146284627E0252100F029F808214FF4A0
:10319000A64000F024F8302145F2013000F01FF87D
:1031A0001021284600F01BF8002145F2033000F002
:1031B00016F8082145F2093000F011F8302145F2E7
:1031C0000A3000F00CF8042145F20B3000F007F84B
:1031D000062145F20C30BDE87040AFF3008070B5B9
:1031E0000E460546002400F073F8782000F0AEF893
:1031F00000B10124280A00F0A9F800B10124E8B2C6
:1032000000F0A4F800B10124304600F09FF800B1AE
:10321000012400F07DF8204670BD704710B50220F3
:1032200000F02AFC0F4C012280212046FEF723FBF0
:10323000012240212046FEF71EFB022000F01CFC6C
:10324000002240212046FEF716FB022000F014FC6D
:10325000002280212046FEF70EFBBDE81040022030
:1032600000F00ABC000C024070B5184C0025206824
:1032700020F440402060206820600826022000F0F2
:10328000FBFB012240212046FEF7F5FA6806050EF9
:1032900080212046FEF7E2FA08B16D1CEDB2022053
:1032A00000F0EAFB002240212046FEF7E4FA761EF9
:1032B00016F0FF06E2D1206820F44040206020682C
:1032C00040F480402060284670BD0000000C0240A1
:1032D00010B50E4C012280212046FEF7CCFA0122C7
:1032E00040212046FEF7C7FA022000F0C5FB00226D
:1032F00080212046FEF7BFFA022000F0BDFB2046E9
:103300000022BDE810404021FEF7B5BA000C024093
:1033100010B50D4C002280212046FEF7ACFA0220A9
:1033200000F0AAFB012240212046FEF7A4FA022069
:1033300000F0A2FB012280212046FEF79CFABDE8A6
:103340001040022000F098BB000C024070B5254EE2
:1033500005460024280601D5012200E00022802134
:103360003046FEF788FA6806050E022000F084FB5E
:10337000012240213046FEF77EFA022000F07CFB5D
:10338000002240213046FEF776FA641CE4B2082C95
:10339000E0D33068344620F440403060306830601C
:1033A000022000F069FB012240212046FEF763FA6B
:1033B000022000F061FB80212046FEF74FFA08B1A1
:1033C000012500E00025002240212046FEF753FAA7
:1033D000206820F440402060206840F48040206055
:1033E000284670BD000C02407047FEF74FBA00003F
:1033F00030B593B030216846FCF71CFF14210CA8AF
:10340000FCF718FF22480025016841F08051016057
:10341000006800F0805011901E48016841F480411E
:1034200001600068022400F48040119003200090A5
:103430004FF480300190012003901020049080040C
:10344000CDE9064008200890A820CDE90904042011
:103450000B906846FEF7E4FB08B172B6FEE70CA9D4
:103460000F2081E831004FF4A0500F904FF48050AE
:10347000109002210CA8FEF7A3FA08B172B6FEE77D
:10348000002211461046FEF785FB13B030BD000048
:1034900040380240007000400248016841F4700169
:1034A0000160704788ED00E0F0B50268254C264DBC
:1034B000264E274F274B4FF0804CA04209D0604545
:1034C00007D0A84205D0B04203D0B84201D09842FC
:1034D00004D122F0700E4A6842EA0E02A0421BD0CC
:1034E000604519D0A84217D0B04215D0B84213D0C9
:1034F000984211D0184DA8420ED0184DA8420BD0BA
:10350000174DA84208D0174DA84205D0164DA84225
:1035100002D0164DA84203D122F44075CA682A434E
:103520004D6922F080022A4302608A68C2620A68FA
:103530008262A04201D0984201D109690163012150
:103540004161F0BD0000014000040040000800405F
:10355000000C0040000401400040014000440140D4
:103560000048014000180040001C004000200040BE
:1035700010B5806B0021C185C184FEF725FE10BD0A
:1035800001680C3151E8002F22F4907241E80023C9
:10359000002BF5D10168143151E8002F22F001020F
:1035A00041E80023002BF5D1016B012909D1016805
:1035B0000C3151E8002F22F0100241E80023002BCB
:1035C000F5D1202180F83E1000210163704708B535
:1035D00090F83E10222901D0022008BD82684FF4E5
:1035E00080539A4201D1016921B1816A9A421BD06C
:1035F0004AB10AE00268816A5268C2F308020A808E
:10360000816A891C08E0026972B10268526802F09E
:103610007F020A70816A491C8162C18D491E0904BA
:10362000090CC18503D019E002685268F1E701680E
:10363000CA6822F02002CA600168CA6822F4807257
:10364000CA6001684A6922F001024A61202180F8BB
:103650003E10016B012903D0FEF772FF002008BD68
:103660000021016301680C3151E8002F22F01002A3
:1036700041E80023002BF5D101680A68D20602D583
:103680000A6849680091818DFEF79DFDE6E700001C
:1036900070B5044600680169E26821F440511143A5
:1036A00001612169A068E269084361691143084327
:1036B0002168CA6849F20C639A430243CA602068D1
:1036C0004169A26921F44071114341613149206887
:1036D000884202D03049884202D1FEF71BFA01E04D
:1036E000FEF708FAE2690023192164253226B2F5B3
:1036F000004F626828D0A0FB0101930F9200FCF7F5
:1037000061FD0146B0FBF5F06FF01802504301EB8C
:10371000800006EB0010B0FBF5F000F0F002B1FB0A
:10372000F5F002EB0012B1FBF5F06FF0180358430F
:1037300001EB800006EB0010B0FBF5F000F00F008D
:1037400021681044886070BDA0FB010192185B41A4
:10375000FCF738FD0146B0FBF5F00201B1FBF5F0D6
:103760006FF01803584301EB800006EBC000B0FB7C
:10377000F5F000F0F80002EB4002B1FBF5F0584321
:1037800001EB800006EBC000B0FBF5F000F0070095
:10379000D6E70000001001400014014081628285DC
:1037A000C28500210164222280F83E2080F83C106E
:1037B000016921B10168CA6842F48072CA60016877
:1037C0004A6942F001024A610068C16841F0200183
:1037D000C160002070472DE9F041984617460E461B
:1037E0000446069D27E0681C25D02DB1FEF748F859
:1037F000A0EB0800A8421ED920680C3050E8001F3A
:1038000021F4D07140E80012002AF5D1206814306C
:1038100050E8001F21F0010140E80012002AF5D114
:10382000202084F83D0084F83E00002084F83C000D
:103830000320BDE8F0812068006836EA000004D06B
:103840000020B842CFD00020F3E70120F9E70000C4
:103850000148FEF7BBBC000070920120FEE70000AB
:103860000FB4054B10B503A9044A029800F028F8DC
:1038700010BC5DF814FB0000A93A000820000020ED
:103880000907090E002804DB00F1E02080F800148D
:10389000704700F00F0000F1E02080F8141D704721
:1038A00002E008C8121F08C1002AFAD17047704709
:1038B000002001E001C1121F002AFBD17047000067
:1038C0002DE9FF4F8BB09A460F460546002606E0CD
:1038D00025280BD052460D9990476D1C761C2878F0
:1038E0000028F5D10FB03046BDE8F08F0024A04687
:1038F0000122604900E0044315F8013F203B02FA31
:1039000003F00842F7D128782E2817D115F8010FB7
:1039100044F004042A280ED06FF02F022878A0F17A
:10392000300109290AD808EB880102EB410100EBBC
:1039300001086D1CF2E757F8048B6D1C2878692884
:103940003ED006DC0028CDD063280BD0642804D1FB
:1039500036E0732810D075284BD052460D99904709
:10396000761C85E017F8040B8DF8000000208DF818
:103970000100E946012003E057F8049B4FF0FF30B7
:1039800061074FF0000401D40AE0641C44450DDADD
:103990008442FADB19F804100029F6D106E0641C11
:1039A0008442FCDB19F804100029F8D1264404E015
:1039B00019F8010B52460D999047641EF8D257E052
:1039C00001CF4FF00A0B002802DA40422D2102E01D
:1039D000210504D52B218DF82410012103E0E107F6
:1039E00005D02021F7E70DF1200908910CE0002116
:1039F000F9E701CF4FF00A0BF9E75946FCF733FC22
:103A000001F1300209F8012D0028F6D1ADEB0900D3
:103A100000F1200B600701D44FF00108D84502DD0A
:103A2000A8EB0B0000E000208046002406E009A877
:103A30005246005D0D999047641C761C089884429C
:103A4000F5DB04E0302052460D999047761CB8F122
:103A50000001A8F10108F5DC05E019F8010B524658
:103A60000D999047761CBBF10001ABF1010BF4DC22
:103A70006D1C34E70928010070B54FF6FA75281A55
:103A800084B20848FEF750FB064801684C620068A3
:103A900001E0416A8CB2AC42FBD3BDE87040014802
:103AA000FEF77EBB2491012013B54FF6FF73012270
:103AB00069460548FEF766FD034800680168C9438A
:103AC0004906FBD400981CBD70920120FDF7E6FE6C
:103AD000FFF78EFCFFF718F8FEF7BCFFFEF7D0FFEC
:103AE000FFF706F9FFF7E2F8FEF798FFFEF7FCFD97
:103AF00001223E493E48FEF70DFDFFF74BFA014615
:103B00003CA0FFF7ADFEFFF71FFBFFF7E7F9002032
:103B1000FFF79CFA0320FFF735F90420FFF70AF9B5
:103B20000320FFF76DF92120FFF720FBFFF79CF939
:103B3000F0234FF4A07200210420FFF7A9FA2B4CC8
:103B40004FF4C84594F802010128FBD1002084F805
:103B5000020130A1601CFCF778FBE8BB611C2FA0C0
:103B6000FFF77EFE2E4801782EA0FFF779FE314E3A
:103B70004FF400713046FDF776FE31153046FDF703
:103B800072FE0220FEF778FD2B4800214388028850
:103B90000846FEF70BFF00210846FEF7EDFEFEF794
:103BA0002DFF26480068C16841F00101C1602B4625
:103BB000234A00212148FCF701FE214B00204FF051
:103BC000D84100BF53F82020160CA1F88060A1F85E
:103BD0008020401CA84200E000E0F3D319A0FFF7CA
:103BE0003FFEFF21601CFCF725FBABE76C91012039
:103BF0007092012054686973204F56353634305F17
:103C0000696E697420726573756C74206973202500
:103C1000640D0A004C45440D0000000025730000AF
:103C20000C00002074656D702069732025640D0AF6
:103C30000000000000140240240000203490012005
:103C400034000020554152545F464C41470D0A0054
:103C5000004330001F50000035302100363069002D
:103C6000073C070020384600213820001438110096
:103C7000153811000038000001380000023800003B
:103C80000338000004380A0005383F0006380700F2
:103C900007389F0008380200093880000A38010000
:103CA0000B38E0000C380B000D381C000E380700F4
:103CB0000F38B000133804001836040012362B00F9
:103CC000093712000C3700000440060002300000E3
:103CD0000630FF0013470300074401000B46350080
:103CE0000C46220037481600243802000150A30079
:103CF0000335000000436F001F50010035304100C4
:103D000036306900073C07002038460021380000A3
:103D10001438310015383100003800000138000037
:103D2000023800000338000004380A0005383F005C
:103D3000063806000738A9000838050009380000D1
:103D40000A3802000B38D0000C3805000D38F80096
:103D50000E3803000F3884001338040018360000B2
:103D600012362900093752000C370300023A0200CC
:103D7000033AE000143A0200153AE0000440020061
:103D800002301C000630C300134703000744040040
:103D90000B4637000C462000374816002438040034
:103DA0000150A30003350000083042000331030036
:103DB0001730FF001830FF0034301A00373013007E
:103DC000083101003036360031360E003236E2005E
:103DD000333612002136E0000437A00003375A00C2
:103DE00015377800173701000B37600005371A00C8
:103DF000053902000639100001390A003137120076
:103E000000360800013633002D30600020365200A5
:103E10001B3720001C475000133A4300183A00009B
:103E2000193AF800353613003636030034364000B0
:103E300022360100013C3400043C2800053C980077
:103E4000063C0000073C0800083C0000093C1C0040
:103E50000A3C9C000B3C4000103800001138100058
:103E600012380000083764000140020005401A00C3
:103E7000003000000430FF000E3058002E300000EB
:103E8000004330001F5000000E4400000050A70007
:103E90000F3A3000103A28001B3A30001E3A260034
:103EA000113A60001F3A1400005823000158140012
:103EB00002580F0003580F0004581200055826003E
:103EC00006580C0007580800085805000958050056
:103ED0000A5808000B580D000C5808000D58030034
:103EE0000E5800000F580000105803001158090028
:103EF0001258070013580300145800001558010009
:103F0000165803001758080018580D0019580800D3
:103F10001A5805001B5806001C5808001D580E00B2
:103F20001E5829001F581700205811002158110051
:103F300022581500235828002458460025582600EA
:103F400026580800275826002858640029582600BB
:103F50002A5824002B5822002C5824002D582400C5
:103F60002E5806002F582200305840003158420089
:103F70003258240033582600345824003558220083
:103F80003658220037582600385844003958240043
:103F90003A5826003B5828003C5842003D58CE0075
:103FA0008051FF008151F2008251000083511400C2
:103FB000845125008551240086510900875109004C
:103FC00088510900895175008A5154008B51E000D5
:103FD0008C51B2008D5142008E513D008F515600E0
:103FE000905146009151F800925104009351700095
:103FF0009451F0009551F000965103009751010043
:1040000098510400995112009A5104009B510000EC
:104010009C5106009D5182009E5138008054010041
:1040200081540800825414008354280084545100A1
:10403000855465008654710087547D00885487003C
:10404000895491008A549A008B54AA008C54B80069
:104050008D54CD008E54DD008F54EA0090541D0025
:1040600081531E0082535B008353080084530A006F
:1040700085537E008653880087537C0088536C00EC
:10408000895310008A5301008B5398008055060015
:104090008355400084551000895510008A55000052
:1040A0008B55F8001D5040000053080001533000AC
:1040B000025310000353000004530800055330005E
:1040C0000653080007531600095308000A5330002E
:1040D0000B5304000C53060025500000083002006A
:1040E00040472100020FD6020A39C20122220002F3
:1040F0000FB2E51F7072F51ED235FFEF25E0244E9A
:10410000F8E4F608F60FBF34F2900E93E493FFE55F
:104110004BC39F50047F0580027FFB78BDA607122A
:104120000F0440047F0380027F3078BCA607E618A6
:10413000F608E678B9F678BCE678BAF678BF763352
:10414000E408F678B87601754A0278B6F608F6748F
:10415000FF78C1F608F6751F0178BCE675F005A476
:10416000F54B120AFFC2372278B8E6D3940040021A
:104170001622E51FB40523E4F51FC20178B6E6FE5A
:1041800008E6FF784EA60608A607A237E433F53CFA
:10419000903028F0751E10D23522E54B75F005845D
:1041A00078BCF6900E8CE493FF25E0240AF8E6FC38
:1041B00008E6FD78BCE625E0244EF8A60408A6052E
:1041C000EF120F0BD378B796EE1896400D78BCE639
:1041D00078B9F678B6A60608A607900E8CE4931276
:1041E0000F0BC378C296EE1896500D78BCE678BADD
:1041F000F678C1A60608A60778B6E6FE08E6C378F4
:10420000C296FFEE189678C3F608A607900E95E4BE
:1042100018120EE94002D23778BCE6082608F6E507
:104220001F6401704AE6C378C0120EDF4005120E0B
:10423000DA4039120F0240047FFE80027F0278BD0F
:10424000A60778B9E6240378BFF678B9E624FD78A6
:10425000C0F6120F02400678C0E6FF800478BFE681
:10426000FF78BEA607751F0278B8760102024AE5FC
:104270001F6402600302022A78BEE6FFC378C01200
:104280000EE04008120EDA5003020228120F02401C
:10429000047FFF80027F0178BDA60778B9E6047825
:1042A000BFF678B9E61478C0F618120F044004E699
:1042B000FF80027F0078BFA607D308E66480948061
:1042C0004004E6FF80027F0078C0A607C318E664BA
:1042D0008094B35004E6FF80027F3378BFA607C303
:1042E00008E6648094B35004E6FF80027F3378C010
:1042F000A607120F02400678C0E6FF800478BFE6EA
:10430000FF78BEA607751F0378B876018020E51FE9
:104310006403702678BEE6FFC378C0120EE0400545
:10432000120EDA400978B9E678BEF6751F0478BE39
:10433000E675F005A4F54B020AFFE51FB4041090E2
:104340000E94E478C3120EE94002D237751F05229D
:104350003001030204C03002030204C09051A5E002
:104360007893F6A3E008F6A3E008F6E51F703C7525
:104370001E20D235120C7A787EA60608A607788B06
:10438000A609187601120C5B784EA60608A60778D7
:104390008BE6786EF6751F017893E67890F6789440
:1043A000E67891F67895E67892F6227990E7D378D8
:1043B00093964005E796FF8008C37993E778909637
:1043C000FF7888760008A6077991E7D3789496401D
:1043D00005E796FF8008C37994E7789196FF120C61
:1043E0008E7992E7D37895964005E796FF8008C3CB
:1043F0007995E7789296FF120C8E120C5B788AE61C
:1044000025E0244EF8A60608A607788AE6246EF86A
:10441000A609788AE62401FFE433FED3EF940FEE79
:104420006480948040047F008005788AE604FF78E9
:104430008AA607E51FB4010AE660030204C0751FDF
:104440000222120C7A7880A60608A607120C7A7847
:1044500082A60608A607786EE6788CF6786EE6786F
:104460008DF67F01EF25E0244FF9C37881E6971898
:10447000E61997500A120C827880A60408A60574E3
:104480006E2FF9788CE6C3975008746E2FF8E67893
:104490008CF6EF25E0244FF9D37883E69718E619D8
:1044A00097400A120C827882A60408A605746E2F23
:1044B000F9788DE6D3974008746E2FF8E6788DF67C
:1044C0000FEF6410709EC37981E7788396FF19E738
:1044D00018967884F608A607C3798CE7788D960835
:1044E000F6D37981E7787F9619E71896400509E7B2
:1044F000088006C3797FE7788196FF19E71896FE52
:104500007886A60608A607798CE7D3788B964005AF
:10451000E796FF8008C3798BE7788C96FF788FA6A3
:1045200007E51F64027069900E9193FF18E6C39F20
:104530005072120C4A120C2F900E8E120C3878808A
:10454000120C6B7B04120C1DC31206455056900EC4
:1045500092E493FF788FE69F40028011900E90E4E2
:1045600093FFD37889E69F18E694004003751F05F2
:10457000120C4A120C2F900E8F120C38787E120CEF
:104580006B7B40120C1DD31206454018751F052287
:10459000E51FB4050FD201C202E4F51FF51ED235A6
:1045A000D233D23622EF8DF0A4A8F0CF8CF0A4281D
:1045B000CE8DF0A42EFE22BC000BBE0029EF8DF0A4
:1045C00084FFADF022E4CCF875F008EF2FFFEE3356
:1045D000FEEC33FCEE9DEC984005FCEE9DFE0FD505
:1045E000F0E9E4CEFD22EDF8F5F0EE8420D21CFED9
:1045F000ADF075F008EF2FFFED33FD400798500642
:10460000D5F0F222C398FD0FD5F0EA22E88FF0A48E
:10461000CC8BF0A42CFCE98EF0A42CFC8AF0EDA449
:104620002CFCEA8EF0A4CDA8F08BF0A42DCC38257C
:10463000F0FDE98FF0A42CCD35F0FCEB8EF0A4FE5C
:10464000A9F0EB8FF0A4CFC5F02ECD39FEE43CFCF1
:10465000EAA42DCE35F0FDE43CFC2275F00875820D
:1046600000EF2FFFEE33FECD33CDCC33CCC58233FC
:10467000C5829BED9AEC99E58298400CF582EE9B01
:10468000FEED9AFDEC99FC0FD5F0D6E4CEFBE4CD1F
:10469000FAE4CCF9A88222B800C1B90059BA002DB9
:1046A000EC8BF084CFCECDFCE5F0CBF97818EF2F72
:1046B000FFEE33FEED33FDEC33FCEB33FB10D703A1
:1046C000994004EB99FB0FD8E5E4F9FA227818EF4A
:1046D0002FFFEE33FEED33FDEC33FCC933C910D7A9
:1046E000059BE99A4007EC9BFCE99AF90FD8E0E4B6
:1046F000C9FAE4CCFB2275F010EF2FFFEE33FEED8C
:1047000033FDCC33CCC833C810D7079BEC9AE8995B
:10471000400AED9BFDEC9AFCE899F80FD5F0DAE43D
:10472000CDFBE4CCFAE4C8F922EB9FF5F0EA9E4217
:10473000F0E99D42F0E89C45F022E8600FECC313DD
:10474000FCED13FDEE13FEEF13FFD8F122E8600F2E
:10475000EFC333FFEE33FEED33FDEC33FCD8F12233
:10476000E493FC740193FD740293FE740393FF229F
:10477000E6FB08E6F908E6FA08E6CBF822ECF608CC
:10478000EDF608EEF608EFF622A42582F582E5F0B4
:104790003583F58322D083D082F8E49370127401BC
:1047A00093700DA3A393F8740193F5828883E47347
:1047B0007402936860EFA3A3A380DF90380478525B
:1047C000120BFD903800E0FEA3E0FDEDFFC3120BDD
:1047D0009E903810120B929038067854120BFD9070
:1047E0003802E0FEA3E0FDEDFFC3120B9E903812ED
:1047F000120B92A3E0B4310778527952120C139045
:104800003814E0B471157852E6FE08E67802CEC39B
:1048100013CE13D8F97953F7EE19F7903815E0B4A1
:10482000310778547954120C13903815E0B471158F
:104830007854E6FE08E67802CEC313CE13D8F97991
:1048400055F7EE19F77952120BD909120BD9AF4768
:10485000120BB2E544FB7A00FD7C001204D3785AB7
:10486000A60608A607AF45120BB2AD037C001204E2
:10487000D37856A60608A607AF487854120BB4E5BD
:1048800043FBFD7C001204D3785CA60608A607AFA4
:10489000467E007854120BB6AD037C001204D37828
:1048A00058A60608A607C3785BE6940818E69400A5
:1048B00050057600087608C3785DE6940818E694FB
:1048C0000050057600087608785A120BC6FFD37898
:1048D00057E69F18E69E400E785AE613FE08E678E3
:1048E00057120C0880047E007F00785E120BBEFF1A
:1048F000D37859E69F18E69E400E785CE613FE08D2
:10490000E67859120C0880047E007F00E4FCFD78F4
:1049100062120699785A120BC6785726FFEE18369F
:10492000FE7866120BBE785926FFEE1836FEE4FCC0
:10493000FD786A120699120BCE786612068CD31295
:1049400006454008120BCE78661206997854120B71
:10495000D0786A12068CD3120645400A7854120B9E
:10496000D0786A1206997861E6906001F07865E681
:10497000A3F07869E6A3F07855E6A3F07D017861AD
:10498000120BE92401120BA67865120BE92402121E
:104990000BA67869120BE92403120BA6786D120B93
:1049A000E92404120BA60DBD05D4C20EC206228551
:1049B0000841903024E0F53DA3E0F53EA3E0F53F4B
:1049C000A3E0F540A3E0F53CD234E5411206B1097D
:1049D0003103093504093B05093E06094107094A27
:1049E00008095B12097318098919095E1A096A1BFB
:1049F00009AD8009B2810A1D8F0A09900A1D910A2A
:104A00001D920A1D930A1D940A1D980A179F0A1ADF
:104A1000EC00000A38120F7422120F74D20322D253
:104A20000322C20322A237E433F53C020A1DC2016D
:104A3000C202C203120D0D751E70D235020A1D028C
:104A40000A0485404A853C4B120AFF020A1D854A2A
:104A500040854B3C020A1DE4F522F5238540318553
:104A60003F30853E2F853D2E120F46801F75220058
:104A700075230174FFF52DF52CF52BF52A120F4641
:104A8000852D40852C3F852B3E852A3DE4F53C80D5
:104A900070120F16806B853D45853E46E547C31372
:104AA000FFE545C39F50028F45E548C313FFE54628
:104AB000C39F50028F46E547C313FFFDE5452DFD1B
:104AC000E433FCE544120F904005E5449FF545E5CD
:104AD00048C313FFFDE5462DFDE433FCE543120F0B
:104AE000904005E5439FF5461206D780148540485F
:104AF000853F47853E46853D4580060206D7120D17
:104B00007E903024E53DF0A3E53EF0A3E53FF0A321
:104B1000E540F0A3E53CF0903023E4F022C0E0C093
:104B200083C082C0D0903F0CE0F532E53230E374B0
:104B3000303666906019E0F50AA3E0F50B90601D31
:104B4000E0F514A3E0F515906021E0F50CA3E0F585
:104B50000D906029E0F50EA3E0F50F906031E0F5CF
:104B600010A3E0F511906039E0F512A3E0F51330E1
:104B70000106303303D38001C3920930020630337B
:104B800003D38001C3920A30330C3003092002069C
:104B9000200103D38001C3920B903001E04440F028
:104BA000E054BFF0E53230E114303411903022E0AF
:104BB000F508E4F0300003D38001C39208E53230F9
:104BC000E5129056A1E0F509303109300503D38094
:104BD00001C3920D903F0CE532F0D0D0D082D0834B
:104BE000D0E032900E7EE493FE740193FFC3900EEA
:104BF0007C7401939FFFE4939EFEE48F3B8E3AF515
:104C000039F538AB3BAA3AA939A838AF4BFCFDFEC1
:104C1000120528120DE1E47BFFFAF9F81205B31230
:104C20000DE1900E69E4120DF6120DE1E4854A37AC
:104C3000F536F535F534AF37AE36AD35AC34A312B5
:104C40000DF68F378E368D358C34E53B4537F53B89
:104C5000E53A4536F53AE5394535F539E53845342F
:104C6000F538E4F522F523853B31853A3085392F37
:104C700085382E020F46E0A3E075F002A4FFAEF0E7
:104C8000C308E69FF618E69EF622FFE5F034608F33
:104C900082F583ECF02278527E00E6FC08E6FD0205
:104CA00004C1E4FCFD120699785CE6C313FE08E635
:104CB00013227852E6FE08E6FFE4FCFD22E7C4F882
:104CC00054F0C868F709E7C4540F48F722E6FCED32
:104CD00075F004A42212067C8F488E478D468C45C1
:104CE00022E0FEA3E0FDEEF6ED08F62213FFC3E698
:104CF0009FFF18E69EFE22E6C313F708E61309F7A6
:104D000022AD39AC38FAF9F81205288F3B8E3A8D6E
:104D1000398C38AB37AA36A935A8342293FFE4FC86
:104D2000FDFE1205288F378E368D358C342278841F
:104D3000E6FE08E6FFE48F378E36F535F53422902F
:104D40000E8CE49325E0240AF8E6FE08E6FF22E64E
:104D5000FE08E6FFE48F3B8E3AF539F53822784EAF
:104D6000E6FE08E6FF22EF25E0244EF8E6FC08E622
:104D7000FD227889EF26F618E436F6227589037548
:104D8000A80175B8047534FF75350E75361575377D
:104D90000D120E9A120009120F16120006D200D23E
:104DA00034D2AF7534FF75350E7536497537031239
:104DB0000E9A300809C2341208CBC208D234300B24
:104DC00009C23612026CC20BD236300909C2361241
:104DD000000EC209D236300E031206D73035D390FA
:104DE0003029E51EF0B41005903023E4F0C2358080
:104DF000C1E4F54B900E7A93FFE48F37F536F53525
:104E0000F534AF37AE36AD35AC34900E6A120DF6D0
:104E10008F378E368D358C34900E7212067CEF45AE
:104E200037F537EE4536F536ED4535F535EC453495
:104E3000F534E4F522F52385373185363085352F75
:104E400085342E120F46E4F522F523900E72120DD2
:104E5000EA120F46E4F522F523900E6E120DEA02D7
:104E60000F46E54024F2F537E53F3443F536E53E9D
:104E700034A2F535E53D3428F534E537FFE4FEFD91
:104E8000FC78181206698F408E3F8D3E8C3DE537C9
:104E900054A0FFE536FEE4FDFC78071206567810B4
:104EA000120F9AE4FFFEE535FDE4FC780E1206567B
:104EB000120F9DE4FFFEFDE534FC781812065678CB
:104EC00008120F9A228F3B8E3A8D398C38221206A7
:104ED0007C8F318E308D2F8C2E2293F9F80206694B
:104EE00000000000120117083115535444202020FF
:104EF00020201301100156401A30297E0030042072
:104F0000DF300540BF500300FD502701FE60001157
:104F1000003F0530003F0622003F012A003F02000B
:104F200000360607003F0B0FF00000000030014084
:104F3000BF300100BF302970003A0000FF3A000086
:104F4000FF360336024144582018100A04040003B7
:104F5000FF6400008000000000000002040606005C
:104F60000351007A503C281E1010502D28161010A6
:104F70000200100C10040C6E060500A55A00AE3598
:104F8000AF36E4FDEDC395375033120FE2E493F5ED
:104F900038740193F5394538602385398285388323
:104FA000E0FC120FE27403935204120FE2740293B6
:104FB0004204853982853883ECF00D80C72278BEA3
:104FC000E6D308FFE66480F8EF6480982293FF7EC2
:104FD00000E6FC08E6FD1204C178C1E6FC08E6FD27
:104FE000D3EF9DEE9C2278BDD3E664809480222589
:104FF000E0240AF8E6FE08E6FF22E53CD3940040F0
:105000000B900E88120BF1900E868009900E821282
:105010000BF1900E80E493F544A3E493F543D2069C
:10502000300603D38001C3920E22A2AF9232C2AFE8
:10503000E5234522900E5D600E120FCBE0F52C1299
:105040000FC8E0F52D800C120FCBE530F0120FC821
:10505000E531F0A23292AF22D201C202E4F51FF58F
:105060001ED235D233D236D201C202F51FF51ED27E
:1050700035D23322FBD3ED9B7480F86C9822120654
:1050800069E5402FF540E53F3EF53FE53E3DF53E05
:10509000E53D3CF53D22C0E0C083C082903F0DE07D
:1050A000F533E533F0D082D083D0E032900E5FE468
:1050B00093FE740193F5828E8322787FE4F6D8FD07
:1050C0007581CD020C988F828E8375F004ED0206F7
:1050D000A510081008201020184120181030286151
:1050E0003028103830613830104038714038105056
:1050F00048905048206058A06058200400040004E4
:105100000000061C040004F3010548040007CF0159
:105110000648040004D301041004000840010C30C8
:105120003D3E3D01103D4D4E4D01155266686602F3
:105130001A66808280021F7A9A9C9A02248FB3B6E4
:10514000B3032BABD6DAD6040640101EA0401E8057
:10515000C01E80801E40A04040101E6060000610EF
:1051600016000610160000000000000000010203F7
:105170000406070809000000000102030400000003
:10518000B05100080000002024000000A0380008F2
:10519000D45100082400002090920100B03800088B
:1051A000D451000800C0012000200000B0380008E1
:1051B00000000000000000000000000002000000ED
:1051C0000100000010000000000000000024F400B6
:0451D00000000000DB
:040000050800018965
:00000001FF
